{"contracts/BrazilianDebentureCloneable.sol":{"BrazilianDebentureCloneable":{"abi":[{"inputs":[],"stateMutability":"nonpayable","type":"constructor"},{"inputs":[],"name":"AccessControlBadConfirmation","type":"error"},{"inputs":[{"internalType":"address","name":"account","type":"address"},{"internalType":"bytes32","name":"neededRole","type":"bytes32"}],"name":"AccessControlUnauthorizedAccount","type":"error"},{"inputs":[{"internalType":"address","name":"spender","type":"address"},{"internalType":"uint256","name":"allowance","type":"uint256"},{"internalType":"uint256","name":"needed","type":"uint256"}],"name":"ERC20InsufficientAllowance","type":"error"},{"inputs":[{"internalType":"address","name":"sender","type":"address"},{"internalType":"uint256","name":"balance","type":"uint256"},{"internalType":"uint256","name":"needed","type":"uint256"}],"name":"ERC20InsufficientBalance","type":"error"},{"inputs":[{"internalType":"address","name":"approver","type":"address"}],"name":"ERC20InvalidApprover","type":"error"},{"inputs":[{"internalType":"address","name":"receiver","type":"address"}],"name":"ERC20InvalidReceiver","type":"error"},{"inputs":[{"internalType":"address","name":"sender","type":"address"}],"name":"ERC20InvalidSender","type":"error"},{"inputs":[{"internalType":"address","name":"spender","type":"address"}],"name":"ERC20InvalidSpender","type":"error"},{"inputs":[],"name":"EnforcedPause","type":"error"},{"inputs":[],"name":"ExpectedPause","type":"error"},{"inputs":[],"name":"InvalidInitialization","type":"error"},{"inputs":[],"name":"NotInitializing","type":"error"},{"inputs":[],"name":"ReentrancyGuardReentrantCall","type":"error"},{"inputs":[{"internalType":"address","name":"token","type":"address"}],"name":"SafeERC20FailedOperation","type":"error"},{"anonymous":false,"inputs":[{"indexed":true,"internalType":"uint256","name":"scheduleIndex","type":"uint256"},{"indexed":false,"internalType":"uint256","name":"amount","type":"uint256"}],"name":"AmortizationExecuted","type":"event"},{"anonymous":false,"inputs":[{"indexed":true,"internalType":"address","name":"owner","type":"address"},{"indexed":true,"internalType":"address","name":"spender","type":"address"},{"indexed":false,"internalType":"uint256","name":"value","type":"uint256"}],"name":"Approval","type":"event"},{"anonymous":false,"inputs":[{"indexed":true,"internalType":"address","name":"account","type":"address"},{"indexed":false,"internalType":"bool","name":"status","type":"bool"}],"name":"BlacklistUpdated","type":"event"},{"anonymous":false,"inputs":[{"indexed":true,"internalType":"address","name":"holder","type":"address"},{"indexed":true,"internalType":"uint256","name":"couponIndex","type":"uint256"},{"indexed":false,"internalType":"uint256","name":"amount","type":"uint256"}],"name":"CouponClaimed","type":"event"},{"anonymous":false,"inputs":[{"indexed":true,"internalType":"uint256","name":"couponIndex","type":"uint256"},{"indexed":false,"internalType":"uint256","name":"puPerUnit","type":"uint256"},{"indexed":false,"internalType":"uint256","name":"totalAmount","type":"uint256"}],"name":"CouponRecorded","type":"event"},{"anonymous":false,"inputs":[{"indexed":true,"internalType":"string","name":"isinCode","type":"string"},{"indexed":false,"internalType":"uint256","name":"vne","type":"uint256"},{"indexed":false,"internalType":"uint256","name":"totalSupply","type":"uint256"},{"indexed":false,"internalType":"enum BrazilianDebentureCloneable.RateType","name":"rateType","type":"uint8"}],"name":"DebentureInitialized","type":"event"},{"anonymous":false,"inputs":[{"indexed":false,"internalType":"uint64","name":"version","type":"uint64"}],"name":"Initialized","type":"event"},{"anonymous":false,"inputs":[{"indexed":false,"internalType":"address","name":"account","type":"address"}],"name":"Paused","type":"event"},{"anonymous":false,"inputs":[{"indexed":true,"internalType":"bytes32","name":"role","type":"bytes32"},{"indexed":true,"internalType":"bytes32","name":"previousAdminRole","type":"bytes32"},{"indexed":true,"internalType":"bytes32","name":"newAdminRole","type":"bytes32"}],"name":"RoleAdminChanged","type":"event"},{"anonymous":false,"inputs":[{"indexed":true,"internalType":"bytes32","name":"role","type":"bytes32"},{"indexed":true,"internalType":"address","name":"account","type":"address"},{"indexed":true,"internalType":"address","name":"sender","type":"address"}],"name":"RoleGranted","type":"event"},{"anonymous":false,"inputs":[{"indexed":true,"internalType":"bytes32","name":"role","type":"bytes32"},{"indexed":true,"internalType":"address","name":"account","type":"address"},{"indexed":true,"internalType":"address","name":"sender","type":"address"}],"name":"RoleRevoked","type":"event"},{"anonymous":false,"inputs":[{"indexed":false,"internalType":"enum BrazilianDebentureCloneable.DebentureStatus","name":"oldStatus","type":"uint8"},{"indexed":false,"internalType":"enum BrazilianDebentureCloneable.DebentureStatus","name":"newStatus","type":"uint8"}],"name":"StatusChanged","type":"event"},{"anonymous":false,"inputs":[{"indexed":true,"internalType":"address","name":"from","type":"address"},{"indexed":true,"internalType":"address","name":"to","type":"address"},{"indexed":false,"internalType":"uint256","name":"value","type":"uint256"}],"name":"Transfer","type":"event"},{"anonymous":false,"inputs":[{"indexed":false,"internalType":"address","name":"account","type":"address"}],"name":"Unpaused","type":"event"},{"anonymous":false,"inputs":[{"indexed":false,"internalType":"uint256","name":"newValue","type":"uint256"},{"indexed":false,"internalType":"uint256","name":"indexValue","type":"uint256"},{"indexed":false,"internalType":"uint256","name":"factor","type":"uint256"}],"name":"VNAUpdated","type":"event"},{"anonymous":false,"inputs":[{"indexed":true,"internalType":"address","name":"account","type":"address"},{"indexed":false,"internalType":"bool","name":"status","type":"bool"}],"name":"WhitelistUpdated","type":"event"},{"inputs":[],"name":"ADMIN_ROLE","outputs":[{"internalType":"bytes32","name":"","type":"bytes32"}],"stateMutability":"view","type":"function"},{"inputs":[],"name":"BLACKLISTED","outputs":[{"internalType":"uint8","name":"","type":"uint8"}],"stateMutability":"view","type":"function"},{"inputs":[],"name":"BUSINESS_DAYS_YEAR","outputs":[{"internalType":"uint256","name":"","type":"uint256"}],"stateMutability":"view","type":"function"},{"inputs":[],"name":"DEFAULT_ADMIN_ROLE","outputs":[{"internalType":"bytes32","name":"","type":"bytes32"}],"stateMutability":"view","type":"function"},{"inputs":[],"name":"ISSUER_ROLE","outputs":[{"internalType":"bytes32","name":"","type":"bytes32"}],"stateMutability":"view","type":"function"},{"inputs":[],"name":"LOCK_UP_PERIOD","outputs":[{"internalType":"uint8","name":"","type":"uint8"}],"stateMutability":"view","type":"function"},{"inputs":[],"name":"NOT_WHITELISTED","outputs":[{"internalType":"uint8","name":"","type":"uint8"}],"stateMutability":"view","type":"function"},{"inputs":[],"name":"PAUSED","outputs":[{"internalType":"uint8","name":"","type":"uint8"}],"stateMutability":"view","type":"function"},{"inputs":[],"name":"PRECISION_PERCENT_DI","outputs":[{"internalType":"uint256","name":"","type":"uint256"}],"stateMutability":"view","type":"function"},{"inputs":[],"name":"PRECISION_PU","outputs":[{"internalType":"uint256","name":"","type":"uint256"}],"stateMutability":"view","type":"function"},{"inputs":[],"name":"PRECISION_RATE","outputs":[{"internalType":"uint256","name":"","type":"uint256"}],"stateMutability":"view","type":"function"},{"inputs":[],"name":"SUCCESS","outputs":[{"internalType":"uint8","name":"","type":"uint8"}],"stateMutability":"view","type":"function"},{"inputs":[],"name":"TRUSTEE_ROLE","outputs":[{"internalType":"bytes32","name":"","type":"bytes32"}],"stateMutability":"view","type":"function"},{"inputs":[],"name":"WHITELIST_ADMIN_ROLE","outputs":[{"internalType":"bytes32","name":"","type":"bytes32"}],"stateMutability":"view","type":"function"},{"inputs":[],"name":"accumulatedDIFactor","outputs":[{"internalType":"uint256","name":"","type":"uint256"}],"stateMutability":"view","type":"function"},{"inputs":[{"internalType":"address","name":"account","type":"address"}],"name":"addToBlacklist","outputs":[],"stateMutability":"nonpayable","type":"function"},{"inputs":[{"internalType":"address","name":"account","type":"address"}],"name":"addToWhitelist","outputs":[],"stateMutability":"nonpayable","type":"function"},{"inputs":[{"internalType":"address","name":"owner","type":"address"},{"internalType":"address","name":"spender","type":"address"}],"name":"allowance","outputs":[{"internalType":"uint256","name":"","type":"uint256"}],"stateMutability":"view","type":"function"},{"inputs":[{"internalType":"uint256","name":"","type":"uint256"}],"name":"amortizationSchedule","outputs":[{"internalType":"uint256","name":"date","type":"uint256"},{"internalType":"uint256","name":"percentOrValue","type":"uint256"},{"internalType":"bool","name":"executed","type":"bool"}],"stateMutability":"view","type":"function"},{"inputs":[{"internalType":"address","name":"spender","type":"address"},{"internalType":"uint256","name":"value","type":"uint256"}],"name":"approve","outputs":[{"internalType":"bool","name":"","type":"bool"}],"stateMutability":"nonpayable","type":"function"},{"inputs":[{"internalType":"address","name":"account","type":"address"}],"name":"balanceOf","outputs":[{"internalType":"uint256","name":"","type":"uint256"}],"stateMutability":"view","type":"function"},{"inputs":[{"internalType":"address[]","name":"accounts","type":"address[]"}],"name":"batchAddToWhitelist","outputs":[],"stateMutability":"nonpayable","type":"function"},{"inputs":[{"internalType":"address","name":"","type":"address"}],"name":"blacklist","outputs":[{"internalType":"bool","name":"","type":"bool"}],"stateMutability":"view","type":"function"},{"inputs":[],"name":"claimAllCoupons","outputs":[],"stateMutability":"nonpayable","type":"function"},{"inputs":[{"internalType":"uint256","name":"couponIndex","type":"uint256"}],"name":"claimCoupon","outputs":[],"stateMutability":"nonpayable","type":"function"},{"inputs":[{"internalType":"address","name":"","type":"address"},{"internalType":"uint256","name":"","type":"uint256"}],"name":"couponClaimed","outputs":[{"internalType":"bool","name":"","type":"bool"}],"stateMutability":"view","type":"function"},{"inputs":[{"internalType":"uint256","name":"","type":"uint256"}],"name":"couponRecords","outputs":[{"internalType":"uint256","name":"date","type":"uint256"},{"internalType":"uint256","name":"puPerUnit","type":"uint256"},{"internalType":"uint256","name":"totalAmount","type":"uint256"},{"internalType":"bool","name":"distributed","type":"bool"}],"stateMutability":"view","type":"function"},{"inputs":[],"name":"decimals","outputs":[{"internalType":"uint8","name":"","type":"uint8"}],"stateMutability":"pure","type":"function"},{"inputs":[],"name":"declareDefault","outputs":[],"stateMutability":"nonpayable","type":"function"},{"inputs":[],"name":"declareMaturity","outputs":[],"stateMutability":"nonpayable","type":"function"},{"inputs":[{"internalType":"uint256","name":"amount","type":"uint256"}],"name":"depositPaymentTokens","outputs":[],"stateMutability":"nonpayable","type":"function"},{"inputs":[{"internalType":"address","name":"from","type":"address"},{"internalType":"address","name":"to","type":"address"},{"internalType":"uint256","name":"","type":"uint256"}],"name":"detectTransferRestriction","outputs":[{"internalType":"uint8","name":"","type":"uint8"}],"stateMutability":"view","type":"function"},{"inputs":[],"name":"earlyRedemption","outputs":[],"stateMutability":"nonpayable","type":"function"},{"inputs":[{"internalType":"uint256","name":"scheduleIndex","type":"uint256"}],"name":"executeAmortization","outputs":[],"stateMutability":"nonpayable","type":"function"},{"inputs":[],"name":"getAmortizationScheduleLength","outputs":[{"internalType":"uint256","name":"","type":"uint256"}],"stateMutability":"view","type":"function"},{"inputs":[],"name":"getCouponCount","outputs":[{"internalType":"uint256","name":"","type":"uint256"}],"stateMutability":"view","type":"function"},{"inputs":[{"internalType":"address","name":"holder","type":"address"}],"name":"getPendingClaims","outputs":[{"internalType":"uint256[]","name":"","type":"uint256[]"}],"stateMutability":"view","type":"function"},{"inputs":[{"internalType":"bytes32","name":"role","type":"bytes32"}],"name":"getRoleAdmin","outputs":[{"internalType":"bytes32","name":"","type":"bytes32"}],"stateMutability":"view","type":"function"},{"inputs":[],"name":"getTerms","outputs":[{"components":[{"internalType":"uint256","name":"vne","type":"uint256"},{"internalType":"uint256","name":"totalSupplyUnits","type":"uint256"},{"internalType":"uint256","name":"issueDate","type":"uint256"},{"internalType":"uint256","name":"maturityDate","type":"uint256"},{"internalType":"uint8","name":"anniversaryDay","type":"uint8"},{"internalType":"uint256","name":"lockUpEndDate","type":"uint256"},{"internalType":"enum BrazilianDebentureCloneable.RateType","name":"rateType","type":"uint8"},{"internalType":"uint256","name":"fixedRate","type":"uint256"},{"internalType":"uint8","name":"percentDI","type":"uint8"},{"internalType":"uint256","name":"couponFrequencyDays","type":"uint256"},{"internalType":"enum BrazilianDebentureCloneable.AmortizationType","name":"amortType","type":"uint8"},{"internalType":"string","name":"isinCode","type":"string"},{"internalType":"string","name":"cetipCode","type":"string"},{"internalType":"string","name":"series","type":"string"},{"internalType":"bool","name":"hasRepactuacao","type":"bool"},{"internalType":"bool","name":"hasEarlyRedemption","type":"bool"},{"internalType":"bytes32","name":"comboId","type":"bytes32"}],"internalType":"struct BrazilianDebentureCloneable.DebentureTerms","name":"","type":"tuple"}],"stateMutability":"view","type":"function"},{"inputs":[],"name":"getVNA","outputs":[{"components":[{"internalType":"uint256","name":"value","type":"uint256"},{"internalType":"uint256","name":"lastUpdateDate","type":"uint256"},{"internalType":"uint256","name":"lastIndexValue","type":"uint256"},{"internalType":"uint256","name":"accumulatedFactor","type":"uint256"}],"internalType":"struct BrazilianDebentureCloneable.VNARecord","name":"","type":"tuple"}],"stateMutability":"view","type":"function"},{"inputs":[{"internalType":"bytes32","name":"role","type":"bytes32"},{"internalType":"address","name":"account","type":"address"}],"name":"grantRole","outputs":[],"stateMutability":"nonpayable","type":"function"},{"inputs":[{"internalType":"bytes32","name":"role","type":"bytes32"},{"internalType":"address","name":"account","type":"address"}],"name":"hasRole","outputs":[{"internalType":"bool","name":"","type":"bool"}],"stateMutability":"view","type":"function"},{"inputs":[{"internalType":"string","name":"initName","type":"string"},{"internalType":"string","name":"initSymbol","type":"string"},{"components":[{"internalType":"uint256","name":"vne","type":"uint256"},{"internalType":"uint256","name":"totalSupplyUnits","type":"uint256"},{"internalType":"uint256","name":"issueDate","type":"uint256"},{"internalType":"uint256","name":"maturityDate","type":"uint256"},{"internalType":"uint8","name":"anniversaryDay","type":"uint8"},{"internalType":"uint256","name":"lockUpEndDate","type":"uint256"},{"internalType":"enum BrazilianDebentureCloneable.RateType","name":"rateType","type":"uint8"},{"internalType":"uint256","name":"fixedRate","type":"uint256"},{"internalType":"uint8","name":"percentDI","type":"uint8"},{"internalType":"uint256","name":"couponFrequencyDays","type":"uint256"},{"internalType":"enum BrazilianDebentureCloneable.AmortizationType","name":"amortType","type":"uint8"},{"internalType":"string","name":"isinCode","type":"string"},{"internalType":"string","name":"cetipCode","type":"string"},{"internalType":"string","name":"series","type":"string"},{"internalType":"bool","name":"hasRepactuacao","type":"bool"},{"internalType":"bool","name":"hasEarlyRedemption","type":"bool"},{"internalType":"bytes32","name":"comboId","type":"bytes32"}],"internalType":"struct BrazilianDebentureCloneable.DebentureTerms","name":"initTerms","type":"tuple"},{"internalType":"address","name":"initOracle","type":"address"},{"internalType":"address","name":"initPaymentToken","type":"address"},{"internalType":"address","name":"initIssuer","type":"address"},{"internalType":"address","name":"initTrustee","type":"address"}],"name":"initialize","outputs":[],"stateMutability":"nonpayable","type":"function"},{"inputs":[],"name":"isInitialized","outputs":[{"internalType":"bool","name":"","type":"bool"}],"stateMutability":"view","type":"function"},{"inputs":[],"name":"issuer","outputs":[{"internalType":"address","name":"","type":"address"}],"stateMutability":"view","type":"function"},{"inputs":[],"name":"lastDIUpdateDate","outputs":[{"internalType":"uint256","name":"","type":"uint256"}],"stateMutability":"view","type":"function"},{"inputs":[{"internalType":"uint8","name":"restrictionCode","type":"uint8"}],"name":"messageForTransferRestriction","outputs":[{"internalType":"string","name":"","type":"string"}],"stateMutability":"pure","type":"function"},{"inputs":[],"name":"name","outputs":[{"internalType":"string","name":"","type":"string"}],"stateMutability":"view","type":"function"},{"inputs":[],"name":"oracle","outputs":[{"internalType":"contract IBrazilianMacroOracleClone","name":"","type":"address"}],"stateMutability":"view","type":"function"},{"inputs":[],"name":"pause","outputs":[],"stateMutability":"nonpayable","type":"function"},{"inputs":[],"name":"paused","outputs":[{"internalType":"bool","name":"","type":"bool"}],"stateMutability":"view","type":"function"},{"inputs":[],"name":"paymentToken","outputs":[{"internalType":"contract IERC20","name":"","type":"address"}],"stateMutability":"view","type":"function"},{"inputs":[{"internalType":"uint256","name":"puPerUnit","type":"uint256"},{"internalType":"uint256","name":"totalAmount","type":"uint256"}],"name":"recordCoupon","outputs":[],"stateMutability":"nonpayable","type":"function"},{"inputs":[{"internalType":"address","name":"account","type":"address"}],"name":"removeFromBlacklist","outputs":[],"stateMutability":"nonpayable","type":"function"},{"inputs":[{"internalType":"address","name":"account","type":"address"}],"name":"removeFromWhitelist","outputs":[],"stateMutability":"nonpayable","type":"function"},{"inputs":[{"internalType":"bytes32","name":"role","type":"bytes32"},{"internalType":"address","name":"callerConfirmation","type":"address"}],"name":"renounceRole","outputs":[],"stateMutability":"nonpayable","type":"function"},{"inputs":[{"internalType":"bytes32","name":"role","type":"bytes32"},{"internalType":"address","name":"account","type":"address"}],"name":"revokeRole","outputs":[],"stateMutability":"nonpayable","type":"function"},{"inputs":[{"components":[{"internalType":"uint256","name":"date","type":"uint256"},{"internalType":"uint256","name":"percentOrValue","type":"uint256"},{"internalType":"bool","name":"executed","type":"bool"}],"internalType":"struct BrazilianDebentureCloneable.AmortizationSchedule[]","name":"schedule","type":"tuple[]"}],"name":"setAmortizationSchedule","outputs":[],"stateMutability":"nonpayable","type":"function"},{"inputs":[],"name":"status","outputs":[{"internalType":"enum BrazilianDebentureCloneable.DebentureStatus","name":"","type":"uint8"}],"stateMutability":"view","type":"function"},{"inputs":[{"internalType":"bytes4","name":"interfaceId","type":"bytes4"}],"name":"supportsInterface","outputs":[{"internalType":"bool","name":"","type":"bool"}],"stateMutability":"view","type":"function"},{"inputs":[],"name":"symbol","outputs":[{"internalType":"string","name":"","type":"string"}],"stateMutability":"view","type":"function"},{"inputs":[],"name":"terms","outputs":[{"internalType":"uint256","name":"vne","type":"uint256"},{"internalType":"uint256","name":"totalSupplyUnits","type":"uint256"},{"internalType":"uint256","name":"issueDate","type":"uint256"},{"internalType":"uint256","name":"maturityDate","type":"uint256"},{"internalType":"uint8","name":"anniversaryDay","type":"uint8"},{"internalType":"uint256","name":"lockUpEndDate","type":"uint256"},{"internalType":"enum BrazilianDebentureCloneable.RateType","name":"rateType","type":"uint8"},{"internalType":"uint256","name":"fixedRate","type":"uint256"},{"internalType":"uint8","name":"percentDI","type":"uint8"},{"internalType":"uint256","name":"couponFrequencyDays","type":"uint256"},{"internalType":"enum BrazilianDebentureCloneable.AmortizationType","name":"amortType","type":"uint8"},{"internalType":"string","name":"isinCode","type":"string"},{"internalType":"string","name":"cetipCode","type":"string"},{"internalType":"string","name":"series","type":"string"},{"internalType":"bool","name":"hasRepactuacao","type":"bool"},{"internalType":"bool","name":"hasEarlyRedemption","type":"bool"},{"internalType":"bytes32","name":"comboId","type":"bytes32"}],"stateMutability":"view","type":"function"},{"inputs":[],"name":"totalAmortized","outputs":[{"internalType":"uint256","name":"","type":"uint256"}],"stateMutability":"view","type":"function"},{"inputs":[],"name":"totalSupply","outputs":[{"internalType":"uint256","name":"","type":"uint256"}],"stateMutability":"view","type":"function"},{"inputs":[{"internalType":"address","name":"to","type":"address"},{"internalType":"uint256","name":"value","type":"uint256"}],"name":"transfer","outputs":[{"internalType":"bool","name":"","type":"bool"}],"stateMutability":"nonpayable","type":"function"},{"inputs":[{"internalType":"address","name":"from","type":"address"},{"internalType":"address","name":"to","type":"address"},{"internalType":"uint256","name":"value","type":"uint256"}],"name":"transferFrom","outputs":[{"internalType":"bool","name":"","type":"bool"}],"stateMutability":"nonpayable","type":"function"},{"inputs":[],"name":"trustee","outputs":[{"internalType":"address","name":"","type":"address"}],"stateMutability":"view","type":"function"},{"inputs":[],"name":"unpause","outputs":[],"stateMutability":"nonpayable","type":"function"},{"inputs":[],"name":"vnaRecord","outputs":[{"internalType":"uint256","name":"value","type":"uint256"},{"internalType":"uint256","name":"lastUpdateDate","type":"uint256"},{"internalType":"uint256","name":"lastIndexValue","type":"uint256"},{"internalType":"uint256","name":"accumulatedFactor","type":"uint256"}],"stateMutability":"view","type":"function"},{"inputs":[{"internalType":"address","name":"","type":"address"}],"name":"whitelist","outputs":[{"internalType":"bool","name":"","type":"bool"}],"stateMutability":"view","type":"function"},{"inputs":[{"internalType":"uint256","name":"amount","type":"uint256"}],"name":"withdrawPaymentTokens","outputs":[],"stateMutability":"nonpayable","type":"function"}],"evm":{"bytecode":{"linkReferences":{},"object":"6080604052346200036e576200001462000373565b6200001e62000373565b815190916001600160401b038083116200026e576003928354936001918286811c961694851562000363575b602095868810146200034d578190601f97888111620002f7575b508690888311600114620002905760009262000284575b505060001982841b1c191690831b1781555b8551908382116200026e5760049586548481811c9116801562000263575b878210146200024e5781811162000203575b508590831160011462000199578293949596976000936200018d575b505082841b92600019911b1c19161784555b6006557ff0c57e16840df040f15088dc2f81fe391c3923bec73e23a9662efc9c229c6a0080549360ff8560401c166200017e575081808516036200013a575b60405161411a9081620003988239f35b6001600160401b031990931681179092556040519182527fc7f505b2f371ae2175ee4913f4499e1f2633a7b5936321eed1cdaeb6115181d291a1388080806200012a565b60405163f92ee8a960e01b8152fd5b015191503880620000d9565b90601f1983169187600052866000209260005b818110620001ed57509884869798999a10620001d2575b50505050811b018455620000eb565b01519060f884600019921b161c1916905538808080620001c3565b8a830151855593860193918801918801620001ac565b87600052866000208280860160051c82019289871062000244575b0160051c019085905b82811062000237575050620000bd565b6000815501859062000227565b925081926200021e565b602288634e487b7160e01b6000525260246000fd5b90607f1690620000ab565b634e487b7160e01b600052604160045260246000fd5b0151905038806200007b565b90859350601f1983169185600052886000209260005b8a828210620002e05750508411620002c7575b505050811b0181556200008d565b015160001983861b60f8161c19169055388080620002b9565b8385015186558997909501949384019301620002a6565b90915083600052866000208880850160051c82019289861062000343575b918791869594930160051c01915b8281106200033357505062000064565b6000815585945087910162000323565b9250819262000315565b634e487b7160e01b600052602260045260246000fd5b95607f16956200004a565b600080fd5b60405190602082016001600160401b038111838210176200026e576040526000825256fe60a080604052600436101561001357600080fd5b60003560e01c90816301ffc9a71461306b5750806306fdde0314612fd7578063095ea7b314612f51578063134fbea814612f3357806318160ddd14612f155780631d14384814612eec578063200d2ed214612ec157806323b872dd14612de1578063248a9ca314612db25780632db6fa3614612cd15780632f2ff15d14612c925780633013ce2914612c69578063313ce56714610da257806336568abe14612c22578063392e53cd14612bff5780633d54579914612bb25780633f4ba83a14612b485780634173b417146128db57806344337ea11461286c578063468bb2401461284e578063471337a314612830578063537df3b6146127c457806354202c4e14612789578063560dd4381461182a57806356e2da1b1461180e5780635c975abb146117eb57806362f61d911461168057806367eda416146116635780636ee7ee6b1461162a57806370a08231146115f057806372777649146115b557806372eee5571461159957806375b238fc1461155e5780637dc0d1d0146115355780637f4ab1dd1461150b578063822410801461143957806382aefa24146113fe5780638456cb59146113915780638a7a2d83146113125780638ab1d681146112a65780638be2dda1146111d557806391d148541461118857806395d89b41146110b457806397acf4dd1461109657806399f9140514610f2f5780639b19251a14610ef05780639dd5de0b14610ed4578063a217fddf14610da2578063a8b822f414610e7a578063a9059cbb14610e49578063a9aad58c14610e2d578063aa8b2ea714610e11578063b10378e714610dda578063bffbc6be14610dbe578063d0a6d1a614610da2578063d4ce141514610d7d578063d502562514610c44578063d547741f14610c05578063d897e12114610a85578063dad2dea51461093a578063dbb026b9146107bd578063dc9f555b146105e6578063dd62ed3e14610595578063e0ba889214610513578063e43252d7146104a4578063e70f17b614610486578063eb83955914610437578063efdf4bf714610419578063f9f92be4146103da578063fce8de581461035a5763fdf97cb21461032c57600080fd5b3461035557600036600319011261035557601e546040516001600160a01b039091168152602090f35b600080fd5b34610355576000366003190112610355576000606060405161037b816131c4565b8281528260208201528260408201520152608060405161039a816131c4565b601f549081815260205460208201908152602154906040830191825260606022549301928352604051938452516020840152516040830152516060820152f35b34610355576020366003190112610355576001600160a01b036103fb613120565b16600052602a602052602060ff604060002054166040519015158152f35b34610355576000366003190112610355576020602554604051908152f35b3461035557602036600319011261035557600435602554811015610355576104606060916134d5565b5080549060ff600260018301549201541690604051928352602083015215156040820152f35b34610355576000366003190112610355576020602654604051908152f35b34610355576020366003190112610355576104bd613120565b6104c5613510565b60018060a01b03168060005260296020526040600020600160ff198254161790557ff93f9a76c1bf3444d22400a00cb9fe990e6abe9dbb333fda48859cfee864543d602060405160018152a2005b3461035557602036600319011261035557601c546040516323b872dd60e01b6020820152336024820152306044820152600435606480830191909152815260a08101916001600160a01b03166001600160401b0383118284101761057f5761057d92604052613f29565b005b634e487b7160e01b600052604160045260246000fd5b34610355576040366003190112610355576105ae613120565b6105b6613136565b9060018060a01b038091166000526001602052604060002091166000526020526020604060002054604051908152f35b34610355576020366003190112610355576004356106026135e6565b61060a613f91565b60255481101561077f5761061d816134d5565b506002810180549160ff831661074757805442106107145760ff601554169060038210156106fe57600191806106d457506106626127109183600b5491015490613e9e565b04925b60ff191617905561067881602654613de6565b602655601f548181039081116106be577fb10029b18398d9100e238205aeac0a568be16c0bc81098eef87b240093f75ae791602091601f55604051908152a26001600655005b634e487b7160e01b600052601160045260246000fd5b82036106f5576106ee6127109183601f5491015490613e9e565b0492610665565b81015492610665565b634e487b7160e01b600052602160045260246000fd5b60405162461bcd60e51b815260206004820152600b60248201526a4e6f74207965742064756560a81b6044820152606490fd5b60405162461bcd60e51b815260206004820152601060248201526f105b1c9958591e48195e1958dd5d195960821b6044820152606490fd5b60405162461bcd60e51b8152602060048201526016602482015275092dcecc2d8d2c840e6c6d0cac8ead8ca40d2dcc8caf60531b6044820152606490fd5b346103555760208060031936011261035557600435906107db613f91565b6027548210156108ff573360005260288152604060002082600052815260ff604060002054166108c957336000526029815261081e60ff60406000205416613e26565b7fd5a6750fd524c6f3d04c2a3f8e74b57e914efba5c7b8d9c1a17555eb7fb7052b620f424061087461084f856132a7565b50336000526000855260016040600020549161086c831515613e64565b015490613e9e565b0491610881831515613eb1565b33600081815260288352604080822087835284529020805460ff19166001179055601c546108b99185916001600160a01b0316613ef0565b6040519283523392a36001600655005b6064906040519062461bcd60e51b82526004820152600f60248201526e105b1c9958591e4818db185a5b5959608a1b6044820152fd5b6064906040519062461bcd60e51b825260048201526014602482015273092dcecc2d8d2c840c6deeae0dedc40d2dcc8caf60631b6044820152fd5b3461035557600036600319011261035557610953613f91565b3360005260206029815260ff61096f8160406000205416613e26565b336000526000825260406000205490610989821515613e64565b60009260005b602754811015610a5c5733600052602880835260406000208260005283528360406000205416156109ca575b506109c590613df3565b61098f565b6109d3826132a7565b50620f42406109e760018093015488613e9e565b0491826109f6575b50506109bb565b828493986109c59593610a2893336000528852604060002085600052885260406000209060ff19825416179055613de6565b966040519081527fd5a6750fd524c6f3d04c2a3f8e74b57e914efba5c7b8d9c1a17555eb7fb7052b853392a39086806109ef565b610a7e85610a6b811515613eb1565b601c5433906001600160a01b0316613ef0565b6001600655005b346103555760403660031901126103555760246004358135610aa56135e6565b60ff601e5460a01c166004811015610bf057610bb557604051610ac7816131c4565b428152602081019083825260408101908382526060810160008152602754600160401b811015610ba057806001610b0192016027556132a7565b939093610b8b57610b349460039351855551600185015551600284015551151591019060ff801983541691151516179055565b602754600019810193908411610b7757507f7807a3c5cea5b077fd571ab8a6294d8754d4c1d56b1b1f549873f7ff73e0c17c9160409182519182526020820152a2005b634e487b7160e01b60009081526011600452fd5b87634e487b7160e01b60005260006004526000fd5b87634e487b7160e01b60005260416004526000fd5b60405162461bcd60e51b81526020600482015260148185015273446562656e74757265206e6f742061637469766560601b6044820152606490fd5b83634e487b7160e01b60005260216004526000fd5b346103555760403660031901126103555761057d600435610c24613136565b90806000526005602052610c3f60016040600020015461369e565b613a21565b3461035557600036600319011261035557600b54600c5490600d54600e54600f5460ff1660105460115460ff1660125460135460ff16906014549260155460ff1694610c8e61331b565b96610c976133c7565b98610ca061344e565b9a6019549d601a549d60405180608052526080516020015260805160400152608051606001526080516080015260805160a0015260805160c001610ce39161318e565b60805160e001526080516101000152608051610120015260805161014001610d0a9161319b565b61022080608051610160015260805101610d23916130fb565b608051808203906101800152610d38916130fb565b608051808203906101a00152610d4d916130fb565b9160ff811615156080516101c0015260081c60ff1615156080516101e00152608051610200015260805180910390f35b34610355576020610d97610d9036613159565b5090613bb9565b60ff60405191168152f35b3461035557600036600319011261035557602060405160008152f35b3461035557600036600319011261035557602060405160018152f35b34610355576000366003190112610355576080601f5460205460215460225491604051938452602084015260408301526060820152f35b3461035557600036600319011261035557602060405160038152f35b3461035557600036600319011261035557602060405160028152f35b3461035557604036600319011261035557610e6f610e65613120565b6024359033613a98565b602060405160018152f35b346103555760203660031901126103555760043560275481101561035557610ea36080916132a7565b5080549060018101549060ff6003600283015492015416916040519384526020840152604083015215156060820152f35b3461035557600036600319011261035557602060405160648152f35b34610355576020366003190112610355576001600160a01b03610f11613120565b166000526029602052602060ff604060002054166040519015158152f35b346103555760208060031936011261035557610f49613120565b6027546001600160a01b0390911690600090815b8181106110515750610f87610f7183613fed565b92610f7f6040519485613215565b808452613fed565b8285019390601f190136853760009060005b838110610fe357868587604051928392818401908285525180915260408401929160005b828110610fcc57505050500390f35b835185528695509381019392810192600101610fbd565b8160005260288752604060002081600052875260ff6040600020541615611013575b61100e90613df3565b610f99565b91845181101561103b5761103381848961100e9460051b89010152613df3565b929050611005565b634e487b7160e01b600052603260045260246000fd5b8360005260288552604060002081600052855260ff6040600020541615611081575b61107c90613df3565b610f5d565b9161108e61107c91613df3565b929050611073565b34610355576000366003190112610355576020602354604051908152f35b346103555760003660031901126103555760405160006009546110d6816132e1565b808452906001908181169081156111615750600114611118575b6111148461110081860382613215565b6040519182916020835260208301906130fb565b0390f35b6009600090815292506000805160206140658339815191525b828410611149575050508101602001611100826110f0565b80546020858701810191909152909301928101611131565b60ff191660208087019190915292151560051b8501909201925061110091508390506110f0565b34610355576040366003190112610355576111a1613136565b600435600052600560205260406000209060018060a01b0316600052602052602060ff604060002054166040519015158152f35b34610355576000366003190112610355576111ee613642565b600e54421061127057601e5460ff8160a01c169060048210156106fe578161126d60409261123d7fe1377aa21d49fa10bb9ece6a0cd4f75597a90a80c3750f7f7674967f49ab9a629515613fb4565b60ff60a01b1916600160a01b17601e81905583519261125d90849061314c565b60ff602084019160a01c1661314c565ba1005b60405162461bcd60e51b815260206004820152600e60248201526d4e6f7420796574206d617475726560901b6044820152606490fd5b34610355576020366003190112610355576112bf613120565b6112c7613510565b6001600160a01b03166000818152602960209081526040808320805460ff19169055519182527ff93f9a76c1bf3444d22400a00cb9fe990e6abe9dbb333fda48859cfee864543d91a2005b346103555760003660031901126103555761132b613642565b601e5460ff8160a01c169060048210156106fe578161126d6040926113717fe1377aa21d49fa10bb9ece6a0cd4f75597a90a80c3750f7f7674967f49ab9a629515613fb4565b60ff60a01b1916600160a11b17601e81905583519261125d90849061314c565b34610355576000366003190112610355576113aa61358a565b60075460ff81166113ec5760019060ff1916176007557f62e78cea01bee320cd4e420270b5ea74000d11b0c9f74754ebdbfc544b05a2586020604051338152a1005b60405163d93c066560e01b8152600490fd5b346103555760003660031901126103555760206040517f114e74f6ea3bd819998f78687bfcb11b140da08e9b7d222fa9c1f1ba1f2aa1228152f35b34610355576000366003190112610355576114526135e6565b60ff60195460081c16156114c657601e5460ff8160a01c169060048210156106fe578161126d6040926114a67fe1377aa21d49fa10bb9ece6a0cd4f75597a90a80c3750f7f7674967f49ab9a629515613fb4565b60ff60a01b1916600360a01b17601e81905583519261125d90849061314c565b60405162461bcd60e51b815260206004820152601a60248201527f4e6f206561726c7920726564656d7074696f6e20636c617573650000000000006044820152606490fd5b346103555760203660031901126103555760043560ff811681036103555761110061111491613c77565b3461035557600036600319011261035557601b546040516001600160a01b039091168152602090f35b346103555760003660031901126103555760206040517fa49807205ce4d355092ef5a8a18f56e8913cf4a201fbe287825b095693c217758152f35b3461035557600036600319011261035557602060405160fc8152f35b346103555760003660031901126103555760206040517f700b68d05515876e1b5bee45535f56f17ecf1fbb63ac93e8914591401365025d8152f35b34610355576020366003190112610355576001600160a01b03611611613120565b1660005260006020526020604060002054604051908152f35b34610355576020366003190112610355576116436135e6565b601c54601d5461057d91600435916001600160a01b039081169116613ef0565b346103555760003660031901126103555760206040516127108152f35b34610355576020366003190112610355576001600160401b03600435818111610355573660238201121561035557806004013591821161035557602491606091368484840283010111610355576116d56135e6565b60259283546000855580611775575b5060005b8381106116f157005b8181028301908554600160401b811015610ba05761171560019182810189556134d5565b9390936117605760649189820135855560448201359085015501359182151583036103555761175b92600261175692019060ff801983541691151516179055565b613df3565b6116e8565b88634e487b7160e01b60005260006004526000fd5b60039080820290828204036117d657856000527f401968ff42a154441da5f6c4c935ac46b8671f0e062baaa62a7545ba53bb6e4c908101905b8181106117bc5750506116e4565b8060008492556000600182015560006002820155016117ae565b86634e487b7160e01b60005260116004526000fd5b3461035557600036600319011261035557602060ff600754166040519015158152f35b3461035557600036600319011261035557602060405160048152f35b346103555760031960e036820112610355576004356001600160401b0381116103555761185b903690600401613236565b6024356001600160401b0381116103555761187a903690600401613236565b916001600160401b036044351161035557610220906044353603011261035557604051906118a7826131a8565b600460448035918201358452602482013560208501528101356040840152606481013560608401526118db9060840161328c565b608083015260a4604435013560a0830152600560c4604435013510156103555760443560c481013560c084015260e481013560e084015261191f906101040161328c565b61010083015261012460443501356101208301526003610144604435013510156103555761014460443501356101408301526001600160401b036101646044350135116103555761197c3660443561016481013501600401613236565b61016083015261018460443501356001600160401b038111610355576119aa90600436916044350101613236565b6101808301526101a460443501356001600160401b038111610355576119d890600436916044350101613236565b6101a08301526119ed6101c46044350161329a565b6101c0830152611a026101e46044350161329a565b6101e083015260443561020401356102008301526064356001600160a01b0381169003610355576084356001600160a01b03811681036103555760a4356001600160a01b03811690036103555760c4356001600160a01b0381169003610355576000805160206140a583398151915254916001600160401b038316158061277b575b60016001600160401b038516149081612771575b159081612768575b506127565760016001600160401b03198416176000805160206140a58339815191525560ff8360401c1615612729575b8051156126f4578451156126bd578351156126815760208401511561263c57606084015142101561260457610120840151156125bf576064356001600160a01b031615612589576001600160a01b0382161561254c5760a4356001600160a01b031615612516578051906001600160401b03821161057f578190611b556008546132e1565b601f81116124a2575b50602090601f831160011461242a5760009261241f575b50508160011b916000199060031b1c1916176008555b83516001600160401b03811161057f57611ba66009546132e1565b601f81116123b6575b506020601f8211600114612341578192939495600092612336575b50508160011b916000199060031b1c1916176009555b8251600b556020830151600c556040830151600d556060830151600e5560ff60808401511660ff19600f541617600f5560a083015160105560c083015160058110156106fe5760ff80196011541691161760115560e083015160125560ff6101008401511660ff19601354161760135561012083015160145561014083015160038110156106fe5760ff8019601554169116176015556101608301519283516001600160401b03811161057f57611c986016546132e1565b601f81116122cd575b506020601f821160011461225857819293949560009261224d575b50508160011b916000199060031b1c1916176016555b6101808101519283516001600160401b03811161057f57611cf46017546132e1565b601f81116121e4575b506020601f821160011461216f578192939495600092612164575b50508160011b916000199060031b1c1916176017555b6101a08201519283516001600160401b03811161057f57611d506018546132e1565b601f81116120fb575b506020601f821160011461208657819293949560009261207b575b50508160011b916000199060031b1c1916176018555b6101c0830151151560195460ff61ff006101e0870151151560081b1692169061ffff19161717601955610200830151601a556bffffffffffffffffffffffff60a01b9060018060a01b036064351682601b541617601b5560018060a01b031681601c541617601c5560018060a01b0360a4351690601d541617601d5560018060a01b0360c435166affffffffffffffffffffff60a81b601e541617601e5560608251604051611e38816131c4565b818152426020820152600060408201526305f5e1009283910152601f5542602055600060215560225560c082015160058110156106fe576001148015612064575b612053575b611e8960a4356136c4565b50611e9560a435613743565b50611ea160a4356137e4565b50611ead60c435613880565b50611eb960a43561391c565b50611ec560c43561391c565b5060018060a01b0360a4351660005260296020526040600020600160ff1982541617905560018060a01b0360c435166000526040600020600160ff198254161790556020820151611f1881600254613de6565b60025560a4356001600160a01b031660008181526020818152604080832080548601905551938452919290917fddf252ad1be2c89b69c2b068fc378daa952ba7f163c4a11628f55a4df523b3ef91a3600160ff19600a541617600a556101608201519180519260c0602083015192015160058110156106fe5760ff94611fee606092611fd37f68896895295057dbc51b232a2b131ebea0af179af63e1d7faad21d29cff4ded4956020604051928284809451938492016130d8565b8101039020956040519384526020840152604083019061318e565ba260401c1615611ffa57005b68ff0000000000000000196000805160206140a583398151915254166000805160206140a5833981519152557fc7f505b2f371ae2175ee4913f4499e1f2633a7b5936321eed1cdaeb6115181d2602060405160018152a1005b633b9aca0060235542602455611e7e565b5060c082015160058110156106fe57600214611e79565b015190508580611d74565b60186000526000805160206140258339815191529060005b601f19841681106120e3575060019394959683601f198116106120ca575b505050811b01601855611d8a565b015160001960f88460031b161c191690558580806120bc565b9091602060018192858b01518155019301910161209e565b6018600052601f820160051c600080516020614025833981519152016020831061214f575b601f820160051c6000805160206140258339815191520181106121435750611d59565b60008155600101612120565b50600080516020614025833981519152612120565b015190508580611d18565b60176000526000805160206140858339815191529060005b601f19841681106121cc575060019394959683601f198116106121b3575b505050811b01601755611d2e565b015160001960f88460031b161c191690558580806121a5565b9091602060018192858b015181550193019101612187565b6017600052601f820160051c6000805160206140858339815191520160208310612238575b601f820160051c60008051602061408583398151915201811061222c5750611cfd565b60008155600101612209565b50600080516020614085833981519152612209565b015190508580611cbc565b60166000526000805160206140c58339815191529060005b601f19841681106122b5575060019394959683601f1981161061229c575b505050811b01601655611cd2565b015160001960f88460031b161c1916905585808061228e565b9091602060018192858b015181550193019101612270565b6016600052601f820160051c6000805160206140c58339815191520160208310612321575b601f820160051c6000805160206140c58339815191520181106123155750611ca1565b600081556001016122f2565b506000805160206140c58339815191526122f2565b015190508580611bca565b60096000526000805160206140658339815191529060005b601f198416811061239e575060019394959683601f19811610612385575b505050811b01600955611be0565b015160001960f88460031b161c19169055858080612377565b9091602060018192858b015181550193019101612359565b6009600052601f820160051c600080516020614065833981519152016020831061240a575b601f820160051c6000805160206140658339815191520181106123fe5750611baf565b600081556001016123db565b506000805160206140658339815191526123db565b015190508680611b75565b92506008600052600080516020614045833981519152906000935b601f1984168510612487576001945083601f1981161061246e575b505050811b01600855611b8b565b015160001960f88460031b161c19169055868080612460565b81810151835560209485019460019093019290910190612445565b9091506008600052601f830160051c6000805160206140458339815191520160208410612501575b908392915b601f820160051c6000805160206140458339815191520181106124f25750611b5e565b600081558493506001016124cf565b506000805160206140458339815191526124ca565b60405162461bcd60e51b815260206004820152600e60248201526d24b73b30b634b21034b9b9bab2b960911b6044820152606490fd5b60405162461bcd60e51b815260206004820152601560248201527424b73b30b634b2103830bcb6b2b73a103a37b5b2b760591b6044820152606490fd5b60405162461bcd60e51b815260206004820152600e60248201526d496e76616c6964206f7261636c6560901b6044820152606490fd5b60405162461bcd60e51b815260206004820152601860248201527f496e76616c696420636f75706f6e206672657175656e637900000000000000006044820152606490fd5b60405162461bcd60e51b815260206004820152601060248201526f496e76616c6964206d6174757269747960801b6044820152606490fd5b60405162461bcd60e51b815260206004820152601760248201527f537570706c79206d75737420626520706f7369746976650000000000000000006044820152606490fd5b60405162461bcd60e51b8152602060048201526014602482015273564e45206d75737420626520706f73697469766560601b6044820152606490fd5b60405162461bcd60e51b815260206004820152600f60248201526e14de5b589bdb081c995c5d5a5c9959608a1b6044820152606490fd5b60405162461bcd60e51b815260206004820152600d60248201526c13985b59481c995c5d5a5c9959609a1b6044820152606490fd5b68ffffffffffffffffff19831668010000000000000001176000805160206140a583398151915255611ad0565b60405163f92ee8a960e01b8152600490fd5b90501586611aa0565b303b159150611a98565b5060ff8360401c1615611a84565b346103555760003660031901126103555760206040517f28f5a99355973cc89255b8c4ac88405f27c78ded7608b040ee77a8bdf44d15e28152f35b34610355576020366003190112610355576127dd613120565b6127e561358a565b6001600160a01b03166000818152602a60209081526040808320805460ff19169055519182527f6a12b3df6cba4203bd7fd06b816789f87de8c594299aed5717ae070fac781bac91a2005b34610355576000366003190112610355576020604051620f42408152f35b34610355576000366003190112610355576020602754604051908152f35b3461035557602036600319011261035557612885613120565b61288d61358a565b60018060a01b031680600052602a6020526040600020600160ff198254161790557f6a12b3df6cba4203bd7fd06b816789f87de8c594299aed5717ae070fac781bac602060405160018152a2005b346103555760003660031901126103555760006102006040516128fd816131a8565b8281528260208201528260408201528260608201528260808201528260a08201528260c08201528260e08201528261010082015282610120820152826101408201526060610160820152606061018082015260606101a0820152826101c0820152826101e08201520152604051612973816131a8565b600b548152600c546020820152600d546040820152600e54606082015260ff600f5416608082015260105460a082015260ff6011541660058110156106fe5760c082015260125460e082015260ff6013541661010082015260145461012082015260ff6015541660038110156106fe576101408201526129f161331b565b6101608201526129ff6133c7565b610180820152612a0d61344e565b6101a082015260ff60195481811615156101c084015260081c1615156101e0820152601a546102008201526040518091602082528051602083015260208101516040830152604081015160608301526060810151608083015260ff60808201511660a083015260a081015160c0830152612a8f60c082015160e084019061318e565b60e081015161010083015260ff61010082015116610120830152610120810151610140830152612ac961014082015161016084019061319b565b610160810151610200612b23612aee61022093846101808801526102408701906130fb565b612b0c61018086015191601f199283898303016101a08a01526130fb565b906101a086015190878303016101c08801526130fb565b926101c081015115156101e08601526101e08101511515828601520151908301520390f35b3461035557600036600319011261035557612b6161358a565b60075460ff811615612ba05760ff19166007557f5db9ee0a495bf2e6ff9c91a7834c1ba4fdd244a5e8aa4e537bd38aeae4b073aa6020604051338152a1005b604051638dfc202b60e01b8152600490fd5b34610355576040366003190112610355576001600160a01b03612bd3613120565b1660005260286020526040600020602435600052602052602060ff604060002054166040519015158152f35b3461035557600036600319011261035557602060ff600a54166040519015158152f35b3461035557604036600319011261035557612c3b613136565b336001600160a01b03821603612c575761057d90600435613a21565b60405163334bd91960e11b8152600490fd5b3461035557600036600319011261035557601c546040516001600160a01b039091168152602090f35b346103555760403660031901126103555761057d600435612cb1613136565b90806000526005602052612ccc60016040600020015461369e565b6139b8565b3461035557602080600319360112610355576001600160401b036004358181116103555736602382011215610355578060040135918211610355576024810190602436918460051b01011161035557612d28613510565b60005b828110612d3457005b612dad906001600160a01b0380612d54612d4f848888613e02565b613e12565b16600052602986527ff93f9a76c1bf3444d22400a00cb9fe990e6abe9dbb333fda48859cfee864543d866040600020926001938460ff19825416179055612d9f612d4f868a8a613e02565b1692604051908152a2613df3565b612d2b565b346103555760203660031901126103555760043560005260056020526020600160406000200154604051908152f35b3461035557612def36613159565b9060018060a01b03831692836000526001602052604060002033600052602052604060002054936000198510612e2b575b50610e6f9350613a98565b838510612e97578015612e7e573315612e6557610e6f94849160005260016020526040600020336000526020520360406000205584612e20565b604051634a1406b160e11b815260006004820152602490fd5b60405163e602df0560e01b815260006004820152602490fd5b604051637dc7a0d960e11b81523360048201526024810186905260448101859052606490fd5b0390fd5b3461035557600036600319011261035557602060ff601e5460a01c16612eea604051809261314c565bf35b3461035557600036600319011261035557601d546040516001600160a01b039091168152602090f35b34610355576000366003190112610355576020600254604051908152f35b34610355576000366003190112610355576020602454604051908152f35b3461035557604036600319011261035557612f6a613120565b602435903315612e7e576001600160a01b0316908115612e6557336000526001602052604060002082600052602052806040600020556040519081527f8c5be1e5ebec7d5bd14f71427d1e84f3dd0314c0f7b2291e5b200ac8c7c3b92560203392a3602060405160018152f35b34610355576000366003190112610355576040516000600854612ff9816132e1565b808452906001908181169081156111615750600114613022576111148461110081860382613215565b6008600090815292506000805160206140458339815191525b828410613053575050508101602001611100826110f0565b8054602085870181019190915290930192810161303b565b34610355576020366003190112610355576004359063ffffffff60e01b82168092036103555760209163b0146e6360e01b81149081156130ad575b5015158152f35b637965db0b60e01b8114915081156130c7575b50836130a6565b6301ffc9a760e01b149050836130c0565b60005b8381106130eb5750506000910152565b81810151838201526020016130db565b90602091613114815180928185528580860191016130d8565b601f01601f1916010190565b600435906001600160a01b038216820361035557565b602435906001600160a01b038216820361035557565b9060048210156106fe5752565b6060906003190112610355576001600160a01b0390600435828116810361035557916024359081168103610355579060443590565b9060058210156106fe5752565b9060038210156106fe5752565b61022081019081106001600160401b0382111761057f57604052565b608081019081106001600160401b0382111761057f57604052565b604081019081106001600160401b0382111761057f57604052565b606081019081106001600160401b0382111761057f57604052565b90601f801991011681019081106001600160401b0382111761057f57604052565b81601f82011215610355578035906001600160401b03821161057f576040519261326a601f8401601f191660200185613215565b8284526020838301011161035557816000926020809301838601378301015290565b359060ff8216820361035557565b3590811515820361035557565b60275481101561103b57602760005260021b7f98a476f1687bc3d60a2da2adbcba2c46958e61fa2fb4042cd7bc5816a710195b0190600090565b90600182811c92168015613311575b60208310146132fb57565b634e487b7160e01b600052602260045260246000fd5b91607f16916132f0565b604051906000826016549161332f836132e1565b808352926001908181169081156133a55750600114613358575b5061335692500383613215565b565b6016600090815291506000805160206140c58339815191525b84831061338a5750613356935050810160200138613349565b81935090816020925483858a01015201910190918592613371565b90506020925061335694915060ff191682840152151560051b82010138613349565b60405190600082601754916133db836132e1565b808352926001908181169081156133a55750600114613401575061335692500383613215565b6017600090815291506000805160206140858339815191525b8483106134335750613356935050810160200138613349565b81935090816020925483858a0101520191019091859261341a565b6040519060008260185491613462836132e1565b808352926001908181169081156133a55750600114613488575061335692500383613215565b6018600090815291506000805160206140258339815191525b8483106134ba5750613356935050810160200138613349565b81935090816020925483858a010152019101909185926134a1565b60255481101561103b576003906025600052027f401968ff42a154441da5f6c4c935ac46b8671f0e062baaa62a7545ba53bb6e4c0190600090565b3360009081527f294bb43e882f8724b7ae88344d047a41612b98ee139a78f923b3689f3cc274b160205260409020547f28f5a99355973cc89255b8c4ac88405f27c78ded7608b040ee77a8bdf44d15e29060ff161561356c5750565b6044906040519063e2517d3f60e01b82523360048301526024820152fd5b3360009081527fd8ef4509105c3edb0b04658b4528edc5ddd30ea5a81e623a2623c88db1eb54b660205260409020547fa49807205ce4d355092ef5a8a18f56e8913cf4a201fbe287825b095693c217759060ff161561356c5750565b3360009081527f08699172536d22b992c4579cb1469b6a17054a95ee49bf4d1fdc489bafaaa00760205260409020547f114e74f6ea3bd819998f78687bfcb11b140da08e9b7d222fa9c1f1ba1f2aa1229060ff161561356c5750565b3360009081527f66215885dcb73cb4aae79fcb51f949acf75999687399eef5d47b261732e8435760205260409020547f700b68d05515876e1b5bee45535f56f17ecf1fbb63ac93e8914591401365025d9060ff161561356c5750565b80600052600560205260406000203360005260205260ff604060002054161561356c5750565b6001600160a01b031660008181527f05b8ccbb9d4d8fb16ea74ce3c29a41f1b461fbdaff4714a0d9a8eb05499746bc602052604081205490919060ff1661373f5781805260056020526040822081835260205260408220600160ff1982541617905533916000805160206140058339815191528180a4600190565b5090565b6001600160a01b031660008181527fd8ef4509105c3edb0b04658b4528edc5ddd30ea5a81e623a2623c88db1eb54b660205260408120549091907fa49807205ce4d355092ef5a8a18f56e8913cf4a201fbe287825b095693c217759060ff166137df5780835260056020526040832082845260205260408320600160ff19825416179055600080516020614005833981519152339380a4600190565b505090565b6001600160a01b031660008181527f08699172536d22b992c4579cb1469b6a17054a95ee49bf4d1fdc489bafaaa00760205260408120549091907f114e74f6ea3bd819998f78687bfcb11b140da08e9b7d222fa9c1f1ba1f2aa1229060ff166137df5780835260056020526040832082845260205260408320600160ff19825416179055600080516020614005833981519152339380a4600190565b6001600160a01b031660008181527f66215885dcb73cb4aae79fcb51f949acf75999687399eef5d47b261732e8435760205260408120549091907f700b68d05515876e1b5bee45535f56f17ecf1fbb63ac93e8914591401365025d9060ff166137df5780835260056020526040832082845260205260408320600160ff19825416179055600080516020614005833981519152339380a4600190565b6001600160a01b031660008181527f294bb43e882f8724b7ae88344d047a41612b98ee139a78f923b3689f3cc274b160205260408120549091907f28f5a99355973cc89255b8c4ac88405f27c78ded7608b040ee77a8bdf44d15e29060ff166137df5780835260056020526040832082845260205260408320600160ff19825416179055600080516020614005833981519152339380a4600190565b906000918083526005602052604083209160018060a01b03169182845260205260ff604084205416156000146137df5780835260056020526040832082845260205260408320600160ff19825416179055600080516020614005833981519152339380a4600190565b906000918083526005602052604083209160018060a01b03169182845260205260ff6040842054166000146137df578083526005602052604083208284526020526040832060ff1981541690557ff6391f5c32d9c69d2a47ea670b442974b53935d1edc7fd64eb21e047a839171b339380a4600190565b90916001600160a01b0380831692908315613ba0578416938415613b8757613ac09082613bb9565b60ff613acb82613c77565b9116613b63575060009083825281602052604082205490838210613b31575091604082827fddf252ad1be2c89b69c2b068fc378daa952ba7f163c4a11628f55a4df523b3ef958760209652828652038282205586815220818154019055604051908152a3565b60405163391434e360e21b81526001600160a01b03919091166004820152602481019190915260448101839052606490fd5b60405162461bcd60e51b815260206004820152908190612ebd9060248301906130fb565b60405163ec442f0560e01b815260006004820152602490fd5b604051634b637e8f60e11b815260006004820152602490fd5b60ff60075416613c70576001600160a01b039081166000818152602a602052604081205490939060ff168015613c5d575b613c545781845260296020528260ff60408620541615918215613c40575b5050613c385760105442109182613c29575b5050613c235790565b50600490565b601d5416141590503880613c1a565b505050600190565b16845250604083205460ff16158238613c08565b50505050600390565b50828116845260ff604085205416613bea565b5050600290565b60ff168015613db95760018114613d745760028114613d435760038114613cff57600414613cce57604051613cab816131df565b60138152722ab735b737bbb7103932b9ba3934b1ba34b7b760691b602082015290565b604051613cda816131df565b60158152744c6f636b2d757020706572696f642061637469766560581b602082015290565b50604051613d0c816131fa565b602181527f53656e646572206f7220726563656976657220697320626c61636b6c697374656020820152601960fa1b604082015290565b50604051613d50816131df565b6014815273151c985b9cd9995c9cc8185c99481c185d5cd95960621b602082015290565b50604051613d81816131fa565b602281527f53656e646572206f72207265636569766572206e6f742077686974656c697374602082015261195960f21b604082015290565b50604051613dc6816131df565b601081526f151c985b9cd9995c88185b1b1bddd95960821b602082015290565b919082018092116106be57565b60001981146106be5760010190565b919081101561103b5760051b0190565b356001600160a01b03811681036103555790565b15613e2d57565b60405162461bcd60e51b815260206004820152600f60248201526e139bdd081dda1a5d195b1a5cdd1959608a1b6044820152606490fd5b15613e6b57565b60405162461bcd60e51b815260206004820152600b60248201526a4e6f20686f6c64696e677360a81b6044820152606490fd5b818102929181159184041417156106be57565b15613eb857565b60405162461bcd60e51b815260206004820152601060248201526f4e6f7468696e6720746f20636c61696d60801b6044820152606490fd5b60405163a9059cbb60e01b60208201526001600160a01b03909216602483015260448083019390935291815261335691613f29826131c4565b906000602091828151910182855af115613f85576000513d613f7c57506001600160a01b0381163b155b613f5a5750565b604051635274afe760e01b81526001600160a01b039091166004820152602490fd5b60011415613f53565b6040513d6000823e3d90fd5b600260065414613fa2576002600655565b604051633ee5aeb560e01b8152600490fd5b15613fbb57565b60405162461bcd60e51b815260206004820152600a6024820152694e6f742061637469766560b01b6044820152606490fd5b6001600160401b03811161057f5760051b6020019056fe2f8788117e7eff1d82e926ec794901d17c78024a50270940304540a733656f0db13d2d76d1f4b7be834882e410b3e3a8afaf69f83600ae24db354391d2378d2ef3f7a9fe364faab93b216da50a3214154f22a0a2b415b23a84c8169e8b636ee36e1540171b6c0c960b71a7020d9f60077f6af931a8bbf590da0223dacf75c7afc624b66cc0138b8fabc209247f72d758e1cf3343756d543badbf24212bed8c15f0c57e16840df040f15088dc2f81fe391c3923bec73e23a9662efc9c229c6a00d833147d7dc355ba459fc788f669e58cfaf9dc25ddcd0702e87d69c7b5124289a264697066735822122084182775dca2499f0c99d1dcbbf94b41996673153515abcdd5f0c384361939b564736f6c63430008140033","opcodes":"PUSH1 0x80 PUSH1 0x40 MSTORE CALLVALUE PUSH3 0x36E JUMPI PUSH3 0x14 PUSH3 0x373 JUMP JUMPDEST PUSH3 0x1E PUSH3 0x373 JUMP JUMPDEST DUP2 MLOAD SWAP1 SWAP2 PUSH1 0x1 PUSH1 0x1 PUSH1 0x40 SHL SUB DUP1 DUP4 GT PUSH3 0x26E JUMPI PUSH1 0x3 SWAP3 DUP4 SLOAD SWAP4 PUSH1 0x1 SWAP2 DUP3 DUP7 DUP2 SHR SWAP7 AND SWAP5 DUP6 ISZERO PUSH3 0x363 JUMPI JUMPDEST PUSH1 0x20 SWAP6 DUP7 DUP9 LT EQ PUSH3 0x34D JUMPI DUP2 SWAP1 PUSH1 0x1F SWAP8 DUP9 DUP2 GT PUSH3 0x2F7 JUMPI JUMPDEST POP DUP7 SWAP1 DUP9 DUP4 GT PUSH1 0x1 EQ PUSH3 0x290 JUMPI PUSH1 0x0 SWAP3 PUSH3 0x284 JUMPI JUMPDEST POP POP PUSH1 0x0 NOT DUP3 DUP5 SHL SHR NOT AND SWAP1 DUP4 SHL OR DUP2 SSTORE JUMPDEST DUP6 MLOAD SWAP1 DUP4 DUP3 GT PUSH3 0x26E JUMPI PUSH1 0x4 SWAP6 DUP7 SLOAD DUP5 DUP2 DUP2 SHR SWAP2 AND DUP1 ISZERO PUSH3 0x263 JUMPI JUMPDEST DUP8 DUP3 LT EQ PUSH3 0x24E JUMPI DUP2 DUP2 GT PUSH3 0x203 JUMPI JUMPDEST POP DUP6 SWAP1 DUP4 GT PUSH1 0x1 EQ PUSH3 0x199 JUMPI DUP3 SWAP4 SWAP5 SWAP6 SWAP7 SWAP8 PUSH1 0x0 SWAP4 PUSH3 0x18D JUMPI JUMPDEST POP POP DUP3 DUP5 SHL SWAP3 PUSH1 0x0 NOT SWAP2 SHL SHR NOT AND OR DUP5 SSTORE JUMPDEST PUSH1 0x6 SSTORE PUSH32 0xF0C57E16840DF040F15088DC2F81FE391C3923BEC73E23A9662EFC9C229C6A00 DUP1 SLOAD SWAP4 PUSH1 0xFF DUP6 PUSH1 0x40 SHR AND PUSH3 0x17E JUMPI POP DUP2 DUP1 DUP6 AND SUB PUSH3 0x13A JUMPI JUMPDEST PUSH1 0x40 MLOAD PUSH2 0x411A SWAP1 DUP2 PUSH3 0x398 DUP3 CODECOPY RETURN JUMPDEST PUSH1 0x1 PUSH1 0x1 PUSH1 0x40 SHL SUB NOT SWAP1 SWAP4 AND DUP2 OR SWAP1 SWAP3 SSTORE PUSH1 0x40 MLOAD SWAP2 DUP3 MSTORE PUSH32 0xC7F505B2F371AE2175EE4913F4499E1F2633A7B5936321EED1CDAEB6115181D2 SWAP2 LOG1 CODESIZE DUP1 DUP1 DUP1 PUSH3 0x12A JUMP JUMPDEST PUSH1 0x40 MLOAD PUSH4 0xF92EE8A9 PUSH1 0xE0 SHL DUP2 MSTORE REVERT JUMPDEST ADD MLOAD SWAP2 POP CODESIZE DUP1 PUSH3 0xD9 JUMP JUMPDEST SWAP1 PUSH1 0x1F NOT DUP4 AND SWAP2 DUP8 PUSH1 0x0 MSTORE DUP7 PUSH1 0x0 KECCAK256 SWAP3 PUSH1 0x0 JUMPDEST DUP2 DUP2 LT PUSH3 0x1ED JUMPI POP SWAP9 DUP5 DUP7 SWAP8 SWAP9 SWAP10 SWAP11 LT PUSH3 0x1D2 JUMPI JUMPDEST POP POP POP POP DUP2 SHL ADD DUP5 SSTORE PUSH3 0xEB JUMP JUMPDEST ADD MLOAD SWAP1 PUSH1 0xF8 DUP5 PUSH1 0x0 NOT SWAP3 SHL AND SHR NOT AND SWAP1 SSTORE CODESIZE DUP1 DUP1 DUP1 PUSH3 0x1C3 JUMP JUMPDEST DUP11 DUP4 ADD MLOAD DUP6 SSTORE SWAP4 DUP7 ADD SWAP4 SWAP2 DUP9 ADD SWAP2 DUP9 ADD PUSH3 0x1AC JUMP JUMPDEST DUP8 PUSH1 0x0 MSTORE DUP7 PUSH1 0x0 KECCAK256 DUP3 DUP1 DUP7 ADD PUSH1 0x5 SHR DUP3 ADD SWAP3 DUP10 DUP8 LT PUSH3 0x244 JUMPI JUMPDEST ADD PUSH1 0x5 SHR ADD SWAP1 DUP6 SWAP1 JUMPDEST DUP3 DUP2 LT PUSH3 0x237 JUMPI POP POP PUSH3 0xBD JUMP JUMPDEST PUSH1 0x0 DUP2 SSTORE ADD DUP6 SWAP1 PUSH3 0x227 JUMP JUMPDEST SWAP3 POP DUP2 SWAP3 PUSH3 0x21E JUMP JUMPDEST PUSH1 0x22 DUP9 PUSH4 0x4E487B71 PUSH1 0xE0 SHL PUSH1 0x0 MSTORE MSTORE PUSH1 0x24 PUSH1 0x0 REVERT JUMPDEST SWAP1 PUSH1 0x7F AND SWAP1 PUSH3 0xAB JUMP JUMPDEST PUSH4 0x4E487B71 PUSH1 0xE0 SHL PUSH1 0x0 MSTORE PUSH1 0x41 PUSH1 0x4 MSTORE PUSH1 0x24 PUSH1 0x0 REVERT JUMPDEST ADD MLOAD SWAP1 POP CODESIZE DUP1 PUSH3 0x7B JUMP JUMPDEST SWAP1 DUP6 SWAP4 POP PUSH1 0x1F NOT DUP4 AND SWAP2 DUP6 PUSH1 0x0 MSTORE DUP9 PUSH1 0x0 KECCAK256 SWAP3 PUSH1 0x0 JUMPDEST DUP11 DUP3 DUP3 LT PUSH3 0x2E0 JUMPI POP POP DUP5 GT PUSH3 0x2C7 JUMPI JUMPDEST POP POP POP DUP2 SHL ADD DUP2 SSTORE PUSH3 0x8D JUMP JUMPDEST ADD MLOAD PUSH1 0x0 NOT DUP4 DUP7 SHL PUSH1 0xF8 AND SHR NOT AND SWAP1 SSTORE CODESIZE DUP1 DUP1 PUSH3 0x2B9 JUMP JUMPDEST DUP4 DUP6 ADD MLOAD DUP7 SSTORE DUP10 SWAP8 SWAP1 SWAP6 ADD SWAP5 SWAP4 DUP5 ADD SWAP4 ADD PUSH3 0x2A6 JUMP JUMPDEST SWAP1 SWAP2 POP DUP4 PUSH1 0x0 MSTORE DUP7 PUSH1 0x0 KECCAK256 DUP9 DUP1 DUP6 ADD PUSH1 0x5 SHR DUP3 ADD SWAP3 DUP10 DUP7 LT PUSH3 0x343 JUMPI JUMPDEST SWAP2 DUP8 SWAP2 DUP7 SWAP6 SWAP5 SWAP4 ADD PUSH1 0x5 SHR ADD SWAP2 JUMPDEST DUP3 DUP2 LT PUSH3 0x333 JUMPI POP POP PUSH3 0x64 JUMP JUMPDEST PUSH1 0x0 DUP2 SSTORE DUP6 SWAP5 POP DUP8 SWAP2 ADD PUSH3 0x323 JUMP JUMPDEST SWAP3 POP DUP2 SWAP3 PUSH3 0x315 JUMP JUMPDEST PUSH4 0x4E487B71 PUSH1 0xE0 SHL PUSH1 0x0 MSTORE PUSH1 0x22 PUSH1 0x4 MSTORE PUSH1 0x24 PUSH1 0x0 REVERT JUMPDEST SWAP6 PUSH1 0x7F AND SWAP6 PUSH3 0x4A JUMP JUMPDEST PUSH1 0x0 DUP1 REVERT JUMPDEST PUSH1 0x40 MLOAD SWAP1 PUSH1 0x20 DUP3 ADD PUSH1 0x1 PUSH1 0x1 PUSH1 0x40 SHL SUB DUP2 GT DUP4 DUP3 LT OR PUSH3 0x26E JUMPI PUSH1 0x40 MSTORE PUSH1 0x0 DUP3 MSTORE JUMP INVALID PUSH1 0xA0 DUP1 PUSH1 0x40 MSTORE PUSH1 0x4 CALLDATASIZE LT ISZERO PUSH2 0x13 JUMPI PUSH1 0x0 DUP1 REVERT JUMPDEST PUSH1 0x0 CALLDATALOAD PUSH1 0xE0 SHR SWAP1 DUP2 PUSH4 0x1FFC9A7 EQ PUSH2 0x306B JUMPI POP DUP1 PUSH4 0x6FDDE03 EQ PUSH2 0x2FD7 JUMPI DUP1 PUSH4 0x95EA7B3 EQ PUSH2 0x2F51 JUMPI DUP1 PUSH4 0x134FBEA8 EQ PUSH2 0x2F33 JUMPI DUP1 PUSH4 0x18160DDD EQ PUSH2 0x2F15 JUMPI DUP1 PUSH4 0x1D143848 EQ PUSH2 0x2EEC JUMPI DUP1 PUSH4 0x200D2ED2 EQ PUSH2 0x2EC1 JUMPI DUP1 PUSH4 0x23B872DD EQ PUSH2 0x2DE1 JUMPI DUP1 PUSH4 0x248A9CA3 EQ PUSH2 0x2DB2 JUMPI DUP1 PUSH4 0x2DB6FA36 EQ PUSH2 0x2CD1 JUMPI DUP1 PUSH4 0x2F2FF15D EQ PUSH2 0x2C92 JUMPI DUP1 PUSH4 0x3013CE29 EQ PUSH2 0x2C69 JUMPI DUP1 PUSH4 0x313CE567 EQ PUSH2 0xDA2 JUMPI DUP1 PUSH4 0x36568ABE EQ PUSH2 0x2C22 JUMPI DUP1 PUSH4 0x392E53CD EQ PUSH2 0x2BFF JUMPI DUP1 PUSH4 0x3D545799 EQ PUSH2 0x2BB2 JUMPI DUP1 PUSH4 0x3F4BA83A EQ PUSH2 0x2B48 JUMPI DUP1 PUSH4 0x4173B417 EQ PUSH2 0x28DB JUMPI DUP1 PUSH4 0x44337EA1 EQ PUSH2 0x286C JUMPI DUP1 PUSH4 0x468BB240 EQ PUSH2 0x284E JUMPI DUP1 PUSH4 0x471337A3 EQ PUSH2 0x2830 JUMPI DUP1 PUSH4 0x537DF3B6 EQ PUSH2 0x27C4 JUMPI DUP1 PUSH4 0x54202C4E EQ PUSH2 0x2789 JUMPI DUP1 PUSH4 0x560DD438 EQ PUSH2 0x182A JUMPI DUP1 PUSH4 0x56E2DA1B EQ PUSH2 0x180E JUMPI DUP1 PUSH4 0x5C975ABB EQ PUSH2 0x17EB JUMPI DUP1 PUSH4 0x62F61D91 EQ PUSH2 0x1680 JUMPI DUP1 PUSH4 0x67EDA416 EQ PUSH2 0x1663 JUMPI DUP1 PUSH4 0x6EE7EE6B EQ PUSH2 0x162A JUMPI DUP1 PUSH4 0x70A08231 EQ PUSH2 0x15F0 JUMPI DUP1 PUSH4 0x72777649 EQ PUSH2 0x15B5 JUMPI DUP1 PUSH4 0x72EEE557 EQ PUSH2 0x1599 JUMPI DUP1 PUSH4 0x75B238FC EQ PUSH2 0x155E JUMPI DUP1 PUSH4 0x7DC0D1D0 EQ PUSH2 0x1535 JUMPI DUP1 PUSH4 0x7F4AB1DD EQ PUSH2 0x150B JUMPI DUP1 PUSH4 0x82241080 EQ PUSH2 0x1439 JUMPI DUP1 PUSH4 0x82AEFA24 EQ PUSH2 0x13FE JUMPI DUP1 PUSH4 0x8456CB59 EQ PUSH2 0x1391 JUMPI DUP1 PUSH4 0x8A7A2D83 EQ PUSH2 0x1312 JUMPI DUP1 PUSH4 0x8AB1D681 EQ PUSH2 0x12A6 JUMPI DUP1 PUSH4 0x8BE2DDA1 EQ PUSH2 0x11D5 JUMPI DUP1 PUSH4 0x91D14854 EQ PUSH2 0x1188 JUMPI DUP1 PUSH4 0x95D89B41 EQ PUSH2 0x10B4 JUMPI DUP1 PUSH4 0x97ACF4DD EQ PUSH2 0x1096 JUMPI DUP1 PUSH4 0x99F91405 EQ PUSH2 0xF2F JUMPI DUP1 PUSH4 0x9B19251A EQ PUSH2 0xEF0 JUMPI DUP1 PUSH4 0x9DD5DE0B EQ PUSH2 0xED4 JUMPI DUP1 PUSH4 0xA217FDDF EQ PUSH2 0xDA2 JUMPI DUP1 PUSH4 0xA8B822F4 EQ PUSH2 0xE7A JUMPI DUP1 PUSH4 0xA9059CBB EQ PUSH2 0xE49 JUMPI DUP1 PUSH4 0xA9AAD58C EQ PUSH2 0xE2D JUMPI DUP1 PUSH4 0xAA8B2EA7 EQ PUSH2 0xE11 JUMPI DUP1 PUSH4 0xB10378E7 EQ PUSH2 0xDDA JUMPI DUP1 PUSH4 0xBFFBC6BE EQ PUSH2 0xDBE JUMPI DUP1 PUSH4 0xD0A6D1A6 EQ PUSH2 0xDA2 JUMPI DUP1 PUSH4 0xD4CE1415 EQ PUSH2 0xD7D JUMPI DUP1 PUSH4 0xD5025625 EQ PUSH2 0xC44 JUMPI DUP1 PUSH4 0xD547741F EQ PUSH2 0xC05 JUMPI DUP1 PUSH4 0xD897E121 EQ PUSH2 0xA85 JUMPI DUP1 PUSH4 0xDAD2DEA5 EQ PUSH2 0x93A JUMPI DUP1 PUSH4 0xDBB026B9 EQ PUSH2 0x7BD JUMPI DUP1 PUSH4 0xDC9F555B EQ PUSH2 0x5E6 JUMPI DUP1 PUSH4 0xDD62ED3E EQ PUSH2 0x595 JUMPI DUP1 PUSH4 0xE0BA8892 EQ PUSH2 0x513 JUMPI DUP1 PUSH4 0xE43252D7 EQ PUSH2 0x4A4 JUMPI DUP1 PUSH4 0xE70F17B6 EQ PUSH2 0x486 JUMPI DUP1 PUSH4 0xEB839559 EQ PUSH2 0x437 JUMPI DUP1 PUSH4 0xEFDF4BF7 EQ PUSH2 0x419 JUMPI DUP1 PUSH4 0xF9F92BE4 EQ PUSH2 0x3DA JUMPI DUP1 PUSH4 0xFCE8DE58 EQ PUSH2 0x35A JUMPI PUSH4 0xFDF97CB2 EQ PUSH2 0x32C JUMPI PUSH1 0x0 DUP1 REVERT JUMPDEST CALLVALUE PUSH2 0x355 JUMPI PUSH1 0x0 CALLDATASIZE PUSH1 0x3 NOT ADD SLT PUSH2 0x355 JUMPI PUSH1 0x1E SLOAD PUSH1 0x40 MLOAD PUSH1 0x1 PUSH1 0x1 PUSH1 0xA0 SHL SUB SWAP1 SWAP2 AND DUP2 MSTORE PUSH1 0x20 SWAP1 RETURN JUMPDEST PUSH1 0x0 DUP1 REVERT JUMPDEST CALLVALUE PUSH2 0x355 JUMPI PUSH1 0x0 CALLDATASIZE PUSH1 0x3 NOT ADD SLT PUSH2 0x355 JUMPI PUSH1 0x0 PUSH1 0x60 PUSH1 0x40 MLOAD PUSH2 0x37B DUP2 PUSH2 0x31C4 JUMP JUMPDEST DUP3 DUP2 MSTORE DUP3 PUSH1 0x20 DUP3 ADD MSTORE DUP3 PUSH1 0x40 DUP3 ADD MSTORE ADD MSTORE PUSH1 0x80 PUSH1 0x40 MLOAD PUSH2 0x39A DUP2 PUSH2 0x31C4 JUMP JUMPDEST PUSH1 0x1F SLOAD SWAP1 DUP2 DUP2 MSTORE PUSH1 0x20 SLOAD PUSH1 0x20 DUP3 ADD SWAP1 DUP2 MSTORE PUSH1 0x21 SLOAD SWAP1 PUSH1 0x40 DUP4 ADD SWAP2 DUP3 MSTORE PUSH1 0x60 PUSH1 0x22 SLOAD SWAP4 ADD SWAP3 DUP4 MSTORE PUSH1 0x40 MLOAD SWAP4 DUP5 MSTORE MLOAD PUSH1 0x20 DUP5 ADD MSTORE MLOAD PUSH1 0x40 DUP4 ADD MSTORE MLOAD PUSH1 0x60 DUP3 ADD MSTORE RETURN JUMPDEST CALLVALUE PUSH2 0x355 JUMPI PUSH1 0x20 CALLDATASIZE PUSH1 0x3 NOT ADD SLT PUSH2 0x355 JUMPI PUSH1 0x1 PUSH1 0x1 PUSH1 0xA0 SHL SUB PUSH2 0x3FB PUSH2 0x3120 JUMP JUMPDEST AND PUSH1 0x0 MSTORE PUSH1 0x2A PUSH1 0x20 MSTORE PUSH1 0x20 PUSH1 0xFF PUSH1 0x40 PUSH1 0x0 KECCAK256 SLOAD AND PUSH1 0x40 MLOAD SWAP1 ISZERO ISZERO DUP2 MSTORE RETURN JUMPDEST CALLVALUE PUSH2 0x355 JUMPI PUSH1 0x0 CALLDATASIZE PUSH1 0x3 NOT ADD SLT PUSH2 0x355 JUMPI PUSH1 0x20 PUSH1 0x25 SLOAD PUSH1 0x40 MLOAD SWAP1 DUP2 MSTORE RETURN JUMPDEST CALLVALUE PUSH2 0x355 JUMPI PUSH1 0x20 CALLDATASIZE PUSH1 0x3 NOT ADD SLT PUSH2 0x355 JUMPI PUSH1 0x4 CALLDATALOAD PUSH1 0x25 SLOAD DUP2 LT ISZERO PUSH2 0x355 JUMPI PUSH2 0x460 PUSH1 0x60 SWAP2 PUSH2 0x34D5 JUMP JUMPDEST POP DUP1 SLOAD SWAP1 PUSH1 0xFF PUSH1 0x2 PUSH1 0x1 DUP4 ADD SLOAD SWAP3 ADD SLOAD AND SWAP1 PUSH1 0x40 MLOAD SWAP3 DUP4 MSTORE PUSH1 0x20 DUP4 ADD MSTORE ISZERO ISZERO PUSH1 0x40 DUP3 ADD MSTORE RETURN JUMPDEST CALLVALUE PUSH2 0x355 JUMPI PUSH1 0x0 CALLDATASIZE PUSH1 0x3 NOT ADD SLT PUSH2 0x355 JUMPI PUSH1 0x20 PUSH1 0x26 SLOAD PUSH1 0x40 MLOAD SWAP1 DUP2 MSTORE RETURN JUMPDEST CALLVALUE PUSH2 0x355 JUMPI PUSH1 0x20 CALLDATASIZE PUSH1 0x3 NOT ADD SLT PUSH2 0x355 JUMPI PUSH2 0x4BD PUSH2 0x3120 JUMP JUMPDEST PUSH2 0x4C5 PUSH2 0x3510 JUMP JUMPDEST PUSH1 0x1 DUP1 PUSH1 0xA0 SHL SUB AND DUP1 PUSH1 0x0 MSTORE PUSH1 0x29 PUSH1 0x20 MSTORE PUSH1 0x40 PUSH1 0x0 KECCAK256 PUSH1 0x1 PUSH1 0xFF NOT DUP3 SLOAD AND OR SWAP1 SSTORE PUSH32 0xF93F9A76C1BF3444D22400A00CB9FE990E6ABE9DBB333FDA48859CFEE864543D PUSH1 0x20 PUSH1 0x40 MLOAD PUSH1 0x1 DUP2 MSTORE LOG2 STOP JUMPDEST CALLVALUE PUSH2 0x355 JUMPI PUSH1 0x20 CALLDATASIZE PUSH1 0x3 NOT ADD SLT PUSH2 0x355 JUMPI PUSH1 0x1C SLOAD PUSH1 0x40 MLOAD PUSH4 0x23B872DD PUSH1 0xE0 SHL PUSH1 0x20 DUP3 ADD MSTORE CALLER PUSH1 0x24 DUP3 ADD MSTORE ADDRESS PUSH1 0x44 DUP3 ADD MSTORE PUSH1 0x4 CALLDATALOAD PUSH1 0x64 DUP1 DUP4 ADD SWAP2 SWAP1 SWAP2 MSTORE DUP2 MSTORE PUSH1 0xA0 DUP2 ADD SWAP2 PUSH1 0x1 PUSH1 0x1 PUSH1 0xA0 SHL SUB AND PUSH1 0x1 PUSH1 0x1 PUSH1 0x40 SHL SUB DUP4 GT DUP3 DUP5 LT OR PUSH2 0x57F JUMPI PUSH2 0x57D SWAP3 PUSH1 0x40 MSTORE PUSH2 0x3F29 JUMP JUMPDEST STOP JUMPDEST PUSH4 0x4E487B71 PUSH1 0xE0 SHL PUSH1 0x0 MSTORE PUSH1 0x41 PUSH1 0x4 MSTORE PUSH1 0x24 PUSH1 0x0 REVERT JUMPDEST CALLVALUE PUSH2 0x355 JUMPI PUSH1 0x40 CALLDATASIZE PUSH1 0x3 NOT ADD SLT PUSH2 0x355 JUMPI PUSH2 0x5AE PUSH2 0x3120 JUMP JUMPDEST PUSH2 0x5B6 PUSH2 0x3136 JUMP JUMPDEST SWAP1 PUSH1 0x1 DUP1 PUSH1 0xA0 SHL SUB DUP1 SWAP2 AND PUSH1 0x0 MSTORE PUSH1 0x1 PUSH1 0x20 MSTORE PUSH1 0x40 PUSH1 0x0 KECCAK256 SWAP2 AND PUSH1 0x0 MSTORE PUSH1 0x20 MSTORE PUSH1 0x20 PUSH1 0x40 PUSH1 0x0 KECCAK256 SLOAD PUSH1 0x40 MLOAD SWAP1 DUP2 MSTORE RETURN JUMPDEST CALLVALUE PUSH2 0x355 JUMPI PUSH1 0x20 CALLDATASIZE PUSH1 0x3 NOT ADD SLT PUSH2 0x355 JUMPI PUSH1 0x4 CALLDATALOAD PUSH2 0x602 PUSH2 0x35E6 JUMP JUMPDEST PUSH2 0x60A PUSH2 0x3F91 JUMP JUMPDEST PUSH1 0x25 SLOAD DUP2 LT ISZERO PUSH2 0x77F JUMPI PUSH2 0x61D DUP2 PUSH2 0x34D5 JUMP JUMPDEST POP PUSH1 0x2 DUP2 ADD DUP1 SLOAD SWAP2 PUSH1 0xFF DUP4 AND PUSH2 0x747 JUMPI DUP1 SLOAD TIMESTAMP LT PUSH2 0x714 JUMPI PUSH1 0xFF PUSH1 0x15 SLOAD AND SWAP1 PUSH1 0x3 DUP3 LT ISZERO PUSH2 0x6FE JUMPI PUSH1 0x1 SWAP2 DUP1 PUSH2 0x6D4 JUMPI POP PUSH2 0x662 PUSH2 0x2710 SWAP2 DUP4 PUSH1 0xB SLOAD SWAP2 ADD SLOAD SWAP1 PUSH2 0x3E9E JUMP JUMPDEST DIV SWAP3 JUMPDEST PUSH1 0xFF NOT AND OR SWAP1 SSTORE PUSH2 0x678 DUP2 PUSH1 0x26 SLOAD PUSH2 0x3DE6 JUMP JUMPDEST PUSH1 0x26 SSTORE PUSH1 0x1F SLOAD DUP2 DUP2 SUB SWAP1 DUP2 GT PUSH2 0x6BE JUMPI PUSH32 0xB10029B18398D9100E238205AEAC0A568BE16C0BC81098EEF87B240093F75AE7 SWAP2 PUSH1 0x20 SWAP2 PUSH1 0x1F SSTORE PUSH1 0x40 MLOAD SWAP1 DUP2 MSTORE LOG2 PUSH1 0x1 PUSH1 0x6 SSTORE STOP JUMPDEST PUSH4 0x4E487B71 PUSH1 0xE0 SHL PUSH1 0x0 MSTORE PUSH1 0x11 PUSH1 0x4 MSTORE PUSH1 0x24 PUSH1 0x0 REVERT JUMPDEST DUP3 SUB PUSH2 0x6F5 JUMPI PUSH2 0x6EE PUSH2 0x2710 SWAP2 DUP4 PUSH1 0x1F SLOAD SWAP2 ADD SLOAD SWAP1 PUSH2 0x3E9E JUMP JUMPDEST DIV SWAP3 PUSH2 0x665 JUMP JUMPDEST DUP2 ADD SLOAD SWAP3 PUSH2 0x665 JUMP JUMPDEST PUSH4 0x4E487B71 PUSH1 0xE0 SHL PUSH1 0x0 MSTORE PUSH1 0x21 PUSH1 0x4 MSTORE PUSH1 0x24 PUSH1 0x0 REVERT JUMPDEST PUSH1 0x40 MLOAD PUSH3 0x461BCD PUSH1 0xE5 SHL DUP2 MSTORE PUSH1 0x20 PUSH1 0x4 DUP3 ADD MSTORE PUSH1 0xB PUSH1 0x24 DUP3 ADD MSTORE PUSH11 0x4E6F742079657420647565 PUSH1 0xA8 SHL PUSH1 0x44 DUP3 ADD MSTORE PUSH1 0x64 SWAP1 REVERT JUMPDEST PUSH1 0x40 MLOAD PUSH3 0x461BCD PUSH1 0xE5 SHL DUP2 MSTORE PUSH1 0x20 PUSH1 0x4 DUP3 ADD MSTORE PUSH1 0x10 PUSH1 0x24 DUP3 ADD MSTORE PUSH16 0x105B1C9958591E48195E1958DD5D1959 PUSH1 0x82 SHL PUSH1 0x44 DUP3 ADD MSTORE PUSH1 0x64 SWAP1 REVERT JUMPDEST PUSH1 0x40 MLOAD PUSH3 0x461BCD PUSH1 0xE5 SHL DUP2 MSTORE PUSH1 0x20 PUSH1 0x4 DUP3 ADD MSTORE PUSH1 0x16 PUSH1 0x24 DUP3 ADD MSTORE PUSH22 0x92DCECC2D8D2C840E6C6D0CAC8EAD8CA40D2DCC8CAF PUSH1 0x53 SHL PUSH1 0x44 DUP3 ADD MSTORE PUSH1 0x64 SWAP1 REVERT JUMPDEST CALLVALUE PUSH2 0x355 JUMPI PUSH1 0x20 DUP1 PUSH1 0x3 NOT CALLDATASIZE ADD SLT PUSH2 0x355 JUMPI PUSH1 0x4 CALLDATALOAD SWAP1 PUSH2 0x7DB PUSH2 0x3F91 JUMP JUMPDEST PUSH1 0x27 SLOAD DUP3 LT ISZERO PUSH2 0x8FF JUMPI CALLER PUSH1 0x0 MSTORE PUSH1 0x28 DUP2 MSTORE PUSH1 0x40 PUSH1 0x0 KECCAK256 DUP3 PUSH1 0x0 MSTORE DUP2 MSTORE PUSH1 0xFF PUSH1 0x40 PUSH1 0x0 KECCAK256 SLOAD AND PUSH2 0x8C9 JUMPI CALLER PUSH1 0x0 MSTORE PUSH1 0x29 DUP2 MSTORE PUSH2 0x81E PUSH1 0xFF PUSH1 0x40 PUSH1 0x0 KECCAK256 SLOAD AND PUSH2 0x3E26 JUMP JUMPDEST PUSH32 0xD5A6750FD524C6F3D04C2A3F8E74B57E914EFBA5C7B8D9C1A17555EB7FB7052B PUSH3 0xF4240 PUSH2 0x874 PUSH2 0x84F DUP6 PUSH2 0x32A7 JUMP JUMPDEST POP CALLER PUSH1 0x0 MSTORE PUSH1 0x0 DUP6 MSTORE PUSH1 0x1 PUSH1 0x40 PUSH1 0x0 KECCAK256 SLOAD SWAP2 PUSH2 0x86C DUP4 ISZERO ISZERO PUSH2 0x3E64 JUMP JUMPDEST ADD SLOAD SWAP1 PUSH2 0x3E9E JUMP JUMPDEST DIV SWAP2 PUSH2 0x881 DUP4 ISZERO ISZERO PUSH2 0x3EB1 JUMP JUMPDEST CALLER PUSH1 0x0 DUP2 DUP2 MSTORE PUSH1 0x28 DUP4 MSTORE PUSH1 0x40 DUP1 DUP3 KECCAK256 DUP8 DUP4 MSTORE DUP5 MSTORE SWAP1 KECCAK256 DUP1 SLOAD PUSH1 0xFF NOT AND PUSH1 0x1 OR SWAP1 SSTORE PUSH1 0x1C SLOAD PUSH2 0x8B9 SWAP2 DUP6 SWAP2 PUSH1 0x1 PUSH1 0x1 PUSH1 0xA0 SHL SUB AND PUSH2 0x3EF0 JUMP JUMPDEST PUSH1 0x40 MLOAD SWAP3 DUP4 MSTORE CALLER SWAP3 LOG3 PUSH1 0x1 PUSH1 0x6 SSTORE STOP JUMPDEST PUSH1 0x64 SWAP1 PUSH1 0x40 MLOAD SWAP1 PUSH3 0x461BCD PUSH1 0xE5 SHL DUP3 MSTORE PUSH1 0x4 DUP3 ADD MSTORE PUSH1 0xF PUSH1 0x24 DUP3 ADD MSTORE PUSH15 0x105B1C9958591E4818DB185A5B5959 PUSH1 0x8A SHL PUSH1 0x44 DUP3 ADD MSTORE REVERT JUMPDEST PUSH1 0x64 SWAP1 PUSH1 0x40 MLOAD SWAP1 PUSH3 0x461BCD PUSH1 0xE5 SHL DUP3 MSTORE PUSH1 0x4 DUP3 ADD MSTORE PUSH1 0x14 PUSH1 0x24 DUP3 ADD MSTORE PUSH20 0x92DCECC2D8D2C840C6DEEAE0DEDC40D2DCC8CAF PUSH1 0x63 SHL PUSH1 0x44 DUP3 ADD MSTORE REVERT JUMPDEST CALLVALUE PUSH2 0x355 JUMPI PUSH1 0x0 CALLDATASIZE PUSH1 0x3 NOT ADD SLT PUSH2 0x355 JUMPI PUSH2 0x953 PUSH2 0x3F91 JUMP JUMPDEST CALLER PUSH1 0x0 MSTORE PUSH1 0x20 PUSH1 0x29 DUP2 MSTORE PUSH1 0xFF PUSH2 0x96F DUP2 PUSH1 0x40 PUSH1 0x0 KECCAK256 SLOAD AND PUSH2 0x3E26 JUMP JUMPDEST CALLER PUSH1 0x0 MSTORE PUSH1 0x0 DUP3 MSTORE PUSH1 0x40 PUSH1 0x0 KECCAK256 SLOAD SWAP1 PUSH2 0x989 DUP3 ISZERO ISZERO PUSH2 0x3E64 JUMP JUMPDEST PUSH1 0x0 SWAP3 PUSH1 0x0 JUMPDEST PUSH1 0x27 SLOAD DUP2 LT ISZERO PUSH2 0xA5C JUMPI CALLER PUSH1 0x0 MSTORE PUSH1 0x28 DUP1 DUP4 MSTORE PUSH1 0x40 PUSH1 0x0 KECCAK256 DUP3 PUSH1 0x0 MSTORE DUP4 MSTORE DUP4 PUSH1 0x40 PUSH1 0x0 KECCAK256 SLOAD AND ISZERO PUSH2 0x9CA JUMPI JUMPDEST POP PUSH2 0x9C5 SWAP1 PUSH2 0x3DF3 JUMP JUMPDEST PUSH2 0x98F JUMP JUMPDEST PUSH2 0x9D3 DUP3 PUSH2 0x32A7 JUMP JUMPDEST POP PUSH3 0xF4240 PUSH2 0x9E7 PUSH1 0x1 DUP1 SWAP4 ADD SLOAD DUP9 PUSH2 0x3E9E JUMP JUMPDEST DIV SWAP2 DUP3 PUSH2 0x9F6 JUMPI JUMPDEST POP POP PUSH2 0x9BB JUMP JUMPDEST DUP3 DUP5 SWAP4 SWAP9 PUSH2 0x9C5 SWAP6 SWAP4 PUSH2 0xA28 SWAP4 CALLER PUSH1 0x0 MSTORE DUP9 MSTORE PUSH1 0x40 PUSH1 0x0 KECCAK256 DUP6 PUSH1 0x0 MSTORE DUP9 MSTORE PUSH1 0x40 PUSH1 0x0 KECCAK256 SWAP1 PUSH1 0xFF NOT DUP3 SLOAD AND OR SWAP1 SSTORE PUSH2 0x3DE6 JUMP JUMPDEST SWAP7 PUSH1 0x40 MLOAD SWAP1 DUP2 MSTORE PUSH32 0xD5A6750FD524C6F3D04C2A3F8E74B57E914EFBA5C7B8D9C1A17555EB7FB7052B DUP6 CALLER SWAP3 LOG3 SWAP1 DUP7 DUP1 PUSH2 0x9EF JUMP JUMPDEST PUSH2 0xA7E DUP6 PUSH2 0xA6B DUP2 ISZERO ISZERO PUSH2 0x3EB1 JUMP JUMPDEST PUSH1 0x1C SLOAD CALLER SWAP1 PUSH1 0x1 PUSH1 0x1 PUSH1 0xA0 SHL SUB AND PUSH2 0x3EF0 JUMP JUMPDEST PUSH1 0x1 PUSH1 0x6 SSTORE STOP JUMPDEST CALLVALUE PUSH2 0x355 JUMPI PUSH1 0x40 CALLDATASIZE PUSH1 0x3 NOT ADD SLT PUSH2 0x355 JUMPI PUSH1 0x24 PUSH1 0x4 CALLDATALOAD DUP2 CALLDATALOAD PUSH2 0xAA5 PUSH2 0x35E6 JUMP JUMPDEST PUSH1 0xFF PUSH1 0x1E SLOAD PUSH1 0xA0 SHR AND PUSH1 0x4 DUP2 LT ISZERO PUSH2 0xBF0 JUMPI PUSH2 0xBB5 JUMPI PUSH1 0x40 MLOAD PUSH2 0xAC7 DUP2 PUSH2 0x31C4 JUMP JUMPDEST TIMESTAMP DUP2 MSTORE PUSH1 0x20 DUP2 ADD SWAP1 DUP4 DUP3 MSTORE PUSH1 0x40 DUP2 ADD SWAP1 DUP4 DUP3 MSTORE PUSH1 0x60 DUP2 ADD PUSH1 0x0 DUP2 MSTORE PUSH1 0x27 SLOAD PUSH1 0x1 PUSH1 0x40 SHL DUP2 LT ISZERO PUSH2 0xBA0 JUMPI DUP1 PUSH1 0x1 PUSH2 0xB01 SWAP3 ADD PUSH1 0x27 SSTORE PUSH2 0x32A7 JUMP JUMPDEST SWAP4 SWAP1 SWAP4 PUSH2 0xB8B JUMPI PUSH2 0xB34 SWAP5 PUSH1 0x3 SWAP4 MLOAD DUP6 SSTORE MLOAD PUSH1 0x1 DUP6 ADD SSTORE MLOAD PUSH1 0x2 DUP5 ADD SSTORE MLOAD ISZERO ISZERO SWAP2 ADD SWAP1 PUSH1 0xFF DUP1 NOT DUP4 SLOAD AND SWAP2 ISZERO ISZERO AND OR SWAP1 SSTORE JUMP JUMPDEST PUSH1 0x27 SLOAD PUSH1 0x0 NOT DUP2 ADD SWAP4 SWAP1 DUP5 GT PUSH2 0xB77 JUMPI POP PUSH32 0x7807A3C5CEA5B077FD571AB8A6294D8754D4C1D56B1B1F549873F7FF73E0C17C SWAP2 PUSH1 0x40 SWAP2 DUP3 MLOAD SWAP2 DUP3 MSTORE PUSH1 0x20 DUP3 ADD MSTORE LOG2 STOP JUMPDEST PUSH4 0x4E487B71 PUSH1 0xE0 SHL PUSH1 0x0 SWAP1 DUP2 MSTORE PUSH1 0x11 PUSH1 0x4 MSTORE REVERT JUMPDEST DUP8 PUSH4 0x4E487B71 PUSH1 0xE0 SHL PUSH1 0x0 MSTORE PUSH1 0x0 PUSH1 0x4 MSTORE PUSH1 0x0 REVERT JUMPDEST DUP8 PUSH4 0x4E487B71 PUSH1 0xE0 SHL PUSH1 0x0 MSTORE PUSH1 0x41 PUSH1 0x4 MSTORE PUSH1 0x0 REVERT JUMPDEST PUSH1 0x40 MLOAD PUSH3 0x461BCD PUSH1 0xE5 SHL DUP2 MSTORE PUSH1 0x20 PUSH1 0x4 DUP3 ADD MSTORE PUSH1 0x14 DUP2 DUP6 ADD MSTORE PUSH20 0x446562656E74757265206E6F7420616374697665 PUSH1 0x60 SHL PUSH1 0x44 DUP3 ADD MSTORE PUSH1 0x64 SWAP1 REVERT JUMPDEST DUP4 PUSH4 0x4E487B71 PUSH1 0xE0 SHL PUSH1 0x0 MSTORE PUSH1 0x21 PUSH1 0x4 MSTORE PUSH1 0x0 REVERT JUMPDEST CALLVALUE PUSH2 0x355 JUMPI PUSH1 0x40 CALLDATASIZE PUSH1 0x3 NOT ADD SLT PUSH2 0x355 JUMPI PUSH2 0x57D PUSH1 0x4 CALLDATALOAD PUSH2 0xC24 PUSH2 0x3136 JUMP JUMPDEST SWAP1 DUP1 PUSH1 0x0 MSTORE PUSH1 0x5 PUSH1 0x20 MSTORE PUSH2 0xC3F PUSH1 0x1 PUSH1 0x40 PUSH1 0x0 KECCAK256 ADD SLOAD PUSH2 0x369E JUMP JUMPDEST PUSH2 0x3A21 JUMP JUMPDEST CALLVALUE PUSH2 0x355 JUMPI PUSH1 0x0 CALLDATASIZE PUSH1 0x3 NOT ADD SLT PUSH2 0x355 JUMPI PUSH1 0xB SLOAD PUSH1 0xC SLOAD SWAP1 PUSH1 0xD SLOAD PUSH1 0xE SLOAD PUSH1 0xF SLOAD PUSH1 0xFF AND PUSH1 0x10 SLOAD PUSH1 0x11 SLOAD PUSH1 0xFF AND PUSH1 0x12 SLOAD PUSH1 0x13 SLOAD PUSH1 0xFF AND SWAP1 PUSH1 0x14 SLOAD SWAP3 PUSH1 0x15 SLOAD PUSH1 0xFF AND SWAP5 PUSH2 0xC8E PUSH2 0x331B JUMP JUMPDEST SWAP7 PUSH2 0xC97 PUSH2 0x33C7 JUMP JUMPDEST SWAP9 PUSH2 0xCA0 PUSH2 0x344E JUMP JUMPDEST SWAP11 PUSH1 0x19 SLOAD SWAP14 PUSH1 0x1A SLOAD SWAP14 PUSH1 0x40 MLOAD DUP1 PUSH1 0x80 MSTORE MSTORE PUSH1 0x80 MLOAD PUSH1 0x20 ADD MSTORE PUSH1 0x80 MLOAD PUSH1 0x40 ADD MSTORE PUSH1 0x80 MLOAD PUSH1 0x60 ADD MSTORE PUSH1 0x80 MLOAD PUSH1 0x80 ADD MSTORE PUSH1 0x80 MLOAD PUSH1 0xA0 ADD MSTORE PUSH1 0x80 MLOAD PUSH1 0xC0 ADD PUSH2 0xCE3 SWAP2 PUSH2 0x318E JUMP JUMPDEST PUSH1 0x80 MLOAD PUSH1 0xE0 ADD MSTORE PUSH1 0x80 MLOAD PUSH2 0x100 ADD MSTORE PUSH1 0x80 MLOAD PUSH2 0x120 ADD MSTORE PUSH1 0x80 MLOAD PUSH2 0x140 ADD PUSH2 0xD0A SWAP2 PUSH2 0x319B JUMP JUMPDEST PUSH2 0x220 DUP1 PUSH1 0x80 MLOAD PUSH2 0x160 ADD MSTORE PUSH1 0x80 MLOAD ADD PUSH2 0xD23 SWAP2 PUSH2 0x30FB JUMP JUMPDEST PUSH1 0x80 MLOAD DUP1 DUP3 SUB SWAP1 PUSH2 0x180 ADD MSTORE PUSH2 0xD38 SWAP2 PUSH2 0x30FB JUMP JUMPDEST PUSH1 0x80 MLOAD DUP1 DUP3 SUB SWAP1 PUSH2 0x1A0 ADD MSTORE PUSH2 0xD4D SWAP2 PUSH2 0x30FB JUMP JUMPDEST SWAP2 PUSH1 0xFF DUP2 AND ISZERO ISZERO PUSH1 0x80 MLOAD PUSH2 0x1C0 ADD MSTORE PUSH1 0x8 SHR PUSH1 0xFF AND ISZERO ISZERO PUSH1 0x80 MLOAD PUSH2 0x1E0 ADD MSTORE PUSH1 0x80 MLOAD PUSH2 0x200 ADD MSTORE PUSH1 0x80 MLOAD DUP1 SWAP2 SUB SWAP1 RETURN JUMPDEST CALLVALUE PUSH2 0x355 JUMPI PUSH1 0x20 PUSH2 0xD97 PUSH2 0xD90 CALLDATASIZE PUSH2 0x3159 JUMP JUMPDEST POP SWAP1 PUSH2 0x3BB9 JUMP JUMPDEST PUSH1 0xFF PUSH1 0x40 MLOAD SWAP2 AND DUP2 MSTORE RETURN JUMPDEST CALLVALUE PUSH2 0x355 JUMPI PUSH1 0x0 CALLDATASIZE PUSH1 0x3 NOT ADD SLT PUSH2 0x355 JUMPI PUSH1 0x20 PUSH1 0x40 MLOAD PUSH1 0x0 DUP2 MSTORE RETURN JUMPDEST CALLVALUE PUSH2 0x355 JUMPI PUSH1 0x0 CALLDATASIZE PUSH1 0x3 NOT ADD SLT PUSH2 0x355 JUMPI PUSH1 0x20 PUSH1 0x40 MLOAD PUSH1 0x1 DUP2 MSTORE RETURN JUMPDEST CALLVALUE PUSH2 0x355 JUMPI PUSH1 0x0 CALLDATASIZE PUSH1 0x3 NOT ADD SLT PUSH2 0x355 JUMPI PUSH1 0x80 PUSH1 0x1F SLOAD PUSH1 0x20 SLOAD PUSH1 0x21 SLOAD PUSH1 0x22 SLOAD SWAP2 PUSH1 0x40 MLOAD SWAP4 DUP5 MSTORE PUSH1 0x20 DUP5 ADD MSTORE PUSH1 0x40 DUP4 ADD MSTORE PUSH1 0x60 DUP3 ADD MSTORE RETURN JUMPDEST CALLVALUE PUSH2 0x355 JUMPI PUSH1 0x0 CALLDATASIZE PUSH1 0x3 NOT ADD SLT PUSH2 0x355 JUMPI PUSH1 0x20 PUSH1 0x40 MLOAD PUSH1 0x3 DUP2 MSTORE RETURN JUMPDEST CALLVALUE PUSH2 0x355 JUMPI PUSH1 0x0 CALLDATASIZE PUSH1 0x3 NOT ADD SLT PUSH2 0x355 JUMPI PUSH1 0x20 PUSH1 0x40 MLOAD PUSH1 0x2 DUP2 MSTORE RETURN JUMPDEST CALLVALUE PUSH2 0x355 JUMPI PUSH1 0x40 CALLDATASIZE PUSH1 0x3 NOT ADD SLT PUSH2 0x355 JUMPI PUSH2 0xE6F PUSH2 0xE65 PUSH2 0x3120 JUMP JUMPDEST PUSH1 0x24 CALLDATALOAD SWAP1 CALLER PUSH2 0x3A98 JUMP JUMPDEST PUSH1 0x20 PUSH1 0x40 MLOAD PUSH1 0x1 DUP2 MSTORE RETURN JUMPDEST CALLVALUE PUSH2 0x355 JUMPI PUSH1 0x20 CALLDATASIZE PUSH1 0x3 NOT ADD SLT PUSH2 0x355 JUMPI PUSH1 0x4 CALLDATALOAD PUSH1 0x27 SLOAD DUP2 LT ISZERO PUSH2 0x355 JUMPI PUSH2 0xEA3 PUSH1 0x80 SWAP2 PUSH2 0x32A7 JUMP JUMPDEST POP DUP1 SLOAD SWAP1 PUSH1 0x1 DUP2 ADD SLOAD SWAP1 PUSH1 0xFF PUSH1 0x3 PUSH1 0x2 DUP4 ADD SLOAD SWAP3 ADD SLOAD AND SWAP2 PUSH1 0x40 MLOAD SWAP4 DUP5 MSTORE PUSH1 0x20 DUP5 ADD MSTORE PUSH1 0x40 DUP4 ADD MSTORE ISZERO ISZERO PUSH1 0x60 DUP3 ADD MSTORE RETURN JUMPDEST CALLVALUE PUSH2 0x355 JUMPI PUSH1 0x0 CALLDATASIZE PUSH1 0x3 NOT ADD SLT PUSH2 0x355 JUMPI PUSH1 0x20 PUSH1 0x40 MLOAD PUSH1 0x64 DUP2 MSTORE RETURN JUMPDEST CALLVALUE PUSH2 0x355 JUMPI PUSH1 0x20 CALLDATASIZE PUSH1 0x3 NOT ADD SLT PUSH2 0x355 JUMPI PUSH1 0x1 PUSH1 0x1 PUSH1 0xA0 SHL SUB PUSH2 0xF11 PUSH2 0x3120 JUMP JUMPDEST AND PUSH1 0x0 MSTORE PUSH1 0x29 PUSH1 0x20 MSTORE PUSH1 0x20 PUSH1 0xFF PUSH1 0x40 PUSH1 0x0 KECCAK256 SLOAD AND PUSH1 0x40 MLOAD SWAP1 ISZERO ISZERO DUP2 MSTORE RETURN JUMPDEST CALLVALUE PUSH2 0x355 JUMPI PUSH1 0x20 DUP1 PUSH1 0x3 NOT CALLDATASIZE ADD SLT PUSH2 0x355 JUMPI PUSH2 0xF49 PUSH2 0x3120 JUMP JUMPDEST PUSH1 0x27 SLOAD PUSH1 0x1 PUSH1 0x1 PUSH1 0xA0 SHL SUB SWAP1 SWAP2 AND SWAP1 PUSH1 0x0 SWAP1 DUP2 JUMPDEST DUP2 DUP2 LT PUSH2 0x1051 JUMPI POP PUSH2 0xF87 PUSH2 0xF71 DUP4 PUSH2 0x3FED JUMP JUMPDEST SWAP3 PUSH2 0xF7F PUSH1 0x40 MLOAD SWAP5 DUP6 PUSH2 0x3215 JUMP JUMPDEST DUP1 DUP5 MSTORE PUSH2 0x3FED JUMP JUMPDEST DUP3 DUP6 ADD SWAP4 SWAP1 PUSH1 0x1F NOT ADD CALLDATASIZE DUP6 CALLDATACOPY PUSH1 0x0 SWAP1 PUSH1 0x0 JUMPDEST DUP4 DUP2 LT PUSH2 0xFE3 JUMPI DUP7 DUP6 DUP8 PUSH1 0x40 MLOAD SWAP3 DUP4 SWAP3 DUP2 DUP5 ADD SWAP1 DUP3 DUP6 MSTORE MLOAD DUP1 SWAP2 MSTORE PUSH1 0x40 DUP5 ADD SWAP3 SWAP2 PUSH1 0x0 JUMPDEST DUP3 DUP2 LT PUSH2 0xFCC JUMPI POP POP POP POP SUB SWAP1 RETURN JUMPDEST DUP4 MLOAD DUP6 MSTORE DUP7 SWAP6 POP SWAP4 DUP2 ADD SWAP4 SWAP3 DUP2 ADD SWAP3 PUSH1 0x1 ADD PUSH2 0xFBD JUMP JUMPDEST DUP2 PUSH1 0x0 MSTORE PUSH1 0x28 DUP8 MSTORE PUSH1 0x40 PUSH1 0x0 KECCAK256 DUP2 PUSH1 0x0 MSTORE DUP8 MSTORE PUSH1 0xFF PUSH1 0x40 PUSH1 0x0 KECCAK256 SLOAD AND ISZERO PUSH2 0x1013 JUMPI JUMPDEST PUSH2 0x100E SWAP1 PUSH2 0x3DF3 JUMP JUMPDEST PUSH2 0xF99 JUMP JUMPDEST SWAP2 DUP5 MLOAD DUP2 LT ISZERO PUSH2 0x103B JUMPI PUSH2 0x1033 DUP2 DUP5 DUP10 PUSH2 0x100E SWAP5 PUSH1 0x5 SHL DUP10 ADD ADD MSTORE PUSH2 0x3DF3 JUMP JUMPDEST SWAP3 SWAP1 POP PUSH2 0x1005 JUMP JUMPDEST PUSH4 0x4E487B71 PUSH1 0xE0 SHL PUSH1 0x0 MSTORE PUSH1 0x32 PUSH1 0x4 MSTORE PUSH1 0x24 PUSH1 0x0 REVERT JUMPDEST DUP4 PUSH1 0x0 MSTORE PUSH1 0x28 DUP6 MSTORE PUSH1 0x40 PUSH1 0x0 KECCAK256 DUP2 PUSH1 0x0 MSTORE DUP6 MSTORE PUSH1 0xFF PUSH1 0x40 PUSH1 0x0 KECCAK256 SLOAD AND ISZERO PUSH2 0x1081 JUMPI JUMPDEST PUSH2 0x107C SWAP1 PUSH2 0x3DF3 JUMP JUMPDEST PUSH2 0xF5D JUMP JUMPDEST SWAP2 PUSH2 0x108E PUSH2 0x107C SWAP2 PUSH2 0x3DF3 JUMP JUMPDEST SWAP3 SWAP1 POP PUSH2 0x1073 JUMP JUMPDEST CALLVALUE PUSH2 0x355 JUMPI PUSH1 0x0 CALLDATASIZE PUSH1 0x3 NOT ADD SLT PUSH2 0x355 JUMPI PUSH1 0x20 PUSH1 0x23 SLOAD PUSH1 0x40 MLOAD SWAP1 DUP2 MSTORE RETURN JUMPDEST CALLVALUE PUSH2 0x355 JUMPI PUSH1 0x0 CALLDATASIZE PUSH1 0x3 NOT ADD SLT PUSH2 0x355 JUMPI PUSH1 0x40 MLOAD PUSH1 0x0 PUSH1 0x9 SLOAD PUSH2 0x10D6 DUP2 PUSH2 0x32E1 JUMP JUMPDEST DUP1 DUP5 MSTORE SWAP1 PUSH1 0x1 SWAP1 DUP2 DUP2 AND SWAP1 DUP2 ISZERO PUSH2 0x1161 JUMPI POP PUSH1 0x1 EQ PUSH2 0x1118 JUMPI JUMPDEST PUSH2 0x1114 DUP5 PUSH2 0x1100 DUP2 DUP7 SUB DUP3 PUSH2 0x3215 JUMP JUMPDEST PUSH1 0x40 MLOAD SWAP2 DUP3 SWAP2 PUSH1 0x20 DUP4 MSTORE PUSH1 0x20 DUP4 ADD SWAP1 PUSH2 0x30FB JUMP JUMPDEST SUB SWAP1 RETURN JUMPDEST PUSH1 0x9 PUSH1 0x0 SWAP1 DUP2 MSTORE SWAP3 POP PUSH1 0x0 DUP1 MLOAD PUSH1 0x20 PUSH2 0x4065 DUP4 CODECOPY DUP2 MLOAD SWAP2 MSTORE JUMPDEST DUP3 DUP5 LT PUSH2 0x1149 JUMPI POP POP POP DUP2 ADD PUSH1 0x20 ADD PUSH2 0x1100 DUP3 PUSH2 0x10F0 JUMP JUMPDEST DUP1 SLOAD PUSH1 0x20 DUP6 DUP8 ADD DUP2 ADD SWAP2 SWAP1 SWAP2 MSTORE SWAP1 SWAP4 ADD SWAP3 DUP2 ADD PUSH2 0x1131 JUMP JUMPDEST PUSH1 0xFF NOT AND PUSH1 0x20 DUP1 DUP8 ADD SWAP2 SWAP1 SWAP2 MSTORE SWAP3 ISZERO ISZERO PUSH1 0x5 SHL DUP6 ADD SWAP1 SWAP3 ADD SWAP3 POP PUSH2 0x1100 SWAP2 POP DUP4 SWAP1 POP PUSH2 0x10F0 JUMP JUMPDEST CALLVALUE PUSH2 0x355 JUMPI PUSH1 0x40 CALLDATASIZE PUSH1 0x3 NOT ADD SLT PUSH2 0x355 JUMPI PUSH2 0x11A1 PUSH2 0x3136 JUMP JUMPDEST PUSH1 0x4 CALLDATALOAD PUSH1 0x0 MSTORE PUSH1 0x5 PUSH1 0x20 MSTORE PUSH1 0x40 PUSH1 0x0 KECCAK256 SWAP1 PUSH1 0x1 DUP1 PUSH1 0xA0 SHL SUB AND PUSH1 0x0 MSTORE PUSH1 0x20 MSTORE PUSH1 0x20 PUSH1 0xFF PUSH1 0x40 PUSH1 0x0 KECCAK256 SLOAD AND PUSH1 0x40 MLOAD SWAP1 ISZERO ISZERO DUP2 MSTORE RETURN JUMPDEST CALLVALUE PUSH2 0x355 JUMPI PUSH1 0x0 CALLDATASIZE PUSH1 0x3 NOT ADD SLT PUSH2 0x355 JUMPI PUSH2 0x11EE PUSH2 0x3642 JUMP JUMPDEST PUSH1 0xE SLOAD TIMESTAMP LT PUSH2 0x1270 JUMPI PUSH1 0x1E SLOAD PUSH1 0xFF DUP2 PUSH1 0xA0 SHR AND SWAP1 PUSH1 0x4 DUP3 LT ISZERO PUSH2 0x6FE JUMPI DUP2 PUSH2 0x126D PUSH1 0x40 SWAP3 PUSH2 0x123D PUSH32 0xE1377AA21D49FA10BB9ECE6A0CD4F75597A90A80C3750F7F7674967F49AB9A62 SWAP6 ISZERO PUSH2 0x3FB4 JUMP JUMPDEST PUSH1 0xFF PUSH1 0xA0 SHL NOT AND PUSH1 0x1 PUSH1 0xA0 SHL OR PUSH1 0x1E DUP2 SWAP1 SSTORE DUP4 MLOAD SWAP3 PUSH2 0x125D SWAP1 DUP5 SWAP1 PUSH2 0x314C JUMP JUMPDEST PUSH1 0xFF PUSH1 0x20 DUP5 ADD SWAP2 PUSH1 0xA0 SHR AND PUSH2 0x314C JUMP JUMPDEST LOG1 STOP JUMPDEST PUSH1 0x40 MLOAD PUSH3 0x461BCD PUSH1 0xE5 SHL DUP2 MSTORE PUSH1 0x20 PUSH1 0x4 DUP3 ADD MSTORE PUSH1 0xE PUSH1 0x24 DUP3 ADD MSTORE PUSH14 0x4E6F7420796574206D6174757265 PUSH1 0x90 SHL PUSH1 0x44 DUP3 ADD MSTORE PUSH1 0x64 SWAP1 REVERT JUMPDEST CALLVALUE PUSH2 0x355 JUMPI PUSH1 0x20 CALLDATASIZE PUSH1 0x3 NOT ADD SLT PUSH2 0x355 JUMPI PUSH2 0x12BF PUSH2 0x3120 JUMP JUMPDEST PUSH2 0x12C7 PUSH2 0x3510 JUMP JUMPDEST PUSH1 0x1 PUSH1 0x1 PUSH1 0xA0 SHL SUB AND PUSH1 0x0 DUP2 DUP2 MSTORE PUSH1 0x29 PUSH1 0x20 SWAP1 DUP2 MSTORE PUSH1 0x40 DUP1 DUP4 KECCAK256 DUP1 SLOAD PUSH1 0xFF NOT AND SWAP1 SSTORE MLOAD SWAP2 DUP3 MSTORE PUSH32 0xF93F9A76C1BF3444D22400A00CB9FE990E6ABE9DBB333FDA48859CFEE864543D SWAP2 LOG2 STOP JUMPDEST CALLVALUE PUSH2 0x355 JUMPI PUSH1 0x0 CALLDATASIZE PUSH1 0x3 NOT ADD SLT PUSH2 0x355 JUMPI PUSH2 0x132B PUSH2 0x3642 JUMP JUMPDEST PUSH1 0x1E SLOAD PUSH1 0xFF DUP2 PUSH1 0xA0 SHR AND SWAP1 PUSH1 0x4 DUP3 LT ISZERO PUSH2 0x6FE JUMPI DUP2 PUSH2 0x126D PUSH1 0x40 SWAP3 PUSH2 0x1371 PUSH32 0xE1377AA21D49FA10BB9ECE6A0CD4F75597A90A80C3750F7F7674967F49AB9A62 SWAP6 ISZERO PUSH2 0x3FB4 JUMP JUMPDEST PUSH1 0xFF PUSH1 0xA0 SHL NOT AND PUSH1 0x1 PUSH1 0xA1 SHL OR PUSH1 0x1E DUP2 SWAP1 SSTORE DUP4 MLOAD SWAP3 PUSH2 0x125D SWAP1 DUP5 SWAP1 PUSH2 0x314C JUMP JUMPDEST CALLVALUE PUSH2 0x355 JUMPI PUSH1 0x0 CALLDATASIZE PUSH1 0x3 NOT ADD SLT PUSH2 0x355 JUMPI PUSH2 0x13AA PUSH2 0x358A JUMP JUMPDEST PUSH1 0x7 SLOAD PUSH1 0xFF DUP2 AND PUSH2 0x13EC JUMPI PUSH1 0x1 SWAP1 PUSH1 0xFF NOT AND OR PUSH1 0x7 SSTORE PUSH32 0x62E78CEA01BEE320CD4E420270B5EA74000D11B0C9F74754EBDBFC544B05A258 PUSH1 0x20 PUSH1 0x40 MLOAD CALLER DUP2 MSTORE LOG1 STOP JUMPDEST PUSH1 0x40 MLOAD PUSH4 0xD93C0665 PUSH1 0xE0 SHL DUP2 MSTORE PUSH1 0x4 SWAP1 REVERT JUMPDEST CALLVALUE PUSH2 0x355 JUMPI PUSH1 0x0 CALLDATASIZE PUSH1 0x3 NOT ADD SLT PUSH2 0x355 JUMPI PUSH1 0x20 PUSH1 0x40 MLOAD PUSH32 0x114E74F6EA3BD819998F78687BFCB11B140DA08E9B7D222FA9C1F1BA1F2AA122 DUP2 MSTORE RETURN JUMPDEST CALLVALUE PUSH2 0x355 JUMPI PUSH1 0x0 CALLDATASIZE PUSH1 0x3 NOT ADD SLT PUSH2 0x355 JUMPI PUSH2 0x1452 PUSH2 0x35E6 JUMP JUMPDEST PUSH1 0xFF PUSH1 0x19 SLOAD PUSH1 0x8 SHR AND ISZERO PUSH2 0x14C6 JUMPI PUSH1 0x1E SLOAD PUSH1 0xFF DUP2 PUSH1 0xA0 SHR AND SWAP1 PUSH1 0x4 DUP3 LT ISZERO PUSH2 0x6FE JUMPI DUP2 PUSH2 0x126D PUSH1 0x40 SWAP3 PUSH2 0x14A6 PUSH32 0xE1377AA21D49FA10BB9ECE6A0CD4F75597A90A80C3750F7F7674967F49AB9A62 SWAP6 ISZERO PUSH2 0x3FB4 JUMP JUMPDEST PUSH1 0xFF PUSH1 0xA0 SHL NOT AND PUSH1 0x3 PUSH1 0xA0 SHL OR PUSH1 0x1E DUP2 SWAP1 SSTORE DUP4 MLOAD SWAP3 PUSH2 0x125D SWAP1 DUP5 SWAP1 PUSH2 0x314C JUMP JUMPDEST PUSH1 0x40 MLOAD PUSH3 0x461BCD PUSH1 0xE5 SHL DUP2 MSTORE PUSH1 0x20 PUSH1 0x4 DUP3 ADD MSTORE PUSH1 0x1A PUSH1 0x24 DUP3 ADD MSTORE PUSH32 0x4E6F206561726C7920726564656D7074696F6E20636C61757365000000000000 PUSH1 0x44 DUP3 ADD MSTORE PUSH1 0x64 SWAP1 REVERT JUMPDEST CALLVALUE PUSH2 0x355 JUMPI PUSH1 0x20 CALLDATASIZE PUSH1 0x3 NOT ADD SLT PUSH2 0x355 JUMPI PUSH1 0x4 CALLDATALOAD PUSH1 0xFF DUP2 AND DUP2 SUB PUSH2 0x355 JUMPI PUSH2 0x1100 PUSH2 0x1114 SWAP2 PUSH2 0x3C77 JUMP JUMPDEST CALLVALUE PUSH2 0x355 JUMPI PUSH1 0x0 CALLDATASIZE PUSH1 0x3 NOT ADD SLT PUSH2 0x355 JUMPI PUSH1 0x1B SLOAD PUSH1 0x40 MLOAD PUSH1 0x1 PUSH1 0x1 PUSH1 0xA0 SHL SUB SWAP1 SWAP2 AND DUP2 MSTORE PUSH1 0x20 SWAP1 RETURN JUMPDEST CALLVALUE PUSH2 0x355 JUMPI PUSH1 0x0 CALLDATASIZE PUSH1 0x3 NOT ADD SLT PUSH2 0x355 JUMPI PUSH1 0x20 PUSH1 0x40 MLOAD PUSH32 0xA49807205CE4D355092EF5A8A18F56E8913CF4A201FBE287825B095693C21775 DUP2 MSTORE RETURN JUMPDEST CALLVALUE PUSH2 0x355 JUMPI PUSH1 0x0 CALLDATASIZE PUSH1 0x3 NOT ADD SLT PUSH2 0x355 JUMPI PUSH1 0x20 PUSH1 0x40 MLOAD PUSH1 0xFC DUP2 MSTORE RETURN JUMPDEST CALLVALUE PUSH2 0x355 JUMPI PUSH1 0x0 CALLDATASIZE PUSH1 0x3 NOT ADD SLT PUSH2 0x355 JUMPI PUSH1 0x20 PUSH1 0x40 MLOAD PUSH32 0x700B68D05515876E1B5BEE45535F56F17ECF1FBB63AC93E8914591401365025D DUP2 MSTORE RETURN JUMPDEST CALLVALUE PUSH2 0x355 JUMPI PUSH1 0x20 CALLDATASIZE PUSH1 0x3 NOT ADD SLT PUSH2 0x355 JUMPI PUSH1 0x1 PUSH1 0x1 PUSH1 0xA0 SHL SUB PUSH2 0x1611 PUSH2 0x3120 JUMP JUMPDEST AND PUSH1 0x0 MSTORE PUSH1 0x0 PUSH1 0x20 MSTORE PUSH1 0x20 PUSH1 0x40 PUSH1 0x0 KECCAK256 SLOAD PUSH1 0x40 MLOAD SWAP1 DUP2 MSTORE RETURN JUMPDEST CALLVALUE PUSH2 0x355 JUMPI PUSH1 0x20 CALLDATASIZE PUSH1 0x3 NOT ADD SLT PUSH2 0x355 JUMPI PUSH2 0x1643 PUSH2 0x35E6 JUMP JUMPDEST PUSH1 0x1C SLOAD PUSH1 0x1D SLOAD PUSH2 0x57D SWAP2 PUSH1 0x4 CALLDATALOAD SWAP2 PUSH1 0x1 PUSH1 0x1 PUSH1 0xA0 SHL SUB SWAP1 DUP2 AND SWAP2 AND PUSH2 0x3EF0 JUMP JUMPDEST CALLVALUE PUSH2 0x355 JUMPI PUSH1 0x0 CALLDATASIZE PUSH1 0x3 NOT ADD SLT PUSH2 0x355 JUMPI PUSH1 0x20 PUSH1 0x40 MLOAD PUSH2 0x2710 DUP2 MSTORE RETURN JUMPDEST CALLVALUE PUSH2 0x355 JUMPI PUSH1 0x20 CALLDATASIZE PUSH1 0x3 NOT ADD SLT PUSH2 0x355 JUMPI PUSH1 0x1 PUSH1 0x1 PUSH1 0x40 SHL SUB PUSH1 0x4 CALLDATALOAD DUP2 DUP2 GT PUSH2 0x355 JUMPI CALLDATASIZE PUSH1 0x23 DUP3 ADD SLT ISZERO PUSH2 0x355 JUMPI DUP1 PUSH1 0x4 ADD CALLDATALOAD SWAP2 DUP3 GT PUSH2 0x355 JUMPI PUSH1 0x24 SWAP2 PUSH1 0x60 SWAP2 CALLDATASIZE DUP5 DUP5 DUP5 MUL DUP4 ADD ADD GT PUSH2 0x355 JUMPI PUSH2 0x16D5 PUSH2 0x35E6 JUMP JUMPDEST PUSH1 0x25 SWAP3 DUP4 SLOAD PUSH1 0x0 DUP6 SSTORE DUP1 PUSH2 0x1775 JUMPI JUMPDEST POP PUSH1 0x0 JUMPDEST DUP4 DUP2 LT PUSH2 0x16F1 JUMPI STOP JUMPDEST DUP2 DUP2 MUL DUP4 ADD SWAP1 DUP6 SLOAD PUSH1 0x1 PUSH1 0x40 SHL DUP2 LT ISZERO PUSH2 0xBA0 JUMPI PUSH2 0x1715 PUSH1 0x1 SWAP2 DUP3 DUP2 ADD DUP10 SSTORE PUSH2 0x34D5 JUMP JUMPDEST SWAP4 SWAP1 SWAP4 PUSH2 0x1760 JUMPI PUSH1 0x64 SWAP2 DUP10 DUP3 ADD CALLDATALOAD DUP6 SSTORE PUSH1 0x44 DUP3 ADD CALLDATALOAD SWAP1 DUP6 ADD SSTORE ADD CALLDATALOAD SWAP2 DUP3 ISZERO ISZERO DUP4 SUB PUSH2 0x355 JUMPI PUSH2 0x175B SWAP3 PUSH1 0x2 PUSH2 0x1756 SWAP3 ADD SWAP1 PUSH1 0xFF DUP1 NOT DUP4 SLOAD AND SWAP2 ISZERO ISZERO AND OR SWAP1 SSTORE JUMP JUMPDEST PUSH2 0x3DF3 JUMP JUMPDEST PUSH2 0x16E8 JUMP JUMPDEST DUP9 PUSH4 0x4E487B71 PUSH1 0xE0 SHL PUSH1 0x0 MSTORE PUSH1 0x0 PUSH1 0x4 MSTORE PUSH1 0x0 REVERT JUMPDEST PUSH1 0x3 SWAP1 DUP1 DUP3 MUL SWAP1 DUP3 DUP3 DIV SUB PUSH2 0x17D6 JUMPI DUP6 PUSH1 0x0 MSTORE PUSH32 0x401968FF42A154441DA5F6C4C935AC46B8671F0E062BAAA62A7545BA53BB6E4C SWAP1 DUP2 ADD SWAP1 JUMPDEST DUP2 DUP2 LT PUSH2 0x17BC JUMPI POP POP PUSH2 0x16E4 JUMP JUMPDEST DUP1 PUSH1 0x0 DUP5 SWAP3 SSTORE PUSH1 0x0 PUSH1 0x1 DUP3 ADD SSTORE PUSH1 0x0 PUSH1 0x2 DUP3 ADD SSTORE ADD PUSH2 0x17AE JUMP JUMPDEST DUP7 PUSH4 0x4E487B71 PUSH1 0xE0 SHL PUSH1 0x0 MSTORE PUSH1 0x11 PUSH1 0x4 MSTORE PUSH1 0x0 REVERT JUMPDEST CALLVALUE PUSH2 0x355 JUMPI PUSH1 0x0 CALLDATASIZE PUSH1 0x3 NOT ADD SLT PUSH2 0x355 JUMPI PUSH1 0x20 PUSH1 0xFF PUSH1 0x7 SLOAD AND PUSH1 0x40 MLOAD SWAP1 ISZERO ISZERO DUP2 MSTORE RETURN JUMPDEST CALLVALUE PUSH2 0x355 JUMPI PUSH1 0x0 CALLDATASIZE PUSH1 0x3 NOT ADD SLT PUSH2 0x355 JUMPI PUSH1 0x20 PUSH1 0x40 MLOAD PUSH1 0x4 DUP2 MSTORE RETURN JUMPDEST CALLVALUE PUSH2 0x355 JUMPI PUSH1 0x3 NOT PUSH1 0xE0 CALLDATASIZE DUP3 ADD SLT PUSH2 0x355 JUMPI PUSH1 0x4 CALLDATALOAD PUSH1 0x1 PUSH1 0x1 PUSH1 0x40 SHL SUB DUP2 GT PUSH2 0x355 JUMPI PUSH2 0x185B SWAP1 CALLDATASIZE SWAP1 PUSH1 0x4 ADD PUSH2 0x3236 JUMP JUMPDEST PUSH1 0x24 CALLDATALOAD PUSH1 0x1 PUSH1 0x1 PUSH1 0x40 SHL SUB DUP2 GT PUSH2 0x355 JUMPI PUSH2 0x187A SWAP1 CALLDATASIZE SWAP1 PUSH1 0x4 ADD PUSH2 0x3236 JUMP JUMPDEST SWAP2 PUSH1 0x1 PUSH1 0x1 PUSH1 0x40 SHL SUB PUSH1 0x44 CALLDATALOAD GT PUSH2 0x355 JUMPI PUSH2 0x220 SWAP1 PUSH1 0x44 CALLDATALOAD CALLDATASIZE SUB ADD SLT PUSH2 0x355 JUMPI PUSH1 0x40 MLOAD SWAP1 PUSH2 0x18A7 DUP3 PUSH2 0x31A8 JUMP JUMPDEST PUSH1 0x4 PUSH1 0x44 DUP1 CALLDATALOAD SWAP2 DUP3 ADD CALLDATALOAD DUP5 MSTORE PUSH1 0x24 DUP3 ADD CALLDATALOAD PUSH1 0x20 DUP6 ADD MSTORE DUP2 ADD CALLDATALOAD PUSH1 0x40 DUP5 ADD MSTORE PUSH1 0x64 DUP2 ADD CALLDATALOAD PUSH1 0x60 DUP5 ADD MSTORE PUSH2 0x18DB SWAP1 PUSH1 0x84 ADD PUSH2 0x328C JUMP JUMPDEST PUSH1 0x80 DUP4 ADD MSTORE PUSH1 0xA4 PUSH1 0x44 CALLDATALOAD ADD CALLDATALOAD PUSH1 0xA0 DUP4 ADD MSTORE PUSH1 0x5 PUSH1 0xC4 PUSH1 0x44 CALLDATALOAD ADD CALLDATALOAD LT ISZERO PUSH2 0x355 JUMPI PUSH1 0x44 CALLDATALOAD PUSH1 0xC4 DUP2 ADD CALLDATALOAD PUSH1 0xC0 DUP5 ADD MSTORE PUSH1 0xE4 DUP2 ADD CALLDATALOAD PUSH1 0xE0 DUP5 ADD MSTORE PUSH2 0x191F SWAP1 PUSH2 0x104 ADD PUSH2 0x328C JUMP JUMPDEST PUSH2 0x100 DUP4 ADD MSTORE PUSH2 0x124 PUSH1 0x44 CALLDATALOAD ADD CALLDATALOAD PUSH2 0x120 DUP4 ADD MSTORE PUSH1 0x3 PUSH2 0x144 PUSH1 0x44 CALLDATALOAD ADD CALLDATALOAD LT ISZERO PUSH2 0x355 JUMPI PUSH2 0x144 PUSH1 0x44 CALLDATALOAD ADD CALLDATALOAD PUSH2 0x140 DUP4 ADD MSTORE PUSH1 0x1 PUSH1 0x1 PUSH1 0x40 SHL SUB PUSH2 0x164 PUSH1 0x44 CALLDATALOAD ADD CALLDATALOAD GT PUSH2 0x355 JUMPI PUSH2 0x197C CALLDATASIZE PUSH1 0x44 CALLDATALOAD PUSH2 0x164 DUP2 ADD CALLDATALOAD ADD PUSH1 0x4 ADD PUSH2 0x3236 JUMP JUMPDEST PUSH2 0x160 DUP4 ADD MSTORE PUSH2 0x184 PUSH1 0x44 CALLDATALOAD ADD CALLDATALOAD PUSH1 0x1 PUSH1 0x1 PUSH1 0x40 SHL SUB DUP2 GT PUSH2 0x355 JUMPI PUSH2 0x19AA SWAP1 PUSH1 0x4 CALLDATASIZE SWAP2 PUSH1 0x44 CALLDATALOAD ADD ADD PUSH2 0x3236 JUMP JUMPDEST PUSH2 0x180 DUP4 ADD MSTORE PUSH2 0x1A4 PUSH1 0x44 CALLDATALOAD ADD CALLDATALOAD PUSH1 0x1 PUSH1 0x1 PUSH1 0x40 SHL SUB DUP2 GT PUSH2 0x355 JUMPI PUSH2 0x19D8 SWAP1 PUSH1 0x4 CALLDATASIZE SWAP2 PUSH1 0x44 CALLDATALOAD ADD ADD PUSH2 0x3236 JUMP JUMPDEST PUSH2 0x1A0 DUP4 ADD MSTORE PUSH2 0x19ED PUSH2 0x1C4 PUSH1 0x44 CALLDATALOAD ADD PUSH2 0x329A JUMP JUMPDEST PUSH2 0x1C0 DUP4 ADD MSTORE PUSH2 0x1A02 PUSH2 0x1E4 PUSH1 0x44 CALLDATALOAD ADD PUSH2 0x329A JUMP JUMPDEST PUSH2 0x1E0 DUP4 ADD MSTORE PUSH1 0x44 CALLDATALOAD PUSH2 0x204 ADD CALLDATALOAD PUSH2 0x200 DUP4 ADD MSTORE PUSH1 0x64 CALLDATALOAD PUSH1 0x1 PUSH1 0x1 PUSH1 0xA0 SHL SUB DUP2 AND SWAP1 SUB PUSH2 0x355 JUMPI PUSH1 0x84 CALLDATALOAD PUSH1 0x1 PUSH1 0x1 PUSH1 0xA0 SHL SUB DUP2 AND DUP2 SUB PUSH2 0x355 JUMPI PUSH1 0xA4 CALLDATALOAD PUSH1 0x1 PUSH1 0x1 PUSH1 0xA0 SHL SUB DUP2 AND SWAP1 SUB PUSH2 0x355 JUMPI PUSH1 0xC4 CALLDATALOAD PUSH1 0x1 PUSH1 0x1 PUSH1 0xA0 SHL SUB DUP2 AND SWAP1 SUB PUSH2 0x355 JUMPI PUSH1 0x0 DUP1 MLOAD PUSH1 0x20 PUSH2 0x40A5 DUP4 CODECOPY DUP2 MLOAD SWAP2 MSTORE SLOAD SWAP2 PUSH1 0x1 PUSH1 0x1 PUSH1 0x40 SHL SUB DUP4 AND ISZERO DUP1 PUSH2 0x277B JUMPI JUMPDEST PUSH1 0x1 PUSH1 0x1 PUSH1 0x1 PUSH1 0x40 SHL SUB DUP6 AND EQ SWAP1 DUP2 PUSH2 0x2771 JUMPI JUMPDEST ISZERO SWAP1 DUP2 PUSH2 0x2768 JUMPI JUMPDEST POP PUSH2 0x2756 JUMPI PUSH1 0x1 PUSH1 0x1 PUSH1 0x1 PUSH1 0x40 SHL SUB NOT DUP5 AND OR PUSH1 0x0 DUP1 MLOAD PUSH1 0x20 PUSH2 0x40A5 DUP4 CODECOPY DUP2 MLOAD SWAP2 MSTORE SSTORE PUSH1 0xFF DUP4 PUSH1 0x40 SHR AND ISZERO PUSH2 0x2729 JUMPI JUMPDEST DUP1 MLOAD ISZERO PUSH2 0x26F4 JUMPI DUP5 MLOAD ISZERO PUSH2 0x26BD JUMPI DUP4 MLOAD ISZERO PUSH2 0x2681 JUMPI PUSH1 0x20 DUP5 ADD MLOAD ISZERO PUSH2 0x263C JUMPI PUSH1 0x60 DUP5 ADD MLOAD TIMESTAMP LT ISZERO PUSH2 0x2604 JUMPI PUSH2 0x120 DUP5 ADD MLOAD ISZERO PUSH2 0x25BF JUMPI PUSH1 0x64 CALLDATALOAD PUSH1 0x1 PUSH1 0x1 PUSH1 0xA0 SHL SUB AND ISZERO PUSH2 0x2589 JUMPI PUSH1 0x1 PUSH1 0x1 PUSH1 0xA0 SHL SUB DUP3 AND ISZERO PUSH2 0x254C JUMPI PUSH1 0xA4 CALLDATALOAD PUSH1 0x1 PUSH1 0x1 PUSH1 0xA0 SHL SUB AND ISZERO PUSH2 0x2516 JUMPI DUP1 MLOAD SWAP1 PUSH1 0x1 PUSH1 0x1 PUSH1 0x40 SHL SUB DUP3 GT PUSH2 0x57F JUMPI DUP2 SWAP1 PUSH2 0x1B55 PUSH1 0x8 SLOAD PUSH2 0x32E1 JUMP JUMPDEST PUSH1 0x1F DUP2 GT PUSH2 0x24A2 JUMPI JUMPDEST POP PUSH1 0x20 SWAP1 PUSH1 0x1F DUP4 GT PUSH1 0x1 EQ PUSH2 0x242A JUMPI PUSH1 0x0 SWAP3 PUSH2 0x241F JUMPI JUMPDEST POP POP DUP2 PUSH1 0x1 SHL SWAP2 PUSH1 0x0 NOT SWAP1 PUSH1 0x3 SHL SHR NOT AND OR PUSH1 0x8 SSTORE JUMPDEST DUP4 MLOAD PUSH1 0x1 PUSH1 0x1 PUSH1 0x40 SHL SUB DUP2 GT PUSH2 0x57F JUMPI PUSH2 0x1BA6 PUSH1 0x9 SLOAD PUSH2 0x32E1 JUMP JUMPDEST PUSH1 0x1F DUP2 GT PUSH2 0x23B6 JUMPI JUMPDEST POP PUSH1 0x20 PUSH1 0x1F DUP3 GT PUSH1 0x1 EQ PUSH2 0x2341 JUMPI DUP2 SWAP3 SWAP4 SWAP5 SWAP6 PUSH1 0x0 SWAP3 PUSH2 0x2336 JUMPI JUMPDEST POP POP DUP2 PUSH1 0x1 SHL SWAP2 PUSH1 0x0 NOT SWAP1 PUSH1 0x3 SHL SHR NOT AND OR PUSH1 0x9 SSTORE JUMPDEST DUP3 MLOAD PUSH1 0xB SSTORE PUSH1 0x20 DUP4 ADD MLOAD PUSH1 0xC SSTORE PUSH1 0x40 DUP4 ADD MLOAD PUSH1 0xD SSTORE PUSH1 0x60 DUP4 ADD MLOAD PUSH1 0xE SSTORE PUSH1 0xFF PUSH1 0x80 DUP5 ADD MLOAD AND PUSH1 0xFF NOT PUSH1 0xF SLOAD AND OR PUSH1 0xF SSTORE PUSH1 0xA0 DUP4 ADD MLOAD PUSH1 0x10 SSTORE PUSH1 0xC0 DUP4 ADD MLOAD PUSH1 0x5 DUP2 LT ISZERO PUSH2 0x6FE JUMPI PUSH1 0xFF DUP1 NOT PUSH1 0x11 SLOAD AND SWAP2 AND OR PUSH1 0x11 SSTORE PUSH1 0xE0 DUP4 ADD MLOAD PUSH1 0x12 SSTORE PUSH1 0xFF PUSH2 0x100 DUP5 ADD MLOAD AND PUSH1 0xFF NOT PUSH1 0x13 SLOAD AND OR PUSH1 0x13 SSTORE PUSH2 0x120 DUP4 ADD MLOAD PUSH1 0x14 SSTORE PUSH2 0x140 DUP4 ADD MLOAD PUSH1 0x3 DUP2 LT ISZERO PUSH2 0x6FE JUMPI PUSH1 0xFF DUP1 NOT PUSH1 0x15 SLOAD AND SWAP2 AND OR PUSH1 0x15 SSTORE PUSH2 0x160 DUP4 ADD MLOAD SWAP3 DUP4 MLOAD PUSH1 0x1 PUSH1 0x1 PUSH1 0x40 SHL SUB DUP2 GT PUSH2 0x57F JUMPI PUSH2 0x1C98 PUSH1 0x16 SLOAD PUSH2 0x32E1 JUMP JUMPDEST PUSH1 0x1F DUP2 GT PUSH2 0x22CD JUMPI JUMPDEST POP PUSH1 0x20 PUSH1 0x1F DUP3 GT PUSH1 0x1 EQ PUSH2 0x2258 JUMPI DUP2 SWAP3 SWAP4 SWAP5 SWAP6 PUSH1 0x0 SWAP3 PUSH2 0x224D JUMPI JUMPDEST POP POP DUP2 PUSH1 0x1 SHL SWAP2 PUSH1 0x0 NOT SWAP1 PUSH1 0x3 SHL SHR NOT AND OR PUSH1 0x16 SSTORE JUMPDEST PUSH2 0x180 DUP2 ADD MLOAD SWAP3 DUP4 MLOAD PUSH1 0x1 PUSH1 0x1 PUSH1 0x40 SHL SUB DUP2 GT PUSH2 0x57F JUMPI PUSH2 0x1CF4 PUSH1 0x17 SLOAD PUSH2 0x32E1 JUMP JUMPDEST PUSH1 0x1F DUP2 GT PUSH2 0x21E4 JUMPI JUMPDEST POP PUSH1 0x20 PUSH1 0x1F DUP3 GT PUSH1 0x1 EQ PUSH2 0x216F JUMPI DUP2 SWAP3 SWAP4 SWAP5 SWAP6 PUSH1 0x0 SWAP3 PUSH2 0x2164 JUMPI JUMPDEST POP POP DUP2 PUSH1 0x1 SHL SWAP2 PUSH1 0x0 NOT SWAP1 PUSH1 0x3 SHL SHR NOT AND OR PUSH1 0x17 SSTORE JUMPDEST PUSH2 0x1A0 DUP3 ADD MLOAD SWAP3 DUP4 MLOAD PUSH1 0x1 PUSH1 0x1 PUSH1 0x40 SHL SUB DUP2 GT PUSH2 0x57F JUMPI PUSH2 0x1D50 PUSH1 0x18 SLOAD PUSH2 0x32E1 JUMP JUMPDEST PUSH1 0x1F DUP2 GT PUSH2 0x20FB JUMPI JUMPDEST POP PUSH1 0x20 PUSH1 0x1F DUP3 GT PUSH1 0x1 EQ PUSH2 0x2086 JUMPI DUP2 SWAP3 SWAP4 SWAP5 SWAP6 PUSH1 0x0 SWAP3 PUSH2 0x207B JUMPI JUMPDEST POP POP DUP2 PUSH1 0x1 SHL SWAP2 PUSH1 0x0 NOT SWAP1 PUSH1 0x3 SHL SHR NOT AND OR PUSH1 0x18 SSTORE JUMPDEST PUSH2 0x1C0 DUP4 ADD MLOAD ISZERO ISZERO PUSH1 0x19 SLOAD PUSH1 0xFF PUSH2 0xFF00 PUSH2 0x1E0 DUP8 ADD MLOAD ISZERO ISZERO PUSH1 0x8 SHL AND SWAP3 AND SWAP1 PUSH2 0xFFFF NOT AND OR OR PUSH1 0x19 SSTORE PUSH2 0x200 DUP4 ADD MLOAD PUSH1 0x1A SSTORE PUSH12 0xFFFFFFFFFFFFFFFFFFFFFFFF PUSH1 0xA0 SHL SWAP1 PUSH1 0x1 DUP1 PUSH1 0xA0 SHL SUB PUSH1 0x64 CALLDATALOAD AND DUP3 PUSH1 0x1B SLOAD AND OR PUSH1 0x1B SSTORE PUSH1 0x1 DUP1 PUSH1 0xA0 SHL SUB AND DUP2 PUSH1 0x1C SLOAD AND OR PUSH1 0x1C SSTORE PUSH1 0x1 DUP1 PUSH1 0xA0 SHL SUB PUSH1 0xA4 CALLDATALOAD AND SWAP1 PUSH1 0x1D SLOAD AND OR PUSH1 0x1D SSTORE PUSH1 0x1 DUP1 PUSH1 0xA0 SHL SUB PUSH1 0xC4 CALLDATALOAD AND PUSH11 0xFFFFFFFFFFFFFFFFFFFFFF PUSH1 0xA8 SHL PUSH1 0x1E SLOAD AND OR PUSH1 0x1E SSTORE PUSH1 0x60 DUP3 MLOAD PUSH1 0x40 MLOAD PUSH2 0x1E38 DUP2 PUSH2 0x31C4 JUMP JUMPDEST DUP2 DUP2 MSTORE TIMESTAMP PUSH1 0x20 DUP3 ADD MSTORE PUSH1 0x0 PUSH1 0x40 DUP3 ADD MSTORE PUSH4 0x5F5E100 SWAP3 DUP4 SWAP2 ADD MSTORE PUSH1 0x1F SSTORE TIMESTAMP PUSH1 0x20 SSTORE PUSH1 0x0 PUSH1 0x21 SSTORE PUSH1 0x22 SSTORE PUSH1 0xC0 DUP3 ADD MLOAD PUSH1 0x5 DUP2 LT ISZERO PUSH2 0x6FE JUMPI PUSH1 0x1 EQ DUP1 ISZERO PUSH2 0x2064 JUMPI JUMPDEST PUSH2 0x2053 JUMPI JUMPDEST PUSH2 0x1E89 PUSH1 0xA4 CALLDATALOAD PUSH2 0x36C4 JUMP JUMPDEST POP PUSH2 0x1E95 PUSH1 0xA4 CALLDATALOAD PUSH2 0x3743 JUMP JUMPDEST POP PUSH2 0x1EA1 PUSH1 0xA4 CALLDATALOAD PUSH2 0x37E4 JUMP JUMPDEST POP PUSH2 0x1EAD PUSH1 0xC4 CALLDATALOAD PUSH2 0x3880 JUMP JUMPDEST POP PUSH2 0x1EB9 PUSH1 0xA4 CALLDATALOAD PUSH2 0x391C JUMP JUMPDEST POP PUSH2 0x1EC5 PUSH1 0xC4 CALLDATALOAD PUSH2 0x391C JUMP JUMPDEST POP PUSH1 0x1 DUP1 PUSH1 0xA0 SHL SUB PUSH1 0xA4 CALLDATALOAD AND PUSH1 0x0 MSTORE PUSH1 0x29 PUSH1 0x20 MSTORE PUSH1 0x40 PUSH1 0x0 KECCAK256 PUSH1 0x1 PUSH1 0xFF NOT DUP3 SLOAD AND OR SWAP1 SSTORE PUSH1 0x1 DUP1 PUSH1 0xA0 SHL SUB PUSH1 0xC4 CALLDATALOAD AND PUSH1 0x0 MSTORE PUSH1 0x40 PUSH1 0x0 KECCAK256 PUSH1 0x1 PUSH1 0xFF NOT DUP3 SLOAD AND OR SWAP1 SSTORE PUSH1 0x20 DUP3 ADD MLOAD PUSH2 0x1F18 DUP2 PUSH1 0x2 SLOAD PUSH2 0x3DE6 JUMP JUMPDEST PUSH1 0x2 SSTORE PUSH1 0xA4 CALLDATALOAD PUSH1 0x1 PUSH1 0x1 PUSH1 0xA0 SHL SUB AND PUSH1 0x0 DUP2 DUP2 MSTORE PUSH1 0x20 DUP2 DUP2 MSTORE PUSH1 0x40 DUP1 DUP4 KECCAK256 DUP1 SLOAD DUP7 ADD SWAP1 SSTORE MLOAD SWAP4 DUP5 MSTORE SWAP2 SWAP3 SWAP1 SWAP2 PUSH32 0xDDF252AD1BE2C89B69C2B068FC378DAA952BA7F163C4A11628F55A4DF523B3EF SWAP2 LOG3 PUSH1 0x1 PUSH1 0xFF NOT PUSH1 0xA SLOAD AND OR PUSH1 0xA SSTORE PUSH2 0x160 DUP3 ADD MLOAD SWAP2 DUP1 MLOAD SWAP3 PUSH1 0xC0 PUSH1 0x20 DUP4 ADD MLOAD SWAP3 ADD MLOAD PUSH1 0x5 DUP2 LT ISZERO PUSH2 0x6FE JUMPI PUSH1 0xFF SWAP5 PUSH2 0x1FEE PUSH1 0x60 SWAP3 PUSH2 0x1FD3 PUSH32 0x68896895295057DBC51B232A2B131EBEA0AF179AF63E1D7FAAD21D29CFF4DED4 SWAP6 PUSH1 0x20 PUSH1 0x40 MLOAD SWAP3 DUP3 DUP5 DUP1 SWAP5 MLOAD SWAP4 DUP5 SWAP3 ADD PUSH2 0x30D8 JUMP JUMPDEST DUP2 ADD SUB SWAP1 KECCAK256 SWAP6 PUSH1 0x40 MLOAD SWAP4 DUP5 MSTORE PUSH1 0x20 DUP5 ADD MSTORE PUSH1 0x40 DUP4 ADD SWAP1 PUSH2 0x318E JUMP JUMPDEST LOG2 PUSH1 0x40 SHR AND ISZERO PUSH2 0x1FFA JUMPI STOP JUMPDEST PUSH9 0xFF0000000000000000 NOT PUSH1 0x0 DUP1 MLOAD PUSH1 0x20 PUSH2 0x40A5 DUP4 CODECOPY DUP2 MLOAD SWAP2 MSTORE SLOAD AND PUSH1 0x0 DUP1 MLOAD PUSH1 0x20 PUSH2 0x40A5 DUP4 CODECOPY DUP2 MLOAD SWAP2 MSTORE SSTORE PUSH32 0xC7F505B2F371AE2175EE4913F4499E1F2633A7B5936321EED1CDAEB6115181D2 PUSH1 0x20 PUSH1 0x40 MLOAD PUSH1 0x1 DUP2 MSTORE LOG1 STOP JUMPDEST PUSH4 0x3B9ACA00 PUSH1 0x23 SSTORE TIMESTAMP PUSH1 0x24 SSTORE PUSH2 0x1E7E JUMP JUMPDEST POP PUSH1 0xC0 DUP3 ADD MLOAD PUSH1 0x5 DUP2 LT ISZERO PUSH2 0x6FE JUMPI PUSH1 0x2 EQ PUSH2 0x1E79 JUMP JUMPDEST ADD MLOAD SWAP1 POP DUP6 DUP1 PUSH2 0x1D74 JUMP JUMPDEST PUSH1 0x18 PUSH1 0x0 MSTORE PUSH1 0x0 DUP1 MLOAD PUSH1 0x20 PUSH2 0x4025 DUP4 CODECOPY DUP2 MLOAD SWAP2 MSTORE SWAP1 PUSH1 0x0 JUMPDEST PUSH1 0x1F NOT DUP5 AND DUP2 LT PUSH2 0x20E3 JUMPI POP PUSH1 0x1 SWAP4 SWAP5 SWAP6 SWAP7 DUP4 PUSH1 0x1F NOT DUP2 AND LT PUSH2 0x20CA JUMPI JUMPDEST POP POP POP DUP2 SHL ADD PUSH1 0x18 SSTORE PUSH2 0x1D8A JUMP JUMPDEST ADD MLOAD PUSH1 0x0 NOT PUSH1 0xF8 DUP5 PUSH1 0x3 SHL AND SHR NOT AND SWAP1 SSTORE DUP6 DUP1 DUP1 PUSH2 0x20BC JUMP JUMPDEST SWAP1 SWAP2 PUSH1 0x20 PUSH1 0x1 DUP2 SWAP3 DUP6 DUP12 ADD MLOAD DUP2 SSTORE ADD SWAP4 ADD SWAP2 ADD PUSH2 0x209E JUMP JUMPDEST PUSH1 0x18 PUSH1 0x0 MSTORE PUSH1 0x1F DUP3 ADD PUSH1 0x5 SHR PUSH1 0x0 DUP1 MLOAD PUSH1 0x20 PUSH2 0x4025 DUP4 CODECOPY DUP2 MLOAD SWAP2 MSTORE ADD PUSH1 0x20 DUP4 LT PUSH2 0x214F JUMPI JUMPDEST PUSH1 0x1F DUP3 ADD PUSH1 0x5 SHR PUSH1 0x0 DUP1 MLOAD PUSH1 0x20 PUSH2 0x4025 DUP4 CODECOPY DUP2 MLOAD SWAP2 MSTORE ADD DUP2 LT PUSH2 0x2143 JUMPI POP PUSH2 0x1D59 JUMP JUMPDEST PUSH1 0x0 DUP2 SSTORE PUSH1 0x1 ADD PUSH2 0x2120 JUMP JUMPDEST POP PUSH1 0x0 DUP1 MLOAD PUSH1 0x20 PUSH2 0x4025 DUP4 CODECOPY DUP2 MLOAD SWAP2 MSTORE PUSH2 0x2120 JUMP JUMPDEST ADD MLOAD SWAP1 POP DUP6 DUP1 PUSH2 0x1D18 JUMP JUMPDEST PUSH1 0x17 PUSH1 0x0 MSTORE PUSH1 0x0 DUP1 MLOAD PUSH1 0x20 PUSH2 0x4085 DUP4 CODECOPY DUP2 MLOAD SWAP2 MSTORE SWAP1 PUSH1 0x0 JUMPDEST PUSH1 0x1F NOT DUP5 AND DUP2 LT PUSH2 0x21CC JUMPI POP PUSH1 0x1 SWAP4 SWAP5 SWAP6 SWAP7 DUP4 PUSH1 0x1F NOT DUP2 AND LT PUSH2 0x21B3 JUMPI JUMPDEST POP POP POP DUP2 SHL ADD PUSH1 0x17 SSTORE PUSH2 0x1D2E JUMP JUMPDEST ADD MLOAD PUSH1 0x0 NOT PUSH1 0xF8 DUP5 PUSH1 0x3 SHL AND SHR NOT AND SWAP1 SSTORE DUP6 DUP1 DUP1 PUSH2 0x21A5 JUMP JUMPDEST SWAP1 SWAP2 PUSH1 0x20 PUSH1 0x1 DUP2 SWAP3 DUP6 DUP12 ADD MLOAD DUP2 SSTORE ADD SWAP4 ADD SWAP2 ADD PUSH2 0x2187 JUMP JUMPDEST PUSH1 0x17 PUSH1 0x0 MSTORE PUSH1 0x1F DUP3 ADD PUSH1 0x5 SHR PUSH1 0x0 DUP1 MLOAD PUSH1 0x20 PUSH2 0x4085 DUP4 CODECOPY DUP2 MLOAD SWAP2 MSTORE ADD PUSH1 0x20 DUP4 LT PUSH2 0x2238 JUMPI JUMPDEST PUSH1 0x1F DUP3 ADD PUSH1 0x5 SHR PUSH1 0x0 DUP1 MLOAD PUSH1 0x20 PUSH2 0x4085 DUP4 CODECOPY DUP2 MLOAD SWAP2 MSTORE ADD DUP2 LT PUSH2 0x222C JUMPI POP PUSH2 0x1CFD JUMP JUMPDEST PUSH1 0x0 DUP2 SSTORE PUSH1 0x1 ADD PUSH2 0x2209 JUMP JUMPDEST POP PUSH1 0x0 DUP1 MLOAD PUSH1 0x20 PUSH2 0x4085 DUP4 CODECOPY DUP2 MLOAD SWAP2 MSTORE PUSH2 0x2209 JUMP JUMPDEST ADD MLOAD SWAP1 POP DUP6 DUP1 PUSH2 0x1CBC JUMP JUMPDEST PUSH1 0x16 PUSH1 0x0 MSTORE PUSH1 0x0 DUP1 MLOAD PUSH1 0x20 PUSH2 0x40C5 DUP4 CODECOPY DUP2 MLOAD SWAP2 MSTORE SWAP1 PUSH1 0x0 JUMPDEST PUSH1 0x1F NOT DUP5 AND DUP2 LT PUSH2 0x22B5 JUMPI POP PUSH1 0x1 SWAP4 SWAP5 SWAP6 SWAP7 DUP4 PUSH1 0x1F NOT DUP2 AND LT PUSH2 0x229C JUMPI JUMPDEST POP POP POP DUP2 SHL ADD PUSH1 0x16 SSTORE PUSH2 0x1CD2 JUMP JUMPDEST ADD MLOAD PUSH1 0x0 NOT PUSH1 0xF8 DUP5 PUSH1 0x3 SHL AND SHR NOT AND SWAP1 SSTORE DUP6 DUP1 DUP1 PUSH2 0x228E JUMP JUMPDEST SWAP1 SWAP2 PUSH1 0x20 PUSH1 0x1 DUP2 SWAP3 DUP6 DUP12 ADD MLOAD DUP2 SSTORE ADD SWAP4 ADD SWAP2 ADD PUSH2 0x2270 JUMP JUMPDEST PUSH1 0x16 PUSH1 0x0 MSTORE PUSH1 0x1F DUP3 ADD PUSH1 0x5 SHR PUSH1 0x0 DUP1 MLOAD PUSH1 0x20 PUSH2 0x40C5 DUP4 CODECOPY DUP2 MLOAD SWAP2 MSTORE ADD PUSH1 0x20 DUP4 LT PUSH2 0x2321 JUMPI JUMPDEST PUSH1 0x1F DUP3 ADD PUSH1 0x5 SHR PUSH1 0x0 DUP1 MLOAD PUSH1 0x20 PUSH2 0x40C5 DUP4 CODECOPY DUP2 MLOAD SWAP2 MSTORE ADD DUP2 LT PUSH2 0x2315 JUMPI POP PUSH2 0x1CA1 JUMP JUMPDEST PUSH1 0x0 DUP2 SSTORE PUSH1 0x1 ADD PUSH2 0x22F2 JUMP JUMPDEST POP PUSH1 0x0 DUP1 MLOAD PUSH1 0x20 PUSH2 0x40C5 DUP4 CODECOPY DUP2 MLOAD SWAP2 MSTORE PUSH2 0x22F2 JUMP JUMPDEST ADD MLOAD SWAP1 POP DUP6 DUP1 PUSH2 0x1BCA JUMP JUMPDEST PUSH1 0x9 PUSH1 0x0 MSTORE PUSH1 0x0 DUP1 MLOAD PUSH1 0x20 PUSH2 0x4065 DUP4 CODECOPY DUP2 MLOAD SWAP2 MSTORE SWAP1 PUSH1 0x0 JUMPDEST PUSH1 0x1F NOT DUP5 AND DUP2 LT PUSH2 0x239E JUMPI POP PUSH1 0x1 SWAP4 SWAP5 SWAP6 SWAP7 DUP4 PUSH1 0x1F NOT DUP2 AND LT PUSH2 0x2385 JUMPI JUMPDEST POP POP POP DUP2 SHL ADD PUSH1 0x9 SSTORE PUSH2 0x1BE0 JUMP JUMPDEST ADD MLOAD PUSH1 0x0 NOT PUSH1 0xF8 DUP5 PUSH1 0x3 SHL AND SHR NOT AND SWAP1 SSTORE DUP6 DUP1 DUP1 PUSH2 0x2377 JUMP JUMPDEST SWAP1 SWAP2 PUSH1 0x20 PUSH1 0x1 DUP2 SWAP3 DUP6 DUP12 ADD MLOAD DUP2 SSTORE ADD SWAP4 ADD SWAP2 ADD PUSH2 0x2359 JUMP JUMPDEST PUSH1 0x9 PUSH1 0x0 MSTORE PUSH1 0x1F DUP3 ADD PUSH1 0x5 SHR PUSH1 0x0 DUP1 MLOAD PUSH1 0x20 PUSH2 0x4065 DUP4 CODECOPY DUP2 MLOAD SWAP2 MSTORE ADD PUSH1 0x20 DUP4 LT PUSH2 0x240A JUMPI JUMPDEST PUSH1 0x1F DUP3 ADD PUSH1 0x5 SHR PUSH1 0x0 DUP1 MLOAD PUSH1 0x20 PUSH2 0x4065 DUP4 CODECOPY DUP2 MLOAD SWAP2 MSTORE ADD DUP2 LT PUSH2 0x23FE JUMPI POP PUSH2 0x1BAF JUMP JUMPDEST PUSH1 0x0 DUP2 SSTORE PUSH1 0x1 ADD PUSH2 0x23DB JUMP JUMPDEST POP PUSH1 0x0 DUP1 MLOAD PUSH1 0x20 PUSH2 0x4065 DUP4 CODECOPY DUP2 MLOAD SWAP2 MSTORE PUSH2 0x23DB JUMP JUMPDEST ADD MLOAD SWAP1 POP DUP7 DUP1 PUSH2 0x1B75 JUMP JUMPDEST SWAP3 POP PUSH1 0x8 PUSH1 0x0 MSTORE PUSH1 0x0 DUP1 MLOAD PUSH1 0x20 PUSH2 0x4045 DUP4 CODECOPY DUP2 MLOAD SWAP2 MSTORE SWAP1 PUSH1 0x0 SWAP4 JUMPDEST PUSH1 0x1F NOT DUP5 AND DUP6 LT PUSH2 0x2487 JUMPI PUSH1 0x1 SWAP5 POP DUP4 PUSH1 0x1F NOT DUP2 AND LT PUSH2 0x246E JUMPI JUMPDEST POP POP POP DUP2 SHL ADD PUSH1 0x8 SSTORE PUSH2 0x1B8B JUMP JUMPDEST ADD MLOAD PUSH1 0x0 NOT PUSH1 0xF8 DUP5 PUSH1 0x3 SHL AND SHR NOT AND SWAP1 SSTORE DUP7 DUP1 DUP1 PUSH2 0x2460 JUMP JUMPDEST DUP2 DUP2 ADD MLOAD DUP4 SSTORE PUSH1 0x20 SWAP5 DUP6 ADD SWAP5 PUSH1 0x1 SWAP1 SWAP4 ADD SWAP3 SWAP1 SWAP2 ADD SWAP1 PUSH2 0x2445 JUMP JUMPDEST SWAP1 SWAP2 POP PUSH1 0x8 PUSH1 0x0 MSTORE PUSH1 0x1F DUP4 ADD PUSH1 0x5 SHR PUSH1 0x0 DUP1 MLOAD PUSH1 0x20 PUSH2 0x4045 DUP4 CODECOPY DUP2 MLOAD SWAP2 MSTORE ADD PUSH1 0x20 DUP5 LT PUSH2 0x2501 JUMPI JUMPDEST SWAP1 DUP4 SWAP3 SWAP2 JUMPDEST PUSH1 0x1F DUP3 ADD PUSH1 0x5 SHR PUSH1 0x0 DUP1 MLOAD PUSH1 0x20 PUSH2 0x4045 DUP4 CODECOPY DUP2 MLOAD SWAP2 MSTORE ADD DUP2 LT PUSH2 0x24F2 JUMPI POP PUSH2 0x1B5E JUMP JUMPDEST PUSH1 0x0 DUP2 SSTORE DUP5 SWAP4 POP PUSH1 0x1 ADD PUSH2 0x24CF JUMP JUMPDEST POP PUSH1 0x0 DUP1 MLOAD PUSH1 0x20 PUSH2 0x4045 DUP4 CODECOPY DUP2 MLOAD SWAP2 MSTORE PUSH2 0x24CA JUMP JUMPDEST PUSH1 0x40 MLOAD PUSH3 0x461BCD PUSH1 0xE5 SHL DUP2 MSTORE PUSH1 0x20 PUSH1 0x4 DUP3 ADD MSTORE PUSH1 0xE PUSH1 0x24 DUP3 ADD MSTORE PUSH14 0x24B73B30B634B21034B9B9BAB2B9 PUSH1 0x91 SHL PUSH1 0x44 DUP3 ADD MSTORE PUSH1 0x64 SWAP1 REVERT JUMPDEST PUSH1 0x40 MLOAD PUSH3 0x461BCD PUSH1 0xE5 SHL DUP2 MSTORE PUSH1 0x20 PUSH1 0x4 DUP3 ADD MSTORE PUSH1 0x15 PUSH1 0x24 DUP3 ADD MSTORE PUSH21 0x24B73B30B634B2103830BCB6B2B73A103A37B5B2B7 PUSH1 0x59 SHL PUSH1 0x44 DUP3 ADD MSTORE PUSH1 0x64 SWAP1 REVERT JUMPDEST PUSH1 0x40 MLOAD PUSH3 0x461BCD PUSH1 0xE5 SHL DUP2 MSTORE PUSH1 0x20 PUSH1 0x4 DUP3 ADD MSTORE PUSH1 0xE PUSH1 0x24 DUP3 ADD MSTORE PUSH14 0x496E76616C6964206F7261636C65 PUSH1 0x90 SHL PUSH1 0x44 DUP3 ADD MSTORE PUSH1 0x64 SWAP1 REVERT JUMPDEST PUSH1 0x40 MLOAD PUSH3 0x461BCD PUSH1 0xE5 SHL DUP2 MSTORE PUSH1 0x20 PUSH1 0x4 DUP3 ADD MSTORE PUSH1 0x18 PUSH1 0x24 DUP3 ADD MSTORE PUSH32 0x496E76616C696420636F75706F6E206672657175656E63790000000000000000 PUSH1 0x44 DUP3 ADD MSTORE PUSH1 0x64 SWAP1 REVERT JUMPDEST PUSH1 0x40 MLOAD PUSH3 0x461BCD PUSH1 0xE5 SHL DUP2 MSTORE PUSH1 0x20 PUSH1 0x4 DUP3 ADD MSTORE PUSH1 0x10 PUSH1 0x24 DUP3 ADD MSTORE PUSH16 0x496E76616C6964206D61747572697479 PUSH1 0x80 SHL PUSH1 0x44 DUP3 ADD MSTORE PUSH1 0x64 SWAP1 REVERT JUMPDEST PUSH1 0x40 MLOAD PUSH3 0x461BCD PUSH1 0xE5 SHL DUP2 MSTORE PUSH1 0x20 PUSH1 0x4 DUP3 ADD MSTORE PUSH1 0x17 PUSH1 0x24 DUP3 ADD MSTORE PUSH32 0x537570706C79206D75737420626520706F736974697665000000000000000000 PUSH1 0x44 DUP3 ADD MSTORE PUSH1 0x64 SWAP1 REVERT JUMPDEST PUSH1 0x40 MLOAD PUSH3 0x461BCD PUSH1 0xE5 SHL DUP2 MSTORE PUSH1 0x20 PUSH1 0x4 DUP3 ADD MSTORE PUSH1 0x14 PUSH1 0x24 DUP3 ADD MSTORE PUSH20 0x564E45206D75737420626520706F736974697665 PUSH1 0x60 SHL PUSH1 0x44 DUP3 ADD MSTORE PUSH1 0x64 SWAP1 REVERT JUMPDEST PUSH1 0x40 MLOAD PUSH3 0x461BCD PUSH1 0xE5 SHL DUP2 MSTORE PUSH1 0x20 PUSH1 0x4 DUP3 ADD MSTORE PUSH1 0xF PUSH1 0x24 DUP3 ADD MSTORE PUSH15 0x14DE5B589BDB081C995C5D5A5C9959 PUSH1 0x8A SHL PUSH1 0x44 DUP3 ADD MSTORE PUSH1 0x64 SWAP1 REVERT JUMPDEST PUSH1 0x40 MLOAD PUSH3 0x461BCD PUSH1 0xE5 SHL DUP2 MSTORE PUSH1 0x20 PUSH1 0x4 DUP3 ADD MSTORE PUSH1 0xD PUSH1 0x24 DUP3 ADD MSTORE PUSH13 0x13985B59481C995C5D5A5C9959 PUSH1 0x9A SHL PUSH1 0x44 DUP3 ADD MSTORE PUSH1 0x64 SWAP1 REVERT JUMPDEST PUSH9 0xFFFFFFFFFFFFFFFFFF NOT DUP4 AND PUSH9 0x10000000000000001 OR PUSH1 0x0 DUP1 MLOAD PUSH1 0x20 PUSH2 0x40A5 DUP4 CODECOPY DUP2 MLOAD SWAP2 MSTORE SSTORE PUSH2 0x1AD0 JUMP JUMPDEST PUSH1 0x40 MLOAD PUSH4 0xF92EE8A9 PUSH1 0xE0 SHL DUP2 MSTORE PUSH1 0x4 SWAP1 REVERT JUMPDEST SWAP1 POP ISZERO DUP7 PUSH2 0x1AA0 JUMP JUMPDEST ADDRESS EXTCODESIZE ISZERO SWAP2 POP PUSH2 0x1A98 JUMP JUMPDEST POP PUSH1 0xFF DUP4 PUSH1 0x40 SHR AND ISZERO PUSH2 0x1A84 JUMP JUMPDEST CALLVALUE PUSH2 0x355 JUMPI PUSH1 0x0 CALLDATASIZE PUSH1 0x3 NOT ADD SLT PUSH2 0x355 JUMPI PUSH1 0x20 PUSH1 0x40 MLOAD PUSH32 0x28F5A99355973CC89255B8C4AC88405F27C78DED7608B040EE77A8BDF44D15E2 DUP2 MSTORE RETURN JUMPDEST CALLVALUE PUSH2 0x355 JUMPI PUSH1 0x20 CALLDATASIZE PUSH1 0x3 NOT ADD SLT PUSH2 0x355 JUMPI PUSH2 0x27DD PUSH2 0x3120 JUMP JUMPDEST PUSH2 0x27E5 PUSH2 0x358A JUMP JUMPDEST PUSH1 0x1 PUSH1 0x1 PUSH1 0xA0 SHL SUB AND PUSH1 0x0 DUP2 DUP2 MSTORE PUSH1 0x2A PUSH1 0x20 SWAP1 DUP2 MSTORE PUSH1 0x40 DUP1 DUP4 KECCAK256 DUP1 SLOAD PUSH1 0xFF NOT AND SWAP1 SSTORE MLOAD SWAP2 DUP3 MSTORE PUSH32 0x6A12B3DF6CBA4203BD7FD06B816789F87DE8C594299AED5717AE070FAC781BAC SWAP2 LOG2 STOP JUMPDEST CALLVALUE PUSH2 0x355 JUMPI PUSH1 0x0 CALLDATASIZE PUSH1 0x3 NOT ADD SLT PUSH2 0x355 JUMPI PUSH1 0x20 PUSH1 0x40 MLOAD PUSH3 0xF4240 DUP2 MSTORE RETURN JUMPDEST CALLVALUE PUSH2 0x355 JUMPI PUSH1 0x0 CALLDATASIZE PUSH1 0x3 NOT ADD SLT PUSH2 0x355 JUMPI PUSH1 0x20 PUSH1 0x27 SLOAD PUSH1 0x40 MLOAD SWAP1 DUP2 MSTORE RETURN JUMPDEST CALLVALUE PUSH2 0x355 JUMPI PUSH1 0x20 CALLDATASIZE PUSH1 0x3 NOT ADD SLT PUSH2 0x355 JUMPI PUSH2 0x2885 PUSH2 0x3120 JUMP JUMPDEST PUSH2 0x288D PUSH2 0x358A JUMP JUMPDEST PUSH1 0x1 DUP1 PUSH1 0xA0 SHL SUB AND DUP1 PUSH1 0x0 MSTORE PUSH1 0x2A PUSH1 0x20 MSTORE PUSH1 0x40 PUSH1 0x0 KECCAK256 PUSH1 0x1 PUSH1 0xFF NOT DUP3 SLOAD AND OR SWAP1 SSTORE PUSH32 0x6A12B3DF6CBA4203BD7FD06B816789F87DE8C594299AED5717AE070FAC781BAC PUSH1 0x20 PUSH1 0x40 MLOAD PUSH1 0x1 DUP2 MSTORE LOG2 STOP JUMPDEST CALLVALUE PUSH2 0x355 JUMPI PUSH1 0x0 CALLDATASIZE PUSH1 0x3 NOT ADD SLT PUSH2 0x355 JUMPI PUSH1 0x0 PUSH2 0x200 PUSH1 0x40 MLOAD PUSH2 0x28FD DUP2 PUSH2 0x31A8 JUMP JUMPDEST DUP3 DUP2 MSTORE DUP3 PUSH1 0x20 DUP3 ADD MSTORE DUP3 PUSH1 0x40 DUP3 ADD MSTORE DUP3 PUSH1 0x60 DUP3 ADD MSTORE DUP3 PUSH1 0x80 DUP3 ADD MSTORE DUP3 PUSH1 0xA0 DUP3 ADD MSTORE DUP3 PUSH1 0xC0 DUP3 ADD MSTORE DUP3 PUSH1 0xE0 DUP3 ADD MSTORE DUP3 PUSH2 0x100 DUP3 ADD MSTORE DUP3 PUSH2 0x120 DUP3 ADD MSTORE DUP3 PUSH2 0x140 DUP3 ADD MSTORE PUSH1 0x60 PUSH2 0x160 DUP3 ADD MSTORE PUSH1 0x60 PUSH2 0x180 DUP3 ADD MSTORE PUSH1 0x60 PUSH2 0x1A0 DUP3 ADD MSTORE DUP3 PUSH2 0x1C0 DUP3 ADD MSTORE DUP3 PUSH2 0x1E0 DUP3 ADD MSTORE ADD MSTORE PUSH1 0x40 MLOAD PUSH2 0x2973 DUP2 PUSH2 0x31A8 JUMP JUMPDEST PUSH1 0xB SLOAD DUP2 MSTORE PUSH1 0xC SLOAD PUSH1 0x20 DUP3 ADD MSTORE PUSH1 0xD SLOAD PUSH1 0x40 DUP3 ADD MSTORE PUSH1 0xE SLOAD PUSH1 0x60 DUP3 ADD MSTORE PUSH1 0xFF PUSH1 0xF SLOAD AND PUSH1 0x80 DUP3 ADD MSTORE PUSH1 0x10 SLOAD PUSH1 0xA0 DUP3 ADD MSTORE PUSH1 0xFF PUSH1 0x11 SLOAD AND PUSH1 0x5 DUP2 LT ISZERO PUSH2 0x6FE JUMPI PUSH1 0xC0 DUP3 ADD MSTORE PUSH1 0x12 SLOAD PUSH1 0xE0 DUP3 ADD MSTORE PUSH1 0xFF PUSH1 0x13 SLOAD AND PUSH2 0x100 DUP3 ADD MSTORE PUSH1 0x14 SLOAD PUSH2 0x120 DUP3 ADD MSTORE PUSH1 0xFF PUSH1 0x15 SLOAD AND PUSH1 0x3 DUP2 LT ISZERO PUSH2 0x6FE JUMPI PUSH2 0x140 DUP3 ADD MSTORE PUSH2 0x29F1 PUSH2 0x331B JUMP JUMPDEST PUSH2 0x160 DUP3 ADD MSTORE PUSH2 0x29FF PUSH2 0x33C7 JUMP JUMPDEST PUSH2 0x180 DUP3 ADD MSTORE PUSH2 0x2A0D PUSH2 0x344E JUMP JUMPDEST PUSH2 0x1A0 DUP3 ADD MSTORE PUSH1 0xFF PUSH1 0x19 SLOAD DUP2 DUP2 AND ISZERO ISZERO PUSH2 0x1C0 DUP5 ADD MSTORE PUSH1 0x8 SHR AND ISZERO ISZERO PUSH2 0x1E0 DUP3 ADD MSTORE PUSH1 0x1A SLOAD PUSH2 0x200 DUP3 ADD MSTORE PUSH1 0x40 MLOAD DUP1 SWAP2 PUSH1 0x20 DUP3 MSTORE DUP1 MLOAD PUSH1 0x20 DUP4 ADD MSTORE PUSH1 0x20 DUP2 ADD MLOAD PUSH1 0x40 DUP4 ADD MSTORE PUSH1 0x40 DUP2 ADD MLOAD PUSH1 0x60 DUP4 ADD MSTORE PUSH1 0x60 DUP2 ADD MLOAD PUSH1 0x80 DUP4 ADD MSTORE PUSH1 0xFF PUSH1 0x80 DUP3 ADD MLOAD AND PUSH1 0xA0 DUP4 ADD MSTORE PUSH1 0xA0 DUP2 ADD MLOAD PUSH1 0xC0 DUP4 ADD MSTORE PUSH2 0x2A8F PUSH1 0xC0 DUP3 ADD MLOAD PUSH1 0xE0 DUP5 ADD SWAP1 PUSH2 0x318E JUMP JUMPDEST PUSH1 0xE0 DUP2 ADD MLOAD PUSH2 0x100 DUP4 ADD MSTORE PUSH1 0xFF PUSH2 0x100 DUP3 ADD MLOAD AND PUSH2 0x120 DUP4 ADD MSTORE PUSH2 0x120 DUP2 ADD MLOAD PUSH2 0x140 DUP4 ADD MSTORE PUSH2 0x2AC9 PUSH2 0x140 DUP3 ADD MLOAD PUSH2 0x160 DUP5 ADD SWAP1 PUSH2 0x319B JUMP JUMPDEST PUSH2 0x160 DUP2 ADD MLOAD PUSH2 0x200 PUSH2 0x2B23 PUSH2 0x2AEE PUSH2 0x220 SWAP4 DUP5 PUSH2 0x180 DUP9 ADD MSTORE PUSH2 0x240 DUP8 ADD SWAP1 PUSH2 0x30FB JUMP JUMPDEST PUSH2 0x2B0C PUSH2 0x180 DUP7 ADD MLOAD SWAP2 PUSH1 0x1F NOT SWAP3 DUP4 DUP10 DUP4 SUB ADD PUSH2 0x1A0 DUP11 ADD MSTORE PUSH2 0x30FB JUMP JUMPDEST SWAP1 PUSH2 0x1A0 DUP7 ADD MLOAD SWAP1 DUP8 DUP4 SUB ADD PUSH2 0x1C0 DUP9 ADD MSTORE PUSH2 0x30FB JUMP JUMPDEST SWAP3 PUSH2 0x1C0 DUP2 ADD MLOAD ISZERO ISZERO PUSH2 0x1E0 DUP7 ADD MSTORE PUSH2 0x1E0 DUP2 ADD MLOAD ISZERO ISZERO DUP3 DUP7 ADD MSTORE ADD MLOAD SWAP1 DUP4 ADD MSTORE SUB SWAP1 RETURN JUMPDEST CALLVALUE PUSH2 0x355 JUMPI PUSH1 0x0 CALLDATASIZE PUSH1 0x3 NOT ADD SLT PUSH2 0x355 JUMPI PUSH2 0x2B61 PUSH2 0x358A JUMP JUMPDEST PUSH1 0x7 SLOAD PUSH1 0xFF DUP2 AND ISZERO PUSH2 0x2BA0 JUMPI PUSH1 0xFF NOT AND PUSH1 0x7 SSTORE PUSH32 0x5DB9EE0A495BF2E6FF9C91A7834C1BA4FDD244A5E8AA4E537BD38AEAE4B073AA PUSH1 0x20 PUSH1 0x40 MLOAD CALLER DUP2 MSTORE LOG1 STOP JUMPDEST PUSH1 0x40 MLOAD PUSH4 0x8DFC202B PUSH1 0xE0 SHL DUP2 MSTORE PUSH1 0x4 SWAP1 REVERT JUMPDEST CALLVALUE PUSH2 0x355 JUMPI PUSH1 0x40 CALLDATASIZE PUSH1 0x3 NOT ADD SLT PUSH2 0x355 JUMPI PUSH1 0x1 PUSH1 0x1 PUSH1 0xA0 SHL SUB PUSH2 0x2BD3 PUSH2 0x3120 JUMP JUMPDEST AND PUSH1 0x0 MSTORE PUSH1 0x28 PUSH1 0x20 MSTORE PUSH1 0x40 PUSH1 0x0 KECCAK256 PUSH1 0x24 CALLDATALOAD PUSH1 0x0 MSTORE PUSH1 0x20 MSTORE PUSH1 0x20 PUSH1 0xFF PUSH1 0x40 PUSH1 0x0 KECCAK256 SLOAD AND PUSH1 0x40 MLOAD SWAP1 ISZERO ISZERO DUP2 MSTORE RETURN JUMPDEST CALLVALUE PUSH2 0x355 JUMPI PUSH1 0x0 CALLDATASIZE PUSH1 0x3 NOT ADD SLT PUSH2 0x355 JUMPI PUSH1 0x20 PUSH1 0xFF PUSH1 0xA SLOAD AND PUSH1 0x40 MLOAD SWAP1 ISZERO ISZERO DUP2 MSTORE RETURN JUMPDEST CALLVALUE PUSH2 0x355 JUMPI PUSH1 0x40 CALLDATASIZE PUSH1 0x3 NOT ADD SLT PUSH2 0x355 JUMPI PUSH2 0x2C3B PUSH2 0x3136 JUMP JUMPDEST CALLER PUSH1 0x1 PUSH1 0x1 PUSH1 0xA0 SHL SUB DUP3 AND SUB PUSH2 0x2C57 JUMPI PUSH2 0x57D SWAP1 PUSH1 0x4 CALLDATALOAD PUSH2 0x3A21 JUMP JUMPDEST PUSH1 0x40 MLOAD PUSH4 0x334BD919 PUSH1 0xE1 SHL DUP2 MSTORE PUSH1 0x4 SWAP1 REVERT JUMPDEST CALLVALUE PUSH2 0x355 JUMPI PUSH1 0x0 CALLDATASIZE PUSH1 0x3 NOT ADD SLT PUSH2 0x355 JUMPI PUSH1 0x1C SLOAD PUSH1 0x40 MLOAD PUSH1 0x1 PUSH1 0x1 PUSH1 0xA0 SHL SUB SWAP1 SWAP2 AND DUP2 MSTORE PUSH1 0x20 SWAP1 RETURN JUMPDEST CALLVALUE PUSH2 0x355 JUMPI PUSH1 0x40 CALLDATASIZE PUSH1 0x3 NOT ADD SLT PUSH2 0x355 JUMPI PUSH2 0x57D PUSH1 0x4 CALLDATALOAD PUSH2 0x2CB1 PUSH2 0x3136 JUMP JUMPDEST SWAP1 DUP1 PUSH1 0x0 MSTORE PUSH1 0x5 PUSH1 0x20 MSTORE PUSH2 0x2CCC PUSH1 0x1 PUSH1 0x40 PUSH1 0x0 KECCAK256 ADD SLOAD PUSH2 0x369E JUMP JUMPDEST PUSH2 0x39B8 JUMP JUMPDEST CALLVALUE PUSH2 0x355 JUMPI PUSH1 0x20 DUP1 PUSH1 0x3 NOT CALLDATASIZE ADD SLT PUSH2 0x355 JUMPI PUSH1 0x1 PUSH1 0x1 PUSH1 0x40 SHL SUB PUSH1 0x4 CALLDATALOAD DUP2 DUP2 GT PUSH2 0x355 JUMPI CALLDATASIZE PUSH1 0x23 DUP3 ADD SLT ISZERO PUSH2 0x355 JUMPI DUP1 PUSH1 0x4 ADD CALLDATALOAD SWAP2 DUP3 GT PUSH2 0x355 JUMPI PUSH1 0x24 DUP2 ADD SWAP1 PUSH1 0x24 CALLDATASIZE SWAP2 DUP5 PUSH1 0x5 SHL ADD ADD GT PUSH2 0x355 JUMPI PUSH2 0x2D28 PUSH2 0x3510 JUMP JUMPDEST PUSH1 0x0 JUMPDEST DUP3 DUP2 LT PUSH2 0x2D34 JUMPI STOP JUMPDEST PUSH2 0x2DAD SWAP1 PUSH1 0x1 PUSH1 0x1 PUSH1 0xA0 SHL SUB DUP1 PUSH2 0x2D54 PUSH2 0x2D4F DUP5 DUP9 DUP9 PUSH2 0x3E02 JUMP JUMPDEST PUSH2 0x3E12 JUMP JUMPDEST AND PUSH1 0x0 MSTORE PUSH1 0x29 DUP7 MSTORE PUSH32 0xF93F9A76C1BF3444D22400A00CB9FE990E6ABE9DBB333FDA48859CFEE864543D DUP7 PUSH1 0x40 PUSH1 0x0 KECCAK256 SWAP3 PUSH1 0x1 SWAP4 DUP5 PUSH1 0xFF NOT DUP3 SLOAD AND OR SWAP1 SSTORE PUSH2 0x2D9F PUSH2 0x2D4F DUP7 DUP11 DUP11 PUSH2 0x3E02 JUMP JUMPDEST AND SWAP3 PUSH1 0x40 MLOAD SWAP1 DUP2 MSTORE LOG2 PUSH2 0x3DF3 JUMP JUMPDEST PUSH2 0x2D2B JUMP JUMPDEST CALLVALUE PUSH2 0x355 JUMPI PUSH1 0x20 CALLDATASIZE PUSH1 0x3 NOT ADD SLT PUSH2 0x355 JUMPI PUSH1 0x4 CALLDATALOAD PUSH1 0x0 MSTORE PUSH1 0x5 PUSH1 0x20 MSTORE PUSH1 0x20 PUSH1 0x1 PUSH1 0x40 PUSH1 0x0 KECCAK256 ADD SLOAD PUSH1 0x40 MLOAD SWAP1 DUP2 MSTORE RETURN JUMPDEST CALLVALUE PUSH2 0x355 JUMPI PUSH2 0x2DEF CALLDATASIZE PUSH2 0x3159 JUMP JUMPDEST SWAP1 PUSH1 0x1 DUP1 PUSH1 0xA0 SHL SUB DUP4 AND SWAP3 DUP4 PUSH1 0x0 MSTORE PUSH1 0x1 PUSH1 0x20 MSTORE PUSH1 0x40 PUSH1 0x0 KECCAK256 CALLER PUSH1 0x0 MSTORE PUSH1 0x20 MSTORE PUSH1 0x40 PUSH1 0x0 KECCAK256 SLOAD SWAP4 PUSH1 0x0 NOT DUP6 LT PUSH2 0x2E2B JUMPI JUMPDEST POP PUSH2 0xE6F SWAP4 POP PUSH2 0x3A98 JUMP JUMPDEST DUP4 DUP6 LT PUSH2 0x2E97 JUMPI DUP1 ISZERO PUSH2 0x2E7E JUMPI CALLER ISZERO PUSH2 0x2E65 JUMPI PUSH2 0xE6F SWAP5 DUP5 SWAP2 PUSH1 0x0 MSTORE PUSH1 0x1 PUSH1 0x20 MSTORE PUSH1 0x40 PUSH1 0x0 KECCAK256 CALLER PUSH1 0x0 MSTORE PUSH1 0x20 MSTORE SUB PUSH1 0x40 PUSH1 0x0 KECCAK256 SSTORE DUP5 PUSH2 0x2E20 JUMP JUMPDEST PUSH1 0x40 MLOAD PUSH4 0x4A1406B1 PUSH1 0xE1 SHL DUP2 MSTORE PUSH1 0x0 PUSH1 0x4 DUP3 ADD MSTORE PUSH1 0x24 SWAP1 REVERT JUMPDEST PUSH1 0x40 MLOAD PUSH4 0xE602DF05 PUSH1 0xE0 SHL DUP2 MSTORE PUSH1 0x0 PUSH1 0x4 DUP3 ADD MSTORE PUSH1 0x24 SWAP1 REVERT JUMPDEST PUSH1 0x40 MLOAD PUSH4 0x7DC7A0D9 PUSH1 0xE1 SHL DUP2 MSTORE CALLER PUSH1 0x4 DUP3 ADD MSTORE PUSH1 0x24 DUP2 ADD DUP7 SWAP1 MSTORE PUSH1 0x44 DUP2 ADD DUP6 SWAP1 MSTORE PUSH1 0x64 SWAP1 REVERT JUMPDEST SUB SWAP1 REVERT JUMPDEST CALLVALUE PUSH2 0x355 JUMPI PUSH1 0x0 CALLDATASIZE PUSH1 0x3 NOT ADD SLT PUSH2 0x355 JUMPI PUSH1 0x20 PUSH1 0xFF PUSH1 0x1E SLOAD PUSH1 0xA0 SHR AND PUSH2 0x2EEA PUSH1 0x40 MLOAD DUP1 SWAP3 PUSH2 0x314C JUMP JUMPDEST RETURN JUMPDEST CALLVALUE PUSH2 0x355 JUMPI PUSH1 0x0 CALLDATASIZE PUSH1 0x3 NOT ADD SLT PUSH2 0x355 JUMPI PUSH1 0x1D SLOAD PUSH1 0x40 MLOAD PUSH1 0x1 PUSH1 0x1 PUSH1 0xA0 SHL SUB SWAP1 SWAP2 AND DUP2 MSTORE PUSH1 0x20 SWAP1 RETURN JUMPDEST CALLVALUE PUSH2 0x355 JUMPI PUSH1 0x0 CALLDATASIZE PUSH1 0x3 NOT ADD SLT PUSH2 0x355 JUMPI PUSH1 0x20 PUSH1 0x2 SLOAD PUSH1 0x40 MLOAD SWAP1 DUP2 MSTORE RETURN JUMPDEST CALLVALUE PUSH2 0x355 JUMPI PUSH1 0x0 CALLDATASIZE PUSH1 0x3 NOT ADD SLT PUSH2 0x355 JUMPI PUSH1 0x20 PUSH1 0x24 SLOAD PUSH1 0x40 MLOAD SWAP1 DUP2 MSTORE RETURN JUMPDEST CALLVALUE PUSH2 0x355 JUMPI PUSH1 0x40 CALLDATASIZE PUSH1 0x3 NOT ADD SLT PUSH2 0x355 JUMPI PUSH2 0x2F6A PUSH2 0x3120 JUMP JUMPDEST PUSH1 0x24 CALLDATALOAD SWAP1 CALLER ISZERO PUSH2 0x2E7E JUMPI PUSH1 0x1 PUSH1 0x1 PUSH1 0xA0 SHL SUB AND SWAP1 DUP2 ISZERO PUSH2 0x2E65 JUMPI CALLER PUSH1 0x0 MSTORE PUSH1 0x1 PUSH1 0x20 MSTORE PUSH1 0x40 PUSH1 0x0 KECCAK256 DUP3 PUSH1 0x0 MSTORE PUSH1 0x20 MSTORE DUP1 PUSH1 0x40 PUSH1 0x0 KECCAK256 SSTORE PUSH1 0x40 MLOAD SWAP1 DUP2 MSTORE PUSH32 0x8C5BE1E5EBEC7D5BD14F71427D1E84F3DD0314C0F7B2291E5B200AC8C7C3B925 PUSH1 0x20 CALLER SWAP3 LOG3 PUSH1 0x20 PUSH1 0x40 MLOAD PUSH1 0x1 DUP2 MSTORE RETURN JUMPDEST CALLVALUE PUSH2 0x355 JUMPI PUSH1 0x0 CALLDATASIZE PUSH1 0x3 NOT ADD SLT PUSH2 0x355 JUMPI PUSH1 0x40 MLOAD PUSH1 0x0 PUSH1 0x8 SLOAD PUSH2 0x2FF9 DUP2 PUSH2 0x32E1 JUMP JUMPDEST DUP1 DUP5 MSTORE SWAP1 PUSH1 0x1 SWAP1 DUP2 DUP2 AND SWAP1 DUP2 ISZERO PUSH2 0x1161 JUMPI POP PUSH1 0x1 EQ PUSH2 0x3022 JUMPI PUSH2 0x1114 DUP5 PUSH2 0x1100 DUP2 DUP7 SUB DUP3 PUSH2 0x3215 JUMP JUMPDEST PUSH1 0x8 PUSH1 0x0 SWAP1 DUP2 MSTORE SWAP3 POP PUSH1 0x0 DUP1 MLOAD PUSH1 0x20 PUSH2 0x4045 DUP4 CODECOPY DUP2 MLOAD SWAP2 MSTORE JUMPDEST DUP3 DUP5 LT PUSH2 0x3053 JUMPI POP POP POP DUP2 ADD PUSH1 0x20 ADD PUSH2 0x1100 DUP3 PUSH2 0x10F0 JUMP JUMPDEST DUP1 SLOAD PUSH1 0x20 DUP6 DUP8 ADD DUP2 ADD SWAP2 SWAP1 SWAP2 MSTORE SWAP1 SWAP4 ADD SWAP3 DUP2 ADD PUSH2 0x303B JUMP JUMPDEST CALLVALUE PUSH2 0x355 JUMPI PUSH1 0x20 CALLDATASIZE PUSH1 0x3 NOT ADD SLT PUSH2 0x355 JUMPI PUSH1 0x4 CALLDATALOAD SWAP1 PUSH4 0xFFFFFFFF PUSH1 0xE0 SHL DUP3 AND DUP1 SWAP3 SUB PUSH2 0x355 JUMPI PUSH1 0x20 SWAP2 PUSH4 0xB0146E63 PUSH1 0xE0 SHL DUP2 EQ SWAP1 DUP2 ISZERO PUSH2 0x30AD JUMPI JUMPDEST POP ISZERO ISZERO DUP2 MSTORE RETURN JUMPDEST PUSH4 0x7965DB0B PUSH1 0xE0 SHL DUP2 EQ SWAP2 POP DUP2 ISZERO PUSH2 0x30C7 JUMPI JUMPDEST POP DUP4 PUSH2 0x30A6 JUMP JUMPDEST PUSH4 0x1FFC9A7 PUSH1 0xE0 SHL EQ SWAP1 POP DUP4 PUSH2 0x30C0 JUMP JUMPDEST PUSH1 0x0 JUMPDEST DUP4 DUP2 LT PUSH2 0x30EB JUMPI POP POP PUSH1 0x0 SWAP2 ADD MSTORE JUMP JUMPDEST DUP2 DUP2 ADD MLOAD DUP4 DUP3 ADD MSTORE PUSH1 0x20 ADD PUSH2 0x30DB JUMP JUMPDEST SWAP1 PUSH1 0x20 SWAP2 PUSH2 0x3114 DUP2 MLOAD DUP1 SWAP3 DUP2 DUP6 MSTORE DUP6 DUP1 DUP7 ADD SWAP2 ADD PUSH2 0x30D8 JUMP JUMPDEST PUSH1 0x1F ADD PUSH1 0x1F NOT AND ADD ADD SWAP1 JUMP JUMPDEST PUSH1 0x4 CALLDATALOAD SWAP1 PUSH1 0x1 PUSH1 0x1 PUSH1 0xA0 SHL SUB DUP3 AND DUP3 SUB PUSH2 0x355 JUMPI JUMP JUMPDEST PUSH1 0x24 CALLDATALOAD SWAP1 PUSH1 0x1 PUSH1 0x1 PUSH1 0xA0 SHL SUB DUP3 AND DUP3 SUB PUSH2 0x355 JUMPI JUMP JUMPDEST SWAP1 PUSH1 0x4 DUP3 LT ISZERO PUSH2 0x6FE JUMPI MSTORE JUMP JUMPDEST PUSH1 0x60 SWAP1 PUSH1 0x3 NOT ADD SLT PUSH2 0x355 JUMPI PUSH1 0x1 PUSH1 0x1 PUSH1 0xA0 SHL SUB SWAP1 PUSH1 0x4 CALLDATALOAD DUP3 DUP2 AND DUP2 SUB PUSH2 0x355 JUMPI SWAP2 PUSH1 0x24 CALLDATALOAD SWAP1 DUP2 AND DUP2 SUB PUSH2 0x355 JUMPI SWAP1 PUSH1 0x44 CALLDATALOAD SWAP1 JUMP JUMPDEST SWAP1 PUSH1 0x5 DUP3 LT ISZERO PUSH2 0x6FE JUMPI MSTORE JUMP JUMPDEST SWAP1 PUSH1 0x3 DUP3 LT ISZERO PUSH2 0x6FE JUMPI MSTORE JUMP JUMPDEST PUSH2 0x220 DUP2 ADD SWAP1 DUP2 LT PUSH1 0x1 PUSH1 0x1 PUSH1 0x40 SHL SUB DUP3 GT OR PUSH2 0x57F JUMPI PUSH1 0x40 MSTORE JUMP JUMPDEST PUSH1 0x80 DUP2 ADD SWAP1 DUP2 LT PUSH1 0x1 PUSH1 0x1 PUSH1 0x40 SHL SUB DUP3 GT OR PUSH2 0x57F JUMPI PUSH1 0x40 MSTORE JUMP JUMPDEST PUSH1 0x40 DUP2 ADD SWAP1 DUP2 LT PUSH1 0x1 PUSH1 0x1 PUSH1 0x40 SHL SUB DUP3 GT OR PUSH2 0x57F JUMPI PUSH1 0x40 MSTORE JUMP JUMPDEST PUSH1 0x60 DUP2 ADD SWAP1 DUP2 LT PUSH1 0x1 PUSH1 0x1 PUSH1 0x40 SHL SUB DUP3 GT OR PUSH2 0x57F JUMPI PUSH1 0x40 MSTORE JUMP JUMPDEST SWAP1 PUSH1 0x1F DUP1 NOT SWAP2 ADD AND DUP2 ADD SWAP1 DUP2 LT PUSH1 0x1 PUSH1 0x1 PUSH1 0x40 SHL SUB DUP3 GT OR PUSH2 0x57F JUMPI PUSH1 0x40 MSTORE JUMP JUMPDEST DUP2 PUSH1 0x1F DUP3 ADD SLT ISZERO PUSH2 0x355 JUMPI DUP1 CALLDATALOAD SWAP1 PUSH1 0x1 PUSH1 0x1 PUSH1 0x40 SHL SUB DUP3 GT PUSH2 0x57F JUMPI PUSH1 0x40 MLOAD SWAP3 PUSH2 0x326A PUSH1 0x1F DUP5 ADD PUSH1 0x1F NOT AND PUSH1 0x20 ADD DUP6 PUSH2 0x3215 JUMP JUMPDEST DUP3 DUP5 MSTORE PUSH1 0x20 DUP4 DUP4 ADD ADD GT PUSH2 0x355 JUMPI DUP2 PUSH1 0x0 SWAP3 PUSH1 0x20 DUP1 SWAP4 ADD DUP4 DUP7 ADD CALLDATACOPY DUP4 ADD ADD MSTORE SWAP1 JUMP JUMPDEST CALLDATALOAD SWAP1 PUSH1 0xFF DUP3 AND DUP3 SUB PUSH2 0x355 JUMPI JUMP JUMPDEST CALLDATALOAD SWAP1 DUP2 ISZERO ISZERO DUP3 SUB PUSH2 0x355 JUMPI JUMP JUMPDEST PUSH1 0x27 SLOAD DUP2 LT ISZERO PUSH2 0x103B JUMPI PUSH1 0x27 PUSH1 0x0 MSTORE PUSH1 0x2 SHL PUSH32 0x98A476F1687BC3D60A2DA2ADBCBA2C46958E61FA2FB4042CD7BC5816A710195B ADD SWAP1 PUSH1 0x0 SWAP1 JUMP JUMPDEST SWAP1 PUSH1 0x1 DUP3 DUP2 SHR SWAP3 AND DUP1 ISZERO PUSH2 0x3311 JUMPI JUMPDEST PUSH1 0x20 DUP4 LT EQ PUSH2 0x32FB JUMPI JUMP JUMPDEST PUSH4 0x4E487B71 PUSH1 0xE0 SHL PUSH1 0x0 MSTORE PUSH1 0x22 PUSH1 0x4 MSTORE PUSH1 0x24 PUSH1 0x0 REVERT JUMPDEST SWAP2 PUSH1 0x7F AND SWAP2 PUSH2 0x32F0 JUMP JUMPDEST PUSH1 0x40 MLOAD SWAP1 PUSH1 0x0 DUP3 PUSH1 0x16 SLOAD SWAP2 PUSH2 0x332F DUP4 PUSH2 0x32E1 JUMP JUMPDEST DUP1 DUP4 MSTORE SWAP3 PUSH1 0x1 SWAP1 DUP2 DUP2 AND SWAP1 DUP2 ISZERO PUSH2 0x33A5 JUMPI POP PUSH1 0x1 EQ PUSH2 0x3358 JUMPI JUMPDEST POP PUSH2 0x3356 SWAP3 POP SUB DUP4 PUSH2 0x3215 JUMP JUMPDEST JUMP JUMPDEST PUSH1 0x16 PUSH1 0x0 SWAP1 DUP2 MSTORE SWAP2 POP PUSH1 0x0 DUP1 MLOAD PUSH1 0x20 PUSH2 0x40C5 DUP4 CODECOPY DUP2 MLOAD SWAP2 MSTORE JUMPDEST DUP5 DUP4 LT PUSH2 0x338A JUMPI POP PUSH2 0x3356 SWAP4 POP POP DUP2 ADD PUSH1 0x20 ADD CODESIZE PUSH2 0x3349 JUMP JUMPDEST DUP2 SWAP4 POP SWAP1 DUP2 PUSH1 0x20 SWAP3 SLOAD DUP4 DUP6 DUP11 ADD ADD MSTORE ADD SWAP2 ADD SWAP1 SWAP2 DUP6 SWAP3 PUSH2 0x3371 JUMP JUMPDEST SWAP1 POP PUSH1 0x20 SWAP3 POP PUSH2 0x3356 SWAP5 SWAP2 POP PUSH1 0xFF NOT AND DUP3 DUP5 ADD MSTORE ISZERO ISZERO PUSH1 0x5 SHL DUP3 ADD ADD CODESIZE PUSH2 0x3349 JUMP JUMPDEST PUSH1 0x40 MLOAD SWAP1 PUSH1 0x0 DUP3 PUSH1 0x17 SLOAD SWAP2 PUSH2 0x33DB DUP4 PUSH2 0x32E1 JUMP JUMPDEST DUP1 DUP4 MSTORE SWAP3 PUSH1 0x1 SWAP1 DUP2 DUP2 AND SWAP1 DUP2 ISZERO PUSH2 0x33A5 JUMPI POP PUSH1 0x1 EQ PUSH2 0x3401 JUMPI POP PUSH2 0x3356 SWAP3 POP SUB DUP4 PUSH2 0x3215 JUMP JUMPDEST PUSH1 0x17 PUSH1 0x0 SWAP1 DUP2 MSTORE SWAP2 POP PUSH1 0x0 DUP1 MLOAD PUSH1 0x20 PUSH2 0x4085 DUP4 CODECOPY DUP2 MLOAD SWAP2 MSTORE JUMPDEST DUP5 DUP4 LT PUSH2 0x3433 JUMPI POP PUSH2 0x3356 SWAP4 POP POP DUP2 ADD PUSH1 0x20 ADD CODESIZE PUSH2 0x3349 JUMP JUMPDEST DUP2 SWAP4 POP SWAP1 DUP2 PUSH1 0x20 SWAP3 SLOAD DUP4 DUP6 DUP11 ADD ADD MSTORE ADD SWAP2 ADD SWAP1 SWAP2 DUP6 SWAP3 PUSH2 0x341A JUMP JUMPDEST PUSH1 0x40 MLOAD SWAP1 PUSH1 0x0 DUP3 PUSH1 0x18 SLOAD SWAP2 PUSH2 0x3462 DUP4 PUSH2 0x32E1 JUMP JUMPDEST DUP1 DUP4 MSTORE SWAP3 PUSH1 0x1 SWAP1 DUP2 DUP2 AND SWAP1 DUP2 ISZERO PUSH2 0x33A5 JUMPI POP PUSH1 0x1 EQ PUSH2 0x3488 JUMPI POP PUSH2 0x3356 SWAP3 POP SUB DUP4 PUSH2 0x3215 JUMP JUMPDEST PUSH1 0x18 PUSH1 0x0 SWAP1 DUP2 MSTORE SWAP2 POP PUSH1 0x0 DUP1 MLOAD PUSH1 0x20 PUSH2 0x4025 DUP4 CODECOPY DUP2 MLOAD SWAP2 MSTORE JUMPDEST DUP5 DUP4 LT PUSH2 0x34BA JUMPI POP PUSH2 0x3356 SWAP4 POP POP DUP2 ADD PUSH1 0x20 ADD CODESIZE PUSH2 0x3349 JUMP JUMPDEST DUP2 SWAP4 POP SWAP1 DUP2 PUSH1 0x20 SWAP3 SLOAD DUP4 DUP6 DUP11 ADD ADD MSTORE ADD SWAP2 ADD SWAP1 SWAP2 DUP6 SWAP3 PUSH2 0x34A1 JUMP JUMPDEST PUSH1 0x25 SLOAD DUP2 LT ISZERO PUSH2 0x103B JUMPI PUSH1 0x3 SWAP1 PUSH1 0x25 PUSH1 0x0 MSTORE MUL PUSH32 0x401968FF42A154441DA5F6C4C935AC46B8671F0E062BAAA62A7545BA53BB6E4C ADD SWAP1 PUSH1 0x0 SWAP1 JUMP JUMPDEST CALLER PUSH1 0x0 SWAP1 DUP2 MSTORE PUSH32 0x294BB43E882F8724B7AE88344D047A41612B98EE139A78F923B3689F3CC274B1 PUSH1 0x20 MSTORE PUSH1 0x40 SWAP1 KECCAK256 SLOAD PUSH32 0x28F5A99355973CC89255B8C4AC88405F27C78DED7608B040EE77A8BDF44D15E2 SWAP1 PUSH1 0xFF AND ISZERO PUSH2 0x356C JUMPI POP JUMP JUMPDEST PUSH1 0x44 SWAP1 PUSH1 0x40 MLOAD SWAP1 PUSH4 0xE2517D3F PUSH1 0xE0 SHL DUP3 MSTORE CALLER PUSH1 0x4 DUP4 ADD MSTORE PUSH1 0x24 DUP3 ADD MSTORE REVERT JUMPDEST CALLER PUSH1 0x0 SWAP1 DUP2 MSTORE PUSH32 0xD8EF4509105C3EDB0B04658B4528EDC5DDD30EA5A81E623A2623C88DB1EB54B6 PUSH1 0x20 MSTORE PUSH1 0x40 SWAP1 KECCAK256 SLOAD PUSH32 0xA49807205CE4D355092EF5A8A18F56E8913CF4A201FBE287825B095693C21775 SWAP1 PUSH1 0xFF AND ISZERO PUSH2 0x356C JUMPI POP JUMP JUMPDEST CALLER PUSH1 0x0 SWAP1 DUP2 MSTORE PUSH32 0x8699172536D22B992C4579CB1469B6A17054A95EE49BF4D1FDC489BAFAAA007 PUSH1 0x20 MSTORE PUSH1 0x40 SWAP1 KECCAK256 SLOAD PUSH32 0x114E74F6EA3BD819998F78687BFCB11B140DA08E9B7D222FA9C1F1BA1F2AA122 SWAP1 PUSH1 0xFF AND ISZERO PUSH2 0x356C JUMPI POP JUMP JUMPDEST CALLER PUSH1 0x0 SWAP1 DUP2 MSTORE PUSH32 0x66215885DCB73CB4AAE79FCB51F949ACF75999687399EEF5D47B261732E84357 PUSH1 0x20 MSTORE PUSH1 0x40 SWAP1 KECCAK256 SLOAD PUSH32 0x700B68D05515876E1B5BEE45535F56F17ECF1FBB63AC93E8914591401365025D SWAP1 PUSH1 0xFF AND ISZERO PUSH2 0x356C JUMPI POP JUMP JUMPDEST DUP1 PUSH1 0x0 MSTORE PUSH1 0x5 PUSH1 0x20 MSTORE PUSH1 0x40 PUSH1 0x0 KECCAK256 CALLER PUSH1 0x0 MSTORE PUSH1 0x20 MSTORE PUSH1 0xFF PUSH1 0x40 PUSH1 0x0 KECCAK256 SLOAD AND ISZERO PUSH2 0x356C JUMPI POP JUMP JUMPDEST PUSH1 0x1 PUSH1 0x1 PUSH1 0xA0 SHL SUB AND PUSH1 0x0 DUP2 DUP2 MSTORE PUSH32 0x5B8CCBB9D4D8FB16EA74CE3C29A41F1B461FBDAFF4714A0D9A8EB05499746BC PUSH1 0x20 MSTORE PUSH1 0x40 DUP2 KECCAK256 SLOAD SWAP1 SWAP2 SWAP1 PUSH1 0xFF AND PUSH2 0x373F JUMPI DUP2 DUP1 MSTORE PUSH1 0x5 PUSH1 0x20 MSTORE PUSH1 0x40 DUP3 KECCAK256 DUP2 DUP4 MSTORE PUSH1 0x20 MSTORE PUSH1 0x40 DUP3 KECCAK256 PUSH1 0x1 PUSH1 0xFF NOT DUP3 SLOAD AND OR SWAP1 SSTORE CALLER SWAP2 PUSH1 0x0 DUP1 MLOAD PUSH1 0x20 PUSH2 0x4005 DUP4 CODECOPY DUP2 MLOAD SWAP2 MSTORE DUP2 DUP1 LOG4 PUSH1 0x1 SWAP1 JUMP JUMPDEST POP SWAP1 JUMP JUMPDEST PUSH1 0x1 PUSH1 0x1 PUSH1 0xA0 SHL SUB AND PUSH1 0x0 DUP2 DUP2 MSTORE PUSH32 0xD8EF4509105C3EDB0B04658B4528EDC5DDD30EA5A81E623A2623C88DB1EB54B6 PUSH1 0x20 MSTORE PUSH1 0x40 DUP2 KECCAK256 SLOAD SWAP1 SWAP2 SWAP1 PUSH32 0xA49807205CE4D355092EF5A8A18F56E8913CF4A201FBE287825B095693C21775 SWAP1 PUSH1 0xFF AND PUSH2 0x37DF JUMPI DUP1 DUP4 MSTORE PUSH1 0x5 PUSH1 0x20 MSTORE PUSH1 0x40 DUP4 KECCAK256 DUP3 DUP5 MSTORE PUSH1 0x20 MSTORE PUSH1 0x40 DUP4 KECCAK256 PUSH1 0x1 PUSH1 0xFF NOT DUP3 SLOAD AND OR SWAP1 SSTORE PUSH1 0x0 DUP1 MLOAD PUSH1 0x20 PUSH2 0x4005 DUP4 CODECOPY DUP2 MLOAD SWAP2 MSTORE CALLER SWAP4 DUP1 LOG4 PUSH1 0x1 SWAP1 JUMP JUMPDEST POP POP SWAP1 JUMP JUMPDEST PUSH1 0x1 PUSH1 0x1 PUSH1 0xA0 SHL SUB AND PUSH1 0x0 DUP2 DUP2 MSTORE PUSH32 0x8699172536D22B992C4579CB1469B6A17054A95EE49BF4D1FDC489BAFAAA007 PUSH1 0x20 MSTORE PUSH1 0x40 DUP2 KECCAK256 SLOAD SWAP1 SWAP2 SWAP1 PUSH32 0x114E74F6EA3BD819998F78687BFCB11B140DA08E9B7D222FA9C1F1BA1F2AA122 SWAP1 PUSH1 0xFF AND PUSH2 0x37DF JUMPI DUP1 DUP4 MSTORE PUSH1 0x5 PUSH1 0x20 MSTORE PUSH1 0x40 DUP4 KECCAK256 DUP3 DUP5 MSTORE PUSH1 0x20 MSTORE PUSH1 0x40 DUP4 KECCAK256 PUSH1 0x1 PUSH1 0xFF NOT DUP3 SLOAD AND OR SWAP1 SSTORE PUSH1 0x0 DUP1 MLOAD PUSH1 0x20 PUSH2 0x4005 DUP4 CODECOPY DUP2 MLOAD SWAP2 MSTORE CALLER SWAP4 DUP1 LOG4 PUSH1 0x1 SWAP1 JUMP JUMPDEST PUSH1 0x1 PUSH1 0x1 PUSH1 0xA0 SHL SUB AND PUSH1 0x0 DUP2 DUP2 MSTORE PUSH32 0x66215885DCB73CB4AAE79FCB51F949ACF75999687399EEF5D47B261732E84357 PUSH1 0x20 MSTORE PUSH1 0x40 DUP2 KECCAK256 SLOAD SWAP1 SWAP2 SWAP1 PUSH32 0x700B68D05515876E1B5BEE45535F56F17ECF1FBB63AC93E8914591401365025D SWAP1 PUSH1 0xFF AND PUSH2 0x37DF JUMPI DUP1 DUP4 MSTORE PUSH1 0x5 PUSH1 0x20 MSTORE PUSH1 0x40 DUP4 KECCAK256 DUP3 DUP5 MSTORE PUSH1 0x20 MSTORE PUSH1 0x40 DUP4 KECCAK256 PUSH1 0x1 PUSH1 0xFF NOT DUP3 SLOAD AND OR SWAP1 SSTORE PUSH1 0x0 DUP1 MLOAD PUSH1 0x20 PUSH2 0x4005 DUP4 CODECOPY DUP2 MLOAD SWAP2 MSTORE CALLER SWAP4 DUP1 LOG4 PUSH1 0x1 SWAP1 JUMP JUMPDEST PUSH1 0x1 PUSH1 0x1 PUSH1 0xA0 SHL SUB AND PUSH1 0x0 DUP2 DUP2 MSTORE PUSH32 0x294BB43E882F8724B7AE88344D047A41612B98EE139A78F923B3689F3CC274B1 PUSH1 0x20 MSTORE PUSH1 0x40 DUP2 KECCAK256 SLOAD SWAP1 SWAP2 SWAP1 PUSH32 0x28F5A99355973CC89255B8C4AC88405F27C78DED7608B040EE77A8BDF44D15E2 SWAP1 PUSH1 0xFF AND PUSH2 0x37DF JUMPI DUP1 DUP4 MSTORE PUSH1 0x5 PUSH1 0x20 MSTORE PUSH1 0x40 DUP4 KECCAK256 DUP3 DUP5 MSTORE PUSH1 0x20 MSTORE PUSH1 0x40 DUP4 KECCAK256 PUSH1 0x1 PUSH1 0xFF NOT DUP3 SLOAD AND OR SWAP1 SSTORE PUSH1 0x0 DUP1 MLOAD PUSH1 0x20 PUSH2 0x4005 DUP4 CODECOPY DUP2 MLOAD SWAP2 MSTORE CALLER SWAP4 DUP1 LOG4 PUSH1 0x1 SWAP1 JUMP JUMPDEST SWAP1 PUSH1 0x0 SWAP2 DUP1 DUP4 MSTORE PUSH1 0x5 PUSH1 0x20 MSTORE PUSH1 0x40 DUP4 KECCAK256 SWAP2 PUSH1 0x1 DUP1 PUSH1 0xA0 SHL SUB AND SWAP2 DUP3 DUP5 MSTORE PUSH1 0x20 MSTORE PUSH1 0xFF PUSH1 0x40 DUP5 KECCAK256 SLOAD AND ISZERO PUSH1 0x0 EQ PUSH2 0x37DF JUMPI DUP1 DUP4 MSTORE PUSH1 0x5 PUSH1 0x20 MSTORE PUSH1 0x40 DUP4 KECCAK256 DUP3 DUP5 MSTORE PUSH1 0x20 MSTORE PUSH1 0x40 DUP4 KECCAK256 PUSH1 0x1 PUSH1 0xFF NOT DUP3 SLOAD AND OR SWAP1 SSTORE PUSH1 0x0 DUP1 MLOAD PUSH1 0x20 PUSH2 0x4005 DUP4 CODECOPY DUP2 MLOAD SWAP2 MSTORE CALLER SWAP4 DUP1 LOG4 PUSH1 0x1 SWAP1 JUMP JUMPDEST SWAP1 PUSH1 0x0 SWAP2 DUP1 DUP4 MSTORE PUSH1 0x5 PUSH1 0x20 MSTORE PUSH1 0x40 DUP4 KECCAK256 SWAP2 PUSH1 0x1 DUP1 PUSH1 0xA0 SHL SUB AND SWAP2 DUP3 DUP5 MSTORE PUSH1 0x20 MSTORE PUSH1 0xFF PUSH1 0x40 DUP5 KECCAK256 SLOAD AND PUSH1 0x0 EQ PUSH2 0x37DF JUMPI DUP1 DUP4 MSTORE PUSH1 0x5 PUSH1 0x20 MSTORE PUSH1 0x40 DUP4 KECCAK256 DUP3 DUP5 MSTORE PUSH1 0x20 MSTORE PUSH1 0x40 DUP4 KECCAK256 PUSH1 0xFF NOT DUP2 SLOAD AND SWAP1 SSTORE PUSH32 0xF6391F5C32D9C69D2A47EA670B442974B53935D1EDC7FD64EB21E047A839171B CALLER SWAP4 DUP1 LOG4 PUSH1 0x1 SWAP1 JUMP JUMPDEST SWAP1 SWAP2 PUSH1 0x1 PUSH1 0x1 PUSH1 0xA0 SHL SUB DUP1 DUP4 AND SWAP3 SWAP1 DUP4 ISZERO PUSH2 0x3BA0 JUMPI DUP5 AND SWAP4 DUP5 ISZERO PUSH2 0x3B87 JUMPI PUSH2 0x3AC0 SWAP1 DUP3 PUSH2 0x3BB9 JUMP JUMPDEST PUSH1 0xFF PUSH2 0x3ACB DUP3 PUSH2 0x3C77 JUMP JUMPDEST SWAP2 AND PUSH2 0x3B63 JUMPI POP PUSH1 0x0 SWAP1 DUP4 DUP3 MSTORE DUP2 PUSH1 0x20 MSTORE PUSH1 0x40 DUP3 KECCAK256 SLOAD SWAP1 DUP4 DUP3 LT PUSH2 0x3B31 JUMPI POP SWAP2 PUSH1 0x40 DUP3 DUP3 PUSH32 0xDDF252AD1BE2C89B69C2B068FC378DAA952BA7F163C4A11628F55A4DF523B3EF SWAP6 DUP8 PUSH1 0x20 SWAP7 MSTORE DUP3 DUP7 MSTORE SUB DUP3 DUP3 KECCAK256 SSTORE DUP7 DUP2 MSTORE KECCAK256 DUP2 DUP2 SLOAD ADD SWAP1 SSTORE PUSH1 0x40 MLOAD SWAP1 DUP2 MSTORE LOG3 JUMP JUMPDEST PUSH1 0x40 MLOAD PUSH4 0x391434E3 PUSH1 0xE2 SHL DUP2 MSTORE PUSH1 0x1 PUSH1 0x1 PUSH1 0xA0 SHL SUB SWAP2 SWAP1 SWAP2 AND PUSH1 0x4 DUP3 ADD MSTORE PUSH1 0x24 DUP2 ADD SWAP2 SWAP1 SWAP2 MSTORE PUSH1 0x44 DUP2 ADD DUP4 SWAP1 MSTORE PUSH1 0x64 SWAP1 REVERT JUMPDEST PUSH1 0x40 MLOAD PUSH3 0x461BCD PUSH1 0xE5 SHL DUP2 MSTORE PUSH1 0x20 PUSH1 0x4 DUP3 ADD MSTORE SWAP1 DUP2 SWAP1 PUSH2 0x2EBD SWAP1 PUSH1 0x24 DUP4 ADD SWAP1 PUSH2 0x30FB JUMP JUMPDEST PUSH1 0x40 MLOAD PUSH4 0xEC442F05 PUSH1 0xE0 SHL DUP2 MSTORE PUSH1 0x0 PUSH1 0x4 DUP3 ADD MSTORE PUSH1 0x24 SWAP1 REVERT JUMPDEST PUSH1 0x40 MLOAD PUSH4 0x4B637E8F PUSH1 0xE1 SHL DUP2 MSTORE PUSH1 0x0 PUSH1 0x4 DUP3 ADD MSTORE PUSH1 0x24 SWAP1 REVERT JUMPDEST PUSH1 0xFF PUSH1 0x7 SLOAD AND PUSH2 0x3C70 JUMPI PUSH1 0x1 PUSH1 0x1 PUSH1 0xA0 SHL SUB SWAP1 DUP2 AND PUSH1 0x0 DUP2 DUP2 MSTORE PUSH1 0x2A PUSH1 0x20 MSTORE PUSH1 0x40 DUP2 KECCAK256 SLOAD SWAP1 SWAP4 SWAP1 PUSH1 0xFF AND DUP1 ISZERO PUSH2 0x3C5D JUMPI JUMPDEST PUSH2 0x3C54 JUMPI DUP2 DUP5 MSTORE PUSH1 0x29 PUSH1 0x20 MSTORE DUP3 PUSH1 0xFF PUSH1 0x40 DUP7 KECCAK256 SLOAD AND ISZERO SWAP2 DUP3 ISZERO PUSH2 0x3C40 JUMPI JUMPDEST POP POP PUSH2 0x3C38 JUMPI PUSH1 0x10 SLOAD TIMESTAMP LT SWAP2 DUP3 PUSH2 0x3C29 JUMPI JUMPDEST POP POP PUSH2 0x3C23 JUMPI SWAP1 JUMP JUMPDEST POP PUSH1 0x4 SWAP1 JUMP JUMPDEST PUSH1 0x1D SLOAD AND EQ ISZERO SWAP1 POP CODESIZE DUP1 PUSH2 0x3C1A JUMP JUMPDEST POP POP POP PUSH1 0x1 SWAP1 JUMP JUMPDEST AND DUP5 MSTORE POP PUSH1 0x40 DUP4 KECCAK256 SLOAD PUSH1 0xFF AND ISZERO DUP3 CODESIZE PUSH2 0x3C08 JUMP JUMPDEST POP POP POP POP PUSH1 0x3 SWAP1 JUMP JUMPDEST POP DUP3 DUP2 AND DUP5 MSTORE PUSH1 0xFF PUSH1 0x40 DUP6 KECCAK256 SLOAD AND PUSH2 0x3BEA JUMP JUMPDEST POP POP PUSH1 0x2 SWAP1 JUMP JUMPDEST PUSH1 0xFF AND DUP1 ISZERO PUSH2 0x3DB9 JUMPI PUSH1 0x1 DUP2 EQ PUSH2 0x3D74 JUMPI PUSH1 0x2 DUP2 EQ PUSH2 0x3D43 JUMPI PUSH1 0x3 DUP2 EQ PUSH2 0x3CFF JUMPI PUSH1 0x4 EQ PUSH2 0x3CCE JUMPI PUSH1 0x40 MLOAD PUSH2 0x3CAB DUP2 PUSH2 0x31DF JUMP JUMPDEST PUSH1 0x13 DUP2 MSTORE PUSH19 0x2AB735B737BBB7103932B9BA3934B1BA34B7B7 PUSH1 0x69 SHL PUSH1 0x20 DUP3 ADD MSTORE SWAP1 JUMP JUMPDEST PUSH1 0x40 MLOAD PUSH2 0x3CDA DUP2 PUSH2 0x31DF JUMP JUMPDEST PUSH1 0x15 DUP2 MSTORE PUSH21 0x4C6F636B2D757020706572696F6420616374697665 PUSH1 0x58 SHL PUSH1 0x20 DUP3 ADD MSTORE SWAP1 JUMP JUMPDEST POP PUSH1 0x40 MLOAD PUSH2 0x3D0C DUP2 PUSH2 0x31FA JUMP JUMPDEST PUSH1 0x21 DUP2 MSTORE PUSH32 0x53656E646572206F7220726563656976657220697320626C61636B6C69737465 PUSH1 0x20 DUP3 ADD MSTORE PUSH1 0x19 PUSH1 0xFA SHL PUSH1 0x40 DUP3 ADD MSTORE SWAP1 JUMP JUMPDEST POP PUSH1 0x40 MLOAD PUSH2 0x3D50 DUP2 PUSH2 0x31DF JUMP JUMPDEST PUSH1 0x14 DUP2 MSTORE PUSH20 0x151C985B9CD9995C9CC8185C99481C185D5CD959 PUSH1 0x62 SHL PUSH1 0x20 DUP3 ADD MSTORE SWAP1 JUMP JUMPDEST POP PUSH1 0x40 MLOAD PUSH2 0x3D81 DUP2 PUSH2 0x31FA JUMP JUMPDEST PUSH1 0x22 DUP2 MSTORE PUSH32 0x53656E646572206F72207265636569766572206E6F742077686974656C697374 PUSH1 0x20 DUP3 ADD MSTORE PUSH2 0x1959 PUSH1 0xF2 SHL PUSH1 0x40 DUP3 ADD MSTORE SWAP1 JUMP JUMPDEST POP PUSH1 0x40 MLOAD PUSH2 0x3DC6 DUP2 PUSH2 0x31DF JUMP JUMPDEST PUSH1 0x10 DUP2 MSTORE PUSH16 0x151C985B9CD9995C88185B1B1BDDD959 PUSH1 0x82 SHL PUSH1 0x20 DUP3 ADD MSTORE SWAP1 JUMP JUMPDEST SWAP2 SWAP1 DUP3 ADD DUP1 SWAP3 GT PUSH2 0x6BE JUMPI JUMP JUMPDEST PUSH1 0x0 NOT DUP2 EQ PUSH2 0x6BE JUMPI PUSH1 0x1 ADD SWAP1 JUMP JUMPDEST SWAP2 SWAP1 DUP2 LT ISZERO PUSH2 0x103B JUMPI PUSH1 0x5 SHL ADD SWAP1 JUMP JUMPDEST CALLDATALOAD PUSH1 0x1 PUSH1 0x1 PUSH1 0xA0 SHL SUB DUP2 AND DUP2 SUB PUSH2 0x355 JUMPI SWAP1 JUMP JUMPDEST ISZERO PUSH2 0x3E2D JUMPI JUMP JUMPDEST PUSH1 0x40 MLOAD PUSH3 0x461BCD PUSH1 0xE5 SHL DUP2 MSTORE PUSH1 0x20 PUSH1 0x4 DUP3 ADD MSTORE PUSH1 0xF PUSH1 0x24 DUP3 ADD MSTORE PUSH15 0x139BDD081DDA1A5D195B1A5CDD1959 PUSH1 0x8A SHL PUSH1 0x44 DUP3 ADD MSTORE PUSH1 0x64 SWAP1 REVERT JUMPDEST ISZERO PUSH2 0x3E6B JUMPI JUMP JUMPDEST PUSH1 0x40 MLOAD PUSH3 0x461BCD PUSH1 0xE5 SHL DUP2 MSTORE PUSH1 0x20 PUSH1 0x4 DUP3 ADD MSTORE PUSH1 0xB PUSH1 0x24 DUP3 ADD MSTORE PUSH11 0x4E6F20686F6C64696E6773 PUSH1 0xA8 SHL PUSH1 0x44 DUP3 ADD MSTORE PUSH1 0x64 SWAP1 REVERT JUMPDEST DUP2 DUP2 MUL SWAP3 SWAP2 DUP2 ISZERO SWAP2 DUP5 DIV EQ OR ISZERO PUSH2 0x6BE JUMPI JUMP JUMPDEST ISZERO PUSH2 0x3EB8 JUMPI JUMP JUMPDEST PUSH1 0x40 MLOAD PUSH3 0x461BCD PUSH1 0xE5 SHL DUP2 MSTORE PUSH1 0x20 PUSH1 0x4 DUP3 ADD MSTORE PUSH1 0x10 PUSH1 0x24 DUP3 ADD MSTORE PUSH16 0x4E6F7468696E6720746F20636C61696D PUSH1 0x80 SHL PUSH1 0x44 DUP3 ADD MSTORE PUSH1 0x64 SWAP1 REVERT JUMPDEST PUSH1 0x40 MLOAD PUSH4 0xA9059CBB PUSH1 0xE0 SHL PUSH1 0x20 DUP3 ADD MSTORE PUSH1 0x1 PUSH1 0x1 PUSH1 0xA0 SHL SUB SWAP1 SWAP3 AND PUSH1 0x24 DUP4 ADD MSTORE PUSH1 0x44 DUP1 DUP4 ADD SWAP4 SWAP1 SWAP4 MSTORE SWAP2 DUP2 MSTORE PUSH2 0x3356 SWAP2 PUSH2 0x3F29 DUP3 PUSH2 0x31C4 JUMP JUMPDEST SWAP1 PUSH1 0x0 PUSH1 0x20 SWAP2 DUP3 DUP2 MLOAD SWAP2 ADD DUP3 DUP6 GAS CALL ISZERO PUSH2 0x3F85 JUMPI PUSH1 0x0 MLOAD RETURNDATASIZE PUSH2 0x3F7C JUMPI POP PUSH1 0x1 PUSH1 0x1 PUSH1 0xA0 SHL SUB DUP2 AND EXTCODESIZE ISZERO JUMPDEST PUSH2 0x3F5A JUMPI POP JUMP JUMPDEST PUSH1 0x40 MLOAD PUSH4 0x5274AFE7 PUSH1 0xE0 SHL DUP2 MSTORE PUSH1 0x1 PUSH1 0x1 PUSH1 0xA0 SHL SUB SWAP1 SWAP2 AND PUSH1 0x4 DUP3 ADD MSTORE PUSH1 0x24 SWAP1 REVERT JUMPDEST PUSH1 0x1 EQ ISZERO PUSH2 0x3F53 JUMP JUMPDEST PUSH1 0x40 MLOAD RETURNDATASIZE PUSH1 0x0 DUP3 RETURNDATACOPY RETURNDATASIZE SWAP1 REVERT JUMPDEST PUSH1 0x2 PUSH1 0x6 SLOAD EQ PUSH2 0x3FA2 JUMPI PUSH1 0x2 PUSH1 0x6 SSTORE JUMP JUMPDEST PUSH1 0x40 MLOAD PUSH4 0x3EE5AEB5 PUSH1 0xE0 SHL DUP2 MSTORE PUSH1 0x4 SWAP1 REVERT JUMPDEST ISZERO PUSH2 0x3FBB JUMPI JUMP JUMPDEST PUSH1 0x40 MLOAD PUSH3 0x461BCD PUSH1 0xE5 SHL DUP2 MSTORE PUSH1 0x20 PUSH1 0x4 DUP3 ADD MSTORE PUSH1 0xA PUSH1 0x24 DUP3 ADD MSTORE PUSH10 0x4E6F7420616374697665 PUSH1 0xB0 SHL PUSH1 0x44 DUP3 ADD MSTORE PUSH1 0x64 SWAP1 REVERT JUMPDEST PUSH1 0x1 PUSH1 0x1 PUSH1 0x40 SHL SUB DUP2 GT PUSH2 0x57F JUMPI PUSH1 0x5 SHL PUSH1 0x20 ADD SWAP1 JUMP INVALID 0x2F DUP8 DUP9 GT PUSH31 0x7EFF1D82E926EC794901D17C78024A50270940304540A733656F0DB13D2D76 0xD1 DELEGATECALL 0xB7 0xBE DUP4 BASEFEE DUP3 0xE4 LT 0xB3 0xE3 0xA8 0xAF 0xAF PUSH10 0xF83600AE24DB354391D2 CALLDATACOPY DUP14 0x2E RETURN 0xF7 0xA9 INVALID CALLDATASIZE 0x4F 0xAA 0xB9 EXTCODESIZE 0x21 PUSH14 0xA50A3214154F22A0A2B415B23A84 0xC8 AND SWAP15 DUP12 PUSH4 0x6EE36E15 BLOCKHASH OR SHL PUSH13 0xC960B71A7020D9F60077F6AF9 BALANCE 0xA8 0xBB CREATE2 SWAP1 0xDA MUL 0x23 0xDA 0xCF PUSH22 0xC7AFC624B66CC0138B8FABC209247F72D758E1CF3343 PUSH22 0x6D543BADBF24212BED8C15F0C57E16840DF040F15088 0xDC 0x2F DUP2 INVALID CODECOPY SHR CODECOPY 0x23 0xBE 0xC7 RETURNDATACOPY 0x23 0xA9 PUSH7 0x2EFC9C229C6A00 0xD8 CALLER EQ PUSH30 0x7DC355BA459FC788F669E58CFAF9DC25DDCD0702E87D69C7B5124289A264 PUSH10 0x70667358221220841827 PUSH22 0xDCA2499F0C99D1DCBBF94B41996673153515ABCDD5F0 0xC3 DUP5 CALLDATASIZE NOT CODECOPY 0xB5 PUSH5 0x736F6C6343 STOP ADDMOD EQ STOP CALLER "},"methodIdentifiers":{"ADMIN_ROLE()":"75b238fc","BLACKLISTED()":"aa8b2ea7","BUSINESS_DAYS_YEAR()":"72eee557","DEFAULT_ADMIN_ROLE()":"a217fddf","ISSUER_ROLE()":"82aefa24","LOCK_UP_PERIOD()":"56e2da1b","NOT_WHITELISTED()":"bffbc6be","PAUSED()":"a9aad58c","PRECISION_PERCENT_DI()":"9dd5de0b","PRECISION_PU()":"471337a3","PRECISION_RATE()":"67eda416","SUCCESS()":"d0a6d1a6","TRUSTEE_ROLE()":"72777649","WHITELIST_ADMIN_ROLE()":"54202c4e","accumulatedDIFactor()":"97acf4dd","addToBlacklist(address)":"44337ea1","addToWhitelist(address)":"e43252d7","allowance(address,address)":"dd62ed3e","amortizationSchedule(uint256)":"eb839559","approve(address,uint256)":"095ea7b3","balanceOf(address)":"70a08231","batchAddToWhitelist(address[])":"2db6fa36","blacklist(address)":"f9f92be4","claimAllCoupons()":"dad2dea5","claimCoupon(uint256)":"dbb026b9","couponClaimed(address,uint256)":"3d545799","couponRecords(uint256)":"a8b822f4","decimals()":"313ce567","declareDefault()":"8a7a2d83","declareMaturity()":"8be2dda1","depositPaymentTokens(uint256)":"e0ba8892","detectTransferRestriction(address,address,uint256)":"d4ce1415","earlyRedemption()":"82241080","executeAmortization(uint256)":"dc9f555b","getAmortizationScheduleLength()":"efdf4bf7","getCouponCount()":"468bb240","getPendingClaims(address)":"99f91405","getRoleAdmin(bytes32)":"248a9ca3","getTerms()":"4173b417","getVNA()":"fce8de58","grantRole(bytes32,address)":"2f2ff15d","hasRole(bytes32,address)":"91d14854","initialize(string,string,(uint256,uint256,uint256,uint256,uint8,uint256,uint8,uint256,uint8,uint256,uint8,string,string,string,bool,bool,bytes32),address,address,address,address)":"560dd438","isInitialized()":"392e53cd","issuer()":"1d143848","lastDIUpdateDate()":"134fbea8","messageForTransferRestriction(uint8)":"7f4ab1dd","name()":"06fdde03","oracle()":"7dc0d1d0","pause()":"8456cb59","paused()":"5c975abb","paymentToken()":"3013ce29","recordCoupon(uint256,uint256)":"d897e121","removeFromBlacklist(address)":"537df3b6","removeFromWhitelist(address)":"8ab1d681","renounceRole(bytes32,address)":"36568abe","revokeRole(bytes32,address)":"d547741f","setAmortizationSchedule((uint256,uint256,bool)[])":"62f61d91","status()":"200d2ed2","supportsInterface(bytes4)":"01ffc9a7","symbol()":"95d89b41","terms()":"d5025625","totalAmortized()":"e70f17b6","totalSupply()":"18160ddd","transfer(address,uint256)":"a9059cbb","transferFrom(address,address,uint256)":"23b872dd","trustee()":"fdf97cb2","unpause()":"3f4ba83a","vnaRecord()":"b10378e7","whitelist(address)":"9b19251a","withdrawPaymentTokens(uint256)":"6ee7ee6b"}}}}}