{"contracts/DebentureCloneFactory.sol":{"DebentureCloneFactory":{"abi":[{"inputs":[{"internalType":"address","name":"_implementation","type":"address"},{"internalType":"address","name":"_oracle","type":"address"},{"internalType":"address","name":"_defaultPaymentToken","type":"address"}],"stateMutability":"nonpayable","type":"constructor"},{"inputs":[],"name":"FailedDeployment","type":"error"},{"inputs":[{"internalType":"uint256","name":"balance","type":"uint256"},{"internalType":"uint256","name":"needed","type":"uint256"}],"name":"InsufficientBalance","type":"error"},{"inputs":[{"internalType":"address","name":"owner","type":"address"}],"name":"OwnableInvalidOwner","type":"error"},{"inputs":[{"internalType":"address","name":"account","type":"address"}],"name":"OwnableUnauthorizedAccount","type":"error"},{"anonymous":false,"inputs":[{"indexed":true,"internalType":"address","name":"debentureAddress","type":"address"},{"indexed":true,"internalType":"string","name":"isinCode","type":"string"},{"indexed":false,"internalType":"string","name":"name","type":"string"},{"indexed":false,"internalType":"string","name":"symbol","type":"string"},{"indexed":true,"internalType":"address","name":"issuer","type":"address"},{"indexed":false,"internalType":"uint256","name":"vne","type":"uint256"},{"indexed":false,"internalType":"uint256","name":"totalSupply","type":"uint256"}],"name":"DebentureCreated","type":"event"},{"anonymous":false,"inputs":[{"indexed":true,"internalType":"address","name":"oldToken","type":"address"},{"indexed":true,"internalType":"address","name":"newToken","type":"address"}],"name":"DefaultPaymentTokenUpdated","type":"event"},{"anonymous":false,"inputs":[{"indexed":true,"internalType":"address","name":"issuer","type":"address"},{"indexed":false,"internalType":"bool","name":"authorized","type":"bool"}],"name":"IssuerAuthorized","type":"event"},{"anonymous":false,"inputs":[{"indexed":true,"internalType":"address","name":"oldOracle","type":"address"},{"indexed":true,"internalType":"address","name":"newOracle","type":"address"}],"name":"OracleUpdated","type":"event"},{"anonymous":false,"inputs":[{"indexed":true,"internalType":"address","name":"previousOwner","type":"address"},{"indexed":true,"internalType":"address","name":"newOwner","type":"address"}],"name":"OwnershipTransferred","type":"event"},{"inputs":[{"internalType":"uint256","name":"","type":"uint256"}],"name":"allDebentures","outputs":[{"internalType":"address","name":"","type":"address"}],"stateMutability":"view","type":"function"},{"inputs":[{"internalType":"address","name":"","type":"address"}],"name":"authorizedIssuers","outputs":[{"internalType":"bool","name":"","type":"bool"}],"stateMutability":"view","type":"function"},{"inputs":[{"internalType":"address[]","name":"issuers","type":"address[]"}],"name":"batchAuthorizeIssuers","outputs":[],"stateMutability":"nonpayable","type":"function"},{"inputs":[{"internalType":"string","name":"name","type":"string"},{"internalType":"string","name":"symbol","type":"string"},{"components":[{"internalType":"uint256","name":"vne","type":"uint256"},{"internalType":"uint256","name":"totalSupplyUnits","type":"uint256"},{"internalType":"uint256","name":"issueDate","type":"uint256"},{"internalType":"uint256","name":"maturityDate","type":"uint256"},{"internalType":"uint8","name":"anniversaryDay","type":"uint8"},{"internalType":"uint256","name":"lockUpEndDate","type":"uint256"},{"internalType":"enum BrazilianDebentureCloneable.RateType","name":"rateType","type":"uint8"},{"internalType":"uint256","name":"fixedRate","type":"uint256"},{"internalType":"uint8","name":"percentDI","type":"uint8"},{"internalType":"uint256","name":"couponFrequencyDays","type":"uint256"},{"internalType":"enum BrazilianDebentureCloneable.AmortizationType","name":"amortType","type":"uint8"},{"internalType":"string","name":"isinCode","type":"string"},{"internalType":"string","name":"cetipCode","type":"string"},{"internalType":"string","name":"series","type":"string"},{"internalType":"bool","name":"hasRepactuacao","type":"bool"},{"internalType":"bool","name":"hasEarlyRedemption","type":"bool"},{"internalType":"bytes32","name":"comboId","type":"bytes32"}],"internalType":"struct BrazilianDebentureCloneable.DebentureTerms","name":"terms","type":"tuple"},{"internalType":"address","name":"paymentToken","type":"address"},{"internalType":"address","name":"trustee","type":"address"}],"name":"createDebenture","outputs":[{"internalType":"address","name":"debentureAddress","type":"address"}],"stateMutability":"nonpayable","type":"function"},{"inputs":[{"internalType":"string","name":"name","type":"string"},{"internalType":"string","name":"symbol","type":"string"},{"components":[{"internalType":"uint256","name":"vne","type":"uint256"},{"internalType":"uint256","name":"totalSupplyUnits","type":"uint256"},{"internalType":"uint256","name":"issueDate","type":"uint256"},{"internalType":"uint256","name":"maturityDate","type":"uint256"},{"internalType":"uint8","name":"anniversaryDay","type":"uint8"},{"internalType":"uint256","name":"lockUpEndDate","type":"uint256"},{"internalType":"enum BrazilianDebentureCloneable.RateType","name":"rateType","type":"uint8"},{"internalType":"uint256","name":"fixedRate","type":"uint256"},{"internalType":"uint8","name":"percentDI","type":"uint8"},{"internalType":"uint256","name":"couponFrequencyDays","type":"uint256"},{"internalType":"enum BrazilianDebentureCloneable.AmortizationType","name":"amortType","type":"uint8"},{"internalType":"string","name":"isinCode","type":"string"},{"internalType":"string","name":"cetipCode","type":"string"},{"internalType":"string","name":"series","type":"string"},{"internalType":"bool","name":"hasRepactuacao","type":"bool"},{"internalType":"bool","name":"hasEarlyRedemption","type":"bool"},{"internalType":"bytes32","name":"comboId","type":"bytes32"}],"internalType":"struct BrazilianDebentureCloneable.DebentureTerms","name":"terms","type":"tuple"},{"internalType":"address","name":"paymentToken","type":"address"},{"internalType":"address","name":"trustee","type":"address"},{"internalType":"bytes32","name":"salt","type":"bytes32"}],"name":"createDeterministicDebenture","outputs":[{"internalType":"address","name":"debentureAddress","type":"address"}],"stateMutability":"nonpayable","type":"function"},{"inputs":[{"internalType":"string","name":"","type":"string"}],"name":"debenturesByISIN","outputs":[{"internalType":"address","name":"","type":"address"}],"stateMutability":"view","type":"function"},{"inputs":[],"name":"defaultPaymentToken","outputs":[{"internalType":"address","name":"","type":"address"}],"stateMutability":"view","type":"function"},{"inputs":[],"name":"getAllDebentures","outputs":[{"internalType":"address[]","name":"","type":"address[]"}],"stateMutability":"view","type":"function"},{"inputs":[{"internalType":"uint256","name":"index","type":"uint256"}],"name":"getDebentureInfo","outputs":[{"internalType":"address","name":"debentureAddress","type":"address"},{"internalType":"string","name":"name","type":"string"},{"internalType":"string","name":"symbol","type":"string"},{"internalType":"string","name":"isinCode","type":"string"},{"internalType":"uint256","name":"vne","type":"uint256"},{"internalType":"uint256","name":"totalSupply","type":"uint256"}],"stateMutability":"view","type":"function"},{"inputs":[{"internalType":"address","name":"issuer","type":"address"}],"name":"getIssuerDebentures","outputs":[{"internalType":"address[]","name":"","type":"address[]"}],"stateMutability":"view","type":"function"},{"inputs":[],"name":"getTotalDebentures","outputs":[{"internalType":"uint256","name":"","type":"uint256"}],"stateMutability":"view","type":"function"},{"inputs":[],"name":"implementation","outputs":[{"internalType":"address","name":"","type":"address"}],"stateMutability":"view","type":"function"},{"inputs":[{"internalType":"string","name":"isinCode","type":"string"}],"name":"isinExists","outputs":[{"internalType":"bool","name":"","type":"bool"}],"stateMutability":"view","type":"function"},{"inputs":[{"internalType":"address","name":"","type":"address"},{"internalType":"uint256","name":"","type":"uint256"}],"name":"issuerDebentures","outputs":[{"internalType":"address","name":"","type":"address"}],"stateMutability":"view","type":"function"},{"inputs":[],"name":"oracle","outputs":[{"internalType":"address","name":"","type":"address"}],"stateMutability":"view","type":"function"},{"inputs":[],"name":"owner","outputs":[{"internalType":"address","name":"","type":"address"}],"stateMutability":"view","type":"function"},{"inputs":[{"internalType":"bytes32","name":"salt","type":"bytes32"}],"name":"predictDeterministicAddress","outputs":[{"internalType":"address","name":"","type":"address"}],"stateMutability":"view","type":"function"},{"inputs":[],"name":"renounceOwnership","outputs":[],"stateMutability":"nonpayable","type":"function"},{"inputs":[{"internalType":"address","name":"issuer","type":"address"},{"internalType":"bool","name":"authorized","type":"bool"}],"name":"setAuthorizedIssuer","outputs":[],"stateMutability":"nonpayable","type":"function"},{"inputs":[{"internalType":"address","name":"_token","type":"address"}],"name":"setDefaultPaymentToken","outputs":[],"stateMutability":"nonpayable","type":"function"},{"inputs":[{"internalType":"address","name":"_oracle","type":"address"}],"name":"setOracle","outputs":[],"stateMutability":"nonpayable","type":"function"},{"inputs":[{"internalType":"address","name":"newOwner","type":"address"}],"name":"transferOwnership","outputs":[],"stateMutability":"nonpayable","type":"function"}],"evm":{"bytecode":{"linkReferences":{},"object":"60a034620001bd57601f62001a2338819003918201601f1916830191906001600160401b03831184841017620001c2578160609285926040958652833981010312620001bd576200005082620001d8565b916200006c826200006460208401620001d8565b9201620001d8565b903315620001a55760008054336001600160a01b0319808316821784558651939590946001600160a01b0394919390929085167f8be0079c531659141344cd1fd0a4f28419497f9722a3daafe3b4186f6b6457e08880a383881615620001635750821680156200012e57859660805283600154161760015516906002541617600255338152600660205220600160ff19825416179055516118359081620001ee82396080518181816109f701528181610dbe01528181610e2201526110960152f35b855162461bcd60e51b815260206004820152600e60248201526d496e76616c6964206f7261636c6560901b6044820152606490fd5b62461bcd60e51b815260206004820152601660248201527f496e76616c696420696d706c656d656e746174696f6e000000000000000000006044820152606490fd5b8251631e4fbdf760e01b815260006004820152602490fd5b600080fd5b634e487b7160e01b600052604160045260246000fd5b51906001600160a01b0382168203620001bd5756fe6080604052600436101561001257600080fd5b6000803560e01c8063289e14ec14610f50578063357061e114610ecc578063496b67d414610e885780635414dff014610ded5780635c60da1b14610da85780636412173e14610d7f578063715018a614610d2557806376bb7d5e14610cad5780637adbf97314610c065780637dc0d1d014610bdd578063885ddcbb146108a75780638d549846146105795780638da5cb5b14610552578063a3489743146104c3578063bc8aa67814610421578063c111db891461031d578063d6ac1d4c146102c2578063dfd7d317146102a4578063ea5fa01914610246578063f2fde38b146101bb578063f731fa0f1461017c5763f74b059e1461010f57600080fd5b3461017957602036600319011261017957610128611212565b610130611375565b600280546001600160a01b039283166001600160a01b0319821681179092559091167fa566210e6c55347c190af0a730d7aca425b94bdf45fa78cc018caef4cd258a908380a380f35b80fd5b50346101795760203660031901126101795760209060ff906040906001600160a01b036101a7611212565b168152600684522054166040519015158152f35b5034610179576020366003190112610179576101d5611212565b6101dd611375565b6001600160a01b0390811690811561022d57600054826001600160601b0360a01b821617600055167f8be0079c531659141344cd1fd0a4f28419497f9722a3daafe3b4186f6b6457e0600080a380f35b604051631e4fbdf760e01b815260048101849052602490fd5b503461017957602036600319011261017957600435906001600160401b03821161017957602061027936600485016111b9565b80604051928337600490820190815281900382019020546040516001600160a01b0390911615158152f35b50346101795780600319360112610179576020600354604051908152f35b5034610179576040366003190112610179576102dc611212565b6001600160a01b03908116825260056020526040822080546024359390841015610179575060209261030d91611282565b9190546040519260031b1c168152f35b50346101795760208060031936011261041d576001600160401b03600435818111610419573660238201121561041957806004013591821161041957602492838201918436918560051b01011161041557610376611375565b845b838110610383578580f35b6001600160a01b038061039f61039a848888611756565b611766565b168752600683527f323f1985f95ab4281ac5356feae087f07598411565971dd57673e77bf9aecea88360408920926001938460ff198254161790556103e861039a868a8a611756565b1692604051908152a2600019811461040257600101610378565b634e487b7160e01b865260116004528486fd5b8480fd5b8380fd5b5080fd5b5034610179576020366003190112610179576004356001600160401b03811161041d573660238201121561041d57806004013561045d8161135a565b9061046b6040519283611339565b8082526020820192366024838301011161041557816020959260248793018637830101526104a1604051928392519283916112de565b600490820190815281900382019020546040516001600160a01b039091168152f35b5034610179578060031936011261017957604051600380548083529083526020808301937fc2575a0e9e593c00f959f8c92f12db2869c3395a3b0502d05e2516446f71f85b92915b8282106105325761052e8561052281890382611339565b6040519182918261129a565b0390f35b83546001600160a01b03168652948501946001938401939091019061050b565b5034610179578060031936011261017957546040516001600160a01b039091168152602090f35b503461017957602090816003193601126101795760043560035481101561086c576105a390611235565b90546040516306fdde0360e01b815260039290921b1c6001600160a01b031691908181600481865afa908115610861578291610847575b506040516395d89b4160e01b81528281600481875afa90811561083c57839161081a575b50604051634173b41760e01b81528381600481885afa93841561080e57809461067e575b505061066f90610661610160850151916106538887519701519560c06040519a8b9a8b528a015260c0890190611301565b908782036040890152611301565b908582036060870152611301565b91608084015260a08301520390f35b909193503d8082843e6106918184611339565b82019086838303126101795782516001600160401b039384821161080a57019161022093848483031261080a57604051948501858110828211176107f45760405283518552888401518986015260408401516040860152606084015160608601526106fe608085016117e4565b608086015260a084015160a086015260c084015160058110156104195760c086015260e084015160e08601526101006107388186016117e4565b908601526101208085015190860152610140808501519060038210156104155786015261016080850151828111610415578361077591870161177a565b9086015261018080850151828111610415578361079391870161177a565b908601526101a0928385015191821161017957508392916107b99161066f96950161177a565b908301526101c06107cb8183016117f2565b908301526101e06107dd8183016117f2565b908301526102008091015190820152929038610622565b634e487b7160e01b600052604160045260246000fd5b8280fd5b604051903d90823e3d90fd5b61083691503d8085833e61082e8183611339565b8101906117bf565b386105fe565b6040513d85823e3d90fd5b61085b91503d8084833e61082e8183611339565b386105da565b6040513d84823e3d90fd5b60405162461bcd60e51b8152600481018490526013602482015272496e646578206f7574206f6620626f756e647360681b6044820152606490fd5b50346101795760031960a03682011261041d576001600160401b03600435818111610419576108da9036906004016111b9565b90602435838111610bd9576108f39036906004016111b9565b94909360443511610bd9576102209060443536030112610415576109156111e6565b9361091e6111fc565b94338752600660205260ff6040882054168015610bc6575b61093f906113a1565b610961600c610959610164604435016044356004016113e5565b905014611417565b6109a2610979610164604435016044356004016113e5565b90816040519182376004918101918252908190036020019020546001600160a01b031615611457565b6001600160a01b038116610bc057506002546001600160a01b0316945b6109d36001600160a01b0387161515611499565b6001600160a01b038116610bba575033945b6e5af43d82803e903d91602b57fd5bf37f0000000000000000000000000000000000000000000000000000000000000000763d602d80600a3d3981f3363d3d373d3d3d363d7300000062ffffff8260881c1617895260781b176020526037600988f06001600160a01b038116969091908715610ba8576001548991906001600160a01b0316893b1561080a57610a9f86928989968c946040519889978897630ac1ba8760e31b895233956044356004019360048b0161153e565b0381838b5af18015610b9d57610b85575b50917f6cff86004ab7a564db40806c1e028b796e9021eee0e9eae98470cef4511231c091610b3084604060209a610ae78b986116c5565b8b610afd610164604435016044356004016113e5565b9190828551938492833781016004815203019020886001600160601b0360a01b82541617905533815260058c5220611702565b610b7a610b48610164604435016044356004016113e5565b90816040519283928337810160008152039020956040519384933399602460443501359360443560040135938761171f565b0390a4604051908152f35b610b8f8891611326565b610b995738610ab0565b8680fd5b6040513d8a823e3d90fd5b60405163b06ebf3d60e01b8152600490fd5b946109e5565b946109bf565b5086546001600160a01b03163314610936565b8580fd5b50346101795780600319360112610179576001546040516001600160a01b039091168152602090f35b503461017957602036600319011261017957610c20611212565b610c28611375565b6001600160a01b03908116908115610c7757600154826001600160601b0360a01b821617600155167f078c3b417dadf69374a59793b829c52001247130433427049317bde56607b1b78380a380f35b60405162461bcd60e51b815260206004820152600e60248201526d496e76616c6964206f7261636c6560901b6044820152606490fd5b50346101795760208060031936011261041d576001600160a01b039182610cd2611212565b168152600582526040812092604051908193808654938481520195845280842093915b838310610d0c5761052e86610522818a0382611339565b8454811687529581019560019485019490920191610cf5565b5034610179578060031936011261017957610d3e611375565b600080546001600160a01b0319811682556001600160a01b03167f8be0079c531659141344cd1fd0a4f28419497f9722a3daafe3b4186f6b6457e08280a380f35b50346101795780600319360112610179576002546040516001600160a01b039091168152602090f35b50346101795780600319360112610179576040517f00000000000000000000000000000000000000000000000000000000000000006001600160a01b03168152602090f35b50346101795760203660031901126101795760206040513060388201526f5af43d82803e903d91602b57fd5bf3ff60248201527f00000000000000000000000000000000000000000000000000000000000000006014820152733d602d80600a3d3981f3363d3d373d3d3d363d73815260043560588201526037600c82012060788201526055604360018060a01b0392012016604051908152f35b50346101795760203660031901126101795760043590600354821015610179576020610eb383611235565b905460405160039290921b1c6001600160a01b03168152f35b503461017957604036600319011261017957610ee6611212565b60243590811515809203610f4b5760207f323f1985f95ab4281ac5356feae087f07598411565971dd57673e77bf9aecea891610f20611375565b6001600160a01b0316808552600682526040808620805460ff191660ff87161790555193845292a280f35b600080fd5b50346101795760031960c03682011261041d576001600160401b0360043581811161041957610f839036906004016111b9565b90602435838111610bd957610f9c9036906004016111b9565b94909360443511610bd957610220906044353603011261041557610fbe6111e6565b93610fc76111fc565b94338752600660205260ff60408820541680156111a6575b610fe8906113a1565b611002600c610959610164604435016044356004016113e5565b61104161101a610164604435016044356004016113e5565b8060405192833760049082019081528190036020019020546001600160a01b031615611457565b6001600160a01b0381166111a057506002546001600160a01b0316945b6110726001600160a01b0387161515611499565b6001600160a01b03811661119a575033945b6e5af43d82803e903d91602b57fd5bf37f0000000000000000000000000000000000000000000000000000000000000000763d602d80600a3d3981f3363d3d373d3d3d363d7300000062ffffff8260881c1617895260781b1760205260a4356037600989f56001600160a01b038116969091908715610ba8576001548991906001600160a01b0316893b1561080a5761114186928989968c946040519889978897630ac1ba8760e31b895233956044356004019360048b0161153e565b0381838b5af18015610b9d57879492604060209a7f6cff86004ab7a564db40806c1e028b796e9021eee0e9eae98470cef4511231c09694610b309461118b575b50610ae7836116c5565b61119490611326565b38611181565b94611084565b9461105e565b5086546001600160a01b03163314610fdf565b9181601f84011215610f4b578235916001600160401b038311610f4b5760208381860195010111610f4b57565b606435906001600160a01b0382168203610f4b57565b608435906001600160a01b0382168203610f4b57565b600435906001600160a01b0382168203610f4b57565b35908115158203610f4b57565b60035481101561126c5760036000527fc2575a0e9e593c00f959f8c92f12db2869c3395a3b0502d05e2516446f71f85b0190600090565b634e487b7160e01b600052603260045260246000fd5b805482101561126c5760005260206000200190600090565b6020908160408183019282815285518094520193019160005b8281106112c1575050505090565b83516001600160a01b0316855293810193928101926001016112b3565b60005b8381106112f15750506000910152565b81810151838201526020016112e1565b9060209161131a815180928185528580860191016112de565b601f01601f1916010190565b6001600160401b0381116107f457604052565b90601f801991011681019081106001600160401b038211176107f457604052565b6001600160401b0381116107f457601f01601f191660200190565b6000546001600160a01b0316330361138957565b60405163118cdaa760e01b8152336004820152602490fd5b156113a857565b60405162461bcd60e51b81526020600482015260156024820152742737ba1030baba3437b934bd32b21034b9b9bab2b960591b6044820152606490fd5b903590601e1981360301821215610f4b57018035906001600160401b038211610f4b57602001918136038313610f4b57565b1561141e57565b60405162461bcd60e51b8152602060048201526011602482015270496e76616c6964204953494e20636f646560781b6044820152606490fd5b1561145e57565b60405162461bcd60e51b81526020600482015260136024820152724953494e20616c72656164792065786973747360681b6044820152606490fd5b156114a057565b60405162461bcd60e51b815260206004820152601660248201527514185e5b595b9d081d1bdad95b881c995c5d5a5c995960521b6044820152606490fd5b908060209392818452848401376000828201840152601f01601f1916010190565b359060ff82168203610f4b57565b9035601e1982360301811215610f4b5701602081359101916001600160401b038211610f4b578136038313610f4b57565b979998949695939061155d9061156b949360e08b5260e08b01916114de565b9188830360208a01526114de565b9385850360408701528035855260208101356020860152604081013560408601526060810135606086015260ff6115a4608083016114ff565b16608086015260a081013560a086015260c08101356005811015610f4b5760c086015260e081013560e086015261010060ff6115e18284016114ff565b1690860152610120808201359086015261014094858201356003811015610f4b5760c09682015261166a61164e6116326101606116208187018761150d565b909161022080918801528601916114de565b6101806116418187018761150d565b91868403908701526114de565b6101a061165d8186018661150d565b91858403908601526114de565b916101c0611679818301611228565b1515908301526101e061168d818301611228565b151590830152610200908101359101526001600160a01b039182166060870152928116608086015295861660a0850152909416910152565b600354600160401b8110156107f4578060016116e49201600355611235565b819291549060031b9160018060a01b03809116831b921b1916179055565b8054600160401b8110156107f4576116e491600182018155611282565b92909361173e60609561174c94999897996080875260808701916114de565b9184830360208601526114de565b9460408201520152565b919081101561126c5760051b0190565b356001600160a01b0381168103610f4b5790565b81601f82011215610f4b5780516117908161135a565b9261179e6040519485611339565b81845260208284010111610f4b576117bc91602080850191016112de565b90565b90602082820312610f4b5781516001600160401b038111610f4b576117bc920161177a565b519060ff82168203610f4b57565b51908115158203610f4b5756fea26469706673582212200d10ad213e5b2338c913ee2d9e8d10409e655d05bcf724231e266842ad9e329f64736f6c63430008140033","opcodes":"PUSH1 0xA0 CALLVALUE PUSH3 0x1BD JUMPI PUSH1 0x1F PUSH3 0x1A23 CODESIZE DUP2 SWAP1 SUB SWAP2 DUP3 ADD PUSH1 0x1F NOT AND DUP4 ADD SWAP2 SWAP1 PUSH1 0x1 PUSH1 0x1 PUSH1 0x40 SHL SUB DUP4 GT DUP5 DUP5 LT OR PUSH3 0x1C2 JUMPI DUP2 PUSH1 0x60 SWAP3 DUP6 SWAP3 PUSH1 0x40 SWAP6 DUP7 MSTORE DUP4 CODECOPY DUP2 ADD SUB SLT PUSH3 0x1BD JUMPI PUSH3 0x50 DUP3 PUSH3 0x1D8 JUMP JUMPDEST SWAP2 PUSH3 0x6C DUP3 PUSH3 0x64 PUSH1 0x20 DUP5 ADD PUSH3 0x1D8 JUMP JUMPDEST SWAP3 ADD PUSH3 0x1D8 JUMP JUMPDEST SWAP1 CALLER ISZERO PUSH3 0x1A5 JUMPI PUSH1 0x0 DUP1 SLOAD CALLER PUSH1 0x1 PUSH1 0x1 PUSH1 0xA0 SHL SUB NOT DUP1 DUP4 AND DUP3 OR DUP5 SSTORE DUP7 MLOAD SWAP4 SWAP6 SWAP1 SWAP5 PUSH1 0x1 PUSH1 0x1 PUSH1 0xA0 SHL SUB SWAP5 SWAP2 SWAP4 SWAP1 SWAP3 SWAP1 DUP6 AND PUSH32 0x8BE0079C531659141344CD1FD0A4F28419497F9722A3DAAFE3B4186F6B6457E0 DUP9 DUP1 LOG3 DUP4 DUP9 AND ISZERO PUSH3 0x163 JUMPI POP DUP3 AND DUP1 ISZERO PUSH3 0x12E JUMPI DUP6 SWAP7 PUSH1 0x80 MSTORE DUP4 PUSH1 0x1 SLOAD AND OR PUSH1 0x1 SSTORE AND SWAP1 PUSH1 0x2 SLOAD AND OR PUSH1 0x2 SSTORE CALLER DUP2 MSTORE PUSH1 0x6 PUSH1 0x20 MSTORE KECCAK256 PUSH1 0x1 PUSH1 0xFF NOT DUP3 SLOAD AND OR SWAP1 SSTORE MLOAD PUSH2 0x1835 SWAP1 DUP2 PUSH3 0x1EE DUP3 CODECOPY PUSH1 0x80 MLOAD DUP2 DUP2 DUP2 PUSH2 0x9F7 ADD MSTORE DUP2 DUP2 PUSH2 0xDBE ADD MSTORE DUP2 DUP2 PUSH2 0xE22 ADD MSTORE PUSH2 0x1096 ADD MSTORE RETURN JUMPDEST DUP6 MLOAD PUSH3 0x461BCD PUSH1 0xE5 SHL DUP2 MSTORE PUSH1 0x20 PUSH1 0x4 DUP3 ADD MSTORE PUSH1 0xE PUSH1 0x24 DUP3 ADD MSTORE PUSH14 0x496E76616C6964206F7261636C65 PUSH1 0x90 SHL PUSH1 0x44 DUP3 ADD MSTORE PUSH1 0x64 SWAP1 REVERT JUMPDEST PUSH3 0x461BCD PUSH1 0xE5 SHL DUP2 MSTORE PUSH1 0x20 PUSH1 0x4 DUP3 ADD MSTORE PUSH1 0x16 PUSH1 0x24 DUP3 ADD MSTORE PUSH32 0x496E76616C696420696D706C656D656E746174696F6E00000000000000000000 PUSH1 0x44 DUP3 ADD MSTORE PUSH1 0x64 SWAP1 REVERT JUMPDEST DUP3 MLOAD PUSH4 0x1E4FBDF7 PUSH1 0xE0 SHL DUP2 MSTORE PUSH1 0x0 PUSH1 0x4 DUP3 ADD MSTORE PUSH1 0x24 SWAP1 REVERT JUMPDEST PUSH1 0x0 DUP1 REVERT JUMPDEST PUSH4 0x4E487B71 PUSH1 0xE0 SHL PUSH1 0x0 MSTORE PUSH1 0x41 PUSH1 0x4 MSTORE PUSH1 0x24 PUSH1 0x0 REVERT JUMPDEST MLOAD SWAP1 PUSH1 0x1 PUSH1 0x1 PUSH1 0xA0 SHL SUB DUP3 AND DUP3 SUB PUSH3 0x1BD JUMPI JUMP INVALID PUSH1 0x80 PUSH1 0x40 MSTORE PUSH1 0x4 CALLDATASIZE LT ISZERO PUSH2 0x12 JUMPI PUSH1 0x0 DUP1 REVERT JUMPDEST PUSH1 0x0 DUP1 CALLDATALOAD PUSH1 0xE0 SHR DUP1 PUSH4 0x289E14EC EQ PUSH2 0xF50 JUMPI DUP1 PUSH4 0x357061E1 EQ PUSH2 0xECC JUMPI DUP1 PUSH4 0x496B67D4 EQ PUSH2 0xE88 JUMPI DUP1 PUSH4 0x5414DFF0 EQ PUSH2 0xDED JUMPI DUP1 PUSH4 0x5C60DA1B EQ PUSH2 0xDA8 JUMPI DUP1 PUSH4 0x6412173E EQ PUSH2 0xD7F JUMPI DUP1 PUSH4 0x715018A6 EQ PUSH2 0xD25 JUMPI DUP1 PUSH4 0x76BB7D5E EQ PUSH2 0xCAD JUMPI DUP1 PUSH4 0x7ADBF973 EQ PUSH2 0xC06 JUMPI DUP1 PUSH4 0x7DC0D1D0 EQ PUSH2 0xBDD JUMPI DUP1 PUSH4 0x885DDCBB EQ PUSH2 0x8A7 JUMPI DUP1 PUSH4 0x8D549846 EQ PUSH2 0x579 JUMPI DUP1 PUSH4 0x8DA5CB5B EQ PUSH2 0x552 JUMPI DUP1 PUSH4 0xA3489743 EQ PUSH2 0x4C3 JUMPI DUP1 PUSH4 0xBC8AA678 EQ PUSH2 0x421 JUMPI DUP1 PUSH4 0xC111DB89 EQ PUSH2 0x31D JUMPI DUP1 PUSH4 0xD6AC1D4C EQ PUSH2 0x2C2 JUMPI DUP1 PUSH4 0xDFD7D317 EQ PUSH2 0x2A4 JUMPI DUP1 PUSH4 0xEA5FA019 EQ PUSH2 0x246 JUMPI DUP1 PUSH4 0xF2FDE38B EQ PUSH2 0x1BB JUMPI DUP1 PUSH4 0xF731FA0F EQ PUSH2 0x17C JUMPI PUSH4 0xF74B059E EQ PUSH2 0x10F JUMPI PUSH1 0x0 DUP1 REVERT JUMPDEST CALLVALUE PUSH2 0x179 JUMPI PUSH1 0x20 CALLDATASIZE PUSH1 0x3 NOT ADD SLT PUSH2 0x179 JUMPI PUSH2 0x128 PUSH2 0x1212 JUMP JUMPDEST PUSH2 0x130 PUSH2 0x1375 JUMP JUMPDEST PUSH1 0x2 DUP1 SLOAD PUSH1 0x1 PUSH1 0x1 PUSH1 0xA0 SHL SUB SWAP3 DUP4 AND PUSH1 0x1 PUSH1 0x1 PUSH1 0xA0 SHL SUB NOT DUP3 AND DUP2 OR SWAP1 SWAP3 SSTORE SWAP1 SWAP2 AND PUSH32 0xA566210E6C55347C190AF0A730D7ACA425B94BDF45FA78CC018CAEF4CD258A90 DUP4 DUP1 LOG3 DUP1 RETURN JUMPDEST DUP1 REVERT JUMPDEST POP CALLVALUE PUSH2 0x179 JUMPI PUSH1 0x20 CALLDATASIZE PUSH1 0x3 NOT ADD SLT PUSH2 0x179 JUMPI PUSH1 0x20 SWAP1 PUSH1 0xFF SWAP1 PUSH1 0x40 SWAP1 PUSH1 0x1 PUSH1 0x1 PUSH1 0xA0 SHL SUB PUSH2 0x1A7 PUSH2 0x1212 JUMP JUMPDEST AND DUP2 MSTORE PUSH1 0x6 DUP5 MSTORE KECCAK256 SLOAD AND PUSH1 0x40 MLOAD SWAP1 ISZERO ISZERO DUP2 MSTORE RETURN JUMPDEST POP CALLVALUE PUSH2 0x179 JUMPI PUSH1 0x20 CALLDATASIZE PUSH1 0x3 NOT ADD SLT PUSH2 0x179 JUMPI PUSH2 0x1D5 PUSH2 0x1212 JUMP JUMPDEST PUSH2 0x1DD PUSH2 0x1375 JUMP JUMPDEST PUSH1 0x1 PUSH1 0x1 PUSH1 0xA0 SHL SUB SWAP1 DUP2 AND SWAP1 DUP2 ISZERO PUSH2 0x22D JUMPI PUSH1 0x0 SLOAD DUP3 PUSH1 0x1 PUSH1 0x1 PUSH1 0x60 SHL SUB PUSH1 0xA0 SHL DUP3 AND OR PUSH1 0x0 SSTORE AND PUSH32 0x8BE0079C531659141344CD1FD0A4F28419497F9722A3DAAFE3B4186F6B6457E0 PUSH1 0x0 DUP1 LOG3 DUP1 RETURN JUMPDEST PUSH1 0x40 MLOAD PUSH4 0x1E4FBDF7 PUSH1 0xE0 SHL DUP2 MSTORE PUSH1 0x4 DUP2 ADD DUP5 SWAP1 MSTORE PUSH1 0x24 SWAP1 REVERT JUMPDEST POP CALLVALUE PUSH2 0x179 JUMPI PUSH1 0x20 CALLDATASIZE PUSH1 0x3 NOT ADD SLT PUSH2 0x179 JUMPI PUSH1 0x4 CALLDATALOAD SWAP1 PUSH1 0x1 PUSH1 0x1 PUSH1 0x40 SHL SUB DUP3 GT PUSH2 0x179 JUMPI PUSH1 0x20 PUSH2 0x279 CALLDATASIZE PUSH1 0x4 DUP6 ADD PUSH2 0x11B9 JUMP JUMPDEST DUP1 PUSH1 0x40 MLOAD SWAP3 DUP4 CALLDATACOPY PUSH1 0x4 SWAP1 DUP3 ADD SWAP1 DUP2 MSTORE DUP2 SWAP1 SUB DUP3 ADD SWAP1 KECCAK256 SLOAD PUSH1 0x40 MLOAD PUSH1 0x1 PUSH1 0x1 PUSH1 0xA0 SHL SUB SWAP1 SWAP2 AND ISZERO ISZERO DUP2 MSTORE RETURN JUMPDEST POP CALLVALUE PUSH2 0x179 JUMPI DUP1 PUSH1 0x3 NOT CALLDATASIZE ADD SLT PUSH2 0x179 JUMPI PUSH1 0x20 PUSH1 0x3 SLOAD PUSH1 0x40 MLOAD SWAP1 DUP2 MSTORE RETURN JUMPDEST POP CALLVALUE PUSH2 0x179 JUMPI PUSH1 0x40 CALLDATASIZE PUSH1 0x3 NOT ADD SLT PUSH2 0x179 JUMPI PUSH2 0x2DC PUSH2 0x1212 JUMP JUMPDEST PUSH1 0x1 PUSH1 0x1 PUSH1 0xA0 SHL SUB SWAP1 DUP2 AND DUP3 MSTORE PUSH1 0x5 PUSH1 0x20 MSTORE PUSH1 0x40 DUP3 KECCAK256 DUP1 SLOAD PUSH1 0x24 CALLDATALOAD SWAP4 SWAP1 DUP5 LT ISZERO PUSH2 0x179 JUMPI POP PUSH1 0x20 SWAP3 PUSH2 0x30D SWAP2 PUSH2 0x1282 JUMP JUMPDEST SWAP2 SWAP1 SLOAD PUSH1 0x40 MLOAD SWAP3 PUSH1 0x3 SHL SHR AND DUP2 MSTORE RETURN JUMPDEST POP CALLVALUE PUSH2 0x179 JUMPI PUSH1 0x20 DUP1 PUSH1 0x3 NOT CALLDATASIZE ADD SLT PUSH2 0x41D JUMPI PUSH1 0x1 PUSH1 0x1 PUSH1 0x40 SHL SUB PUSH1 0x4 CALLDATALOAD DUP2 DUP2 GT PUSH2 0x419 JUMPI CALLDATASIZE PUSH1 0x23 DUP3 ADD SLT ISZERO PUSH2 0x419 JUMPI DUP1 PUSH1 0x4 ADD CALLDATALOAD SWAP2 DUP3 GT PUSH2 0x419 JUMPI PUSH1 0x24 SWAP3 DUP4 DUP3 ADD SWAP2 DUP5 CALLDATASIZE SWAP2 DUP6 PUSH1 0x5 SHL ADD ADD GT PUSH2 0x415 JUMPI PUSH2 0x376 PUSH2 0x1375 JUMP JUMPDEST DUP5 JUMPDEST DUP4 DUP2 LT PUSH2 0x383 JUMPI DUP6 DUP1 RETURN JUMPDEST PUSH1 0x1 PUSH1 0x1 PUSH1 0xA0 SHL SUB DUP1 PUSH2 0x39F PUSH2 0x39A DUP5 DUP9 DUP9 PUSH2 0x1756 JUMP JUMPDEST PUSH2 0x1766 JUMP JUMPDEST AND DUP8 MSTORE PUSH1 0x6 DUP4 MSTORE PUSH32 0x323F1985F95AB4281AC5356FEAE087F07598411565971DD57673E77BF9AECEA8 DUP4 PUSH1 0x40 DUP10 KECCAK256 SWAP3 PUSH1 0x1 SWAP4 DUP5 PUSH1 0xFF NOT DUP3 SLOAD AND OR SWAP1 SSTORE PUSH2 0x3E8 PUSH2 0x39A DUP7 DUP11 DUP11 PUSH2 0x1756 JUMP JUMPDEST AND SWAP3 PUSH1 0x40 MLOAD SWAP1 DUP2 MSTORE LOG2 PUSH1 0x0 NOT DUP2 EQ PUSH2 0x402 JUMPI PUSH1 0x1 ADD PUSH2 0x378 JUMP JUMPDEST PUSH4 0x4E487B71 PUSH1 0xE0 SHL DUP7 MSTORE PUSH1 0x11 PUSH1 0x4 MSTORE DUP5 DUP7 REVERT JUMPDEST DUP5 DUP1 REVERT JUMPDEST DUP4 DUP1 REVERT JUMPDEST POP DUP1 REVERT JUMPDEST POP CALLVALUE PUSH2 0x179 JUMPI PUSH1 0x20 CALLDATASIZE PUSH1 0x3 NOT ADD SLT PUSH2 0x179 JUMPI PUSH1 0x4 CALLDATALOAD PUSH1 0x1 PUSH1 0x1 PUSH1 0x40 SHL SUB DUP2 GT PUSH2 0x41D JUMPI CALLDATASIZE PUSH1 0x23 DUP3 ADD SLT ISZERO PUSH2 0x41D JUMPI DUP1 PUSH1 0x4 ADD CALLDATALOAD PUSH2 0x45D DUP2 PUSH2 0x135A JUMP JUMPDEST SWAP1 PUSH2 0x46B PUSH1 0x40 MLOAD SWAP3 DUP4 PUSH2 0x1339 JUMP JUMPDEST DUP1 DUP3 MSTORE PUSH1 0x20 DUP3 ADD SWAP3 CALLDATASIZE PUSH1 0x24 DUP4 DUP4 ADD ADD GT PUSH2 0x415 JUMPI DUP2 PUSH1 0x20 SWAP6 SWAP3 PUSH1 0x24 DUP8 SWAP4 ADD DUP7 CALLDATACOPY DUP4 ADD ADD MSTORE PUSH2 0x4A1 PUSH1 0x40 MLOAD SWAP3 DUP4 SWAP3 MLOAD SWAP3 DUP4 SWAP2 PUSH2 0x12DE JUMP JUMPDEST PUSH1 0x4 SWAP1 DUP3 ADD SWAP1 DUP2 MSTORE DUP2 SWAP1 SUB DUP3 ADD SWAP1 KECCAK256 SLOAD PUSH1 0x40 MLOAD PUSH1 0x1 PUSH1 0x1 PUSH1 0xA0 SHL SUB SWAP1 SWAP2 AND DUP2 MSTORE RETURN JUMPDEST POP CALLVALUE PUSH2 0x179 JUMPI DUP1 PUSH1 0x3 NOT CALLDATASIZE ADD SLT PUSH2 0x179 JUMPI PUSH1 0x40 MLOAD PUSH1 0x3 DUP1 SLOAD DUP1 DUP4 MSTORE SWAP1 DUP4 MSTORE PUSH1 0x20 DUP1 DUP4 ADD SWAP4 PUSH32 0xC2575A0E9E593C00F959F8C92F12DB2869C3395A3B0502D05E2516446F71F85B SWAP3 SWAP2 JUMPDEST DUP3 DUP3 LT PUSH2 0x532 JUMPI PUSH2 0x52E DUP6 PUSH2 0x522 DUP2 DUP10 SUB DUP3 PUSH2 0x1339 JUMP JUMPDEST PUSH1 0x40 MLOAD SWAP2 DUP3 SWAP2 DUP3 PUSH2 0x129A JUMP JUMPDEST SUB SWAP1 RETURN JUMPDEST DUP4 SLOAD PUSH1 0x1 PUSH1 0x1 PUSH1 0xA0 SHL SUB AND DUP7 MSTORE SWAP5 DUP6 ADD SWAP5 PUSH1 0x1 SWAP4 DUP5 ADD SWAP4 SWAP1 SWAP2 ADD SWAP1 PUSH2 0x50B JUMP JUMPDEST POP CALLVALUE PUSH2 0x179 JUMPI DUP1 PUSH1 0x3 NOT CALLDATASIZE ADD SLT PUSH2 0x179 JUMPI SLOAD PUSH1 0x40 MLOAD PUSH1 0x1 PUSH1 0x1 PUSH1 0xA0 SHL SUB SWAP1 SWAP2 AND DUP2 MSTORE PUSH1 0x20 SWAP1 RETURN JUMPDEST POP CALLVALUE PUSH2 0x179 JUMPI PUSH1 0x20 SWAP1 DUP2 PUSH1 0x3 NOT CALLDATASIZE ADD SLT PUSH2 0x179 JUMPI PUSH1 0x4 CALLDATALOAD PUSH1 0x3 SLOAD DUP2 LT ISZERO PUSH2 0x86C JUMPI PUSH2 0x5A3 SWAP1 PUSH2 0x1235 JUMP JUMPDEST SWAP1 SLOAD PUSH1 0x40 MLOAD PUSH4 0x6FDDE03 PUSH1 0xE0 SHL DUP2 MSTORE PUSH1 0x3 SWAP3 SWAP1 SWAP3 SHL SHR PUSH1 0x1 PUSH1 0x1 PUSH1 0xA0 SHL SUB AND SWAP2 SWAP1 DUP2 DUP2 PUSH1 0x4 DUP2 DUP7 GAS STATICCALL SWAP1 DUP2 ISZERO PUSH2 0x861 JUMPI DUP3 SWAP2 PUSH2 0x847 JUMPI JUMPDEST POP PUSH1 0x40 MLOAD PUSH4 0x95D89B41 PUSH1 0xE0 SHL DUP2 MSTORE DUP3 DUP2 PUSH1 0x4 DUP2 DUP8 GAS STATICCALL SWAP1 DUP2 ISZERO PUSH2 0x83C JUMPI DUP4 SWAP2 PUSH2 0x81A JUMPI JUMPDEST POP PUSH1 0x40 MLOAD PUSH4 0x4173B417 PUSH1 0xE0 SHL DUP2 MSTORE DUP4 DUP2 PUSH1 0x4 DUP2 DUP9 GAS STATICCALL SWAP4 DUP5 ISZERO PUSH2 0x80E JUMPI DUP1 SWAP5 PUSH2 0x67E JUMPI JUMPDEST POP POP PUSH2 0x66F SWAP1 PUSH2 0x661 PUSH2 0x160 DUP6 ADD MLOAD SWAP2 PUSH2 0x653 DUP9 DUP8 MLOAD SWAP8 ADD MLOAD SWAP6 PUSH1 0xC0 PUSH1 0x40 MLOAD SWAP11 DUP12 SWAP11 DUP12 MSTORE DUP11 ADD MSTORE PUSH1 0xC0 DUP10 ADD SWAP1 PUSH2 0x1301 JUMP JUMPDEST SWAP1 DUP8 DUP3 SUB PUSH1 0x40 DUP10 ADD MSTORE PUSH2 0x1301 JUMP JUMPDEST SWAP1 DUP6 DUP3 SUB PUSH1 0x60 DUP8 ADD MSTORE PUSH2 0x1301 JUMP JUMPDEST SWAP2 PUSH1 0x80 DUP5 ADD MSTORE PUSH1 0xA0 DUP4 ADD MSTORE SUB SWAP1 RETURN JUMPDEST SWAP1 SWAP2 SWAP4 POP RETURNDATASIZE DUP1 DUP3 DUP5 RETURNDATACOPY PUSH2 0x691 DUP2 DUP5 PUSH2 0x1339 JUMP JUMPDEST DUP3 ADD SWAP1 DUP7 DUP4 DUP4 SUB SLT PUSH2 0x179 JUMPI DUP3 MLOAD PUSH1 0x1 PUSH1 0x1 PUSH1 0x40 SHL SUB SWAP4 DUP5 DUP3 GT PUSH2 0x80A JUMPI ADD SWAP2 PUSH2 0x220 SWAP4 DUP5 DUP5 DUP4 SUB SLT PUSH2 0x80A JUMPI PUSH1 0x40 MLOAD SWAP5 DUP6 ADD DUP6 DUP2 LT DUP3 DUP3 GT OR PUSH2 0x7F4 JUMPI PUSH1 0x40 MSTORE DUP4 MLOAD DUP6 MSTORE DUP9 DUP5 ADD MLOAD DUP10 DUP7 ADD MSTORE PUSH1 0x40 DUP5 ADD MLOAD PUSH1 0x40 DUP7 ADD MSTORE PUSH1 0x60 DUP5 ADD MLOAD PUSH1 0x60 DUP7 ADD MSTORE PUSH2 0x6FE PUSH1 0x80 DUP6 ADD PUSH2 0x17E4 JUMP JUMPDEST PUSH1 0x80 DUP7 ADD MSTORE PUSH1 0xA0 DUP5 ADD MLOAD PUSH1 0xA0 DUP7 ADD MSTORE PUSH1 0xC0 DUP5 ADD MLOAD PUSH1 0x5 DUP2 LT ISZERO PUSH2 0x419 JUMPI PUSH1 0xC0 DUP7 ADD MSTORE PUSH1 0xE0 DUP5 ADD MLOAD PUSH1 0xE0 DUP7 ADD MSTORE PUSH2 0x100 PUSH2 0x738 DUP2 DUP7 ADD PUSH2 0x17E4 JUMP JUMPDEST SWAP1 DUP7 ADD MSTORE PUSH2 0x120 DUP1 DUP6 ADD MLOAD SWAP1 DUP7 ADD MSTORE PUSH2 0x140 DUP1 DUP6 ADD MLOAD SWAP1 PUSH1 0x3 DUP3 LT ISZERO PUSH2 0x415 JUMPI DUP7 ADD MSTORE PUSH2 0x160 DUP1 DUP6 ADD MLOAD DUP3 DUP2 GT PUSH2 0x415 JUMPI DUP4 PUSH2 0x775 SWAP2 DUP8 ADD PUSH2 0x177A JUMP JUMPDEST SWAP1 DUP7 ADD MSTORE PUSH2 0x180 DUP1 DUP6 ADD MLOAD DUP3 DUP2 GT PUSH2 0x415 JUMPI DUP4 PUSH2 0x793 SWAP2 DUP8 ADD PUSH2 0x177A JUMP JUMPDEST SWAP1 DUP7 ADD MSTORE PUSH2 0x1A0 SWAP3 DUP4 DUP6 ADD MLOAD SWAP2 DUP3 GT PUSH2 0x179 JUMPI POP DUP4 SWAP3 SWAP2 PUSH2 0x7B9 SWAP2 PUSH2 0x66F SWAP7 SWAP6 ADD PUSH2 0x177A JUMP JUMPDEST SWAP1 DUP4 ADD MSTORE PUSH2 0x1C0 PUSH2 0x7CB DUP2 DUP4 ADD PUSH2 0x17F2 JUMP JUMPDEST SWAP1 DUP4 ADD MSTORE PUSH2 0x1E0 PUSH2 0x7DD DUP2 DUP4 ADD PUSH2 0x17F2 JUMP JUMPDEST SWAP1 DUP4 ADD MSTORE PUSH2 0x200 DUP1 SWAP2 ADD MLOAD SWAP1 DUP3 ADD MSTORE SWAP3 SWAP1 CODESIZE PUSH2 0x622 JUMP JUMPDEST PUSH4 0x4E487B71 PUSH1 0xE0 SHL PUSH1 0x0 MSTORE PUSH1 0x41 PUSH1 0x4 MSTORE PUSH1 0x24 PUSH1 0x0 REVERT JUMPDEST DUP3 DUP1 REVERT JUMPDEST PUSH1 0x40 MLOAD SWAP1 RETURNDATASIZE SWAP1 DUP3 RETURNDATACOPY RETURNDATASIZE SWAP1 REVERT JUMPDEST PUSH2 0x836 SWAP2 POP RETURNDATASIZE DUP1 DUP6 DUP4 RETURNDATACOPY PUSH2 0x82E DUP2 DUP4 PUSH2 0x1339 JUMP JUMPDEST DUP2 ADD SWAP1 PUSH2 0x17BF JUMP JUMPDEST CODESIZE PUSH2 0x5FE JUMP JUMPDEST PUSH1 0x40 MLOAD RETURNDATASIZE DUP6 DUP3 RETURNDATACOPY RETURNDATASIZE SWAP1 REVERT JUMPDEST PUSH2 0x85B SWAP2 POP RETURNDATASIZE DUP1 DUP5 DUP4 RETURNDATACOPY PUSH2 0x82E DUP2 DUP4 PUSH2 0x1339 JUMP JUMPDEST CODESIZE PUSH2 0x5DA JUMP JUMPDEST PUSH1 0x40 MLOAD RETURNDATASIZE DUP5 DUP3 RETURNDATACOPY RETURNDATASIZE SWAP1 REVERT JUMPDEST PUSH1 0x40 MLOAD PUSH3 0x461BCD PUSH1 0xE5 SHL DUP2 MSTORE PUSH1 0x4 DUP2 ADD DUP5 SWAP1 MSTORE PUSH1 0x13 PUSH1 0x24 DUP3 ADD MSTORE PUSH19 0x496E646578206F7574206F6620626F756E6473 PUSH1 0x68 SHL PUSH1 0x44 DUP3 ADD MSTORE PUSH1 0x64 SWAP1 REVERT JUMPDEST POP CALLVALUE PUSH2 0x179 JUMPI PUSH1 0x3 NOT PUSH1 0xA0 CALLDATASIZE DUP3 ADD SLT PUSH2 0x41D JUMPI PUSH1 0x1 PUSH1 0x1 PUSH1 0x40 SHL SUB PUSH1 0x4 CALLDATALOAD DUP2 DUP2 GT PUSH2 0x419 JUMPI PUSH2 0x8DA SWAP1 CALLDATASIZE SWAP1 PUSH1 0x4 ADD PUSH2 0x11B9 JUMP JUMPDEST SWAP1 PUSH1 0x24 CALLDATALOAD DUP4 DUP2 GT PUSH2 0xBD9 JUMPI PUSH2 0x8F3 SWAP1 CALLDATASIZE SWAP1 PUSH1 0x4 ADD PUSH2 0x11B9 JUMP JUMPDEST SWAP5 SWAP1 SWAP4 PUSH1 0x44 CALLDATALOAD GT PUSH2 0xBD9 JUMPI PUSH2 0x220 SWAP1 PUSH1 0x44 CALLDATALOAD CALLDATASIZE SUB ADD SLT PUSH2 0x415 JUMPI PUSH2 0x915 PUSH2 0x11E6 JUMP JUMPDEST SWAP4 PUSH2 0x91E PUSH2 0x11FC JUMP JUMPDEST SWAP5 CALLER DUP8 MSTORE PUSH1 0x6 PUSH1 0x20 MSTORE PUSH1 0xFF PUSH1 0x40 DUP9 KECCAK256 SLOAD AND DUP1 ISZERO PUSH2 0xBC6 JUMPI JUMPDEST PUSH2 0x93F SWAP1 PUSH2 0x13A1 JUMP JUMPDEST PUSH2 0x961 PUSH1 0xC PUSH2 0x959 PUSH2 0x164 PUSH1 0x44 CALLDATALOAD ADD PUSH1 0x44 CALLDATALOAD PUSH1 0x4 ADD PUSH2 0x13E5 JUMP JUMPDEST SWAP1 POP EQ PUSH2 0x1417 JUMP JUMPDEST PUSH2 0x9A2 PUSH2 0x979 PUSH2 0x164 PUSH1 0x44 CALLDATALOAD ADD PUSH1 0x44 CALLDATALOAD PUSH1 0x4 ADD PUSH2 0x13E5 JUMP JUMPDEST SWAP1 DUP2 PUSH1 0x40 MLOAD SWAP2 DUP3 CALLDATACOPY PUSH1 0x4 SWAP2 DUP2 ADD SWAP2 DUP3 MSTORE SWAP1 DUP2 SWAP1 SUB PUSH1 0x20 ADD SWAP1 KECCAK256 SLOAD PUSH1 0x1 PUSH1 0x1 PUSH1 0xA0 SHL SUB AND ISZERO PUSH2 0x1457 JUMP JUMPDEST PUSH1 0x1 PUSH1 0x1 PUSH1 0xA0 SHL SUB DUP2 AND PUSH2 0xBC0 JUMPI POP PUSH1 0x2 SLOAD PUSH1 0x1 PUSH1 0x1 PUSH1 0xA0 SHL SUB AND SWAP5 JUMPDEST PUSH2 0x9D3 PUSH1 0x1 PUSH1 0x1 PUSH1 0xA0 SHL SUB DUP8 AND ISZERO ISZERO PUSH2 0x1499 JUMP JUMPDEST PUSH1 0x1 PUSH1 0x1 PUSH1 0xA0 SHL SUB DUP2 AND PUSH2 0xBBA JUMPI POP CALLER SWAP5 JUMPDEST PUSH15 0x5AF43D82803E903D91602B57FD5BF3 PUSH32 0x0 PUSH23 0x3D602D80600A3D3981F3363D3D373D3D3D363D73000000 PUSH3 0xFFFFFF DUP3 PUSH1 0x88 SHR AND OR DUP10 MSTORE PUSH1 0x78 SHL OR PUSH1 0x20 MSTORE PUSH1 0x37 PUSH1 0x9 DUP9 CREATE PUSH1 0x1 PUSH1 0x1 PUSH1 0xA0 SHL SUB DUP2 AND SWAP7 SWAP1 SWAP2 SWAP1 DUP8 ISZERO PUSH2 0xBA8 JUMPI PUSH1 0x1 SLOAD DUP10 SWAP2 SWAP1 PUSH1 0x1 PUSH1 0x1 PUSH1 0xA0 SHL SUB AND DUP10 EXTCODESIZE ISZERO PUSH2 0x80A JUMPI PUSH2 0xA9F DUP7 SWAP3 DUP10 DUP10 SWAP7 DUP13 SWAP5 PUSH1 0x40 MLOAD SWAP9 DUP10 SWAP8 DUP9 SWAP8 PUSH4 0xAC1BA87 PUSH1 0xE3 SHL DUP10 MSTORE CALLER SWAP6 PUSH1 0x44 CALLDATALOAD PUSH1 0x4 ADD SWAP4 PUSH1 0x4 DUP12 ADD PUSH2 0x153E JUMP JUMPDEST SUB DUP2 DUP4 DUP12 GAS CALL DUP1 ISZERO PUSH2 0xB9D JUMPI PUSH2 0xB85 JUMPI JUMPDEST POP SWAP2 PUSH32 0x6CFF86004AB7A564DB40806C1E028B796E9021EEE0E9EAE98470CEF4511231C0 SWAP2 PUSH2 0xB30 DUP5 PUSH1 0x40 PUSH1 0x20 SWAP11 PUSH2 0xAE7 DUP12 SWAP9 PUSH2 0x16C5 JUMP JUMPDEST DUP12 PUSH2 0xAFD PUSH2 0x164 PUSH1 0x44 CALLDATALOAD ADD PUSH1 0x44 CALLDATALOAD PUSH1 0x4 ADD PUSH2 0x13E5 JUMP JUMPDEST SWAP2 SWAP1 DUP3 DUP6 MLOAD SWAP4 DUP5 SWAP3 DUP4 CALLDATACOPY DUP2 ADD PUSH1 0x4 DUP2 MSTORE SUB ADD SWAP1 KECCAK256 DUP9 PUSH1 0x1 PUSH1 0x1 PUSH1 0x60 SHL SUB PUSH1 0xA0 SHL DUP3 SLOAD AND OR SWAP1 SSTORE CALLER DUP2 MSTORE PUSH1 0x5 DUP13 MSTORE KECCAK256 PUSH2 0x1702 JUMP JUMPDEST PUSH2 0xB7A PUSH2 0xB48 PUSH2 0x164 PUSH1 0x44 CALLDATALOAD ADD PUSH1 0x44 CALLDATALOAD PUSH1 0x4 ADD PUSH2 0x13E5 JUMP JUMPDEST SWAP1 DUP2 PUSH1 0x40 MLOAD SWAP3 DUP4 SWAP3 DUP4 CALLDATACOPY DUP2 ADD PUSH1 0x0 DUP2 MSTORE SUB SWAP1 KECCAK256 SWAP6 PUSH1 0x40 MLOAD SWAP4 DUP5 SWAP4 CALLER SWAP10 PUSH1 0x24 PUSH1 0x44 CALLDATALOAD ADD CALLDATALOAD SWAP4 PUSH1 0x44 CALLDATALOAD PUSH1 0x4 ADD CALLDATALOAD SWAP4 DUP8 PUSH2 0x171F JUMP JUMPDEST SUB SWAP1 LOG4 PUSH1 0x40 MLOAD SWAP1 DUP2 MSTORE RETURN JUMPDEST PUSH2 0xB8F DUP9 SWAP2 PUSH2 0x1326 JUMP JUMPDEST PUSH2 0xB99 JUMPI CODESIZE PUSH2 0xAB0 JUMP JUMPDEST DUP7 DUP1 REVERT JUMPDEST PUSH1 0x40 MLOAD RETURNDATASIZE DUP11 DUP3 RETURNDATACOPY RETURNDATASIZE SWAP1 REVERT JUMPDEST PUSH1 0x40 MLOAD PUSH4 0xB06EBF3D PUSH1 0xE0 SHL DUP2 MSTORE PUSH1 0x4 SWAP1 REVERT JUMPDEST SWAP5 PUSH2 0x9E5 JUMP JUMPDEST SWAP5 PUSH2 0x9BF JUMP JUMPDEST POP DUP7 SLOAD PUSH1 0x1 PUSH1 0x1 PUSH1 0xA0 SHL SUB AND CALLER EQ PUSH2 0x936 JUMP JUMPDEST DUP6 DUP1 REVERT JUMPDEST POP CALLVALUE PUSH2 0x179 JUMPI DUP1 PUSH1 0x3 NOT CALLDATASIZE ADD SLT PUSH2 0x179 JUMPI PUSH1 0x1 SLOAD PUSH1 0x40 MLOAD PUSH1 0x1 PUSH1 0x1 PUSH1 0xA0 SHL SUB SWAP1 SWAP2 AND DUP2 MSTORE PUSH1 0x20 SWAP1 RETURN JUMPDEST POP CALLVALUE PUSH2 0x179 JUMPI PUSH1 0x20 CALLDATASIZE PUSH1 0x3 NOT ADD SLT PUSH2 0x179 JUMPI PUSH2 0xC20 PUSH2 0x1212 JUMP JUMPDEST PUSH2 0xC28 PUSH2 0x1375 JUMP JUMPDEST PUSH1 0x1 PUSH1 0x1 PUSH1 0xA0 SHL SUB SWAP1 DUP2 AND SWAP1 DUP2 ISZERO PUSH2 0xC77 JUMPI PUSH1 0x1 SLOAD DUP3 PUSH1 0x1 PUSH1 0x1 PUSH1 0x60 SHL SUB PUSH1 0xA0 SHL DUP3 AND OR PUSH1 0x1 SSTORE AND PUSH32 0x78C3B417DADF69374A59793B829C52001247130433427049317BDE56607B1B7 DUP4 DUP1 LOG3 DUP1 RETURN JUMPDEST PUSH1 0x40 MLOAD PUSH3 0x461BCD PUSH1 0xE5 SHL DUP2 MSTORE PUSH1 0x20 PUSH1 0x4 DUP3 ADD MSTORE PUSH1 0xE PUSH1 0x24 DUP3 ADD MSTORE PUSH14 0x496E76616C6964206F7261636C65 PUSH1 0x90 SHL PUSH1 0x44 DUP3 ADD MSTORE PUSH1 0x64 SWAP1 REVERT JUMPDEST POP CALLVALUE PUSH2 0x179 JUMPI PUSH1 0x20 DUP1 PUSH1 0x3 NOT CALLDATASIZE ADD SLT PUSH2 0x41D JUMPI PUSH1 0x1 PUSH1 0x1 PUSH1 0xA0 SHL SUB SWAP2 DUP3 PUSH2 0xCD2 PUSH2 0x1212 JUMP JUMPDEST AND DUP2 MSTORE PUSH1 0x5 DUP3 MSTORE PUSH1 0x40 DUP2 KECCAK256 SWAP3 PUSH1 0x40 MLOAD SWAP1 DUP2 SWAP4 DUP1 DUP7 SLOAD SWAP4 DUP5 DUP2 MSTORE ADD SWAP6 DUP5 MSTORE DUP1 DUP5 KECCAK256 SWAP4 SWAP2 JUMPDEST DUP4 DUP4 LT PUSH2 0xD0C JUMPI PUSH2 0x52E DUP7 PUSH2 0x522 DUP2 DUP11 SUB DUP3 PUSH2 0x1339 JUMP JUMPDEST DUP5 SLOAD DUP2 AND DUP8 MSTORE SWAP6 DUP2 ADD SWAP6 PUSH1 0x1 SWAP5 DUP6 ADD SWAP5 SWAP1 SWAP3 ADD SWAP2 PUSH2 0xCF5 JUMP JUMPDEST POP CALLVALUE PUSH2 0x179 JUMPI DUP1 PUSH1 0x3 NOT CALLDATASIZE ADD SLT PUSH2 0x179 JUMPI PUSH2 0xD3E PUSH2 0x1375 JUMP JUMPDEST PUSH1 0x0 DUP1 SLOAD PUSH1 0x1 PUSH1 0x1 PUSH1 0xA0 SHL SUB NOT DUP2 AND DUP3 SSTORE PUSH1 0x1 PUSH1 0x1 PUSH1 0xA0 SHL SUB AND PUSH32 0x8BE0079C531659141344CD1FD0A4F28419497F9722A3DAAFE3B4186F6B6457E0 DUP3 DUP1 LOG3 DUP1 RETURN JUMPDEST POP CALLVALUE PUSH2 0x179 JUMPI DUP1 PUSH1 0x3 NOT CALLDATASIZE ADD SLT PUSH2 0x179 JUMPI PUSH1 0x2 SLOAD PUSH1 0x40 MLOAD PUSH1 0x1 PUSH1 0x1 PUSH1 0xA0 SHL SUB SWAP1 SWAP2 AND DUP2 MSTORE PUSH1 0x20 SWAP1 RETURN JUMPDEST POP CALLVALUE PUSH2 0x179 JUMPI DUP1 PUSH1 0x3 NOT CALLDATASIZE ADD SLT PUSH2 0x179 JUMPI PUSH1 0x40 MLOAD PUSH32 0x0 PUSH1 0x1 PUSH1 0x1 PUSH1 0xA0 SHL SUB AND DUP2 MSTORE PUSH1 0x20 SWAP1 RETURN JUMPDEST POP CALLVALUE PUSH2 0x179 JUMPI PUSH1 0x20 CALLDATASIZE PUSH1 0x3 NOT ADD SLT PUSH2 0x179 JUMPI PUSH1 0x20 PUSH1 0x40 MLOAD ADDRESS PUSH1 0x38 DUP3 ADD MSTORE PUSH16 0x5AF43D82803E903D91602B57FD5BF3FF PUSH1 0x24 DUP3 ADD MSTORE PUSH32 0x0 PUSH1 0x14 DUP3 ADD MSTORE PUSH20 0x3D602D80600A3D3981F3363D3D373D3D3D363D73 DUP2 MSTORE PUSH1 0x4 CALLDATALOAD PUSH1 0x58 DUP3 ADD MSTORE PUSH1 0x37 PUSH1 0xC DUP3 ADD KECCAK256 PUSH1 0x78 DUP3 ADD MSTORE PUSH1 0x55 PUSH1 0x43 PUSH1 0x1 DUP1 PUSH1 0xA0 SHL SUB SWAP3 ADD KECCAK256 AND PUSH1 0x40 MLOAD SWAP1 DUP2 MSTORE RETURN JUMPDEST POP CALLVALUE PUSH2 0x179 JUMPI PUSH1 0x20 CALLDATASIZE PUSH1 0x3 NOT ADD SLT PUSH2 0x179 JUMPI PUSH1 0x4 CALLDATALOAD SWAP1 PUSH1 0x3 SLOAD DUP3 LT ISZERO PUSH2 0x179 JUMPI PUSH1 0x20 PUSH2 0xEB3 DUP4 PUSH2 0x1235 JUMP JUMPDEST SWAP1 SLOAD PUSH1 0x40 MLOAD PUSH1 0x3 SWAP3 SWAP1 SWAP3 SHL SHR PUSH1 0x1 PUSH1 0x1 PUSH1 0xA0 SHL SUB AND DUP2 MSTORE RETURN JUMPDEST POP CALLVALUE PUSH2 0x179 JUMPI PUSH1 0x40 CALLDATASIZE PUSH1 0x3 NOT ADD SLT PUSH2 0x179 JUMPI PUSH2 0xEE6 PUSH2 0x1212 JUMP JUMPDEST PUSH1 0x24 CALLDATALOAD SWAP1 DUP2 ISZERO ISZERO DUP1 SWAP3 SUB PUSH2 0xF4B JUMPI PUSH1 0x20 PUSH32 0x323F1985F95AB4281AC5356FEAE087F07598411565971DD57673E77BF9AECEA8 SWAP2 PUSH2 0xF20 PUSH2 0x1375 JUMP JUMPDEST PUSH1 0x1 PUSH1 0x1 PUSH1 0xA0 SHL SUB AND DUP1 DUP6 MSTORE PUSH1 0x6 DUP3 MSTORE PUSH1 0x40 DUP1 DUP7 KECCAK256 DUP1 SLOAD PUSH1 0xFF NOT AND PUSH1 0xFF DUP8 AND OR SWAP1 SSTORE MLOAD SWAP4 DUP5 MSTORE SWAP3 LOG2 DUP1 RETURN JUMPDEST PUSH1 0x0 DUP1 REVERT JUMPDEST POP CALLVALUE PUSH2 0x179 JUMPI PUSH1 0x3 NOT PUSH1 0xC0 CALLDATASIZE DUP3 ADD SLT PUSH2 0x41D JUMPI PUSH1 0x1 PUSH1 0x1 PUSH1 0x40 SHL SUB PUSH1 0x4 CALLDATALOAD DUP2 DUP2 GT PUSH2 0x419 JUMPI PUSH2 0xF83 SWAP1 CALLDATASIZE SWAP1 PUSH1 0x4 ADD PUSH2 0x11B9 JUMP JUMPDEST SWAP1 PUSH1 0x24 CALLDATALOAD DUP4 DUP2 GT PUSH2 0xBD9 JUMPI PUSH2 0xF9C SWAP1 CALLDATASIZE SWAP1 PUSH1 0x4 ADD PUSH2 0x11B9 JUMP JUMPDEST SWAP5 SWAP1 SWAP4 PUSH1 0x44 CALLDATALOAD GT PUSH2 0xBD9 JUMPI PUSH2 0x220 SWAP1 PUSH1 0x44 CALLDATALOAD CALLDATASIZE SUB ADD SLT PUSH2 0x415 JUMPI PUSH2 0xFBE PUSH2 0x11E6 JUMP JUMPDEST SWAP4 PUSH2 0xFC7 PUSH2 0x11FC JUMP JUMPDEST SWAP5 CALLER DUP8 MSTORE PUSH1 0x6 PUSH1 0x20 MSTORE PUSH1 0xFF PUSH1 0x40 DUP9 KECCAK256 SLOAD AND DUP1 ISZERO PUSH2 0x11A6 JUMPI JUMPDEST PUSH2 0xFE8 SWAP1 PUSH2 0x13A1 JUMP JUMPDEST PUSH2 0x1002 PUSH1 0xC PUSH2 0x959 PUSH2 0x164 PUSH1 0x44 CALLDATALOAD ADD PUSH1 0x44 CALLDATALOAD PUSH1 0x4 ADD PUSH2 0x13E5 JUMP JUMPDEST PUSH2 0x1041 PUSH2 0x101A PUSH2 0x164 PUSH1 0x44 CALLDATALOAD ADD PUSH1 0x44 CALLDATALOAD PUSH1 0x4 ADD PUSH2 0x13E5 JUMP JUMPDEST DUP1 PUSH1 0x40 MLOAD SWAP3 DUP4 CALLDATACOPY PUSH1 0x4 SWAP1 DUP3 ADD SWAP1 DUP2 MSTORE DUP2 SWAP1 SUB PUSH1 0x20 ADD SWAP1 KECCAK256 SLOAD PUSH1 0x1 PUSH1 0x1 PUSH1 0xA0 SHL SUB AND ISZERO PUSH2 0x1457 JUMP JUMPDEST PUSH1 0x1 PUSH1 0x1 PUSH1 0xA0 SHL SUB DUP2 AND PUSH2 0x11A0 JUMPI POP PUSH1 0x2 SLOAD PUSH1 0x1 PUSH1 0x1 PUSH1 0xA0 SHL SUB AND SWAP5 JUMPDEST PUSH2 0x1072 PUSH1 0x1 PUSH1 0x1 PUSH1 0xA0 SHL SUB DUP8 AND ISZERO ISZERO PUSH2 0x1499 JUMP JUMPDEST PUSH1 0x1 PUSH1 0x1 PUSH1 0xA0 SHL SUB DUP2 AND PUSH2 0x119A JUMPI POP CALLER SWAP5 JUMPDEST PUSH15 0x5AF43D82803E903D91602B57FD5BF3 PUSH32 0x0 PUSH23 0x3D602D80600A3D3981F3363D3D373D3D3D363D73000000 PUSH3 0xFFFFFF DUP3 PUSH1 0x88 SHR AND OR DUP10 MSTORE PUSH1 0x78 SHL OR PUSH1 0x20 MSTORE PUSH1 0xA4 CALLDATALOAD PUSH1 0x37 PUSH1 0x9 DUP10 CREATE2 PUSH1 0x1 PUSH1 0x1 PUSH1 0xA0 SHL SUB DUP2 AND SWAP7 SWAP1 SWAP2 SWAP1 DUP8 ISZERO PUSH2 0xBA8 JUMPI PUSH1 0x1 SLOAD DUP10 SWAP2 SWAP1 PUSH1 0x1 PUSH1 0x1 PUSH1 0xA0 SHL SUB AND DUP10 EXTCODESIZE ISZERO PUSH2 0x80A JUMPI PUSH2 0x1141 DUP7 SWAP3 DUP10 DUP10 SWAP7 DUP13 SWAP5 PUSH1 0x40 MLOAD SWAP9 DUP10 SWAP8 DUP9 SWAP8 PUSH4 0xAC1BA87 PUSH1 0xE3 SHL DUP10 MSTORE CALLER SWAP6 PUSH1 0x44 CALLDATALOAD PUSH1 0x4 ADD SWAP4 PUSH1 0x4 DUP12 ADD PUSH2 0x153E JUMP JUMPDEST SUB DUP2 DUP4 DUP12 GAS CALL DUP1 ISZERO PUSH2 0xB9D JUMPI DUP8 SWAP5 SWAP3 PUSH1 0x40 PUSH1 0x20 SWAP11 PUSH32 0x6CFF86004AB7A564DB40806C1E028B796E9021EEE0E9EAE98470CEF4511231C0 SWAP7 SWAP5 PUSH2 0xB30 SWAP5 PUSH2 0x118B JUMPI JUMPDEST POP PUSH2 0xAE7 DUP4 PUSH2 0x16C5 JUMP JUMPDEST PUSH2 0x1194 SWAP1 PUSH2 0x1326 JUMP JUMPDEST CODESIZE PUSH2 0x1181 JUMP JUMPDEST SWAP5 PUSH2 0x1084 JUMP JUMPDEST SWAP5 PUSH2 0x105E JUMP JUMPDEST POP DUP7 SLOAD PUSH1 0x1 PUSH1 0x1 PUSH1 0xA0 SHL SUB AND CALLER EQ PUSH2 0xFDF JUMP JUMPDEST SWAP2 DUP2 PUSH1 0x1F DUP5 ADD SLT ISZERO PUSH2 0xF4B JUMPI DUP3 CALLDATALOAD SWAP2 PUSH1 0x1 PUSH1 0x1 PUSH1 0x40 SHL SUB DUP4 GT PUSH2 0xF4B JUMPI PUSH1 0x20 DUP4 DUP2 DUP7 ADD SWAP6 ADD ADD GT PUSH2 0xF4B JUMPI JUMP JUMPDEST PUSH1 0x64 CALLDATALOAD SWAP1 PUSH1 0x1 PUSH1 0x1 PUSH1 0xA0 SHL SUB DUP3 AND DUP3 SUB PUSH2 0xF4B JUMPI JUMP JUMPDEST PUSH1 0x84 CALLDATALOAD SWAP1 PUSH1 0x1 PUSH1 0x1 PUSH1 0xA0 SHL SUB DUP3 AND DUP3 SUB PUSH2 0xF4B JUMPI JUMP JUMPDEST PUSH1 0x4 CALLDATALOAD SWAP1 PUSH1 0x1 PUSH1 0x1 PUSH1 0xA0 SHL SUB DUP3 AND DUP3 SUB PUSH2 0xF4B JUMPI JUMP JUMPDEST CALLDATALOAD SWAP1 DUP2 ISZERO ISZERO DUP3 SUB PUSH2 0xF4B JUMPI JUMP JUMPDEST PUSH1 0x3 SLOAD DUP2 LT ISZERO PUSH2 0x126C JUMPI PUSH1 0x3 PUSH1 0x0 MSTORE PUSH32 0xC2575A0E9E593C00F959F8C92F12DB2869C3395A3B0502D05E2516446F71F85B ADD SWAP1 PUSH1 0x0 SWAP1 JUMP JUMPDEST PUSH4 0x4E487B71 PUSH1 0xE0 SHL PUSH1 0x0 MSTORE PUSH1 0x32 PUSH1 0x4 MSTORE PUSH1 0x24 PUSH1 0x0 REVERT JUMPDEST DUP1 SLOAD DUP3 LT ISZERO PUSH2 0x126C JUMPI PUSH1 0x0 MSTORE PUSH1 0x20 PUSH1 0x0 KECCAK256 ADD SWAP1 PUSH1 0x0 SWAP1 JUMP JUMPDEST PUSH1 0x20 SWAP1 DUP2 PUSH1 0x40 DUP2 DUP4 ADD SWAP3 DUP3 DUP2 MSTORE DUP6 MLOAD DUP1 SWAP5 MSTORE ADD SWAP4 ADD SWAP2 PUSH1 0x0 JUMPDEST DUP3 DUP2 LT PUSH2 0x12C1 JUMPI POP POP POP POP SWAP1 JUMP JUMPDEST DUP4 MLOAD PUSH1 0x1 PUSH1 0x1 PUSH1 0xA0 SHL SUB AND DUP6 MSTORE SWAP4 DUP2 ADD SWAP4 SWAP3 DUP2 ADD SWAP3 PUSH1 0x1 ADD PUSH2 0x12B3 JUMP JUMPDEST PUSH1 0x0 JUMPDEST DUP4 DUP2 LT PUSH2 0x12F1 JUMPI POP POP PUSH1 0x0 SWAP2 ADD MSTORE JUMP JUMPDEST DUP2 DUP2 ADD MLOAD DUP4 DUP3 ADD MSTORE PUSH1 0x20 ADD PUSH2 0x12E1 JUMP JUMPDEST SWAP1 PUSH1 0x20 SWAP2 PUSH2 0x131A DUP2 MLOAD DUP1 SWAP3 DUP2 DUP6 MSTORE DUP6 DUP1 DUP7 ADD SWAP2 ADD PUSH2 0x12DE JUMP JUMPDEST PUSH1 0x1F ADD PUSH1 0x1F NOT AND ADD ADD SWAP1 JUMP JUMPDEST PUSH1 0x1 PUSH1 0x1 PUSH1 0x40 SHL SUB DUP2 GT PUSH2 0x7F4 JUMPI PUSH1 0x40 MSTORE JUMP JUMPDEST SWAP1 PUSH1 0x1F DUP1 NOT SWAP2 ADD AND DUP2 ADD SWAP1 DUP2 LT PUSH1 0x1 PUSH1 0x1 PUSH1 0x40 SHL SUB DUP3 GT OR PUSH2 0x7F4 JUMPI PUSH1 0x40 MSTORE JUMP JUMPDEST PUSH1 0x1 PUSH1 0x1 PUSH1 0x40 SHL SUB DUP2 GT PUSH2 0x7F4 JUMPI PUSH1 0x1F ADD PUSH1 0x1F NOT AND PUSH1 0x20 ADD SWAP1 JUMP JUMPDEST PUSH1 0x0 SLOAD PUSH1 0x1 PUSH1 0x1 PUSH1 0xA0 SHL SUB AND CALLER SUB PUSH2 0x1389 JUMPI JUMP JUMPDEST PUSH1 0x40 MLOAD PUSH4 0x118CDAA7 PUSH1 0xE0 SHL DUP2 MSTORE CALLER PUSH1 0x4 DUP3 ADD MSTORE PUSH1 0x24 SWAP1 REVERT JUMPDEST ISZERO PUSH2 0x13A8 JUMPI JUMP JUMPDEST PUSH1 0x40 MLOAD PUSH3 0x461BCD PUSH1 0xE5 SHL DUP2 MSTORE PUSH1 0x20 PUSH1 0x4 DUP3 ADD MSTORE PUSH1 0x15 PUSH1 0x24 DUP3 ADD MSTORE PUSH21 0x2737BA1030BABA3437B934BD32B21034B9B9BAB2B9 PUSH1 0x59 SHL PUSH1 0x44 DUP3 ADD MSTORE PUSH1 0x64 SWAP1 REVERT JUMPDEST SWAP1 CALLDATALOAD SWAP1 PUSH1 0x1E NOT DUP2 CALLDATASIZE SUB ADD DUP3 SLT ISZERO PUSH2 0xF4B JUMPI ADD DUP1 CALLDATALOAD SWAP1 PUSH1 0x1 PUSH1 0x1 PUSH1 0x40 SHL SUB DUP3 GT PUSH2 0xF4B JUMPI PUSH1 0x20 ADD SWAP2 DUP2 CALLDATASIZE SUB DUP4 SGT PUSH2 0xF4B JUMPI JUMP JUMPDEST ISZERO PUSH2 0x141E JUMPI JUMP JUMPDEST PUSH1 0x40 MLOAD PUSH3 0x461BCD PUSH1 0xE5 SHL DUP2 MSTORE PUSH1 0x20 PUSH1 0x4 DUP3 ADD MSTORE PUSH1 0x11 PUSH1 0x24 DUP3 ADD MSTORE PUSH17 0x496E76616C6964204953494E20636F6465 PUSH1 0x78 SHL PUSH1 0x44 DUP3 ADD MSTORE PUSH1 0x64 SWAP1 REVERT JUMPDEST ISZERO PUSH2 0x145E JUMPI JUMP JUMPDEST PUSH1 0x40 MLOAD PUSH3 0x461BCD PUSH1 0xE5 SHL DUP2 MSTORE PUSH1 0x20 PUSH1 0x4 DUP3 ADD MSTORE PUSH1 0x13 PUSH1 0x24 DUP3 ADD MSTORE PUSH19 0x4953494E20616C726561647920657869737473 PUSH1 0x68 SHL PUSH1 0x44 DUP3 ADD MSTORE PUSH1 0x64 SWAP1 REVERT JUMPDEST ISZERO PUSH2 0x14A0 JUMPI JUMP JUMPDEST PUSH1 0x40 MLOAD PUSH3 0x461BCD PUSH1 0xE5 SHL DUP2 MSTORE PUSH1 0x20 PUSH1 0x4 DUP3 ADD MSTORE PUSH1 0x16 PUSH1 0x24 DUP3 ADD MSTORE PUSH22 0x14185E5B595B9D081D1BDAD95B881C995C5D5A5C9959 PUSH1 0x52 SHL PUSH1 0x44 DUP3 ADD MSTORE PUSH1 0x64 SWAP1 REVERT JUMPDEST SWAP1 DUP1 PUSH1 0x20 SWAP4 SWAP3 DUP2 DUP5 MSTORE DUP5 DUP5 ADD CALLDATACOPY PUSH1 0x0 DUP3 DUP3 ADD DUP5 ADD MSTORE PUSH1 0x1F ADD PUSH1 0x1F NOT AND ADD ADD SWAP1 JUMP JUMPDEST CALLDATALOAD SWAP1 PUSH1 0xFF DUP3 AND DUP3 SUB PUSH2 0xF4B JUMPI JUMP JUMPDEST SWAP1 CALLDATALOAD PUSH1 0x1E NOT DUP3 CALLDATASIZE SUB ADD DUP2 SLT ISZERO PUSH2 0xF4B JUMPI ADD PUSH1 0x20 DUP2 CALLDATALOAD SWAP2 ADD SWAP2 PUSH1 0x1 PUSH1 0x1 PUSH1 0x40 SHL SUB DUP3 GT PUSH2 0xF4B JUMPI DUP2 CALLDATASIZE SUB DUP4 SGT PUSH2 0xF4B JUMPI JUMP JUMPDEST SWAP8 SWAP10 SWAP9 SWAP5 SWAP7 SWAP6 SWAP4 SWAP1 PUSH2 0x155D SWAP1 PUSH2 0x156B SWAP5 SWAP4 PUSH1 0xE0 DUP12 MSTORE PUSH1 0xE0 DUP12 ADD SWAP2 PUSH2 0x14DE JUMP JUMPDEST SWAP2 DUP9 DUP4 SUB PUSH1 0x20 DUP11 ADD MSTORE PUSH2 0x14DE JUMP JUMPDEST SWAP4 DUP6 DUP6 SUB PUSH1 0x40 DUP8 ADD MSTORE DUP1 CALLDATALOAD DUP6 MSTORE PUSH1 0x20 DUP2 ADD CALLDATALOAD PUSH1 0x20 DUP7 ADD MSTORE PUSH1 0x40 DUP2 ADD CALLDATALOAD PUSH1 0x40 DUP7 ADD MSTORE PUSH1 0x60 DUP2 ADD CALLDATALOAD PUSH1 0x60 DUP7 ADD MSTORE PUSH1 0xFF PUSH2 0x15A4 PUSH1 0x80 DUP4 ADD PUSH2 0x14FF JUMP JUMPDEST AND PUSH1 0x80 DUP7 ADD MSTORE PUSH1 0xA0 DUP2 ADD CALLDATALOAD PUSH1 0xA0 DUP7 ADD MSTORE PUSH1 0xC0 DUP2 ADD CALLDATALOAD PUSH1 0x5 DUP2 LT ISZERO PUSH2 0xF4B JUMPI PUSH1 0xC0 DUP7 ADD MSTORE PUSH1 0xE0 DUP2 ADD CALLDATALOAD PUSH1 0xE0 DUP7 ADD MSTORE PUSH2 0x100 PUSH1 0xFF PUSH2 0x15E1 DUP3 DUP5 ADD PUSH2 0x14FF JUMP JUMPDEST AND SWAP1 DUP7 ADD MSTORE PUSH2 0x120 DUP1 DUP3 ADD CALLDATALOAD SWAP1 DUP7 ADD MSTORE PUSH2 0x140 SWAP5 DUP6 DUP3 ADD CALLDATALOAD PUSH1 0x3 DUP2 LT ISZERO PUSH2 0xF4B JUMPI PUSH1 0xC0 SWAP7 DUP3 ADD MSTORE PUSH2 0x166A PUSH2 0x164E PUSH2 0x1632 PUSH2 0x160 PUSH2 0x1620 DUP2 DUP8 ADD DUP8 PUSH2 0x150D JUMP JUMPDEST SWAP1 SWAP2 PUSH2 0x220 DUP1 SWAP2 DUP9 ADD MSTORE DUP7 ADD SWAP2 PUSH2 0x14DE JUMP JUMPDEST PUSH2 0x180 PUSH2 0x1641 DUP2 DUP8 ADD DUP8 PUSH2 0x150D JUMP JUMPDEST SWAP2 DUP7 DUP5 SUB SWAP1 DUP8 ADD MSTORE PUSH2 0x14DE JUMP JUMPDEST PUSH2 0x1A0 PUSH2 0x165D DUP2 DUP7 ADD DUP7 PUSH2 0x150D JUMP JUMPDEST SWAP2 DUP6 DUP5 SUB SWAP1 DUP7 ADD MSTORE PUSH2 0x14DE JUMP JUMPDEST SWAP2 PUSH2 0x1C0 PUSH2 0x1679 DUP2 DUP4 ADD PUSH2 0x1228 JUMP JUMPDEST ISZERO ISZERO SWAP1 DUP4 ADD MSTORE PUSH2 0x1E0 PUSH2 0x168D DUP2 DUP4 ADD PUSH2 0x1228 JUMP JUMPDEST ISZERO ISZERO SWAP1 DUP4 ADD MSTORE PUSH2 0x200 SWAP1 DUP2 ADD CALLDATALOAD SWAP2 ADD MSTORE PUSH1 0x1 PUSH1 0x1 PUSH1 0xA0 SHL SUB SWAP2 DUP3 AND PUSH1 0x60 DUP8 ADD MSTORE SWAP3 DUP2 AND PUSH1 0x80 DUP7 ADD MSTORE SWAP6 DUP7 AND PUSH1 0xA0 DUP6 ADD MSTORE SWAP1 SWAP5 AND SWAP2 ADD MSTORE JUMP JUMPDEST PUSH1 0x3 SLOAD PUSH1 0x1 PUSH1 0x40 SHL DUP2 LT ISZERO PUSH2 0x7F4 JUMPI DUP1 PUSH1 0x1 PUSH2 0x16E4 SWAP3 ADD PUSH1 0x3 SSTORE PUSH2 0x1235 JUMP JUMPDEST DUP2 SWAP3 SWAP2 SLOAD SWAP1 PUSH1 0x3 SHL SWAP2 PUSH1 0x1 DUP1 PUSH1 0xA0 SHL SUB DUP1 SWAP2 AND DUP4 SHL SWAP3 SHL NOT AND OR SWAP1 SSTORE JUMP JUMPDEST DUP1 SLOAD PUSH1 0x1 PUSH1 0x40 SHL DUP2 LT ISZERO PUSH2 0x7F4 JUMPI PUSH2 0x16E4 SWAP2 PUSH1 0x1 DUP3 ADD DUP2 SSTORE PUSH2 0x1282 JUMP JUMPDEST SWAP3 SWAP1 SWAP4 PUSH2 0x173E PUSH1 0x60 SWAP6 PUSH2 0x174C SWAP5 SWAP10 SWAP9 SWAP8 SWAP10 PUSH1 0x80 DUP8 MSTORE PUSH1 0x80 DUP8 ADD SWAP2 PUSH2 0x14DE JUMP JUMPDEST SWAP2 DUP5 DUP4 SUB PUSH1 0x20 DUP7 ADD MSTORE PUSH2 0x14DE JUMP JUMPDEST SWAP5 PUSH1 0x40 DUP3 ADD MSTORE ADD MSTORE JUMP JUMPDEST SWAP2 SWAP1 DUP2 LT ISZERO PUSH2 0x126C JUMPI PUSH1 0x5 SHL ADD SWAP1 JUMP JUMPDEST CALLDATALOAD PUSH1 0x1 PUSH1 0x1 PUSH1 0xA0 SHL SUB DUP2 AND DUP2 SUB PUSH2 0xF4B JUMPI SWAP1 JUMP JUMPDEST DUP2 PUSH1 0x1F DUP3 ADD SLT ISZERO PUSH2 0xF4B JUMPI DUP1 MLOAD PUSH2 0x1790 DUP2 PUSH2 0x135A JUMP JUMPDEST SWAP3 PUSH2 0x179E PUSH1 0x40 MLOAD SWAP5 DUP6 PUSH2 0x1339 JUMP JUMPDEST DUP2 DUP5 MSTORE PUSH1 0x20 DUP3 DUP5 ADD ADD GT PUSH2 0xF4B JUMPI PUSH2 0x17BC SWAP2 PUSH1 0x20 DUP1 DUP6 ADD SWAP2 ADD PUSH2 0x12DE JUMP JUMPDEST SWAP1 JUMP JUMPDEST SWAP1 PUSH1 0x20 DUP3 DUP3 SUB SLT PUSH2 0xF4B JUMPI DUP2 MLOAD PUSH1 0x1 PUSH1 0x1 PUSH1 0x40 SHL SUB DUP2 GT PUSH2 0xF4B JUMPI PUSH2 0x17BC SWAP3 ADD PUSH2 0x177A JUMP JUMPDEST MLOAD SWAP1 PUSH1 0xFF DUP3 AND DUP3 SUB PUSH2 0xF4B JUMPI JUMP JUMPDEST MLOAD SWAP1 DUP2 ISZERO ISZERO DUP3 SUB PUSH2 0xF4B JUMPI JUMP INVALID LOG2 PUSH5 0x6970667358 0x22 SLT KECCAK256 0xD LT 0xAD 0x21 RETURNDATACOPY JUMPDEST 0x23 CODESIZE 0xC9 SGT 0xEE 0x2D SWAP15 DUP14 LT BLOCKHASH SWAP15 PUSH6 0x5D05BCF72423 0x1E 0x26 PUSH9 0x42AD9E329F64736F6C PUSH4 0x43000814 STOP CALLER "},"methodIdentifiers":{"allDebentures(uint256)":"496b67d4","authorizedIssuers(address)":"f731fa0f","batchAuthorizeIssuers(address[])":"c111db89","createDebenture(string,string,(uint256,uint256,uint256,uint256,uint8,uint256,uint8,uint256,uint8,uint256,uint8,string,string,string,bool,bool,bytes32),address,address)":"885ddcbb","createDeterministicDebenture(string,string,(uint256,uint256,uint256,uint256,uint8,uint256,uint8,uint256,uint8,uint256,uint8,string,string,string,bool,bool,bytes32),address,address,bytes32)":"289e14ec","debenturesByISIN(string)":"bc8aa678","defaultPaymentToken()":"6412173e","getAllDebentures()":"a3489743","getDebentureInfo(uint256)":"8d549846","getIssuerDebentures(address)":"76bb7d5e","getTotalDebentures()":"dfd7d317","implementation()":"5c60da1b","isinExists(string)":"ea5fa019","issuerDebentures(address,uint256)":"d6ac1d4c","oracle()":"7dc0d1d0","owner()":"8da5cb5b","predictDeterministicAddress(bytes32)":"5414dff0","renounceOwnership()":"715018a6","setAuthorizedIssuer(address,bool)":"357061e1","setDefaultPaymentToken(address)":"f74b059e","setOracle(address)":"7adbf973","transferOwnership(address)":"f2fde38b"}}}}}