{"contracts/DebentureFactory.sol":{"DebentureFactory":{"abi":[{"inputs":[{"internalType":"address","name":"_oracle","type":"address"},{"internalType":"address","name":"_defaultPaymentToken","type":"address"}],"stateMutability":"nonpayable","type":"constructor"},{"inputs":[{"internalType":"address","name":"owner","type":"address"}],"name":"OwnableInvalidOwner","type":"error"},{"inputs":[{"internalType":"address","name":"account","type":"address"}],"name":"OwnableUnauthorizedAccount","type":"error"},{"anonymous":false,"inputs":[{"indexed":true,"internalType":"address","name":"debentureAddress","type":"address"},{"indexed":true,"internalType":"string","name":"isinCode","type":"string"},{"indexed":false,"internalType":"string","name":"name","type":"string"},{"indexed":false,"internalType":"string","name":"symbol","type":"string"},{"indexed":true,"internalType":"address","name":"issuer","type":"address"},{"indexed":false,"internalType":"uint256","name":"vne","type":"uint256"},{"indexed":false,"internalType":"uint256","name":"totalSupply","type":"uint256"}],"name":"DebentureCreated","type":"event"},{"anonymous":false,"inputs":[{"indexed":true,"internalType":"address","name":"previousOwner","type":"address"},{"indexed":true,"internalType":"address","name":"newOwner","type":"address"}],"name":"OwnershipTransferred","type":"event"},{"anonymous":false,"inputs":[{"indexed":true,"internalType":"string","name":"templateId","type":"string"}],"name":"TemplateDeleted","type":"event"},{"anonymous":false,"inputs":[{"indexed":true,"internalType":"string","name":"templateId","type":"string"},{"indexed":false,"internalType":"uint256","name":"couponFrequencyDays","type":"uint256"},{"indexed":false,"internalType":"enum BrazilianDebenture.AmortizationType","name":"amortType","type":"uint8"}],"name":"TemplateUpdated","type":"event"},{"inputs":[{"internalType":"uint256","name":"","type":"uint256"}],"name":"allDebentures","outputs":[{"internalType":"address","name":"","type":"address"}],"stateMutability":"view","type":"function"},{"inputs":[{"internalType":"string","name":"_name","type":"string"},{"internalType":"string","name":"_symbol","type":"string"},{"components":[{"internalType":"uint256","name":"vne","type":"uint256"},{"internalType":"uint256","name":"totalSupplyUnits","type":"uint256"},{"internalType":"uint256","name":"issueDate","type":"uint256"},{"internalType":"uint256","name":"maturityDate","type":"uint256"},{"internalType":"uint8","name":"anniversaryDay","type":"uint8"},{"internalType":"uint256","name":"lockUpEndDate","type":"uint256"},{"internalType":"enum BrazilianDebenture.RateType","name":"rateType","type":"uint8"},{"internalType":"uint256","name":"fixedRate","type":"uint256"},{"internalType":"uint256","name":"percentDI","type":"uint256"},{"internalType":"uint256","name":"couponFrequencyDays","type":"uint256"},{"internalType":"enum BrazilianDebenture.AmortizationType","name":"amortType","type":"uint8"},{"internalType":"string","name":"isinCode","type":"string"},{"internalType":"string","name":"cetipCode","type":"string"},{"internalType":"string","name":"series","type":"string"},{"internalType":"bool","name":"hasRepactuacao","type":"bool"},{"internalType":"bool","name":"hasEarlyRedemption","type":"bool"},{"internalType":"bytes32","name":"comboId","type":"bytes32"}],"internalType":"struct BrazilianDebenture.DebentureTerms","name":"_terms","type":"tuple"},{"internalType":"address","name":"_paymentToken","type":"address"},{"internalType":"address","name":"_trustee","type":"address"}],"name":"createDebenture","outputs":[{"internalType":"address","name":"debentureAddress","type":"address"}],"stateMutability":"nonpayable","type":"function"},{"inputs":[{"internalType":"string","name":"_templateId","type":"string"},{"internalType":"string","name":"_name","type":"string"},{"internalType":"string","name":"_symbol","type":"string"},{"components":[{"internalType":"uint256","name":"vne","type":"uint256"},{"internalType":"uint256","name":"totalSupplyUnits","type":"uint256"},{"internalType":"uint256","name":"issueDate","type":"uint256"},{"internalType":"uint256","name":"maturityDate","type":"uint256"},{"internalType":"uint8","name":"anniversaryDay","type":"uint8"},{"internalType":"uint256","name":"lockUpEndDate","type":"uint256"},{"internalType":"enum BrazilianDebenture.RateType","name":"rateType","type":"uint8"},{"internalType":"uint256","name":"fixedRate","type":"uint256"},{"internalType":"uint256","name":"percentDI","type":"uint256"},{"internalType":"uint256","name":"couponFrequencyDays","type":"uint256"},{"internalType":"enum BrazilianDebenture.AmortizationType","name":"amortType","type":"uint8"},{"internalType":"string","name":"isinCode","type":"string"},{"internalType":"string","name":"cetipCode","type":"string"},{"internalType":"string","name":"series","type":"string"},{"internalType":"bool","name":"hasRepactuacao","type":"bool"},{"internalType":"bool","name":"hasEarlyRedemption","type":"bool"},{"internalType":"bytes32","name":"comboId","type":"bytes32"}],"internalType":"struct BrazilianDebenture.DebentureTerms","name":"_terms","type":"tuple"},{"internalType":"address","name":"_paymentToken","type":"address"}],"name":"createDebentureFromTemplate","outputs":[{"internalType":"address","name":"debentureAddress","type":"address"}],"stateMutability":"nonpayable","type":"function"},{"inputs":[{"internalType":"string","name":"_templateId","type":"string"}],"name":"deactivateTemplate","outputs":[],"stateMutability":"nonpayable","type":"function"},{"inputs":[{"internalType":"string","name":"","type":"string"}],"name":"debenturesByISIN","outputs":[{"internalType":"address","name":"","type":"address"}],"stateMutability":"view","type":"function"},{"inputs":[],"name":"defaultPaymentToken","outputs":[{"internalType":"address","name":"","type":"address"}],"stateMutability":"view","type":"function"},{"inputs":[],"name":"getAllTemplateIds","outputs":[{"internalType":"string[]","name":"","type":"string[]"}],"stateMutability":"view","type":"function"},{"inputs":[{"internalType":"uint256","name":"_index","type":"uint256"}],"name":"getDebentureAtIndex","outputs":[{"internalType":"address","name":"","type":"address"}],"stateMutability":"view","type":"function"},{"inputs":[{"internalType":"string","name":"_isinCode","type":"string"}],"name":"getDebentureByISIN","outputs":[{"internalType":"address","name":"","type":"address"}],"stateMutability":"view","type":"function"},{"inputs":[],"name":"getDebentureCount","outputs":[{"internalType":"uint256","name":"","type":"uint256"}],"stateMutability":"view","type":"function"},{"inputs":[{"internalType":"address","name":"_issuer","type":"address"}],"name":"getIssuerDebentures","outputs":[{"internalType":"address[]","name":"","type":"address[]"}],"stateMutability":"view","type":"function"},{"inputs":[{"internalType":"string","name":"_templateId","type":"string"}],"name":"getTemplate","outputs":[{"components":[{"internalType":"string","name":"name","type":"string"},{"internalType":"string","name":"description","type":"string"},{"internalType":"uint256","name":"couponFrequencyDays","type":"uint256"},{"internalType":"enum BrazilianDebenture.AmortizationType","name":"amortType","type":"uint8"},{"internalType":"bool","name":"isActive","type":"bool"},{"internalType":"uint256","name":"createdAt","type":"uint256"}],"internalType":"struct DebentureFactory.DebentureTemplate","name":"","type":"tuple"}],"stateMutability":"view","type":"function"},{"inputs":[],"name":"getTemplateCount","outputs":[{"internalType":"uint256","name":"","type":"uint256"}],"stateMutability":"view","type":"function"},{"inputs":[{"internalType":"address","name":"","type":"address"},{"internalType":"uint256","name":"","type":"uint256"}],"name":"issuerDebentures","outputs":[{"internalType":"address","name":"","type":"address"}],"stateMutability":"view","type":"function"},{"inputs":[],"name":"oracle","outputs":[{"internalType":"contract IBrazilianMacroOracle","name":"","type":"address"}],"stateMutability":"view","type":"function"},{"inputs":[],"name":"owner","outputs":[{"internalType":"address","name":"","type":"address"}],"stateMutability":"view","type":"function"},{"inputs":[{"internalType":"string","name":"_templateId","type":"string"}],"name":"reactivateTemplate","outputs":[],"stateMutability":"nonpayable","type":"function"},{"inputs":[],"name":"renounceOwnership","outputs":[],"stateMutability":"nonpayable","type":"function"},{"inputs":[{"internalType":"address","name":"_newPaymentToken","type":"address"}],"name":"setDefaultPaymentToken","outputs":[],"stateMutability":"nonpayable","type":"function"},{"inputs":[{"internalType":"address","name":"_newOracle","type":"address"}],"name":"setOracle","outputs":[],"stateMutability":"nonpayable","type":"function"},{"inputs":[{"internalType":"uint256","name":"","type":"uint256"}],"name":"templateIds","outputs":[{"internalType":"string","name":"","type":"string"}],"stateMutability":"view","type":"function"},{"inputs":[{"internalType":"string","name":"","type":"string"}],"name":"templates","outputs":[{"internalType":"string","name":"name","type":"string"},{"internalType":"string","name":"description","type":"string"},{"internalType":"uint256","name":"couponFrequencyDays","type":"uint256"},{"internalType":"enum BrazilianDebenture.AmortizationType","name":"amortType","type":"uint8"},{"internalType":"bool","name":"isActive","type":"bool"},{"internalType":"uint256","name":"createdAt","type":"uint256"}],"stateMutability":"view","type":"function"},{"inputs":[{"internalType":"address","name":"newOwner","type":"address"}],"name":"transferOwnership","outputs":[],"stateMutability":"nonpayable","type":"function"},{"inputs":[{"internalType":"string","name":"_templateId","type":"string"},{"internalType":"string","name":"_name","type":"string"},{"internalType":"string","name":"_description","type":"string"},{"internalType":"uint256","name":"_couponFrequencyDays","type":"uint256"},{"internalType":"enum BrazilianDebenture.AmortizationType","name":"_amortType","type":"uint8"}],"name":"upsertTemplate","outputs":[],"stateMutability":"nonpayable","type":"function"}],"evm":{"bytecode":{"linkReferences":{},"object":"6080346200012757601f6200739638819003918201601f19168301916001600160401b038311848410176200012c57808492604094855283398101031262000127576200005a6020620000528362000142565b920162000142565b9033156200010e576000549160018060a01b03199233848216176000556040519060018060a01b03938491823391167f8be0079c531659141344cd1fd0a4f28419497f9722a3daafe3b4186f6b6457e0600080a316908115620000db57508360015416176001551690600254161760025560405161723e9081620001588239f35b62461bcd60e51b815260206004820152600e60248201526d496e76616c6964206f7261636c6560901b6044820152606490fd5b604051631e4fbdf760e01b815260006004820152602490fd5b600080fd5b634e487b7160e01b600052604160045260246000fd5b51906001600160a01b0382168203620001275756fe608060405260043610156200001357600080fd5b60003560e01c80631ce3df9514620017d7578063496b67d414620017a95780635016959a14620017895780635796c00b146200136e5780636412173e1462001343578063715018a614620012e657806376bb7d5e146200122957806378e212731462000c4b5780637adbf9731462000bc65780637d67cd6f1462000a6a5780637dc0d1d01462000a3f5780638da5cb5b1462000a14578063ae24ccbc14620008fe578063b22beeda1462000821578063bb4c40011462000778578063bc8aa67814620002cd578063cea8426514620006f6578063d6ac1d4c1462000696578063e2156e051462000676578063e3726aa1146200033c578063f2295bfb14620002cd578063f2fde38b146200023d578063f36cb7a714620001ce5763f74b059e146200013d57600080fd5b34620001c9576020366003190112620001c9576200015a62001b44565b6200016462001ccc565b6001600160a01b031680156200018c576001600160601b0360a01b6002541617600255600080f35b60405162461bcd60e51b815260206004820152601560248201527424b73b30b634b2103830bcb6b2b73a103a37b5b2b760591b6044820152606490fd5b600080fd5b34620001c9576020366003190112620001c957600435600654811015620001c957620001fa906200197b565b62000227576200020e620002239162001c1a565b60405191829160208352602083019062001b80565b0390f35b634e487b7160e01b600052600060045260246000fd5b34620001c9576020366003190112620001c9576200025a62001b44565b6200026462001ccc565b6001600160a01b03908116908115620002b457600054826001600160601b0360a01b821617600055167f8be0079c531659141344cd1fd0a4f28419497f9722a3daafe3b4186f6b6457e0600080a3005b604051631e4fbdf760e01b815260006004820152602490fd5b34620001c9576020366003190112620001c9576004356001600160401b038111620001c957620003046020913690600401620018d2565b816200031a604051928381519384920162001b5b565b600390820190815281900382019020546040516001600160a01b039091168152f35b34620001c95760a0366003190112620001c9576001600160401b03600435818111620001c95762000372903690600401620018d2565b6024908135838111620001c9576200038f903690600401620018d2565b92604435908111620001c957620003ab903690600401620018d2565b9060643592608435926003841015620001c957620003c862001ccc565b8251156200063c578415620005f857600495604051858551886200048e60209b858d8097818d0196620003fd81838a62001b5b565b810160058152030190200154159687600014620005c657620004836200047042975b604051996200042e8b62001894565b8a52808a0193845260408a019586526200044d60608b01988962001d7b565b60808a01966001885260a08b01998a528d60405193849283925192839162001b5b565b8101600581520301902097518862001d88565b516001870162001d88565b516002850155600384019151906003821015620005b15790829160ff61ff0060049695549251151560081b1692169061ffff1916171790555191015562000517575b509162000514604092620005057f1d380d2d9f64c06e860786cb63840222c2d06336e472105c7207cee9c406b0bf9562001d59565b95845193845283019062001ba7565ba2005b600654600160401b8110156200059c578060016200053992016006556200197b565b91909162000588575060409262000505836200057c7f1d380d2d9f64c06e860786cb63840222c2d06336e472105c7207cee9c406b0bf9795620005149562001d88565b939550509250620004d0565b634e487b7160e01b60005260006004526000fd5b50634e487b7160e01b60009081526041600452fd5b86634e487b7160e01b60005260216004526000fd5b620004836200047060048c89604051809251620005e581838d62001b5b565b810160058152030190200154976200041f565b60405162461bcd60e51b8152602060048201526018818401527f496e76616c696420636f75706f6e206672657175656e637900000000000000006044820152606490fd5b60405162461bcd60e51b81526020600482015260138184015272125b9d985b1a59081d195b5c1b185d19481251606a1b6044820152606490fd5b34620001c9576000366003190112620001c9576020600754604051908152f35b34620001c9576040366003190112620001c957620006b362001b44565b6024359060018060a01b03809116600052600460205260406000208054831015620001c957602092620006e691620019b3565b9190546040519260031b1c168152f35b34620001c9576020366003190112620001c9576004356007548110156200073d57620007246020916200192d565b905460405160039290921b1c6001600160a01b03168152f35b60405162461bcd60e51b8152602060048201526013602482015272496e646578206f7574206f6620626f756e647360681b6044820152606490fd5b34620001c9576020366003190112620001c9576004356001600160401b038111620001c957620008056020620007b56003933690600401620018d2565b620007bf62001ccc565b60405190620007f36004825193858181860196620007df81838a62001b5b565b810160058152030190200154151562001ea7565b60405193849283925192839162001b5b565b60059082019081520301902001805461ff001916610100179055005b34620001c9576020366003190112620001c9576004356001600160401b038111620001c95762000874602062000860620008c4933690600401620018d2565b816040519382858094519384920162001b5b565b81016005815203019020620008898162001c1a565b90620008986001820162001c1a565b60ff600283015492620008d3600460038301549201549360405197889760c0895260c089019062001b80565b90878203602089015262001b80565b936040860152620008ea6060860183831662001ba7565b60081c161515608084015260a08301520390f35b34620001c9576000366003190112620001c9576006546001600160401b038111620009fe57604051906020906200093b828260051b0184620018b0565b808352818301908160066000527ff652222313e28459528d920b65115c16c04f3efc82aaedc97be59f3f377c0d3f6000915b838310620009d95750505050604051918083019381845251809452604083019360408160051b85010192916000955b828710620009aa5785850386f35b909192938280620009c8600193603f198a8203018652885162001b80565b96019201960195929190926200099c565b6001868192620009ec859a999a62001c1a565b8152019201920191909594956200096d565b634e487b7160e01b600052604160045260246000fd5b34620001c9576000366003190112620001c9576000546040516001600160a01b039091168152602090f35b34620001c9576000366003190112620001c9576001546040516001600160a01b039091168152602090f35b34620001c957602080600319360112620001c957600435906001600160401b038211620001c95762000aec8162000aa860c0943690600401620018d2565b600060a060405162000aba8162001894565b606081526060858201528260408201528260608201528260808201520152816040519382858094519384920162001b5b565b810160058152030190206040519162000b058362001894565b62000b108262001c1a565b835262000b206001830162001c1a565b81840190815262000bb46002840154936040860194855262000ba160038201549362000b8d600460608a019462000b5b60ff89168762001d7b565b60ff60808c019860081c161515885201549660a08a019788526040519a8b9a828c5251918b015260e08a019062001b80565b9051888203601f190160408a015262001b80565b9451606087015251608086019062001ba7565b51151560a08401525160c08301520390f35b34620001c9576020366003190112620001c95762000be362001b44565b62000bed62001ccc565b6001600160a01b0316801562000c15576001600160601b0360a01b6001541617600155600080f35b60405162461bcd60e51b815260206004820152600e60248201526d496e76616c6964206f7261636c6560901b6044820152606490fd5b34620001c95760a0366003190112620001c9576004356001600160401b038111620001c95762000c80903690600401620018d2565b6024356001600160401b038111620001c95762000ca2903690600401620018d2565b906044356001600160401b038111620001c95762000cc5903690600401620018d2565b906064356001600160401b038111620001c95762000ce8903690600401620019da565b9062000d0e602062000cf962001b2d565b92816040519382858094519384920162001b5b565b810160058152030190206040519062000d278262001894565b62000d328162001c1a565b825262000d426001820162001c1a565b60208301526002810154906040830191825260038101549260a0600460ff606084019662000d738282168962001d7b565b60081c161593841560808501520154910152620011e45751610120840152516003811015620010985762000dac90610140840162001d7b565b835115620011b0578251156200117a57600c610160830151510362001141576101608201516001600160a01b039062000de59062001bb5565b541662001106576001600160a01b03811615620010f3575b6001600160a01b03811615620010ae5760018060a01b0360015416604051918261531f8101106001600160401b0361531f85011117620009fe5761531f62001eea843960e061531f84015262000e7662000e5f60e061531f8601018862001b80565b61531f85018103602061531f870101528662001b80565b9061531f84018203604061531f860101528451825260208501516020830152604085015160408301526060850151606083015260ff608086015116608083015260a085015160a083015260c08501519260058410156200109857849360c084015260e086015160e0840152610100808701519084015261012086015161012084015262000f0e61014087015161014085019062001ba7565b62000f5d62000f4862000f336101608901516102208061016089015287019062001b80565b610180808a0151908783039088015262001b80565b6101a080890151908683039087015262001b80565b926101c0808801511515908201526101e08088015115159082015261020080880151910152606061531f8501015260018060a01b0316608061531f840101523360a061531f840101523360c061531f8401015203906000f09182156200108c576020937f6cff86004ab7a564db40806c1e028b796e9021eee0e9eae98470cef4511231c09360018060a01b031693849162000ffd61016086015162001bb5565b836001600160601b0360a01b82541617905533600052600487526200102783604060002062001d39565b620010328362001cf9565b610160850151620010736200104d8988519801519262001d59565b95620010656040519460808652608086019062001b80565b908482038b86015262001b80565b95604083015260608201528033950390a4604051908152f35b6040513d6000823e3d90fd5b634e487b7160e01b600052602160045260246000fd5b60405162461bcd60e51b815260206004820152601a60248201527f4e6f207061796d656e7420746f6b656e207370656369666965640000000000006044820152606490fd5b506002546001600160a01b031662000dfd565b60405162461bcd60e51b81526020600482015260136024820152721254d25388185b1c9958591e481a5cdcdd5959606a1b6044820152606490fd5b60405162461bcd60e51b8152602060048201526011602482015270496e76616c6964204953494e20636f646560781b6044820152606490fd5b60405162461bcd60e51b815260206004820152600e60248201526d125b9d985b1a59081cde5b589bdb60921b6044820152606490fd5b60405162461bcd60e51b815260206004820152600c60248201526b496e76616c6964206e616d6560a01b6044820152606490fd5b60405162461bcd60e51b815260206004820152601c60248201527f496e76616c6964206f7220696e6163746976652074656d706c617465000000006044820152606490fd5b34620001c957602080600319360112620001c9576001600160a01b0390816200125162001b44565b1660005260048152604060002060405191828183549182815201908193600052826000209060005b818110620012cf575050508362001292910384620018b0565b60405192818401908285525180915260408401929160005b828110620012b85785850386f35b8351871685529381019392810192600101620012aa565b825488168452928401926001928301920162001279565b34620001c9576000366003190112620001c9576200130362001ccc565b600080546001600160a01b0319811682556001600160a01b03167f8be0079c531659141344cd1fd0a4f28419497f9722a3daafe3b4186f6b6457e08280a3005b34620001c9576000366003190112620001c9576002546040516001600160a01b039091168152602090f35b34620001c95760a0366003190112620001c9576001600160401b03600435818111620001c957620013a4903690600401620018d2565b90602435818111620001c957620013c0903690600401620018d2565b906044908135818111620001c957620013de903690600401620019da565b916001600160a01b036064803591821691828103620001c9576200140162001b2d565b9288511562001757578751156200172357600c6101608801515103620016ec576101608701516001600160a01b03906200143b9062001bb5565b5416620016b357156200169f57925b6001600160a01b038416156200165e5750506001600160a01b038116156200165557905b60018060a01b036001541691604051938461531f8101109061531f86011117620009fe5761531f62001eea853960e061531f850152620014d1620014ba60e061531f8701018962001b80565b61531f86018103602061531f880101528762001b80565b9161531f85018303604061531f870101528551835260208601516020840152604086015160408401526060860151606084015260ff608087015116608084015260a086015160a084015260c08601519360058510156200109857859460c085015260e087015160e08501526101008088015190850152610120808801519085015262001567610140808901519086019062001ba7565b620015b6620015a16200158c6101608a0151610220806101608a015288019062001b80565b610180808b0151908883039089015262001b80565b6101a0808a0151908783039088015262001b80565b6101c0888101511515908601526101e0808901511515908601526102008089015195019490945261531f850160608101919091526001600160a01b0391821660808201523360a0820152911660c09091015203906000f09182156200108c576020937f6cff86004ab7a564db40806c1e028b796e9021eee0e9eae98470cef4511231c09360018060a01b031693849162000ffd61016086015162001bb5565b5033906200146e565b7f4e6f207061796d656e7420746f6b656e207370656369666965640000000000006040519162461bcd60e51b835260206004840152601a6024840152820152fd5b506002546001600160a01b0316926200144a565b60405162461bcd60e51b81526020600482015260136024820152721254d25388185b1c9958591e481a5cdcdd5959606a1b818701528390fd5b60405162461bcd60e51b8152602060048201526011602482015270496e76616c6964204953494e20636f646560781b818701528390fd5b60405162461bcd60e51b815260206004820152600e60248201526d125b9d985b1a59081cde5b589bdb60921b818701528390fd5b60405162461bcd60e51b815260206004820152600c60248201526b496e76616c6964206e616d6560a01b818701528390fd5b34620001c9576000366003190112620001c9576020600654604051908152f35b34620001c9576020366003190112620001c957600435600754811015620001c957620007246020916200192d565b34620001c9576020366003190112620001c9576004356001600160401b038111620001c957620018106200186d913690600401620018d2565b6200181a62001ccc565b60036200185360206040516200184160048651928481818a0195620007df81838962001b5b565b60405180938192875192839162001b5b565b810160058152030190200161ff0019815416905562001d59565b7fe8ecfe02d55835f7750f1d171851784476fc3cdc61e64843b32ae8a4dc39f6ac600080a2005b60c081019081106001600160401b03821117620009fe57604052565b90601f801991011681019081106001600160401b03821117620009fe57604052565b81601f82011215620001c9578035906001600160401b038211620009fe57604051926200190a601f8401601f191660200185620018b0565b82845260208383010111620001c957816000926020809301838601378301015290565b600754811015620019655760076000527fa66cc928b5edb82af9bd49922954155ab7b0942694bea4ce44661d9a8736c6880190600090565b634e487b7160e01b600052603260045260246000fd5b600654811015620019655760066000527ff652222313e28459528d920b65115c16c04f3efc82aaedc97be59f3f377c0d3f0190600090565b8054821015620019655760005260206000200190600090565b35908115158203620001c957565b919091610220908181850312620001c957604051918201936001600160401b039483811086821117620009fe57604052829482358452602083013560208501526040830135604085015260608301356060850152608083013560ff81168103620001c957608085015260a083013560a085015260c08301356005811015620001c95760c085015260e083013560e08501526101008084013590850152610120808401359085015261014080840135906003821015620001c95785015261016080840135828111620001c9578362001ab3918601620018d2565b9085015261018080840135828111620001c9578362001ad4918601620018d2565b908501526101a09182840135918211620001c95762001af5918401620018d2565b908301526101c062001b09818301620019cc565b908301526101e062001b1d818301620019cc565b9083015261020080910135910152565b608435906001600160a01b0382168203620001c957565b600435906001600160a01b0382168203620001c957565b60005b83811062001b6f5750506000910152565b818101518382015260200162001b5e565b9060209162001b9b8151809281855285808601910162001b5b565b601f01601f1916010190565b906003821015620010985752565b602062001bd091816040519382858094519384920162001b5b565b8101600381520301902090565b90600182811c9216801562001c0f575b602083101462001bf957565b634e487b7160e01b600052602260045260246000fd5b91607f169162001bed565b906040519182600082549262001c308462001bdd565b90818452600194858116908160001462001ca7575060011462001c60575b505062001c5e92500383620018b0565b565b9093915060005260209081600020936000915b81831062001c8e57505062001c5e9350820101388062001c4e565b8554888401850152948501948794509183019162001c73565b91505062001c5e94506020925060ff191682840152151560051b820101388062001c4e565b6000546001600160a01b0316330362001ce157565b60405163118cdaa760e01b8152336004820152602490fd5b600754600160401b811015620009fe5780600162001d1b92016007556200192d565b819291549060031b9160018060a01b03809116831b921b1916179055565b8054600160401b811015620009fe5762001d1b91600182018155620019b3565b62001d739060206040519282848094519384920162001b5b565b810103902090565b6003821015620010985752565b91909182516001600160401b038111620009fe5762001da8825462001bdd565b601f811162001e5a575b50602080601f831160011462001df257508192939460009262001de6575b50508160011b916000199060031b1c1916179055565b01519050388062001dd0565b90601f198316958460005282600020926000905b88821062001e415750508360019596971062001e27575b505050811b019055565b015160001960f88460031b161c1916905538808062001e1d565b8060018596829496860151815501950193019062001e06565b600083815260208120601f840160051c8101926020851062001e9c575b601f0160051c01915b82811062001e9057505062001db2565b81815560010162001e80565b909250829062001e77565b1562001eaf57565b60405162461bcd60e51b815260206004820152601260248201527115195b5c1b185d19481b9bdd08199bdd5b9960721b6044820152606490fdfe60806040523462000f32576200531f80380390816200001e8162000f37565b91823960e081838101031262000f325780516001600160401b03811162000f3257620000509083830190830162000f82565b60208201516001600160401b03811162000f3257620000759084840190840162000f82565b6040830151939091906001600160401b03851162000f32576102209485818601838701031262000f32576040519586016001600160401b038111878210176200082657604090815285820180518852602080820151908901528082015191880191909152606080820151908801526080015160ff8116810362000f3257608087015284810160a0818101519088015260c00151600581101562000f325760c087015260e0818601015160e087015261010080828701015181880152610120808388010151818901526101408388010151600381101562000f325761014089015286830161016001516001600160401b03811162000f32576200017f9085890190858a010162000f82565b61016089015286830161018001516001600160401b03811162000f3257620001af9085890190858a010162000f82565b6101808901526101a0838801810151946001600160401b03861162000f32578895620001e2918701908688010162000f82565b818a01526101c091620001f9838688010162000fd9565b838b01526101e09362000210858789010162000fd9565b858c0152610200809688010151868c01526200022f6060880162000fe7565b986200025a60c06200025260a06200024a60808d0162000fe7565b9b0162000fe7565b9c0162000fe7565b895190996001600160401b038211620008265760035490600182811c9216801562000f27575b6020831014620009275781601f84931162000eb5575b50602090601f831160011462000e265760009262000e1a575b50508160011b916000199060031b1c1916176003555b8051906001600160401b038211620008265760045490600182811c9216801562000e0f575b6020831014620009275781601f84931162000d9d575b50602090601f831160011462000d0e5760009262000d02575b50508160011b916000199060031b1c1916176004555b60016006558a511562000cbd5760208b01511562000c785760608b015142101562000c4057818b01511562000bfb576001600160a01b0389161562000bc5576001600160a01b0387161562000b80576001600160a01b038a161562000b4a578a5160085560208b015160095560408b0151600a5560608b0151600b5560ff60808c01511660ff19600c541617600c5560a08b0151600d5560c08b0151620003d68162000ffc565b620003e18162000ffc565b60ff8019600e5416911617600e5560e08b0151600f558a0151601055890151601155610140890151600381101562000b345760ff80196012541691161760125561016089015180519060018060401b038211620008265760135490600182811c9216801562000b29575b6020831014620009275781601f84931162000ac8575b50602090601f831160011462000a4a5760009262000a3e575b50508160011b916000199060031b1c1916176013555b6101808901518051906001600160401b038211620008265760145490600182811c9216801562000a33575b6020831014620009275781601f849311620009d2575b50602090601f8311600114620009545760009262000948575b50508160011b916000199060031b1c1916176014555b8801518051906001600160401b038211620008265760155490600182811c921680156200093d575b6020831014620009275781601f849311620008c6575b50602090601f831160011462000848576000926200083c575b50508160011b916000199060031b1c1916176015555b870151601680549289015161ff0090151560081b1691151560ff1661ffff1990931692909217179055850151601755601d80546001600160a01b039485166001600160a01b031991821617909155601e805492851692821692909217909155601f80548585169083161790556020805493831693909116831790556018805460ff191690558351604051919060808301908382106001600160401b038311176200082657620006b393606092604052818152426020820152600060408201526305f5e100928391015260195542601a556000601b55601c55600160c0860151620006578162000ffc565b620006628162000ffc565b14801562000801575b620007ef575b6200067c8462001007565b50620006888462001088565b5062000694846200112b565b50620006a081620011c9565b50620006ac8462001267565b5062001267565b5060018060a01b03821660005260246020526040600020600160ff198254161790556000526040600020600160ff1982541617905560208201519060025490828201809211620007d9576002919091556001600160a01b031660008181526020818152604080832080548601905551938452919290917fddf252ad1be2c89b69c2b068fc378daa952ba7f163c4a11628f55a4df523b3ef91a37f99f31c8d36d451950d4cef4b19e7ce478da0a725967540a77bb914e65e9295906060610160830151835190620007a760c0602087015196015191620007928362000ffc565b60206040519282848094519384920162000f5d565b8101039020946040519283526020830152620007c38162000ffc565b6040820152a2604051613f999081620013068239f35b634e487b7160e01b600052601160045260246000fd5b633b9aca006027554260285562000671565b50600260c0860151620008148162000ffc565b6200081f8162000ffc565b146200066b565b634e487b7160e01b600052604160045260246000fd5b01519050388062000557565b601560009081529350600080516020620052bf83398151915291905b601f1984168510620008aa576001945083601f1981161062000890575b505050811b016015556200056d565b015160001960f88460031b161c1916905538808062000881565b8181015183556020948501946001909301929091019062000864565b6015600052909150600080516020620052bf833981519152601f840160051c8101602085106200091f575b90849392915b601f830160051c820181106200090f5750506200053e565b60008155859450600101620008f7565b5080620008f1565b634e487b7160e01b600052602260045260246000fd5b91607f169162000528565b015190503880620004ea565b601460009081529350600080516020620052ff83398151915291905b601f1984168510620009b6576001945083601f198116106200099c575b505050811b0160145562000500565b015160001960f88460031b161c191690553880806200098d565b8181015183556020948501946001909301929091019062000970565b6014600052909150600080516020620052ff833981519152601f840160051c81016020851062000a2b575b90849392915b601f830160051c8201811062000a1b575050620004d1565b6000815585945060010162000a03565b5080620009fd565b91607f1691620004bb565b0151905038806200047a565b601360009081529350600080516020620052df83398151915291905b601f198416851062000aac576001945083601f1981161062000a92575b505050811b0160135562000490565b015160001960f88460031b161c1916905538808062000a83565b8181015183556020948501946001909301929091019062000a66565b6013600052909150600080516020620052df833981519152601f840160051c81016020851062000b21575b90849392915b601f830160051c8201811062000b1157505062000461565b6000815585945060010162000af9565b508062000af3565b91607f16916200044b565b634e487b7160e01b600052602160045260246000fd5b60405162461bcd60e51b815260206004820152600e60248201526d24b73b30b634b21034b9b9bab2b960911b6044820152606490fd5b60405162461bcd60e51b815260206004820152601560248201527f496e76616c6964207061796d656e7420746f6b656e00000000000000000000006044820152606490fd5b60405162461bcd60e51b815260206004820152600e60248201526d496e76616c6964206f7261636c6560901b6044820152606490fd5b60405162461bcd60e51b815260206004820152601860248201527f496e76616c696420636f75706f6e206672657175656e637900000000000000006044820152606490fd5b60405162461bcd60e51b815260206004820152601060248201526f496e76616c6964206d6174757269747960801b6044820152606490fd5b60405162461bcd60e51b815260206004820152601760248201527f537570706c79206d75737420626520706f7369746976650000000000000000006044820152606490fd5b60405162461bcd60e51b815260206004820152601460248201527f564e45206d75737420626520706f7369746976650000000000000000000000006044820152606490fd5b01519050388062000319565b6004600090815293507f8a35acfbc15ff81a39ae7d344fd709f28e8600b4aa8c65c6b64bfe7fe36bd19b91905b601f198416851062000d81576001945083601f1981161062000d67575b505050811b016004556200032f565b015160001960f88460031b161c1916905538808062000d58565b8181015183556020948501946001909301929091019062000d3b565b60046000529091507f8a35acfbc15ff81a39ae7d344fd709f28e8600b4aa8c65c6b64bfe7fe36bd19b601f840160051c81016020851062000e07575b90849392915b601f830160051c8201811062000df757505062000300565b6000815585945060010162000ddf565b508062000dd9565b91607f1691620002ea565b015190503880620002af565b6003600090815293507fc2575a0e9e593c00f959f8c92f12db2869c3395a3b0502d05e2516446f71f85b91905b601f198416851062000e99576001945083601f1981161062000e7f575b505050811b01600355620002c5565b015160001960f88460031b161c1916905538808062000e70565b8181015183556020948501946001909301929091019062000e53565b60036000529091507fc2575a0e9e593c00f959f8c92f12db2869c3395a3b0502d05e2516446f71f85b601f840160051c81016020851062000f1f575b90849392915b601f830160051c8201811062000f0f57505062000296565b6000815585945060010162000ef7565b508062000ef1565b91607f169162000280565b600080fd5b6040519190601f01601f191682016001600160401b038111838210176200082657604052565b60005b83811062000f715750506000910152565b818101518382015260200162000f60565b81601f8201121562000f325780516001600160401b038111620008265762000fb4601f8201601f191660200162000f37565b928184526020828401011162000f325762000fd6916020808501910162000f5d565b90565b5190811515820362000f3257565b51906001600160a01b038216820362000f3257565b6005111562000b3457565b6001600160a01b031660008181527f05b8ccbb9d4d8fb16ea74ce3c29a41f1b461fbdaff4714a0d9a8eb05499746bc602052604081205490919060ff16620010845781805260056020526040822081835260205260408220600160ff1982541617905533916000805160206200529f8339815191528180a4600190565b5090565b6001600160a01b031660008181527fd8ef4509105c3edb0b04658b4528edc5ddd30ea5a81e623a2623c88db1eb54b660205260408120549091907fa49807205ce4d355092ef5a8a18f56e8913cf4a201fbe287825b095693c217759060ff16620011265780835260056020526040832082845260205260408320600160ff198254161790556000805160206200529f833981519152339380a4600190565b505090565b6001600160a01b031660008181527f08699172536d22b992c4579cb1469b6a17054a95ee49bf4d1fdc489bafaaa00760205260408120549091907f114e74f6ea3bd819998f78687bfcb11b140da08e9b7d222fa9c1f1ba1f2aa1229060ff16620011265780835260056020526040832082845260205260408320600160ff198254161790556000805160206200529f833981519152339380a4600190565b6001600160a01b031660008181527f66215885dcb73cb4aae79fcb51f949acf75999687399eef5d47b261732e8435760205260408120549091907f700b68d05515876e1b5bee45535f56f17ecf1fbb63ac93e8914591401365025d9060ff16620011265780835260056020526040832082845260205260408320600160ff198254161790556000805160206200529f833981519152339380a4600190565b6001600160a01b031660008181527f294bb43e882f8724b7ae88344d047a41612b98ee139a78f923b3689f3cc274b160205260408120549091907f28f5a99355973cc89255b8c4ac88405f27c78ded7608b040ee77a8bdf44d15e29060ff16620011265780835260056020526040832082845260205260408320600160ff198254161790556000805160206200529f833981519152339380a460019056fe60a080604052600436101561001357600080fd5b60003560e01c90816301ffc9a7146130045750806306fdde0314612f41578063095ea7b314612ebb578063134fbea814612e9d57806318160ddd14612e7f5780631d14384814612e565780631e8d73af14612c085780631f936e3614612b20578063200d2ed214612af657806323b872dd14612a16578063248a9ca3146129e75780632f2ff15d146129a85780633013ce291461297f578063313ce5671461296357806336568abe1461291c57806339ee0661146128575780633af32abf1461109c5780633f4ba83a146127ed5780634173b4171461230e57806344337ea11461229f578063468bb24014612281578063471337a314612263578063537df3b6146121f757806354202c4e146121bc5780635465729a1461207c578063564ba9d314611d2b5780635674d3f414611a6657806356e2da1b14611a4a57806357974e5a146119c35780635c975abb146119a05780635edadfee1461197d57806367eda4161461196057806370a082311461192657806370f805fc1461190857806372777649146118cd57806372eee557146118b157806375b238fc146118765780637acc66d9146117635780637adbf973146116e05780637dc0d1d0146116b75780637f4ab1dd1461167957806382aefa2414611650578063839cef24146116355780638456cb59146115c857806387b652071461150e5780638a7a2d831461145b5780638ab1d681146113ef57806391d14854146113a2578063932e2b861461122057806395d89b411461112857806397acf4dd1461110a57806399f91405146110db5780639b19251a1461109c5780639dd5de0b14611080578063a217fddf14610cf3578063a9059cbb1461104f578063a9aad58c14611033578063aa8b2ea714611017578063ab25016814610ec7578063b10378e714610e89578063bd6267a014610d2b578063bffbc6be14610d0f578063d0a6d1a614610cf3578063d39f6e4914610cb9578063d4ce141514610c94578063d5025625146108f4578063d547741f146108b3578063dad2dea514610703578063dbb026b914610586578063dd126f6e14610506578063dd62ed3e146104b5578063e43252d714610446578063eb839559146103f7578063eca52842146103d9578063f9f92be41461036e578063fdf97cb2146103b25763fe575a871461036e57600080fd5b346103ad5760203660031901126103ad576001600160a01b0361038f6130c9565b166000526025602052602060ff604060002054166040519015158152f35b600080fd5b346103ad5760003660031901126103ad57602080546040516001600160a01b039091168152f35b346103ad5760003660031901126103ad576020602354604051908152f35b346103ad5760203660031901126103ad576004356021548110156103ad57610420606091613273565b5080549060ff600260018301549201541690604051928352602083015215156040820152f35b346103ad5760203660031901126103ad5761045f6130c9565b6104676132ae565b60018060a01b03168060005260246020526040600020600160ff198254161790557ff93f9a76c1bf3444d22400a00cb9fe990e6abe9dbb333fda48859cfee864543d602060405160018152a2005b346103ad5760403660031901126103ad576104ce6130c9565b6104d66130df565b9060018060a01b038091166000526001602052604060002091166000526020526020604060002054604051908152f35b346103ad5760003660031901126103ad576000606060405161052781613219565b8281528260208201528260408201520152608060405161054681613219565b60195490818152601a5460208201908152601b5490604083019182526060601c549301928352604051938452516020840152516040830152516060820152f35b346103ad576020806003193601126103ad57600435906105a4613af4565b6105b16022548310613b17565b336000526026815260406000205482106106cd576105ce82613172565b5060ff600682015460081c161561069257610619620f424091336000526000845261061460406000205491610604831515613c11565b600560048201549101549061381f565b613900565b0490600183019081841161067c577fd5a6750fd524c6f3d04c2a3f8e74b57e914efba5c7b8d9c1a17555eb7fb7052b91336000526026825260406000205561066c833360018060a01b03601e5416613c4a565b6040519283523392a36001600655005b634e487b7160e01b600052601160045260246000fd5b60405162461bcd60e51b815260048101839052601360248201527210dbdd5c1bdb881b9bdd081c185a59081e595d606a1b6044820152606490fd5b6064906040519062461bcd60e51b82526004820152600f60248201526e105b1c9958591e4818db185a5b5959608a1b6044820152fd5b346103ad5760003660031901126103ad5761071c613af4565b33600052602060008152604060002054610737811515613c11565b336000526026825260406000205460225480821015610878579160009282915b8183106107dd575b505050811561079857336000526026835260406000205561078b813360018060a01b03601e5416613c4a565b6001600655604051908152f35b60405162461bcd60e51b815260048101849052601860248201527f4e6f207061696420636f75706f6e7320746f20636c61696d00000000000000006044820152606490fd5b909193926107ea85613172565b509060ff600683015460081c166000146108705750620f424061081e8361061484600560046108269701549101549061381f565b04809461381f565b93600181019081811161067c578061086992956040519081527fd5a6750fd524c6f3d04c2a3f8e74b57e914efba5c7b8d9c1a17555eb7fb7052b893392a361382c565b9190610757565b93945061075f565b60405162461bcd60e51b81526004810185905260136024820152724e6f20636f75706f6e7320746f20636c61696d60681b6044820152606490fd5b346103ad5760403660031901126103ad576108f26004356108d26130df565b908060005260056020526108ed6001604060002001546133e0565b613486565b005b346103ad5760003660031901126103ad5760085460095490600a54600b5460ff600c5416600d5460ff600e5416600f54601054906011549260ff60125416946040519660006013548060011c916001821615610c8a575b602083106001831614610b6457828b528a9160018116908115610c6b5750600114610c0b575b61097d92500389613251565b6040519860006014548060011c916001821615610c01575b602083106001831614610b6457828d528c9160018116908115610be25750600114610b82575b6109c79250038b613251565b6040519a6000601554908160011c6001831615610b7a575b602081106001841614610b6457808f528e9260018116908115610b485750600114610aee575b5003610a11908d613251565b6016549d6017549d60405180608052526080516020015260805160400152608051606001526080516080015260805160a00152610a4d816130f5565b60805160c0015260805160e001526080516101000152608051610120015260805161014001610a7b91613165565b61022080608051610160015260805101610a9491613089565b608051808203906101800152610aa991613089565b608051808203906101a00152610abe91613089565b9160ff811615156080516101c0015260081c60ff1615156080516101e00152608051610200015260805180910390f35b6015600090815291507f55f448fdea98c4d29eb340757ef0a66cd03dbb9538908a6a81d96026b71ec4755b818310610b2d575050810160200138610a05565b80602092948385600194549201015201910190918e92610b19565b90506020925060ff191682840152151560051b82010138610a05565b634e487b7160e01b600052602260045260246000fd5b607f166109df565b509060146000527fce6d7b5282bd9a3661ae061feed1dbda4e52ab073b1f9285be6e155d9c38d4ec906000915b818310610bc75750509060206109c7928201016109bb565b80602092948385600194549201015201910190918c92610baf565b602092506109c794915060ff191682840152151560051b8201016109bb565b91607f1691610995565b509060136000527f66de8ffda797e3de9c05e8fc57b3bf0ec28a930d40b0d285d93c06501cf6a090906000915b818310610c5057505090602061097d92820101610971565b80602092948385600194549201015201910190918a92610c38565b6020925061097d94915060ff191682840152151560051b820101610971565b91607f169161094b565b346103ad576020610cae610ca7366130ff565b509061361e565b60ff60405191168152f35b346103ad5760203660031901126103ad576001600160a01b03610cda6130c9565b1660005260266020526020604060002054604051908152f35b346103ad5760003660031901126103ad57602060405160008152f35b346103ad5760003660031901126103ad57602060405160018152f35b346103ad5760203660031901126103ad57600435610d47613328565b610d5f60ff60185416610d59816130f5565b156138a2565b60ff600e5416610d6e816130f5565b600181148015610e76575b15610e4157600290610d8a816130f5565b03610de257610d9e60649160105490613900565b04633b9aca00908181029080820483149015171561067c57630f0537009004810180911161067c57610dd8633b9aca00915b602754613900565b0460275542602855005b633b9aca008082029180830482149015171561067c57630f05370080920481019182821161067c57600f548281029080820484149015171561067c570481019081811161067c57610e3b610dd892633b9aca0094613900565b04610dd0565b60405162461bcd60e51b815260206004820152600d60248201526c139bdd0811124b5b1a5b9ad959609a1b6044820152606490fd5b50610e80816130f5565b60028114610d79565b346103ad5760003660031901126103ad57601954601a54601b54601c54604080519485526020850193909352918301526060820152608090f35b0390f35b346103ad576020806003193601126103ad57600080516020613f44833981519152600052600581526040600020336000528152610f0b60ff6040600020541661385f565b610f1d60ff60185416610d59816130f5565b60ff60165460081c1615610fd35760607f8dd68a8affe62f82ec8c6f32d2851bfc8b9ed661fc912c7891e763b8f18d4946916003610f5f600254600435613900565b91610f788360018060a01b03601e541630903390613b5a565b7f8d6deb3ebfdc6b0ef63502cbe0646aebf8f3db989cc23033687ea7178ff278ec6040601854948460ff87169660ff19161760185581519081524284820152a160405192610fc5816130f5565b8352820152426040820152a1005b6064906040519062461bcd60e51b82526004820152601c60248201527f4561726c7920726564656d7074696f6e206e6f7420616c6c6f776564000000006044820152fd5b346103ad5760003660031901126103ad57602060405160038152f35b346103ad5760003660031901126103ad57602060405160028152f35b346103ad5760403660031901126103ad5761107561106b6130c9565b60243590336134fd565b602060405160018152f35b346103ad5760003660031901126103ad57602060405160648152f35b346103ad5760203660031901126103ad576001600160a01b036110bd6130c9565b166000526024602052602060ff604060002054166040519015158152f35b346103ad5760203660031901126103ad5760406110fe6110f96130c9565b613c88565b82519182526020820152f35b346103ad5760003660031901126103ad576020602754604051908152f35b346103ad5760003660031901126103ad57604051600060045490600182811c91818416918215611216575b6020948585108414610b645785879486865291826000146111f6575050600114611199575b5061118592500383613251565b610ec3604051928284938452830190613089565b84915060046000527f8a35acfbc15ff81a39ae7d344fd709f28e8600b4aa8c65c6b64bfe7fe36bd19b906000915b8583106111de575050611185935082010185611178565b805483890185015287945086939092019181016111c7565b60ff19168582015261118595151560051b85010192508791506111789050565b92607f1692611153565b346103ad576020806003193601126103ad5760043590600080516020613f4483398151915260005260058152604060002033600052815261126860ff6040600020541661385f565b611270613af4565b61127d6022548310613b17565b61128682613172565b50906006820191825460ff8116156113655760081c60ff1661132a579160409183620f42406112eb6112e260047fa5545405ad5befaaa053fb6aeb08fa6b7b92c4ece04ce7a84ba5b88b0d039e9998015460058501549061381f565b60025490613900565b04926113058460018060a01b03601e541630903390613b5a565b61010061ff001982541617905560014291015582519182524290820152a26001600655005b60405162461bcd60e51b815260048101839052601360248201527210dbdd5c1bdb88185b1c9958591e481c185a59606a1b6044820152606490fd5b60405162461bcd60e51b815260048101849052601560248201527410dbdd5c1bdb881b9bdd0818d85b18dd5b185d1959605a1b6044820152606490fd5b346103ad5760403660031901126103ad576113bb6130df565b600435600052600560205260406000209060018060a01b0316600052602052602060ff604060002054166040519015158152f35b346103ad5760203660031901126103ad576114086130c9565b6114106132ae565b6001600160a01b03166000818152602460209081526040808320805460ff19169055519182527ff93f9a76c1bf3444d22400a00cb9fe990e6abe9dbb333fda48859cfee864543d91a2005b346103ad5760003660031901126103ad573360009081527f66215885dcb73cb4aae79fcb51f949acf75999687399eef5d47b261732e8435760205260409020546114a79060ff16613d2e565b7f8dd68a8affe62f82ec8c6f32d2851bfc8b9ed661fc912c7891e763b8f18d49466060601854600260ff8216916114dd836130f5565b6114e783156138a2565b60ff191617601855604051906114fc816130f5565b815260026020820152426040820152a1005b346103ad5760003660031901126103ad5760185460ff811690611530826130f5565b61153a82156138a2565b600b5442106115915760ff19166001176018556040517f8dd68a8affe62f82ec8c6f32d2851bfc8b9ed661fc912c7891e763b8f18d4946916060919061157f816130f5565b815260016020820152426040820152a1005b60405162461bcd60e51b815260206004820152600f60248201526e139bdd081e595d081b585d1d5c9959608a1b6044820152606490fd5b346103ad5760003660031901126103ad576115e1613328565b60075460ff81166116235760019060ff1916176007557f62e78cea01bee320cd4e420270b5ea74000d11b0c9f74754ebdbfc544b05a2586020604051338152a1005b60405163d93c066560e01b8152600490fd5b346103ad5760003660031901126103ad5760406110fe6139d7565b346103ad5760003660031901126103ad576020604051600080516020613f448339815191528152f35b346103ad5760203660031901126103ad5760043560ff811681036103ad576116a3610ec3916136dc565b604051918291602083526020830190613089565b346103ad5760003660031901126103ad57601d546040516001600160a01b039091168152602090f35b346103ad5760203660031901126103ad576116f96130c9565b611701613328565b6001600160a01b0316801561172d576bffffffffffffffffffffffff60a01b601d541617601d55600080f35b60405162461bcd60e51b815260206004820152600e60248201526d496e76616c6964206f7261636c6560901b6044820152606490fd5b346103ad5760003660031901126103ad5760215467ffffffffffffffff81116118605760405160209061179b828460051b0182613251565b828152818101928360216000527f3a6357012c1a3ae0a17d304c9920310382d968ebcc4b1771f41c6b304205b5706000915b8383106118255760408051878152865181890181905289928201908960005b8281106117f95784840385f35b8551805185528083015185840152604090810151151590850152948101946060909301926001016117ec565b600386600192604051611837816131fd565b85548152848601548382015260ff600287015416151560408201528152019201920191906117cd565b634e487b7160e01b600052604160045260246000fd5b346103ad5760003660031901126103ad5760206040517fa49807205ce4d355092ef5a8a18f56e8913cf4a201fbe287825b095693c217758152f35b346103ad5760003660031901126103ad57602060405160fc8152f35b346103ad5760003660031901126103ad5760206040517f700b68d05515876e1b5bee45535f56f17ecf1fbb63ac93e8914591401365025d8152f35b346103ad5760003660031901126103ad576020601954604051908152f35b346103ad5760203660031901126103ad576001600160a01b036119476130c9565b1660005260006020526020604060002054604051908152f35b346103ad5760003660031901126103ad5760206040516127108152f35b346103ad5760003660031901126103ad576020611998613913565b604051908152f35b346103ad5760003660031901126103ad57602060ff600754166040519015158152f35b346103ad5760203660031901126103ad576004356022548110156103ad576119ed61010091613172565b5060ff815491600181015490600281015460038201546004830154916006600585015494015494604051978852602088015260408701526060860152608085015260a0840152818116151560c084015260081c16151560e0820152f35b346103ad5760003660031901126103ad57602060405160048152f35b346103ad5760003660031901126103ad57611a8960ff60185416610d59816130f5565b60ff600e5416611a98816130f5565b6003811490818015611d18575b15611ce057611ab3906130f5565b15611cb957611b096060604051611ac981613235565b60048152634950434160e01b60208201525b60018060a01b03601d54166040518080958194630d81b5db60e31b8352602060048401526024830190613089565b03915afa8015611cad57600091600091611c7b575b506000821315611c4057601a541015611c0757601954601b54801592919083611bde57611b4d83601c54613900565b93611bc857611b8a6305f5e100917f2e759a94b9b820c609e8fe95314a7564f0a948b29d7a6c5a41da7b90519e88f7950480601c55600854613900565b046019555b42601a5581601b55611bc3601954916040519384934292859094939260609260808301968352602083015260408201520152565b0390a1005b634e487b7160e01b600052601260045260246000fd5b507f2e759a94b9b820c609e8fe95314a7564f0a948b29d7a6c5a41da7b90519e88f79250611b8f565b60405162461bcd60e51b8152602060048201526011602482015270125b99195e081b9bdd081d5c19185d1959607a1b6044820152606490fd5b60405162461bcd60e51b8152602060048201526013602482015272496e76616c696420696e6465782076616c756560681b6044820152606490fd5b9050611c9e915060603d8111611ca6575b611c968183613251565b8101906138e5565b905082611b1e565b503d611c8c565b6040513d6000823e3d90fd5b611b096060604051611cca81613235565b60048152634947504d60e01b6020820152611adb565b60405162461bcd60e51b815260206004820152601060248201526f139bdd081a5b99195e0b5b1a5b9ad95960821b6044820152606490fd5b50611d22816130f5565b60048114611aa5565b346103ad5760403660031901126103ad5767ffffffffffffffff6004358181116103ad57611d5d903690600401613134565b60249283359081116103ad57611d77903690600401613134565b600080516020613f4483398151915260005260209360058552604060002033600052855260ff91611dae836040600020541661385f565b60219384546120415781860361200b5760009560005b818110611e3d57505050505060125416906003821015611e295750600203611de857005b61271003611df257005b60126064926040519262461bcd60e51b8452600484015282015271546f74616c206d757374206265203130302560701b6044820152fd5b8490634e487b7160e01b6000526004526000fd5b611e4881838761383b565b35600b5410611fd15780611f59575b611e6281838761383b565b35611e6e82868661383b565b359060405190611e7d826131fd565b81528a810191825260408101600081528954600160401b811015611f4457611eab6001918281018d55613273565b949094611f2f57611ed793518555519084015551151560028093019060ff801983541691151516179055565b86601254166003811015611f1b5703611ef9575b611ef49061382c565b611dc4565b96611f13611ef491611f0c8a878761383b565b359061381f565b979050611eeb565b8b89634e487b7160e01b6000526004526000fd5b8e634e487b7160e01b60005260006004526000fd5b8d634e487b7160e01b60005260416004526000fd5b611f6481838761383b565b356000198201828111611fbc57611f7c90848861383b565b3510611e575760405162461bcd60e51b8152600481018a90526013818c0152724461746573206e6f7420617363656e64696e6760681b6044820152606490fd5b8b634e487b7160e01b60005260116004526000fd5b60405162461bcd60e51b8152600481018a90526013818c01527244617465206166746572206d6174757269747960681b6044820152606490fd5b60405162461bcd60e51b815260048101889052600f818a01526e098cadccee8d040dad2e6dac2e8c6d608b1b6044820152606490fd5b60405162461bcd60e51b8152600481018890526014818a01527314d8da19591d5b1948185b1c9958591e481cd95d60621b6044820152606490fd5b346103ad5760203660031901126103ad57600435600060e06040516120a0816131c3565b8281528260208201528260408201528260608201528260808201528260a08201528260c08201520152602254811015612187576120df61010091613172565b50604051906120ed826131c3565b8054918281526001820154916020820192835260028101546040830190815260038201546060840190815260048301549160808501928352600660058501549460a0870195865201549560ff60e060c0880197828a1615158952019760081c16151587526040519788525160208801525160408701525160608601525160808501525160a084015251151560c083015251151560e0820152f35b60405162461bcd60e51b815260206004820152600d60248201526c092dcecc2d8d2c840d2dcc8caf609b1b6044820152606490fd5b346103ad5760003660031901126103ad5760206040517f28f5a99355973cc89255b8c4ac88405f27c78ded7608b040ee77a8bdf44d15e28152f35b346103ad5760203660031901126103ad576122106130c9565b612218613384565b6001600160a01b03166000818152602560209081526040808320805460ff19169055519182527f6a12b3df6cba4203bd7fd06b816789f87de8c594299aed5717ae070fac781bac91a2005b346103ad5760003660031901126103ad576020604051620f42408152f35b346103ad5760003660031901126103ad576020602254604051908152f35b346103ad5760203660031901126103ad576122b86130c9565b6122c0613384565b60018060a01b03168060005260256020526040600020600160ff198254161790557f6a12b3df6cba4203bd7fd06b816789f87de8c594299aed5717ae070fac781bac602060405160018152a2005b346103ad5760003660031901126103ad576000610200604051612330816131e0565b8281528260208201528260408201528260608201528260808201528260a08201528260c08201528260e08201528261010082015282610120820152826101408201526060610160820152606061018082015260606101a0820152826101c0820152826101e082015201526040516123a6816131e0565b60085481526009546020820152600a546040820152600b54606082015260ff600c54166080820152600d5460a082015260ff600e54166123e5816130f5565b60c0820152600f5460e082015260105461010082015260115461012082015260ff6012541660038110156127d75761014082015260405160006013548060011c9160018216156127cd575b602083106001831614610b64578284528391600181169081156127ae575060011461274d575b61246292500382613251565b61016082015260405160006014548060011c916001821615612743575b602083106001831614610b645782845283916001811690811561272457506001146126c3575b6124b192500382613251565b61018082015260405160006015548060011c9160018216156126b9575b602083106001831614610b645782845283916001811690811561269a5750600114612639575b61250092500382613251565b6101a082015260ff60165481811615156101c084015260081c1615156101e08201526017546102008201526040518091602082528051602083015260208101516040830152604081015160608301526060810151608083015260ff60808201511660a083015260a081015160c083015260c081015161257e816130f5565b60e083015260e08101516101008301526101008101516101208301526101208101516101408301526125ba610140820151610160840190613165565b6101608101516102006126146125df6102209384610180880152610240870190613089565b6125fd61018086015191601f199283898303016101a08a0152613089565b906101a086015190878303016101c0880152613089565b926101c081015115156101e08601526101e08101511515828601520151908301520390f35b509060156000527f55f448fdea98c4d29eb340757ef0a66cd03dbb9538908a6a81d96026b71ec475906000915b81831061267e575050906020612500928201016124f4565b6020919350806001915483858801015201910190918392612666565b6020925061250094915060ff191682840152151560051b8201016124f4565b91607f16916124ce565b509060146000527fce6d7b5282bd9a3661ae061feed1dbda4e52ab073b1f9285be6e155d9c38d4ec906000915b8183106127085750509060206124b1928201016124a5565b60209193508060019154838588010152019101909183926126f0565b602092506124b194915060ff191682840152151560051b8201016124a5565b91607f169161247f565b509060136000527f66de8ffda797e3de9c05e8fc57b3bf0ec28a930d40b0d285d93c06501cf6a090906000915b81831061279257505090602061246292820101612456565b602091935080600191548385880101520191019091839261277a565b6020925061246294915060ff191682840152151560051b820101612456565b91607f1691612430565b634e487b7160e01b600052602160045260246000fd5b346103ad5760003660031901126103ad57612806613328565b60075460ff8116156128455760ff19166007557f5db9ee0a495bf2e6ff9c91a7834c1ba4fdd244a5e8aa4e537bd38aeae4b073aa6020604051338152a1005b604051638dfc202b60e01b8152600490fd5b346103ad576020806003193601126103ad5760043567ffffffffffffffff81116103ad57612889903690600401613134565b906128926132ae565b60005b82811061289e57005b612917906001600160a01b03806128be6128b984888861383b565b61384b565b16600052602486527ff93f9a76c1bf3444d22400a00cb9fe990e6abe9dbb333fda48859cfee864543d866040600020926001938460ff198254161790556129096128b9868a8a61383b565b1692604051908152a261382c565b612895565b346103ad5760403660031901126103ad576129356130df565b336001600160a01b03821603612951576108f290600435613486565b60405163334bd91960e11b8152600490fd5b346103ad5760003660031901126103ad57602060405160068152f35b346103ad5760003660031901126103ad57601e546040516001600160a01b039091168152602090f35b346103ad5760403660031901126103ad576108f26004356129c76130df565b908060005260056020526129e26001604060002001546133e0565b613406565b346103ad5760203660031901126103ad5760043560005260056020526020600160406000200154604051908152f35b346103ad57612a24366130ff565b9060018060a01b03831692836000526001602052604060002033600052602052604060002054936000198510612a60575b5061107593506134fd565b838510612acc578015612ab3573315612a9a5761107594849160005260016020526040600020336000526020520360406000205584612a55565b604051634a1406b160e11b815260006004820152602490fd5b60405163e602df0560e01b815260006004820152602490fd5b604051637dc7a0d960e11b81523360048201526024810186905260448101859052606490fd5b0390fd5b346103ad5760003660031901126103ad57602060ff6018541660405190612b1c816130f5565b8152f35b346103ad5760203660031901126103ad573360009081527f66215885dcb73cb4aae79fcb51f949acf75999687399eef5d47b261732e84357602052604090205460043590612b709060ff16613d2e565b612b8260ff60185416610d59816130f5565b60ff6016541615612bc3576040817f892461ac47c837244a43f55c47e4146481d666f7e00fbc337cb425bb0d94a83492600f558151908152426020820152a1005b60405162461bcd60e51b815260206004820152601860248201527f526570616374756174696f6e206e6f7420616c6c6f77656400000000000000006044820152606490fd5b346103ad5760003660031901126103ad5760ff612c2c8160185416610d59816130f5565b612c34613af4565b612c3c613d72565b804210612e1c57612c4b6139d7565b91600090600090602154915b828110612dca575b505050601b54604051612c71816131c3565b4281526020810190600082526040810186815260608201938452608082019486865260a0830190815260c08301956001875260e084019560008752602254600160401b81101561186057806001612ccb9201602255613172565b949094612db457612d11966006965186555160018601555160028501555160038401555160048301555160058201550192511515839060ff801983541691151516179055565b51815461ff00191690151560081b61ff001617905560225460001981019290831161067c577f929ad1752907433999baef86630e1e0cccc943966be81a34ed4ee45644629b35916060916040519182526020820152426040820152a2600e5416612d7a816130f5565b60018114908115612da0575b50612d93575b6001600655005b633b9aca00602755612d8c565b60029150612dad816130f5565b1481612d86565b634e487b7160e01b600052600060045260246000fd5b866002612dd683613273565b500154161580612e08575b612df357612dee9061382c565b612c57565b915050612e009150613eec565b848080612c5f565b5081612e1382613273565b50541115612de1565b60405162461bcd60e51b815260206004820152601260248201527110dbdd5c1bdb881b9bdd08191d59481e595d60721b6044820152606490fd5b346103ad5760003660031901126103ad57601f546040516001600160a01b039091168152602090f35b346103ad5760003660031901126103ad576020600254604051908152f35b346103ad5760003660031901126103ad576020602854604051908152f35b346103ad5760403660031901126103ad57612ed46130c9565b602435903315612ab3576001600160a01b0316908115612a9a57336000526001602052604060002082600052602052806040600020556040519081527f8c5be1e5ebec7d5bd14f71427d1e84f3dd0314c0f7b2291e5b200ac8c7c3b92560203392a3602060405160018152f35b346103ad5760003660031901126103ad57604051600060035490600182811c91818416918215612ffa575b6020948585108414610b645785879486865291826000146111f6575050600114612f9d575061118592500383613251565b84915060036000527fc2575a0e9e593c00f959f8c92f12db2869c3395a3b0502d05e2516446f71f85b906000915b858310612fe2575050611185935082010185611178565b80548389018501528794508693909201918101612fcb565b92607f1692612f6c565b346103ad5760203660031901126103ad576004359063ffffffff60e01b82168092036103ad5760209163578f376160e11b8114908115613078575b811561304d575b5015158152f35b637965db0b60e01b811491508115613067575b5083613046565b6301ffc9a760e01b14905083613060565b6336372b0760e01b8114915061303f565b919082519283825260005b8481106130b5575050826000602080949584010152601f8019910116010190565b602081830181015184830182015201613094565b600435906001600160a01b03821682036103ad57565b602435906001600160a01b03821682036103ad57565b600511156127d757565b60609060031901126103ad576001600160a01b039060043582811681036103ad579160243590811681036103ad579060443590565b9181601f840112156103ad5782359167ffffffffffffffff83116103ad576020808501948460051b0101116103ad57565b9060038210156127d75752565b6022548110156131ad576007906022600052027f61035b26e3e9eee00e0d72fd1ee8ddca6894550dca6916ea2ac6baa90d11e5100190600090565b634e487b7160e01b600052603260045260246000fd5b610100810190811067ffffffffffffffff82111761186057604052565b610220810190811067ffffffffffffffff82111761186057604052565b6060810190811067ffffffffffffffff82111761186057604052565b6080810190811067ffffffffffffffff82111761186057604052565b6040810190811067ffffffffffffffff82111761186057604052565b90601f8019910116810190811067ffffffffffffffff82111761186057604052565b6021548110156131ad576003906021600052027f3a6357012c1a3ae0a17d304c9920310382d968ebcc4b1771f41c6b304205b5700190600090565b3360009081527f294bb43e882f8724b7ae88344d047a41612b98ee139a78f923b3689f3cc274b160205260409020547f28f5a99355973cc89255b8c4ac88405f27c78ded7608b040ee77a8bdf44d15e29060ff161561330a5750565b6044906040519063e2517d3f60e01b82523360048301526024820152fd5b3360009081527fd8ef4509105c3edb0b04658b4528edc5ddd30ea5a81e623a2623c88db1eb54b660205260409020547fa49807205ce4d355092ef5a8a18f56e8913cf4a201fbe287825b095693c217759060ff161561330a5750565b3360009081527f66215885dcb73cb4aae79fcb51f949acf75999687399eef5d47b261732e8435760205260409020547f700b68d05515876e1b5bee45535f56f17ecf1fbb63ac93e8914591401365025d9060ff161561330a5750565b80600052600560205260406000203360005260205260ff604060002054161561330a5750565b906000918083526005602052604083209160018060a01b03169182845260205260ff604084205416156000146134815780835260056020526040832082845260205260408320600160ff198254161790557f2f8788117e7eff1d82e926ec794901d17c78024a50270940304540a733656f0d339380a4600190565b505090565b906000918083526005602052604083209160018060a01b03169182845260205260ff604084205416600014613481578083526005602052604083208284526020526040832060ff1981541690557ff6391f5c32d9c69d2a47ea670b442974b53935d1edc7fd64eb21e047a839171b339380a4600190565b90916001600160a01b03808316929083156136055784169384156135ec57613525908261361e565b60ff613530826136dc565b91166135c8575060009083825281602052604082205490838210613596575091604082827fddf252ad1be2c89b69c2b068fc378daa952ba7f163c4a11628f55a4df523b3ef958760209652828652038282205586815220818154019055604051908152a3565b60405163391434e360e21b81526001600160a01b03919091166004820152602481019190915260448101839052606490fd5b60405162461bcd60e51b815260206004820152908190612af2906024830190613089565b60405163ec442f0560e01b815260006004820152602490fd5b604051634b637e8f60e11b815260006004820152602490fd5b60ff600754166136d5576001600160a01b0390811660008181526025602052604081205490939060ff1680156136c2575b6136b95781845260246020528260ff604086205416159182156136a5575b505061369d57600d544210918261368e575b50506136885790565b50600490565b601f541614159050388061367f565b505050600190565b16845250604083205460ff1615823861366d565b50505050600390565b50828116845260ff60408520541661364f565b5050600290565b60ff1680156137fb57600181146137c157600281146137945760038114613764576004146137335760405161371081613235565b60138152722ab735b737bbb7103932b9ba3934b1ba34b7b760691b602082015290565b60405161373f81613235565b60158152744c6f636b2d757020706572696f642061637469766560581b602082015290565b5060405161377181613235565b60138152721059191c995cdcc8189b1858dadb1a5cdd1959606a1b602082015290565b506040516137a181613235565b601081526f151c985b9cd9995c9cc81c185d5cd95960821b602082015290565b506040516137ce81613235565b601781527f41646472657373206e6f742077686974656c6973746564000000000000000000602082015290565b5060405161380881613235565b60078152665375636365737360c81b602082015290565b9190820180921161067c57565b600019811461067c5760010190565b91908110156131ad5760051b0190565b356001600160a01b03811681036103ad5790565b1561386657565b60405162461bcd60e51b815260206004820152601460248201527321b0b63632b91034b9903737ba1034b9b9bab2b960611b6044820152606490fd5b156138a957565b60405162461bcd60e51b8152602060048201526014602482015273446562656e74757265206e6f742061637469766560601b6044820152606490fd5b908160609103126103ad578051916040602083015192015190565b8181029291811591840414171561067c57565b60195460ff600e5416613925816130f5565b6001811480156139c4575b1561394c5750613948633b9aca009160275490613900565b0490565b613955816130f5565b600381149081156139b0575b50156139995761399690630f05370061398f61398361397e613dd8565b613e02565b610614600f5485613900565b049061381f565b90565b61399690630f05370061398f61398361397e613dd8565b600491506139bd816130f5565b1438613961565b506139ce816130f5565b60028114613930565b60ff600e54166139e6816130f5565b600181148015613ae1575b15613a2357506019546027549190633b9ac9ff1983019083821161067c57633b9aca0091613a1e91613900565b049190565b613a306060611adb613e14565b03915afa908115611cad57600091613ac1575b5060009081811315613aba57612710915004905b613a60816130f5565b60038114908115613aa6575b5015613a9c57600f54613a7e9161381f565b905b622673c0613a1e613a9384601954613900565b60115490613900565b50600f5490613a80565b60049150613ab3816130f5565b1438613a6c565b5090613a57565b613ad9915060603d8111611ca657611c968183613251565b505038613a43565b50613aeb816130f5565b600281146139f1565b600260065414613b05576002600655565b604051633ee5aeb560e01b8152600490fd5b15613b1e57565b60405162461bcd60e51b8152602060048201526014602482015273092dcecc2d8d2c840c6deeae0dedc40d2dcc8caf60631b6044820152606490fd5b6040516323b872dd60e01b60208201526001600160a01b03928316602482015292909116604483015260648083019390935291815260a081019181831067ffffffffffffffff84111761186057613bb392604052613bb5565b565b906000602091828151910182855af115611cad576000513d613c0857506001600160a01b0381163b155b613be65750565b604051635274afe760e01b81526001600160a01b039091166004820152602490fd5b60011415613bdf565b15613c1857565b60405162461bcd60e51b815260206004820152600a6024820152694e6f2062616c616e636560b01b6044820152606490fd5b60405163a9059cbb60e01b60208201526001600160a01b039092166024830152604480830193909352918152613bb391613c8382613219565b613bb5565b6001600160a01b031660009081526020819052604081205490918291828115613d26576040906026602052205490602254905b818310613cc757505050565b90919394613cd485613172565b50600681015460081c60ff1615613d1e57613d0b613d1792620f424061398f866106148660056004613d119901549101549061381f565b9661382c565b9461382c565b9190613cbb565b509493505050565b935083925050565b15613d3557565b60405162461bcd60e51b815260206004820152601560248201527443616c6c6572206973206e6f74207472757374656560581b6044820152606490fd5b6022548015613db357600019810190811161067c57613d9090613172565b5054601154620151809081810291818304149015171561067c576139969161381f565b50600a54601154620151809081810291818304149015171561067c576139969161381f565b6022548015613dfb57600019810190811161067c57613df690613172565b505490565b50600a5490565b420342811161067c5762015180900490565b60ff600e5416613e23816130f5565b60038114613ecb57613e34816130f5565b60048114613eaa57613e45816130f5565b60018114908115613e96575b50613e7757604051613e6281613235565b600581526453454c494360d81b602082015290565b604051613e8381613235565b600381526243444960e81b602082015290565b60029150613ea3816130f5565b1438613e51565b50604051613eb781613235565b60048152634947504d60e01b602082015290565b50604051613ed881613235565b60048152634950434160e01b602082015290565b613ef590613273565b5060ff601254169060038210156127d75760028203613f175760019150015490565b61271091613f315761394890600160085491015490613900565b6139489060016019549101549061390056fe114e74f6ea3bd819998f78687bfcb11b140da08e9b7d222fa9c1f1ba1f2aa122a26469706673582212205d36428b095397824176f8b820bf3d1929cff67b1c39cd92eb0cbf05461bfe4a64736f6c634300081400332f8788117e7eff1d82e926ec794901d17c78024a50270940304540a733656f0d55f448fdea98c4d29eb340757ef0a66cd03dbb9538908a6a81d96026b71ec47566de8ffda797e3de9c05e8fc57b3bf0ec28a930d40b0d285d93c06501cf6a090ce6d7b5282bd9a3661ae061feed1dbda4e52ab073b1f9285be6e155d9c38d4eca2646970667358221220930d750b8771472c9884f0941ba5acb4ccbe60bcfe0442f5ec8f19643f32aa6f64736f6c63430008140033","opcodes":"PUSH1 0x80 CALLVALUE PUSH3 0x127 JUMPI PUSH1 0x1F PUSH3 0x7396 CODESIZE DUP2 SWAP1 SUB SWAP2 DUP3 ADD PUSH1 0x1F NOT AND DUP4 ADD SWAP2 PUSH1 0x1 PUSH1 0x1 PUSH1 0x40 SHL SUB DUP4 GT DUP5 DUP5 LT OR PUSH3 0x12C JUMPI DUP1 DUP5 SWAP3 PUSH1 0x40 SWAP5 DUP6 MSTORE DUP4 CODECOPY DUP2 ADD SUB SLT PUSH3 0x127 JUMPI PUSH3 0x5A PUSH1 0x20 PUSH3 0x52 DUP4 PUSH3 0x142 JUMP JUMPDEST SWAP3 ADD PUSH3 0x142 JUMP JUMPDEST SWAP1 CALLER ISZERO PUSH3 0x10E JUMPI PUSH1 0x0 SLOAD SWAP2 PUSH1 0x1 DUP1 PUSH1 0xA0 SHL SUB NOT SWAP3 CALLER DUP5 DUP3 AND OR PUSH1 0x0 SSTORE PUSH1 0x40 MLOAD SWAP1 PUSH1 0x1 DUP1 PUSH1 0xA0 SHL SUB SWAP4 DUP5 SWAP2 DUP3 CALLER SWAP2 AND PUSH32 0x8BE0079C531659141344CD1FD0A4F28419497F9722A3DAAFE3B4186F6B6457E0 PUSH1 0x0 DUP1 LOG3 AND SWAP1 DUP2 ISZERO PUSH3 0xDB JUMPI POP DUP4 PUSH1 0x1 SLOAD AND OR PUSH1 0x1 SSTORE AND SWAP1 PUSH1 0x2 SLOAD AND OR PUSH1 0x2 SSTORE PUSH1 0x40 MLOAD PUSH2 0x723E SWAP1 DUP2 PUSH3 0x158 DUP3 CODECOPY RETURN JUMPDEST PUSH3 0x461BCD PUSH1 0xE5 SHL DUP2 MSTORE PUSH1 0x20 PUSH1 0x4 DUP3 ADD MSTORE PUSH1 0xE PUSH1 0x24 DUP3 ADD MSTORE PUSH14 0x496E76616C6964206F7261636C65 PUSH1 0x90 SHL PUSH1 0x44 DUP3 ADD MSTORE PUSH1 0x64 SWAP1 REVERT JUMPDEST PUSH1 0x40 MLOAD PUSH4 0x1E4FBDF7 PUSH1 0xE0 SHL DUP2 MSTORE PUSH1 0x0 PUSH1 0x4 DUP3 ADD MSTORE PUSH1 0x24 SWAP1 REVERT JUMPDEST PUSH1 0x0 DUP1 REVERT JUMPDEST PUSH4 0x4E487B71 PUSH1 0xE0 SHL PUSH1 0x0 MSTORE PUSH1 0x41 PUSH1 0x4 MSTORE PUSH1 0x24 PUSH1 0x0 REVERT JUMPDEST MLOAD SWAP1 PUSH1 0x1 PUSH1 0x1 PUSH1 0xA0 SHL SUB DUP3 AND DUP3 SUB PUSH3 0x127 JUMPI JUMP INVALID PUSH1 0x80 PUSH1 0x40 MSTORE PUSH1 0x4 CALLDATASIZE LT ISZERO PUSH3 0x13 JUMPI PUSH1 0x0 DUP1 REVERT JUMPDEST PUSH1 0x0 CALLDATALOAD PUSH1 0xE0 SHR DUP1 PUSH4 0x1CE3DF95 EQ PUSH3 0x17D7 JUMPI DUP1 PUSH4 0x496B67D4 EQ PUSH3 0x17A9 JUMPI DUP1 PUSH4 0x5016959A EQ PUSH3 0x1789 JUMPI DUP1 PUSH4 0x5796C00B EQ PUSH3 0x136E JUMPI DUP1 PUSH4 0x6412173E EQ PUSH3 0x1343 JUMPI DUP1 PUSH4 0x715018A6 EQ PUSH3 0x12E6 JUMPI DUP1 PUSH4 0x76BB7D5E EQ PUSH3 0x1229 JUMPI DUP1 PUSH4 0x78E21273 EQ PUSH3 0xC4B JUMPI DUP1 PUSH4 0x7ADBF973 EQ PUSH3 0xBC6 JUMPI DUP1 PUSH4 0x7D67CD6F EQ PUSH3 0xA6A JUMPI DUP1 PUSH4 0x7DC0D1D0 EQ PUSH3 0xA3F JUMPI DUP1 PUSH4 0x8DA5CB5B EQ PUSH3 0xA14 JUMPI DUP1 PUSH4 0xAE24CCBC EQ PUSH3 0x8FE JUMPI DUP1 PUSH4 0xB22BEEDA EQ PUSH3 0x821 JUMPI DUP1 PUSH4 0xBB4C4001 EQ PUSH3 0x778 JUMPI DUP1 PUSH4 0xBC8AA678 EQ PUSH3 0x2CD JUMPI DUP1 PUSH4 0xCEA84265 EQ PUSH3 0x6F6 JUMPI DUP1 PUSH4 0xD6AC1D4C EQ PUSH3 0x696 JUMPI DUP1 PUSH4 0xE2156E05 EQ PUSH3 0x676 JUMPI DUP1 PUSH4 0xE3726AA1 EQ PUSH3 0x33C JUMPI DUP1 PUSH4 0xF2295BFB EQ PUSH3 0x2CD JUMPI DUP1 PUSH4 0xF2FDE38B EQ PUSH3 0x23D JUMPI DUP1 PUSH4 0xF36CB7A7 EQ PUSH3 0x1CE JUMPI PUSH4 0xF74B059E EQ PUSH3 0x13D JUMPI PUSH1 0x0 DUP1 REVERT JUMPDEST CALLVALUE PUSH3 0x1C9 JUMPI PUSH1 0x20 CALLDATASIZE PUSH1 0x3 NOT ADD SLT PUSH3 0x1C9 JUMPI PUSH3 0x15A PUSH3 0x1B44 JUMP JUMPDEST PUSH3 0x164 PUSH3 0x1CCC JUMP JUMPDEST PUSH1 0x1 PUSH1 0x1 PUSH1 0xA0 SHL SUB AND DUP1 ISZERO PUSH3 0x18C JUMPI PUSH1 0x1 PUSH1 0x1 PUSH1 0x60 SHL SUB PUSH1 0xA0 SHL PUSH1 0x2 SLOAD AND OR PUSH1 0x2 SSTORE PUSH1 0x0 DUP1 RETURN JUMPDEST PUSH1 0x40 MLOAD PUSH3 0x461BCD PUSH1 0xE5 SHL DUP2 MSTORE PUSH1 0x20 PUSH1 0x4 DUP3 ADD MSTORE PUSH1 0x15 PUSH1 0x24 DUP3 ADD MSTORE PUSH21 0x24B73B30B634B2103830BCB6B2B73A103A37B5B2B7 PUSH1 0x59 SHL PUSH1 0x44 DUP3 ADD MSTORE PUSH1 0x64 SWAP1 REVERT JUMPDEST PUSH1 0x0 DUP1 REVERT JUMPDEST CALLVALUE PUSH3 0x1C9 JUMPI PUSH1 0x20 CALLDATASIZE PUSH1 0x3 NOT ADD SLT PUSH3 0x1C9 JUMPI PUSH1 0x4 CALLDATALOAD PUSH1 0x6 SLOAD DUP2 LT ISZERO PUSH3 0x1C9 JUMPI PUSH3 0x1FA SWAP1 PUSH3 0x197B JUMP JUMPDEST PUSH3 0x227 JUMPI PUSH3 0x20E PUSH3 0x223 SWAP2 PUSH3 0x1C1A JUMP JUMPDEST PUSH1 0x40 MLOAD SWAP2 DUP3 SWAP2 PUSH1 0x20 DUP4 MSTORE PUSH1 0x20 DUP4 ADD SWAP1 PUSH3 0x1B80 JUMP JUMPDEST SUB SWAP1 RETURN JUMPDEST PUSH4 0x4E487B71 PUSH1 0xE0 SHL PUSH1 0x0 MSTORE PUSH1 0x0 PUSH1 0x4 MSTORE PUSH1 0x24 PUSH1 0x0 REVERT JUMPDEST CALLVALUE PUSH3 0x1C9 JUMPI PUSH1 0x20 CALLDATASIZE PUSH1 0x3 NOT ADD SLT PUSH3 0x1C9 JUMPI PUSH3 0x25A PUSH3 0x1B44 JUMP JUMPDEST PUSH3 0x264 PUSH3 0x1CCC JUMP JUMPDEST PUSH1 0x1 PUSH1 0x1 PUSH1 0xA0 SHL SUB SWAP1 DUP2 AND SWAP1 DUP2 ISZERO PUSH3 0x2B4 JUMPI PUSH1 0x0 SLOAD DUP3 PUSH1 0x1 PUSH1 0x1 PUSH1 0x60 SHL SUB PUSH1 0xA0 SHL DUP3 AND OR PUSH1 0x0 SSTORE AND PUSH32 0x8BE0079C531659141344CD1FD0A4F28419497F9722A3DAAFE3B4186F6B6457E0 PUSH1 0x0 DUP1 LOG3 STOP JUMPDEST PUSH1 0x40 MLOAD PUSH4 0x1E4FBDF7 PUSH1 0xE0 SHL DUP2 MSTORE PUSH1 0x0 PUSH1 0x4 DUP3 ADD MSTORE PUSH1 0x24 SWAP1 REVERT JUMPDEST CALLVALUE PUSH3 0x1C9 JUMPI PUSH1 0x20 CALLDATASIZE PUSH1 0x3 NOT ADD SLT PUSH3 0x1C9 JUMPI PUSH1 0x4 CALLDATALOAD PUSH1 0x1 PUSH1 0x1 PUSH1 0x40 SHL SUB DUP2 GT PUSH3 0x1C9 JUMPI PUSH3 0x304 PUSH1 0x20 SWAP2 CALLDATASIZE SWAP1 PUSH1 0x4 ADD PUSH3 0x18D2 JUMP JUMPDEST DUP2 PUSH3 0x31A PUSH1 0x40 MLOAD SWAP3 DUP4 DUP2 MLOAD SWAP4 DUP5 SWAP3 ADD PUSH3 0x1B5B JUMP JUMPDEST PUSH1 0x3 SWAP1 DUP3 ADD SWAP1 DUP2 MSTORE DUP2 SWAP1 SUB DUP3 ADD SWAP1 KECCAK256 SLOAD PUSH1 0x40 MLOAD PUSH1 0x1 PUSH1 0x1 PUSH1 0xA0 SHL SUB SWAP1 SWAP2 AND DUP2 MSTORE RETURN JUMPDEST CALLVALUE PUSH3 0x1C9 JUMPI PUSH1 0xA0 CALLDATASIZE PUSH1 0x3 NOT ADD SLT PUSH3 0x1C9 JUMPI PUSH1 0x1 PUSH1 0x1 PUSH1 0x40 SHL SUB PUSH1 0x4 CALLDATALOAD DUP2 DUP2 GT PUSH3 0x1C9 JUMPI PUSH3 0x372 SWAP1 CALLDATASIZE SWAP1 PUSH1 0x4 ADD PUSH3 0x18D2 JUMP JUMPDEST PUSH1 0x24 SWAP1 DUP2 CALLDATALOAD DUP4 DUP2 GT PUSH3 0x1C9 JUMPI PUSH3 0x38F SWAP1 CALLDATASIZE SWAP1 PUSH1 0x4 ADD PUSH3 0x18D2 JUMP JUMPDEST SWAP3 PUSH1 0x44 CALLDATALOAD SWAP1 DUP2 GT PUSH3 0x1C9 JUMPI PUSH3 0x3AB SWAP1 CALLDATASIZE SWAP1 PUSH1 0x4 ADD PUSH3 0x18D2 JUMP JUMPDEST SWAP1 PUSH1 0x64 CALLDATALOAD SWAP3 PUSH1 0x84 CALLDATALOAD SWAP3 PUSH1 0x3 DUP5 LT ISZERO PUSH3 0x1C9 JUMPI PUSH3 0x3C8 PUSH3 0x1CCC JUMP JUMPDEST DUP3 MLOAD ISZERO PUSH3 0x63C JUMPI DUP5 ISZERO PUSH3 0x5F8 JUMPI PUSH1 0x4 SWAP6 PUSH1 0x40 MLOAD DUP6 DUP6 MLOAD DUP9 PUSH3 0x48E PUSH1 0x20 SWAP12 DUP6 DUP14 DUP1 SWAP8 DUP2 DUP14 ADD SWAP7 PUSH3 0x3FD DUP2 DUP4 DUP11 PUSH3 0x1B5B JUMP JUMPDEST DUP2 ADD PUSH1 0x5 DUP2 MSTORE SUB ADD SWAP1 KECCAK256 ADD SLOAD ISZERO SWAP7 DUP8 PUSH1 0x0 EQ PUSH3 0x5C6 JUMPI PUSH3 0x483 PUSH3 0x470 TIMESTAMP SWAP8 JUMPDEST PUSH1 0x40 MLOAD SWAP10 PUSH3 0x42E DUP12 PUSH3 0x1894 JUMP JUMPDEST DUP11 MSTORE DUP1 DUP11 ADD SWAP4 DUP5 MSTORE PUSH1 0x40 DUP11 ADD SWAP6 DUP7 MSTORE PUSH3 0x44D PUSH1 0x60 DUP12 ADD SWAP9 DUP10 PUSH3 0x1D7B JUMP JUMPDEST PUSH1 0x80 DUP11 ADD SWAP7 PUSH1 0x1 DUP9 MSTORE PUSH1 0xA0 DUP12 ADD SWAP10 DUP11 MSTORE DUP14 PUSH1 0x40 MLOAD SWAP4 DUP5 SWAP3 DUP4 SWAP3 MLOAD SWAP3 DUP4 SWAP2 PUSH3 0x1B5B JUMP JUMPDEST DUP2 ADD PUSH1 0x5 DUP2 MSTORE SUB ADD SWAP1 KECCAK256 SWAP8 MLOAD DUP9 PUSH3 0x1D88 JUMP JUMPDEST MLOAD PUSH1 0x1 DUP8 ADD PUSH3 0x1D88 JUMP JUMPDEST MLOAD PUSH1 0x2 DUP6 ADD SSTORE PUSH1 0x3 DUP5 ADD SWAP2 MLOAD SWAP1 PUSH1 0x3 DUP3 LT ISZERO PUSH3 0x5B1 JUMPI SWAP1 DUP3 SWAP2 PUSH1 0xFF PUSH2 0xFF00 PUSH1 0x4 SWAP7 SWAP6 SLOAD SWAP3 MLOAD ISZERO ISZERO PUSH1 0x8 SHL AND SWAP3 AND SWAP1 PUSH2 0xFFFF NOT AND OR OR SWAP1 SSTORE MLOAD SWAP2 ADD SSTORE PUSH3 0x517 JUMPI JUMPDEST POP SWAP2 PUSH3 0x514 PUSH1 0x40 SWAP3 PUSH3 0x505 PUSH32 0x1D380D2D9F64C06E860786CB63840222C2D06336E472105C7207CEE9C406B0BF SWAP6 PUSH3 0x1D59 JUMP JUMPDEST SWAP6 DUP5 MLOAD SWAP4 DUP5 MSTORE DUP4 ADD SWAP1 PUSH3 0x1BA7 JUMP JUMPDEST LOG2 STOP JUMPDEST PUSH1 0x6 SLOAD PUSH1 0x1 PUSH1 0x40 SHL DUP2 LT ISZERO PUSH3 0x59C JUMPI DUP1 PUSH1 0x1 PUSH3 0x539 SWAP3 ADD PUSH1 0x6 SSTORE PUSH3 0x197B JUMP JUMPDEST SWAP2 SWAP1 SWAP2 PUSH3 0x588 JUMPI POP PUSH1 0x40 SWAP3 PUSH3 0x505 DUP4 PUSH3 0x57C PUSH32 0x1D380D2D9F64C06E860786CB63840222C2D06336E472105C7207CEE9C406B0BF SWAP8 SWAP6 PUSH3 0x514 SWAP6 PUSH3 0x1D88 JUMP JUMPDEST SWAP4 SWAP6 POP POP SWAP3 POP PUSH3 0x4D0 JUMP JUMPDEST PUSH4 0x4E487B71 PUSH1 0xE0 SHL PUSH1 0x0 MSTORE PUSH1 0x0 PUSH1 0x4 MSTORE PUSH1 0x0 REVERT JUMPDEST POP PUSH4 0x4E487B71 PUSH1 0xE0 SHL PUSH1 0x0 SWAP1 DUP2 MSTORE PUSH1 0x41 PUSH1 0x4 MSTORE REVERT JUMPDEST DUP7 PUSH4 0x4E487B71 PUSH1 0xE0 SHL PUSH1 0x0 MSTORE PUSH1 0x21 PUSH1 0x4 MSTORE PUSH1 0x0 REVERT JUMPDEST PUSH3 0x483 PUSH3 0x470 PUSH1 0x4 DUP13 DUP10 PUSH1 0x40 MLOAD DUP1 SWAP3 MLOAD PUSH3 0x5E5 DUP2 DUP4 DUP14 PUSH3 0x1B5B JUMP JUMPDEST DUP2 ADD PUSH1 0x5 DUP2 MSTORE SUB ADD SWAP1 KECCAK256 ADD SLOAD SWAP8 PUSH3 0x41F JUMP JUMPDEST PUSH1 0x40 MLOAD PUSH3 0x461BCD PUSH1 0xE5 SHL DUP2 MSTORE PUSH1 0x20 PUSH1 0x4 DUP3 ADD MSTORE PUSH1 0x18 DUP2 DUP5 ADD MSTORE PUSH32 0x496E76616C696420636F75706F6E206672657175656E63790000000000000000 PUSH1 0x44 DUP3 ADD MSTORE PUSH1 0x64 SWAP1 REVERT JUMPDEST PUSH1 0x40 MLOAD PUSH3 0x461BCD PUSH1 0xE5 SHL DUP2 MSTORE PUSH1 0x20 PUSH1 0x4 DUP3 ADD MSTORE PUSH1 0x13 DUP2 DUP5 ADD MSTORE PUSH19 0x125B9D985B1A59081D195B5C1B185D19481251 PUSH1 0x6A SHL PUSH1 0x44 DUP3 ADD MSTORE PUSH1 0x64 SWAP1 REVERT JUMPDEST CALLVALUE PUSH3 0x1C9 JUMPI PUSH1 0x0 CALLDATASIZE PUSH1 0x3 NOT ADD SLT PUSH3 0x1C9 JUMPI PUSH1 0x20 PUSH1 0x7 SLOAD PUSH1 0x40 MLOAD SWAP1 DUP2 MSTORE RETURN JUMPDEST CALLVALUE PUSH3 0x1C9 JUMPI PUSH1 0x40 CALLDATASIZE PUSH1 0x3 NOT ADD SLT PUSH3 0x1C9 JUMPI PUSH3 0x6B3 PUSH3 0x1B44 JUMP JUMPDEST PUSH1 0x24 CALLDATALOAD SWAP1 PUSH1 0x1 DUP1 PUSH1 0xA0 SHL SUB DUP1 SWAP2 AND PUSH1 0x0 MSTORE PUSH1 0x4 PUSH1 0x20 MSTORE PUSH1 0x40 PUSH1 0x0 KECCAK256 DUP1 SLOAD DUP4 LT ISZERO PUSH3 0x1C9 JUMPI PUSH1 0x20 SWAP3 PUSH3 0x6E6 SWAP2 PUSH3 0x19B3 JUMP JUMPDEST SWAP2 SWAP1 SLOAD PUSH1 0x40 MLOAD SWAP3 PUSH1 0x3 SHL SHR AND DUP2 MSTORE RETURN JUMPDEST CALLVALUE PUSH3 0x1C9 JUMPI PUSH1 0x20 CALLDATASIZE PUSH1 0x3 NOT ADD SLT PUSH3 0x1C9 JUMPI PUSH1 0x4 CALLDATALOAD PUSH1 0x7 SLOAD DUP2 LT ISZERO PUSH3 0x73D JUMPI PUSH3 0x724 PUSH1 0x20 SWAP2 PUSH3 0x192D JUMP JUMPDEST SWAP1 SLOAD PUSH1 0x40 MLOAD PUSH1 0x3 SWAP3 SWAP1 SWAP3 SHL SHR PUSH1 0x1 PUSH1 0x1 PUSH1 0xA0 SHL SUB AND DUP2 MSTORE RETURN JUMPDEST PUSH1 0x40 MLOAD PUSH3 0x461BCD PUSH1 0xE5 SHL DUP2 MSTORE PUSH1 0x20 PUSH1 0x4 DUP3 ADD MSTORE PUSH1 0x13 PUSH1 0x24 DUP3 ADD MSTORE PUSH19 0x496E646578206F7574206F6620626F756E6473 PUSH1 0x68 SHL PUSH1 0x44 DUP3 ADD MSTORE PUSH1 0x64 SWAP1 REVERT JUMPDEST CALLVALUE PUSH3 0x1C9 JUMPI PUSH1 0x20 CALLDATASIZE PUSH1 0x3 NOT ADD SLT PUSH3 0x1C9 JUMPI PUSH1 0x4 CALLDATALOAD PUSH1 0x1 PUSH1 0x1 PUSH1 0x40 SHL SUB DUP2 GT PUSH3 0x1C9 JUMPI PUSH3 0x805 PUSH1 0x20 PUSH3 0x7B5 PUSH1 0x3 SWAP4 CALLDATASIZE SWAP1 PUSH1 0x4 ADD PUSH3 0x18D2 JUMP JUMPDEST PUSH3 0x7BF PUSH3 0x1CCC JUMP JUMPDEST PUSH1 0x40 MLOAD SWAP1 PUSH3 0x7F3 PUSH1 0x4 DUP3 MLOAD SWAP4 DUP6 DUP2 DUP2 DUP7 ADD SWAP7 PUSH3 0x7DF DUP2 DUP4 DUP11 PUSH3 0x1B5B JUMP JUMPDEST DUP2 ADD PUSH1 0x5 DUP2 MSTORE SUB ADD SWAP1 KECCAK256 ADD SLOAD ISZERO ISZERO PUSH3 0x1EA7 JUMP JUMPDEST PUSH1 0x40 MLOAD SWAP4 DUP5 SWAP3 DUP4 SWAP3 MLOAD SWAP3 DUP4 SWAP2 PUSH3 0x1B5B JUMP JUMPDEST PUSH1 0x5 SWAP1 DUP3 ADD SWAP1 DUP2 MSTORE SUB ADD SWAP1 KECCAK256 ADD DUP1 SLOAD PUSH2 0xFF00 NOT AND PUSH2 0x100 OR SWAP1 SSTORE STOP JUMPDEST CALLVALUE PUSH3 0x1C9 JUMPI PUSH1 0x20 CALLDATASIZE PUSH1 0x3 NOT ADD SLT PUSH3 0x1C9 JUMPI PUSH1 0x4 CALLDATALOAD PUSH1 0x1 PUSH1 0x1 PUSH1 0x40 SHL SUB DUP2 GT PUSH3 0x1C9 JUMPI PUSH3 0x874 PUSH1 0x20 PUSH3 0x860 PUSH3 0x8C4 SWAP4 CALLDATASIZE SWAP1 PUSH1 0x4 ADD PUSH3 0x18D2 JUMP JUMPDEST DUP2 PUSH1 0x40 MLOAD SWAP4 DUP3 DUP6 DUP1 SWAP5 MLOAD SWAP4 DUP5 SWAP3 ADD PUSH3 0x1B5B JUMP JUMPDEST DUP2 ADD PUSH1 0x5 DUP2 MSTORE SUB ADD SWAP1 KECCAK256 PUSH3 0x889 DUP2 PUSH3 0x1C1A JUMP JUMPDEST SWAP1 PUSH3 0x898 PUSH1 0x1 DUP3 ADD PUSH3 0x1C1A JUMP JUMPDEST PUSH1 0xFF PUSH1 0x2 DUP4 ADD SLOAD SWAP3 PUSH3 0x8D3 PUSH1 0x4 PUSH1 0x3 DUP4 ADD SLOAD SWAP3 ADD SLOAD SWAP4 PUSH1 0x40 MLOAD SWAP8 DUP9 SWAP8 PUSH1 0xC0 DUP10 MSTORE PUSH1 0xC0 DUP10 ADD SWAP1 PUSH3 0x1B80 JUMP JUMPDEST SWAP1 DUP8 DUP3 SUB PUSH1 0x20 DUP10 ADD MSTORE PUSH3 0x1B80 JUMP JUMPDEST SWAP4 PUSH1 0x40 DUP7 ADD MSTORE PUSH3 0x8EA PUSH1 0x60 DUP7 ADD DUP4 DUP4 AND PUSH3 0x1BA7 JUMP JUMPDEST PUSH1 0x8 SHR AND ISZERO ISZERO PUSH1 0x80 DUP5 ADD MSTORE PUSH1 0xA0 DUP4 ADD MSTORE SUB SWAP1 RETURN JUMPDEST CALLVALUE PUSH3 0x1C9 JUMPI PUSH1 0x0 CALLDATASIZE PUSH1 0x3 NOT ADD SLT PUSH3 0x1C9 JUMPI PUSH1 0x6 SLOAD PUSH1 0x1 PUSH1 0x1 PUSH1 0x40 SHL SUB DUP2 GT PUSH3 0x9FE JUMPI PUSH1 0x40 MLOAD SWAP1 PUSH1 0x20 SWAP1 PUSH3 0x93B DUP3 DUP3 PUSH1 0x5 SHL ADD DUP5 PUSH3 0x18B0 JUMP JUMPDEST DUP1 DUP4 MSTORE DUP2 DUP4 ADD SWAP1 DUP2 PUSH1 0x6 PUSH1 0x0 MSTORE PUSH32 0xF652222313E28459528D920B65115C16C04F3EFC82AAEDC97BE59F3F377C0D3F PUSH1 0x0 SWAP2 JUMPDEST DUP4 DUP4 LT PUSH3 0x9D9 JUMPI POP POP POP POP PUSH1 0x40 MLOAD SWAP2 DUP1 DUP4 ADD SWAP4 DUP2 DUP5 MSTORE MLOAD DUP1 SWAP5 MSTORE PUSH1 0x40 DUP4 ADD SWAP4 PUSH1 0x40 DUP2 PUSH1 0x5 SHL DUP6 ADD ADD SWAP3 SWAP2 PUSH1 0x0 SWAP6 JUMPDEST DUP3 DUP8 LT PUSH3 0x9AA JUMPI DUP6 DUP6 SUB DUP7 RETURN JUMPDEST SWAP1 SWAP2 SWAP3 SWAP4 DUP3 DUP1 PUSH3 0x9C8 PUSH1 0x1 SWAP4 PUSH1 0x3F NOT DUP11 DUP3 SUB ADD DUP7 MSTORE DUP9 MLOAD PUSH3 0x1B80 JUMP JUMPDEST SWAP7 ADD SWAP3 ADD SWAP7 ADD SWAP6 SWAP3 SWAP2 SWAP1 SWAP3 PUSH3 0x99C JUMP JUMPDEST PUSH1 0x1 DUP7 DUP2 SWAP3 PUSH3 0x9EC DUP6 SWAP11 SWAP10 SWAP11 PUSH3 0x1C1A JUMP JUMPDEST DUP2 MSTORE ADD SWAP3 ADD SWAP3 ADD SWAP2 SWAP1 SWAP6 SWAP5 SWAP6 PUSH3 0x96D JUMP JUMPDEST PUSH4 0x4E487B71 PUSH1 0xE0 SHL PUSH1 0x0 MSTORE PUSH1 0x41 PUSH1 0x4 MSTORE PUSH1 0x24 PUSH1 0x0 REVERT JUMPDEST CALLVALUE PUSH3 0x1C9 JUMPI PUSH1 0x0 CALLDATASIZE PUSH1 0x3 NOT ADD SLT PUSH3 0x1C9 JUMPI PUSH1 0x0 SLOAD PUSH1 0x40 MLOAD PUSH1 0x1 PUSH1 0x1 PUSH1 0xA0 SHL SUB SWAP1 SWAP2 AND DUP2 MSTORE PUSH1 0x20 SWAP1 RETURN JUMPDEST CALLVALUE PUSH3 0x1C9 JUMPI PUSH1 0x0 CALLDATASIZE PUSH1 0x3 NOT ADD SLT PUSH3 0x1C9 JUMPI PUSH1 0x1 SLOAD PUSH1 0x40 MLOAD PUSH1 0x1 PUSH1 0x1 PUSH1 0xA0 SHL SUB SWAP1 SWAP2 AND DUP2 MSTORE PUSH1 0x20 SWAP1 RETURN JUMPDEST CALLVALUE PUSH3 0x1C9 JUMPI PUSH1 0x20 DUP1 PUSH1 0x3 NOT CALLDATASIZE ADD SLT PUSH3 0x1C9 JUMPI PUSH1 0x4 CALLDATALOAD SWAP1 PUSH1 0x1 PUSH1 0x1 PUSH1 0x40 SHL SUB DUP3 GT PUSH3 0x1C9 JUMPI PUSH3 0xAEC DUP2 PUSH3 0xAA8 PUSH1 0xC0 SWAP5 CALLDATASIZE SWAP1 PUSH1 0x4 ADD PUSH3 0x18D2 JUMP JUMPDEST PUSH1 0x0 PUSH1 0xA0 PUSH1 0x40 MLOAD PUSH3 0xABA DUP2 PUSH3 0x1894 JUMP JUMPDEST PUSH1 0x60 DUP2 MSTORE PUSH1 0x60 DUP6 DUP3 ADD MSTORE DUP3 PUSH1 0x40 DUP3 ADD MSTORE DUP3 PUSH1 0x60 DUP3 ADD MSTORE DUP3 PUSH1 0x80 DUP3 ADD MSTORE ADD MSTORE DUP2 PUSH1 0x40 MLOAD SWAP4 DUP3 DUP6 DUP1 SWAP5 MLOAD SWAP4 DUP5 SWAP3 ADD PUSH3 0x1B5B JUMP JUMPDEST DUP2 ADD PUSH1 0x5 DUP2 MSTORE SUB ADD SWAP1 KECCAK256 PUSH1 0x40 MLOAD SWAP2 PUSH3 0xB05 DUP4 PUSH3 0x1894 JUMP JUMPDEST PUSH3 0xB10 DUP3 PUSH3 0x1C1A JUMP JUMPDEST DUP4 MSTORE PUSH3 0xB20 PUSH1 0x1 DUP4 ADD PUSH3 0x1C1A JUMP JUMPDEST DUP2 DUP5 ADD SWAP1 DUP2 MSTORE PUSH3 0xBB4 PUSH1 0x2 DUP5 ADD SLOAD SWAP4 PUSH1 0x40 DUP7 ADD SWAP5 DUP6 MSTORE PUSH3 0xBA1 PUSH1 0x3 DUP3 ADD SLOAD SWAP4 PUSH3 0xB8D PUSH1 0x4 PUSH1 0x60 DUP11 ADD SWAP5 PUSH3 0xB5B PUSH1 0xFF DUP10 AND DUP8 PUSH3 0x1D7B JUMP JUMPDEST PUSH1 0xFF PUSH1 0x80 DUP13 ADD SWAP9 PUSH1 0x8 SHR AND ISZERO ISZERO DUP9 MSTORE ADD SLOAD SWAP7 PUSH1 0xA0 DUP11 ADD SWAP8 DUP9 MSTORE PUSH1 0x40 MLOAD SWAP11 DUP12 SWAP11 DUP3 DUP13 MSTORE MLOAD SWAP2 DUP12 ADD MSTORE PUSH1 0xE0 DUP11 ADD SWAP1 PUSH3 0x1B80 JUMP JUMPDEST SWAP1 MLOAD DUP9 DUP3 SUB PUSH1 0x1F NOT ADD PUSH1 0x40 DUP11 ADD MSTORE PUSH3 0x1B80 JUMP JUMPDEST SWAP5 MLOAD PUSH1 0x60 DUP8 ADD MSTORE MLOAD PUSH1 0x80 DUP7 ADD SWAP1 PUSH3 0x1BA7 JUMP JUMPDEST MLOAD ISZERO ISZERO PUSH1 0xA0 DUP5 ADD MSTORE MLOAD PUSH1 0xC0 DUP4 ADD MSTORE SUB SWAP1 RETURN JUMPDEST CALLVALUE PUSH3 0x1C9 JUMPI PUSH1 0x20 CALLDATASIZE PUSH1 0x3 NOT ADD SLT PUSH3 0x1C9 JUMPI PUSH3 0xBE3 PUSH3 0x1B44 JUMP JUMPDEST PUSH3 0xBED PUSH3 0x1CCC JUMP JUMPDEST PUSH1 0x1 PUSH1 0x1 PUSH1 0xA0 SHL SUB AND DUP1 ISZERO PUSH3 0xC15 JUMPI PUSH1 0x1 PUSH1 0x1 PUSH1 0x60 SHL SUB PUSH1 0xA0 SHL PUSH1 0x1 SLOAD AND OR PUSH1 0x1 SSTORE PUSH1 0x0 DUP1 RETURN JUMPDEST PUSH1 0x40 MLOAD PUSH3 0x461BCD PUSH1 0xE5 SHL DUP2 MSTORE PUSH1 0x20 PUSH1 0x4 DUP3 ADD MSTORE PUSH1 0xE PUSH1 0x24 DUP3 ADD MSTORE PUSH14 0x496E76616C6964206F7261636C65 PUSH1 0x90 SHL PUSH1 0x44 DUP3 ADD MSTORE PUSH1 0x64 SWAP1 REVERT JUMPDEST CALLVALUE PUSH3 0x1C9 JUMPI PUSH1 0xA0 CALLDATASIZE PUSH1 0x3 NOT ADD SLT PUSH3 0x1C9 JUMPI PUSH1 0x4 CALLDATALOAD PUSH1 0x1 PUSH1 0x1 PUSH1 0x40 SHL SUB DUP2 GT PUSH3 0x1C9 JUMPI PUSH3 0xC80 SWAP1 CALLDATASIZE SWAP1 PUSH1 0x4 ADD PUSH3 0x18D2 JUMP JUMPDEST PUSH1 0x24 CALLDATALOAD PUSH1 0x1 PUSH1 0x1 PUSH1 0x40 SHL SUB DUP2 GT PUSH3 0x1C9 JUMPI PUSH3 0xCA2 SWAP1 CALLDATASIZE SWAP1 PUSH1 0x4 ADD PUSH3 0x18D2 JUMP JUMPDEST SWAP1 PUSH1 0x44 CALLDATALOAD PUSH1 0x1 PUSH1 0x1 PUSH1 0x40 SHL SUB DUP2 GT PUSH3 0x1C9 JUMPI PUSH3 0xCC5 SWAP1 CALLDATASIZE SWAP1 PUSH1 0x4 ADD PUSH3 0x18D2 JUMP JUMPDEST SWAP1 PUSH1 0x64 CALLDATALOAD PUSH1 0x1 PUSH1 0x1 PUSH1 0x40 SHL SUB DUP2 GT PUSH3 0x1C9 JUMPI PUSH3 0xCE8 SWAP1 CALLDATASIZE SWAP1 PUSH1 0x4 ADD PUSH3 0x19DA JUMP JUMPDEST SWAP1 PUSH3 0xD0E PUSH1 0x20 PUSH3 0xCF9 PUSH3 0x1B2D JUMP JUMPDEST SWAP3 DUP2 PUSH1 0x40 MLOAD SWAP4 DUP3 DUP6 DUP1 SWAP5 MLOAD SWAP4 DUP5 SWAP3 ADD PUSH3 0x1B5B JUMP JUMPDEST DUP2 ADD PUSH1 0x5 DUP2 MSTORE SUB ADD SWAP1 KECCAK256 PUSH1 0x40 MLOAD SWAP1 PUSH3 0xD27 DUP3 PUSH3 0x1894 JUMP JUMPDEST PUSH3 0xD32 DUP2 PUSH3 0x1C1A JUMP JUMPDEST DUP3 MSTORE PUSH3 0xD42 PUSH1 0x1 DUP3 ADD PUSH3 0x1C1A JUMP JUMPDEST PUSH1 0x20 DUP4 ADD MSTORE PUSH1 0x2 DUP2 ADD SLOAD SWAP1 PUSH1 0x40 DUP4 ADD SWAP2 DUP3 MSTORE PUSH1 0x3 DUP2 ADD SLOAD SWAP3 PUSH1 0xA0 PUSH1 0x4 PUSH1 0xFF PUSH1 0x60 DUP5 ADD SWAP7 PUSH3 0xD73 DUP3 DUP3 AND DUP10 PUSH3 0x1D7B JUMP JUMPDEST PUSH1 0x8 SHR AND ISZERO SWAP4 DUP5 ISZERO PUSH1 0x80 DUP6 ADD MSTORE ADD SLOAD SWAP2 ADD MSTORE PUSH3 0x11E4 JUMPI MLOAD PUSH2 0x120 DUP5 ADD MSTORE MLOAD PUSH1 0x3 DUP2 LT ISZERO PUSH3 0x1098 JUMPI PUSH3 0xDAC SWAP1 PUSH2 0x140 DUP5 ADD PUSH3 0x1D7B JUMP JUMPDEST DUP4 MLOAD ISZERO PUSH3 0x11B0 JUMPI DUP3 MLOAD ISZERO PUSH3 0x117A JUMPI PUSH1 0xC PUSH2 0x160 DUP4 ADD MLOAD MLOAD SUB PUSH3 0x1141 JUMPI PUSH2 0x160 DUP3 ADD MLOAD PUSH1 0x1 PUSH1 0x1 PUSH1 0xA0 SHL SUB SWAP1 PUSH3 0xDE5 SWAP1 PUSH3 0x1BB5 JUMP JUMPDEST SLOAD AND PUSH3 0x1106 JUMPI PUSH1 0x1 PUSH1 0x1 PUSH1 0xA0 SHL SUB DUP2 AND ISZERO PUSH3 0x10F3 JUMPI JUMPDEST PUSH1 0x1 PUSH1 0x1 PUSH1 0xA0 SHL SUB DUP2 AND ISZERO PUSH3 0x10AE JUMPI PUSH1 0x1 DUP1 PUSH1 0xA0 SHL SUB PUSH1 0x1 SLOAD AND PUSH1 0x40 MLOAD SWAP2 DUP3 PUSH2 0x531F DUP2 ADD LT PUSH1 0x1 PUSH1 0x1 PUSH1 0x40 SHL SUB PUSH2 0x531F DUP6 ADD GT OR PUSH3 0x9FE JUMPI PUSH2 0x531F PUSH3 0x1EEA DUP5 CODECOPY PUSH1 0xE0 PUSH2 0x531F DUP5 ADD MSTORE PUSH3 0xE76 PUSH3 0xE5F PUSH1 0xE0 PUSH2 0x531F DUP7 ADD ADD DUP9 PUSH3 0x1B80 JUMP JUMPDEST PUSH2 0x531F DUP6 ADD DUP2 SUB PUSH1 0x20 PUSH2 0x531F DUP8 ADD ADD MSTORE DUP7 PUSH3 0x1B80 JUMP JUMPDEST SWAP1 PUSH2 0x531F DUP5 ADD DUP3 SUB PUSH1 0x40 PUSH2 0x531F DUP7 ADD ADD MSTORE DUP5 MLOAD DUP3 MSTORE PUSH1 0x20 DUP6 ADD MLOAD PUSH1 0x20 DUP4 ADD MSTORE PUSH1 0x40 DUP6 ADD MLOAD PUSH1 0x40 DUP4 ADD MSTORE PUSH1 0x60 DUP6 ADD MLOAD PUSH1 0x60 DUP4 ADD MSTORE PUSH1 0xFF PUSH1 0x80 DUP7 ADD MLOAD AND PUSH1 0x80 DUP4 ADD MSTORE PUSH1 0xA0 DUP6 ADD MLOAD PUSH1 0xA0 DUP4 ADD MSTORE PUSH1 0xC0 DUP6 ADD MLOAD SWAP3 PUSH1 0x5 DUP5 LT ISZERO PUSH3 0x1098 JUMPI DUP5 SWAP4 PUSH1 0xC0 DUP5 ADD MSTORE PUSH1 0xE0 DUP7 ADD MLOAD PUSH1 0xE0 DUP5 ADD MSTORE PUSH2 0x100 DUP1 DUP8 ADD MLOAD SWAP1 DUP5 ADD MSTORE PUSH2 0x120 DUP7 ADD MLOAD PUSH2 0x120 DUP5 ADD MSTORE PUSH3 0xF0E PUSH2 0x140 DUP8 ADD MLOAD PUSH2 0x140 DUP6 ADD SWAP1 PUSH3 0x1BA7 JUMP JUMPDEST PUSH3 0xF5D PUSH3 0xF48 PUSH3 0xF33 PUSH2 0x160 DUP10 ADD MLOAD PUSH2 0x220 DUP1 PUSH2 0x160 DUP10 ADD MSTORE DUP8 ADD SWAP1 PUSH3 0x1B80 JUMP JUMPDEST PUSH2 0x180 DUP1 DUP11 ADD MLOAD SWAP1 DUP8 DUP4 SUB SWAP1 DUP9 ADD MSTORE PUSH3 0x1B80 JUMP JUMPDEST PUSH2 0x1A0 DUP1 DUP10 ADD MLOAD SWAP1 DUP7 DUP4 SUB SWAP1 DUP8 ADD MSTORE PUSH3 0x1B80 JUMP JUMPDEST SWAP3 PUSH2 0x1C0 DUP1 DUP9 ADD MLOAD ISZERO ISZERO SWAP1 DUP3 ADD MSTORE PUSH2 0x1E0 DUP1 DUP9 ADD MLOAD ISZERO ISZERO SWAP1 DUP3 ADD MSTORE PUSH2 0x200 DUP1 DUP9 ADD MLOAD SWAP2 ADD MSTORE PUSH1 0x60 PUSH2 0x531F DUP6 ADD ADD MSTORE PUSH1 0x1 DUP1 PUSH1 0xA0 SHL SUB AND PUSH1 0x80 PUSH2 0x531F DUP5 ADD ADD MSTORE CALLER PUSH1 0xA0 PUSH2 0x531F DUP5 ADD ADD MSTORE CALLER PUSH1 0xC0 PUSH2 0x531F DUP5 ADD ADD MSTORE SUB SWAP1 PUSH1 0x0 CREATE SWAP2 DUP3 ISZERO PUSH3 0x108C JUMPI PUSH1 0x20 SWAP4 PUSH32 0x6CFF86004AB7A564DB40806C1E028B796E9021EEE0E9EAE98470CEF4511231C0 SWAP4 PUSH1 0x1 DUP1 PUSH1 0xA0 SHL SUB AND SWAP4 DUP5 SWAP2 PUSH3 0xFFD PUSH2 0x160 DUP7 ADD MLOAD PUSH3 0x1BB5 JUMP JUMPDEST DUP4 PUSH1 0x1 PUSH1 0x1 PUSH1 0x60 SHL SUB PUSH1 0xA0 SHL DUP3 SLOAD AND OR SWAP1 SSTORE CALLER PUSH1 0x0 MSTORE PUSH1 0x4 DUP8 MSTORE PUSH3 0x1027 DUP4 PUSH1 0x40 PUSH1 0x0 KECCAK256 PUSH3 0x1D39 JUMP JUMPDEST PUSH3 0x1032 DUP4 PUSH3 0x1CF9 JUMP JUMPDEST PUSH2 0x160 DUP6 ADD MLOAD PUSH3 0x1073 PUSH3 0x104D DUP10 DUP9 MLOAD SWAP9 ADD MLOAD SWAP3 PUSH3 0x1D59 JUMP JUMPDEST SWAP6 PUSH3 0x1065 PUSH1 0x40 MLOAD SWAP5 PUSH1 0x80 DUP7 MSTORE PUSH1 0x80 DUP7 ADD SWAP1 PUSH3 0x1B80 JUMP JUMPDEST SWAP1 DUP5 DUP3 SUB DUP12 DUP7 ADD MSTORE PUSH3 0x1B80 JUMP JUMPDEST SWAP6 PUSH1 0x40 DUP4 ADD MSTORE PUSH1 0x60 DUP3 ADD MSTORE DUP1 CALLER SWAP6 SUB SWAP1 LOG4 PUSH1 0x40 MLOAD SWAP1 DUP2 MSTORE RETURN JUMPDEST PUSH1 0x40 MLOAD RETURNDATASIZE PUSH1 0x0 DUP3 RETURNDATACOPY RETURNDATASIZE SWAP1 REVERT JUMPDEST PUSH4 0x4E487B71 PUSH1 0xE0 SHL PUSH1 0x0 MSTORE PUSH1 0x21 PUSH1 0x4 MSTORE PUSH1 0x24 PUSH1 0x0 REVERT JUMPDEST PUSH1 0x40 MLOAD PUSH3 0x461BCD PUSH1 0xE5 SHL DUP2 MSTORE PUSH1 0x20 PUSH1 0x4 DUP3 ADD MSTORE PUSH1 0x1A PUSH1 0x24 DUP3 ADD MSTORE PUSH32 0x4E6F207061796D656E7420746F6B656E20737065636966696564000000000000 PUSH1 0x44 DUP3 ADD MSTORE PUSH1 0x64 SWAP1 REVERT JUMPDEST POP PUSH1 0x2 SLOAD PUSH1 0x1 PUSH1 0x1 PUSH1 0xA0 SHL SUB AND PUSH3 0xDFD JUMP JUMPDEST PUSH1 0x40 MLOAD PUSH3 0x461BCD PUSH1 0xE5 SHL DUP2 MSTORE PUSH1 0x20 PUSH1 0x4 DUP3 ADD MSTORE PUSH1 0x13 PUSH1 0x24 DUP3 ADD MSTORE PUSH19 0x1254D25388185B1C9958591E481A5CDCDD5959 PUSH1 0x6A SHL PUSH1 0x44 DUP3 ADD MSTORE PUSH1 0x64 SWAP1 REVERT JUMPDEST PUSH1 0x40 MLOAD PUSH3 0x461BCD PUSH1 0xE5 SHL DUP2 MSTORE PUSH1 0x20 PUSH1 0x4 DUP3 ADD MSTORE PUSH1 0x11 PUSH1 0x24 DUP3 ADD MSTORE PUSH17 0x496E76616C6964204953494E20636F6465 PUSH1 0x78 SHL PUSH1 0x44 DUP3 ADD MSTORE PUSH1 0x64 SWAP1 REVERT JUMPDEST PUSH1 0x40 MLOAD PUSH3 0x461BCD PUSH1 0xE5 SHL DUP2 MSTORE PUSH1 0x20 PUSH1 0x4 DUP3 ADD MSTORE PUSH1 0xE PUSH1 0x24 DUP3 ADD MSTORE PUSH14 0x125B9D985B1A59081CDE5B589BDB PUSH1 0x92 SHL PUSH1 0x44 DUP3 ADD MSTORE PUSH1 0x64 SWAP1 REVERT JUMPDEST PUSH1 0x40 MLOAD PUSH3 0x461BCD PUSH1 0xE5 SHL DUP2 MSTORE PUSH1 0x20 PUSH1 0x4 DUP3 ADD MSTORE PUSH1 0xC PUSH1 0x24 DUP3 ADD MSTORE PUSH12 0x496E76616C6964206E616D65 PUSH1 0xA0 SHL PUSH1 0x44 DUP3 ADD MSTORE PUSH1 0x64 SWAP1 REVERT JUMPDEST PUSH1 0x40 MLOAD PUSH3 0x461BCD PUSH1 0xE5 SHL DUP2 MSTORE PUSH1 0x20 PUSH1 0x4 DUP3 ADD MSTORE PUSH1 0x1C PUSH1 0x24 DUP3 ADD MSTORE PUSH32 0x496E76616C6964206F7220696E6163746976652074656D706C61746500000000 PUSH1 0x44 DUP3 ADD MSTORE PUSH1 0x64 SWAP1 REVERT JUMPDEST CALLVALUE PUSH3 0x1C9 JUMPI PUSH1 0x20 DUP1 PUSH1 0x3 NOT CALLDATASIZE ADD SLT PUSH3 0x1C9 JUMPI PUSH1 0x1 PUSH1 0x1 PUSH1 0xA0 SHL SUB SWAP1 DUP2 PUSH3 0x1251 PUSH3 0x1B44 JUMP JUMPDEST AND PUSH1 0x0 MSTORE PUSH1 0x4 DUP2 MSTORE PUSH1 0x40 PUSH1 0x0 KECCAK256 PUSH1 0x40 MLOAD SWAP2 DUP3 DUP2 DUP4 SLOAD SWAP2 DUP3 DUP2 MSTORE ADD SWAP1 DUP2 SWAP4 PUSH1 0x0 MSTORE DUP3 PUSH1 0x0 KECCAK256 SWAP1 PUSH1 0x0 JUMPDEST DUP2 DUP2 LT PUSH3 0x12CF JUMPI POP POP POP DUP4 PUSH3 0x1292 SWAP2 SUB DUP5 PUSH3 0x18B0 JUMP JUMPDEST PUSH1 0x40 MLOAD SWAP3 DUP2 DUP5 ADD SWAP1 DUP3 DUP6 MSTORE MLOAD DUP1 SWAP2 MSTORE PUSH1 0x40 DUP5 ADD SWAP3 SWAP2 PUSH1 0x0 JUMPDEST DUP3 DUP2 LT PUSH3 0x12B8 JUMPI DUP6 DUP6 SUB DUP7 RETURN JUMPDEST DUP4 MLOAD DUP8 AND DUP6 MSTORE SWAP4 DUP2 ADD SWAP4 SWAP3 DUP2 ADD SWAP3 PUSH1 0x1 ADD PUSH3 0x12AA JUMP JUMPDEST DUP3 SLOAD DUP9 AND DUP5 MSTORE SWAP3 DUP5 ADD SWAP3 PUSH1 0x1 SWAP3 DUP4 ADD SWAP3 ADD PUSH3 0x1279 JUMP JUMPDEST CALLVALUE PUSH3 0x1C9 JUMPI PUSH1 0x0 CALLDATASIZE PUSH1 0x3 NOT ADD SLT PUSH3 0x1C9 JUMPI PUSH3 0x1303 PUSH3 0x1CCC JUMP JUMPDEST PUSH1 0x0 DUP1 SLOAD PUSH1 0x1 PUSH1 0x1 PUSH1 0xA0 SHL SUB NOT DUP2 AND DUP3 SSTORE PUSH1 0x1 PUSH1 0x1 PUSH1 0xA0 SHL SUB AND PUSH32 0x8BE0079C531659141344CD1FD0A4F28419497F9722A3DAAFE3B4186F6B6457E0 DUP3 DUP1 LOG3 STOP JUMPDEST CALLVALUE PUSH3 0x1C9 JUMPI PUSH1 0x0 CALLDATASIZE PUSH1 0x3 NOT ADD SLT PUSH3 0x1C9 JUMPI PUSH1 0x2 SLOAD PUSH1 0x40 MLOAD PUSH1 0x1 PUSH1 0x1 PUSH1 0xA0 SHL SUB SWAP1 SWAP2 AND DUP2 MSTORE PUSH1 0x20 SWAP1 RETURN JUMPDEST CALLVALUE PUSH3 0x1C9 JUMPI PUSH1 0xA0 CALLDATASIZE PUSH1 0x3 NOT ADD SLT PUSH3 0x1C9 JUMPI PUSH1 0x1 PUSH1 0x1 PUSH1 0x40 SHL SUB PUSH1 0x4 CALLDATALOAD DUP2 DUP2 GT PUSH3 0x1C9 JUMPI PUSH3 0x13A4 SWAP1 CALLDATASIZE SWAP1 PUSH1 0x4 ADD PUSH3 0x18D2 JUMP JUMPDEST SWAP1 PUSH1 0x24 CALLDATALOAD DUP2 DUP2 GT PUSH3 0x1C9 JUMPI PUSH3 0x13C0 SWAP1 CALLDATASIZE SWAP1 PUSH1 0x4 ADD PUSH3 0x18D2 JUMP JUMPDEST SWAP1 PUSH1 0x44 SWAP1 DUP2 CALLDATALOAD DUP2 DUP2 GT PUSH3 0x1C9 JUMPI PUSH3 0x13DE SWAP1 CALLDATASIZE SWAP1 PUSH1 0x4 ADD PUSH3 0x19DA JUMP JUMPDEST SWAP2 PUSH1 0x1 PUSH1 0x1 PUSH1 0xA0 SHL SUB PUSH1 0x64 DUP1 CALLDATALOAD SWAP2 DUP3 AND SWAP2 DUP3 DUP2 SUB PUSH3 0x1C9 JUMPI PUSH3 0x1401 PUSH3 0x1B2D JUMP JUMPDEST SWAP3 DUP9 MLOAD ISZERO PUSH3 0x1757 JUMPI DUP8 MLOAD ISZERO PUSH3 0x1723 JUMPI PUSH1 0xC PUSH2 0x160 DUP9 ADD MLOAD MLOAD SUB PUSH3 0x16EC JUMPI PUSH2 0x160 DUP8 ADD MLOAD PUSH1 0x1 PUSH1 0x1 PUSH1 0xA0 SHL SUB SWAP1 PUSH3 0x143B SWAP1 PUSH3 0x1BB5 JUMP JUMPDEST SLOAD AND PUSH3 0x16B3 JUMPI ISZERO PUSH3 0x169F JUMPI SWAP3 JUMPDEST PUSH1 0x1 PUSH1 0x1 PUSH1 0xA0 SHL SUB DUP5 AND ISZERO PUSH3 0x165E JUMPI POP POP PUSH1 0x1 PUSH1 0x1 PUSH1 0xA0 SHL SUB DUP2 AND ISZERO PUSH3 0x1655 JUMPI SWAP1 JUMPDEST PUSH1 0x1 DUP1 PUSH1 0xA0 SHL SUB PUSH1 0x1 SLOAD AND SWAP2 PUSH1 0x40 MLOAD SWAP4 DUP5 PUSH2 0x531F DUP2 ADD LT SWAP1 PUSH2 0x531F DUP7 ADD GT OR PUSH3 0x9FE JUMPI PUSH2 0x531F PUSH3 0x1EEA DUP6 CODECOPY PUSH1 0xE0 PUSH2 0x531F DUP6 ADD MSTORE PUSH3 0x14D1 PUSH3 0x14BA PUSH1 0xE0 PUSH2 0x531F DUP8 ADD ADD DUP10 PUSH3 0x1B80 JUMP JUMPDEST PUSH2 0x531F DUP7 ADD DUP2 SUB PUSH1 0x20 PUSH2 0x531F DUP9 ADD ADD MSTORE DUP8 PUSH3 0x1B80 JUMP JUMPDEST SWAP2 PUSH2 0x531F DUP6 ADD DUP4 SUB PUSH1 0x40 PUSH2 0x531F DUP8 ADD ADD MSTORE DUP6 MLOAD DUP4 MSTORE PUSH1 0x20 DUP7 ADD MLOAD PUSH1 0x20 DUP5 ADD MSTORE PUSH1 0x40 DUP7 ADD MLOAD PUSH1 0x40 DUP5 ADD MSTORE PUSH1 0x60 DUP7 ADD MLOAD PUSH1 0x60 DUP5 ADD MSTORE PUSH1 0xFF PUSH1 0x80 DUP8 ADD MLOAD AND PUSH1 0x80 DUP5 ADD MSTORE PUSH1 0xA0 DUP7 ADD MLOAD PUSH1 0xA0 DUP5 ADD MSTORE PUSH1 0xC0 DUP7 ADD MLOAD SWAP4 PUSH1 0x5 DUP6 LT ISZERO PUSH3 0x1098 JUMPI DUP6 SWAP5 PUSH1 0xC0 DUP6 ADD MSTORE PUSH1 0xE0 DUP8 ADD MLOAD PUSH1 0xE0 DUP6 ADD MSTORE PUSH2 0x100 DUP1 DUP9 ADD MLOAD SWAP1 DUP6 ADD MSTORE PUSH2 0x120 DUP1 DUP9 ADD MLOAD SWAP1 DUP6 ADD MSTORE PUSH3 0x1567 PUSH2 0x140 DUP1 DUP10 ADD MLOAD SWAP1 DUP7 ADD SWAP1 PUSH3 0x1BA7 JUMP JUMPDEST PUSH3 0x15B6 PUSH3 0x15A1 PUSH3 0x158C PUSH2 0x160 DUP11 ADD MLOAD PUSH2 0x220 DUP1 PUSH2 0x160 DUP11 ADD MSTORE DUP9 ADD SWAP1 PUSH3 0x1B80 JUMP JUMPDEST PUSH2 0x180 DUP1 DUP12 ADD MLOAD SWAP1 DUP9 DUP4 SUB SWAP1 DUP10 ADD MSTORE PUSH3 0x1B80 JUMP JUMPDEST PUSH2 0x1A0 DUP1 DUP11 ADD MLOAD SWAP1 DUP8 DUP4 SUB SWAP1 DUP9 ADD MSTORE PUSH3 0x1B80 JUMP JUMPDEST PUSH2 0x1C0 DUP9 DUP2 ADD MLOAD ISZERO ISZERO SWAP1 DUP7 ADD MSTORE PUSH2 0x1E0 DUP1 DUP10 ADD MLOAD ISZERO ISZERO SWAP1 DUP7 ADD MSTORE PUSH2 0x200 DUP1 DUP10 ADD MLOAD SWAP6 ADD SWAP5 SWAP1 SWAP5 MSTORE PUSH2 0x531F DUP6 ADD PUSH1 0x60 DUP2 ADD SWAP2 SWAP1 SWAP2 MSTORE PUSH1 0x1 PUSH1 0x1 PUSH1 0xA0 SHL SUB SWAP2 DUP3 AND PUSH1 0x80 DUP3 ADD MSTORE CALLER PUSH1 0xA0 DUP3 ADD MSTORE SWAP2 AND PUSH1 0xC0 SWAP1 SWAP2 ADD MSTORE SUB SWAP1 PUSH1 0x0 CREATE SWAP2 DUP3 ISZERO PUSH3 0x108C JUMPI PUSH1 0x20 SWAP4 PUSH32 0x6CFF86004AB7A564DB40806C1E028B796E9021EEE0E9EAE98470CEF4511231C0 SWAP4 PUSH1 0x1 DUP1 PUSH1 0xA0 SHL SUB AND SWAP4 DUP5 SWAP2 PUSH3 0xFFD PUSH2 0x160 DUP7 ADD MLOAD PUSH3 0x1BB5 JUMP JUMPDEST POP CALLER SWAP1 PUSH3 0x146E JUMP JUMPDEST PUSH32 0x4E6F207061796D656E7420746F6B656E20737065636966696564000000000000 PUSH1 0x40 MLOAD SWAP2 PUSH3 0x461BCD PUSH1 0xE5 SHL DUP4 MSTORE PUSH1 0x20 PUSH1 0x4 DUP5 ADD MSTORE PUSH1 0x1A PUSH1 0x24 DUP5 ADD MSTORE DUP3 ADD MSTORE REVERT JUMPDEST POP PUSH1 0x2 SLOAD PUSH1 0x1 PUSH1 0x1 PUSH1 0xA0 SHL SUB AND SWAP3 PUSH3 0x144A JUMP JUMPDEST PUSH1 0x40 MLOAD PUSH3 0x461BCD PUSH1 0xE5 SHL DUP2 MSTORE PUSH1 0x20 PUSH1 0x4 DUP3 ADD MSTORE PUSH1 0x13 PUSH1 0x24 DUP3 ADD MSTORE PUSH19 0x1254D25388185B1C9958591E481A5CDCDD5959 PUSH1 0x6A SHL DUP2 DUP8 ADD MSTORE DUP4 SWAP1 REVERT JUMPDEST PUSH1 0x40 MLOAD PUSH3 0x461BCD PUSH1 0xE5 SHL DUP2 MSTORE PUSH1 0x20 PUSH1 0x4 DUP3 ADD MSTORE PUSH1 0x11 PUSH1 0x24 DUP3 ADD MSTORE PUSH17 0x496E76616C6964204953494E20636F6465 PUSH1 0x78 SHL DUP2 DUP8 ADD MSTORE DUP4 SWAP1 REVERT JUMPDEST PUSH1 0x40 MLOAD PUSH3 0x461BCD PUSH1 0xE5 SHL DUP2 MSTORE PUSH1 0x20 PUSH1 0x4 DUP3 ADD MSTORE PUSH1 0xE PUSH1 0x24 DUP3 ADD MSTORE PUSH14 0x125B9D985B1A59081CDE5B589BDB PUSH1 0x92 SHL DUP2 DUP8 ADD MSTORE DUP4 SWAP1 REVERT JUMPDEST PUSH1 0x40 MLOAD PUSH3 0x461BCD PUSH1 0xE5 SHL DUP2 MSTORE PUSH1 0x20 PUSH1 0x4 DUP3 ADD MSTORE PUSH1 0xC PUSH1 0x24 DUP3 ADD MSTORE PUSH12 0x496E76616C6964206E616D65 PUSH1 0xA0 SHL DUP2 DUP8 ADD MSTORE DUP4 SWAP1 REVERT JUMPDEST CALLVALUE PUSH3 0x1C9 JUMPI PUSH1 0x0 CALLDATASIZE PUSH1 0x3 NOT ADD SLT PUSH3 0x1C9 JUMPI PUSH1 0x20 PUSH1 0x6 SLOAD PUSH1 0x40 MLOAD SWAP1 DUP2 MSTORE RETURN JUMPDEST CALLVALUE PUSH3 0x1C9 JUMPI PUSH1 0x20 CALLDATASIZE PUSH1 0x3 NOT ADD SLT PUSH3 0x1C9 JUMPI PUSH1 0x4 CALLDATALOAD PUSH1 0x7 SLOAD DUP2 LT ISZERO PUSH3 0x1C9 JUMPI PUSH3 0x724 PUSH1 0x20 SWAP2 PUSH3 0x192D JUMP JUMPDEST CALLVALUE PUSH3 0x1C9 JUMPI PUSH1 0x20 CALLDATASIZE PUSH1 0x3 NOT ADD SLT PUSH3 0x1C9 JUMPI PUSH1 0x4 CALLDATALOAD PUSH1 0x1 PUSH1 0x1 PUSH1 0x40 SHL SUB DUP2 GT PUSH3 0x1C9 JUMPI PUSH3 0x1810 PUSH3 0x186D SWAP2 CALLDATASIZE SWAP1 PUSH1 0x4 ADD PUSH3 0x18D2 JUMP JUMPDEST PUSH3 0x181A PUSH3 0x1CCC JUMP JUMPDEST PUSH1 0x3 PUSH3 0x1853 PUSH1 0x20 PUSH1 0x40 MLOAD PUSH3 0x1841 PUSH1 0x4 DUP7 MLOAD SWAP3 DUP5 DUP2 DUP2 DUP11 ADD SWAP6 PUSH3 0x7DF DUP2 DUP4 DUP10 PUSH3 0x1B5B JUMP JUMPDEST PUSH1 0x40 MLOAD DUP1 SWAP4 DUP2 SWAP3 DUP8 MLOAD SWAP3 DUP4 SWAP2 PUSH3 0x1B5B JUMP JUMPDEST DUP2 ADD PUSH1 0x5 DUP2 MSTORE SUB ADD SWAP1 KECCAK256 ADD PUSH2 0xFF00 NOT DUP2 SLOAD AND SWAP1 SSTORE PUSH3 0x1D59 JUMP JUMPDEST PUSH32 0xE8ECFE02D55835F7750F1D171851784476FC3CDC61E64843B32AE8A4DC39F6AC PUSH1 0x0 DUP1 LOG2 STOP JUMPDEST PUSH1 0xC0 DUP2 ADD SWAP1 DUP2 LT PUSH1 0x1 PUSH1 0x1 PUSH1 0x40 SHL SUB DUP3 GT OR PUSH3 0x9FE JUMPI PUSH1 0x40 MSTORE JUMP JUMPDEST SWAP1 PUSH1 0x1F DUP1 NOT SWAP2 ADD AND DUP2 ADD SWAP1 DUP2 LT PUSH1 0x1 PUSH1 0x1 PUSH1 0x40 SHL SUB DUP3 GT OR PUSH3 0x9FE JUMPI PUSH1 0x40 MSTORE JUMP JUMPDEST DUP2 PUSH1 0x1F DUP3 ADD SLT ISZERO PUSH3 0x1C9 JUMPI DUP1 CALLDATALOAD SWAP1 PUSH1 0x1 PUSH1 0x1 PUSH1 0x40 SHL SUB DUP3 GT PUSH3 0x9FE JUMPI PUSH1 0x40 MLOAD SWAP3 PUSH3 0x190A PUSH1 0x1F DUP5 ADD PUSH1 0x1F NOT AND PUSH1 0x20 ADD DUP6 PUSH3 0x18B0 JUMP JUMPDEST DUP3 DUP5 MSTORE PUSH1 0x20 DUP4 DUP4 ADD ADD GT PUSH3 0x1C9 JUMPI DUP2 PUSH1 0x0 SWAP3 PUSH1 0x20 DUP1 SWAP4 ADD DUP4 DUP7 ADD CALLDATACOPY DUP4 ADD ADD MSTORE SWAP1 JUMP JUMPDEST PUSH1 0x7 SLOAD DUP2 LT ISZERO PUSH3 0x1965 JUMPI PUSH1 0x7 PUSH1 0x0 MSTORE PUSH32 0xA66CC928B5EDB82AF9BD49922954155AB7B0942694BEA4CE44661D9A8736C688 ADD SWAP1 PUSH1 0x0 SWAP1 JUMP JUMPDEST PUSH4 0x4E487B71 PUSH1 0xE0 SHL PUSH1 0x0 MSTORE PUSH1 0x32 PUSH1 0x4 MSTORE PUSH1 0x24 PUSH1 0x0 REVERT JUMPDEST PUSH1 0x6 SLOAD DUP2 LT ISZERO PUSH3 0x1965 JUMPI PUSH1 0x6 PUSH1 0x0 MSTORE PUSH32 0xF652222313E28459528D920B65115C16C04F3EFC82AAEDC97BE59F3F377C0D3F ADD SWAP1 PUSH1 0x0 SWAP1 JUMP JUMPDEST DUP1 SLOAD DUP3 LT ISZERO PUSH3 0x1965 JUMPI PUSH1 0x0 MSTORE PUSH1 0x20 PUSH1 0x0 KECCAK256 ADD SWAP1 PUSH1 0x0 SWAP1 JUMP JUMPDEST CALLDATALOAD SWAP1 DUP2 ISZERO ISZERO DUP3 SUB PUSH3 0x1C9 JUMPI JUMP JUMPDEST SWAP2 SWAP1 SWAP2 PUSH2 0x220 SWAP1 DUP2 DUP2 DUP6 SUB SLT PUSH3 0x1C9 JUMPI PUSH1 0x40 MLOAD SWAP2 DUP3 ADD SWAP4 PUSH1 0x1 PUSH1 0x1 PUSH1 0x40 SHL SUB SWAP5 DUP4 DUP2 LT DUP7 DUP3 GT OR PUSH3 0x9FE JUMPI PUSH1 0x40 MSTORE DUP3 SWAP5 DUP3 CALLDATALOAD DUP5 MSTORE PUSH1 0x20 DUP4 ADD CALLDATALOAD PUSH1 0x20 DUP6 ADD MSTORE PUSH1 0x40 DUP4 ADD CALLDATALOAD PUSH1 0x40 DUP6 ADD MSTORE PUSH1 0x60 DUP4 ADD CALLDATALOAD PUSH1 0x60 DUP6 ADD MSTORE PUSH1 0x80 DUP4 ADD CALLDATALOAD PUSH1 0xFF DUP2 AND DUP2 SUB PUSH3 0x1C9 JUMPI PUSH1 0x80 DUP6 ADD MSTORE PUSH1 0xA0 DUP4 ADD CALLDATALOAD PUSH1 0xA0 DUP6 ADD MSTORE PUSH1 0xC0 DUP4 ADD CALLDATALOAD PUSH1 0x5 DUP2 LT ISZERO PUSH3 0x1C9 JUMPI PUSH1 0xC0 DUP6 ADD MSTORE PUSH1 0xE0 DUP4 ADD CALLDATALOAD PUSH1 0xE0 DUP6 ADD MSTORE PUSH2 0x100 DUP1 DUP5 ADD CALLDATALOAD SWAP1 DUP6 ADD MSTORE PUSH2 0x120 DUP1 DUP5 ADD CALLDATALOAD SWAP1 DUP6 ADD MSTORE PUSH2 0x140 DUP1 DUP5 ADD CALLDATALOAD SWAP1 PUSH1 0x3 DUP3 LT ISZERO PUSH3 0x1C9 JUMPI DUP6 ADD MSTORE PUSH2 0x160 DUP1 DUP5 ADD CALLDATALOAD DUP3 DUP2 GT PUSH3 0x1C9 JUMPI DUP4 PUSH3 0x1AB3 SWAP2 DUP7 ADD PUSH3 0x18D2 JUMP JUMPDEST SWAP1 DUP6 ADD MSTORE PUSH2 0x180 DUP1 DUP5 ADD CALLDATALOAD DUP3 DUP2 GT PUSH3 0x1C9 JUMPI DUP4 PUSH3 0x1AD4 SWAP2 DUP7 ADD PUSH3 0x18D2 JUMP JUMPDEST SWAP1 DUP6 ADD MSTORE PUSH2 0x1A0 SWAP2 DUP3 DUP5 ADD CALLDATALOAD SWAP2 DUP3 GT PUSH3 0x1C9 JUMPI PUSH3 0x1AF5 SWAP2 DUP5 ADD PUSH3 0x18D2 JUMP JUMPDEST SWAP1 DUP4 ADD MSTORE PUSH2 0x1C0 PUSH3 0x1B09 DUP2 DUP4 ADD PUSH3 0x19CC JUMP JUMPDEST SWAP1 DUP4 ADD MSTORE PUSH2 0x1E0 PUSH3 0x1B1D DUP2 DUP4 ADD PUSH3 0x19CC JUMP JUMPDEST SWAP1 DUP4 ADD MSTORE PUSH2 0x200 DUP1 SWAP2 ADD CALLDATALOAD SWAP2 ADD MSTORE JUMP JUMPDEST PUSH1 0x84 CALLDATALOAD SWAP1 PUSH1 0x1 PUSH1 0x1 PUSH1 0xA0 SHL SUB DUP3 AND DUP3 SUB PUSH3 0x1C9 JUMPI JUMP JUMPDEST PUSH1 0x4 CALLDATALOAD SWAP1 PUSH1 0x1 PUSH1 0x1 PUSH1 0xA0 SHL SUB DUP3 AND DUP3 SUB PUSH3 0x1C9 JUMPI JUMP JUMPDEST PUSH1 0x0 JUMPDEST DUP4 DUP2 LT PUSH3 0x1B6F JUMPI POP POP PUSH1 0x0 SWAP2 ADD MSTORE JUMP JUMPDEST DUP2 DUP2 ADD MLOAD DUP4 DUP3 ADD MSTORE PUSH1 0x20 ADD PUSH3 0x1B5E JUMP JUMPDEST SWAP1 PUSH1 0x20 SWAP2 PUSH3 0x1B9B DUP2 MLOAD DUP1 SWAP3 DUP2 DUP6 MSTORE DUP6 DUP1 DUP7 ADD SWAP2 ADD PUSH3 0x1B5B JUMP JUMPDEST PUSH1 0x1F ADD PUSH1 0x1F NOT AND ADD ADD SWAP1 JUMP JUMPDEST SWAP1 PUSH1 0x3 DUP3 LT ISZERO PUSH3 0x1098 JUMPI MSTORE JUMP JUMPDEST PUSH1 0x20 PUSH3 0x1BD0 SWAP2 DUP2 PUSH1 0x40 MLOAD SWAP4 DUP3 DUP6 DUP1 SWAP5 MLOAD SWAP4 DUP5 SWAP3 ADD PUSH3 0x1B5B JUMP JUMPDEST DUP2 ADD PUSH1 0x3 DUP2 MSTORE SUB ADD SWAP1 KECCAK256 SWAP1 JUMP JUMPDEST SWAP1 PUSH1 0x1 DUP3 DUP2 SHR SWAP3 AND DUP1 ISZERO PUSH3 0x1C0F JUMPI JUMPDEST PUSH1 0x20 DUP4 LT EQ PUSH3 0x1BF9 JUMPI JUMP JUMPDEST PUSH4 0x4E487B71 PUSH1 0xE0 SHL PUSH1 0x0 MSTORE PUSH1 0x22 PUSH1 0x4 MSTORE PUSH1 0x24 PUSH1 0x0 REVERT JUMPDEST SWAP2 PUSH1 0x7F AND SWAP2 PUSH3 0x1BED JUMP JUMPDEST SWAP1 PUSH1 0x40 MLOAD SWAP2 DUP3 PUSH1 0x0 DUP3 SLOAD SWAP3 PUSH3 0x1C30 DUP5 PUSH3 0x1BDD JUMP JUMPDEST SWAP1 DUP2 DUP5 MSTORE PUSH1 0x1 SWAP5 DUP6 DUP2 AND SWAP1 DUP2 PUSH1 0x0 EQ PUSH3 0x1CA7 JUMPI POP PUSH1 0x1 EQ PUSH3 0x1C60 JUMPI JUMPDEST POP POP PUSH3 0x1C5E SWAP3 POP SUB DUP4 PUSH3 0x18B0 JUMP JUMPDEST JUMP JUMPDEST SWAP1 SWAP4 SWAP2 POP PUSH1 0x0 MSTORE PUSH1 0x20 SWAP1 DUP2 PUSH1 0x0 KECCAK256 SWAP4 PUSH1 0x0 SWAP2 JUMPDEST DUP2 DUP4 LT PUSH3 0x1C8E JUMPI POP POP PUSH3 0x1C5E SWAP4 POP DUP3 ADD ADD CODESIZE DUP1 PUSH3 0x1C4E JUMP JUMPDEST DUP6 SLOAD DUP9 DUP5 ADD DUP6 ADD MSTORE SWAP5 DUP6 ADD SWAP5 DUP8 SWAP5 POP SWAP2 DUP4 ADD SWAP2 PUSH3 0x1C73 JUMP JUMPDEST SWAP2 POP POP PUSH3 0x1C5E SWAP5 POP PUSH1 0x20 SWAP3 POP PUSH1 0xFF NOT AND DUP3 DUP5 ADD MSTORE ISZERO ISZERO PUSH1 0x5 SHL DUP3 ADD ADD CODESIZE DUP1 PUSH3 0x1C4E JUMP JUMPDEST PUSH1 0x0 SLOAD PUSH1 0x1 PUSH1 0x1 PUSH1 0xA0 SHL SUB AND CALLER SUB PUSH3 0x1CE1 JUMPI JUMP JUMPDEST PUSH1 0x40 MLOAD PUSH4 0x118CDAA7 PUSH1 0xE0 SHL DUP2 MSTORE CALLER PUSH1 0x4 DUP3 ADD MSTORE PUSH1 0x24 SWAP1 REVERT JUMPDEST PUSH1 0x7 SLOAD PUSH1 0x1 PUSH1 0x40 SHL DUP2 LT ISZERO PUSH3 0x9FE JUMPI DUP1 PUSH1 0x1 PUSH3 0x1D1B SWAP3 ADD PUSH1 0x7 SSTORE PUSH3 0x192D JUMP JUMPDEST DUP2 SWAP3 SWAP2 SLOAD SWAP1 PUSH1 0x3 SHL SWAP2 PUSH1 0x1 DUP1 PUSH1 0xA0 SHL SUB DUP1 SWAP2 AND DUP4 SHL SWAP3 SHL NOT AND OR SWAP1 SSTORE JUMP JUMPDEST DUP1 SLOAD PUSH1 0x1 PUSH1 0x40 SHL DUP2 LT ISZERO PUSH3 0x9FE JUMPI PUSH3 0x1D1B SWAP2 PUSH1 0x1 DUP3 ADD DUP2 SSTORE PUSH3 0x19B3 JUMP JUMPDEST PUSH3 0x1D73 SWAP1 PUSH1 0x20 PUSH1 0x40 MLOAD SWAP3 DUP3 DUP5 DUP1 SWAP5 MLOAD SWAP4 DUP5 SWAP3 ADD PUSH3 0x1B5B JUMP JUMPDEST DUP2 ADD SUB SWAP1 KECCAK256 SWAP1 JUMP JUMPDEST PUSH1 0x3 DUP3 LT ISZERO PUSH3 0x1098 JUMPI MSTORE JUMP JUMPDEST SWAP2 SWAP1 SWAP2 DUP3 MLOAD PUSH1 0x1 PUSH1 0x1 PUSH1 0x40 SHL SUB DUP2 GT PUSH3 0x9FE JUMPI PUSH3 0x1DA8 DUP3 SLOAD PUSH3 0x1BDD JUMP JUMPDEST PUSH1 0x1F DUP2 GT PUSH3 0x1E5A JUMPI JUMPDEST POP PUSH1 0x20 DUP1 PUSH1 0x1F DUP4 GT PUSH1 0x1 EQ PUSH3 0x1DF2 JUMPI POP DUP2 SWAP3 SWAP4 SWAP5 PUSH1 0x0 SWAP3 PUSH3 0x1DE6 JUMPI JUMPDEST POP POP DUP2 PUSH1 0x1 SHL SWAP2 PUSH1 0x0 NOT SWAP1 PUSH1 0x3 SHL SHR NOT AND OR SWAP1 SSTORE JUMP JUMPDEST ADD MLOAD SWAP1 POP CODESIZE DUP1 PUSH3 0x1DD0 JUMP JUMPDEST SWAP1 PUSH1 0x1F NOT DUP4 AND SWAP6 DUP5 PUSH1 0x0 MSTORE DUP3 PUSH1 0x0 KECCAK256 SWAP3 PUSH1 0x0 SWAP1 JUMPDEST DUP9 DUP3 LT PUSH3 0x1E41 JUMPI POP POP DUP4 PUSH1 0x1 SWAP6 SWAP7 SWAP8 LT PUSH3 0x1E27 JUMPI JUMPDEST POP POP POP DUP2 SHL ADD SWAP1 SSTORE JUMP JUMPDEST ADD MLOAD PUSH1 0x0 NOT PUSH1 0xF8 DUP5 PUSH1 0x3 SHL AND SHR NOT AND SWAP1 SSTORE CODESIZE DUP1 DUP1 PUSH3 0x1E1D JUMP JUMPDEST DUP1 PUSH1 0x1 DUP6 SWAP7 DUP3 SWAP5 SWAP7 DUP7 ADD MLOAD DUP2 SSTORE ADD SWAP6 ADD SWAP4 ADD SWAP1 PUSH3 0x1E06 JUMP JUMPDEST PUSH1 0x0 DUP4 DUP2 MSTORE PUSH1 0x20 DUP2 KECCAK256 PUSH1 0x1F DUP5 ADD PUSH1 0x5 SHR DUP2 ADD SWAP3 PUSH1 0x20 DUP6 LT PUSH3 0x1E9C JUMPI JUMPDEST PUSH1 0x1F ADD PUSH1 0x5 SHR ADD SWAP2 JUMPDEST DUP3 DUP2 LT PUSH3 0x1E90 JUMPI POP POP PUSH3 0x1DB2 JUMP JUMPDEST DUP2 DUP2 SSTORE PUSH1 0x1 ADD PUSH3 0x1E80 JUMP JUMPDEST SWAP1 SWAP3 POP DUP3 SWAP1 PUSH3 0x1E77 JUMP JUMPDEST ISZERO PUSH3 0x1EAF JUMPI JUMP JUMPDEST PUSH1 0x40 MLOAD PUSH3 0x461BCD PUSH1 0xE5 SHL DUP2 MSTORE PUSH1 0x20 PUSH1 0x4 DUP3 ADD MSTORE PUSH1 0x12 PUSH1 0x24 DUP3 ADD MSTORE PUSH18 0x15195B5C1B185D19481B9BDD08199BDD5B99 PUSH1 0x72 SHL PUSH1 0x44 DUP3 ADD MSTORE PUSH1 0x64 SWAP1 REVERT INVALID PUSH1 0x80 PUSH1 0x40 MSTORE CALLVALUE PUSH3 0xF32 JUMPI PUSH3 0x531F DUP1 CODESIZE SUB SWAP1 DUP2 PUSH3 0x1E DUP2 PUSH3 0xF37 JUMP JUMPDEST SWAP2 DUP3 CODECOPY PUSH1 0xE0 DUP2 DUP4 DUP2 ADD SUB SLT PUSH3 0xF32 JUMPI DUP1 MLOAD PUSH1 0x1 PUSH1 0x1 PUSH1 0x40 SHL SUB DUP2 GT PUSH3 0xF32 JUMPI PUSH3 0x50 SWAP1 DUP4 DUP4 ADD SWAP1 DUP4 ADD PUSH3 0xF82 JUMP JUMPDEST PUSH1 0x20 DUP3 ADD MLOAD PUSH1 0x1 PUSH1 0x1 PUSH1 0x40 SHL SUB DUP2 GT PUSH3 0xF32 JUMPI PUSH3 0x75 SWAP1 DUP5 DUP5 ADD SWAP1 DUP5 ADD PUSH3 0xF82 JUMP JUMPDEST PUSH1 0x40 DUP4 ADD MLOAD SWAP4 SWAP1 SWAP2 SWAP1 PUSH1 0x1 PUSH1 0x1 PUSH1 0x40 SHL SUB DUP6 GT PUSH3 0xF32 JUMPI PUSH2 0x220 SWAP5 DUP6 DUP2 DUP7 ADD DUP4 DUP8 ADD SUB SLT PUSH3 0xF32 JUMPI PUSH1 0x40 MLOAD SWAP6 DUP7 ADD PUSH1 0x1 PUSH1 0x1 PUSH1 0x40 SHL SUB DUP2 GT DUP8 DUP3 LT OR PUSH3 0x826 JUMPI PUSH1 0x40 SWAP1 DUP2 MSTORE DUP6 DUP3 ADD DUP1 MLOAD DUP9 MSTORE PUSH1 0x20 DUP1 DUP3 ADD MLOAD SWAP1 DUP10 ADD MSTORE DUP1 DUP3 ADD MLOAD SWAP2 DUP9 ADD SWAP2 SWAP1 SWAP2 MSTORE PUSH1 0x60 DUP1 DUP3 ADD MLOAD SWAP1 DUP9 ADD MSTORE PUSH1 0x80 ADD MLOAD PUSH1 0xFF DUP2 AND DUP2 SUB PUSH3 0xF32 JUMPI PUSH1 0x80 DUP8 ADD MSTORE DUP5 DUP2 ADD PUSH1 0xA0 DUP2 DUP2 ADD MLOAD SWAP1 DUP9 ADD MSTORE PUSH1 0xC0 ADD MLOAD PUSH1 0x5 DUP2 LT ISZERO PUSH3 0xF32 JUMPI PUSH1 0xC0 DUP8 ADD MSTORE PUSH1 0xE0 DUP2 DUP7 ADD ADD MLOAD PUSH1 0xE0 DUP8 ADD MSTORE PUSH2 0x100 DUP1 DUP3 DUP8 ADD ADD MLOAD DUP2 DUP9 ADD MSTORE PUSH2 0x120 DUP1 DUP4 DUP9 ADD ADD MLOAD DUP2 DUP10 ADD MSTORE PUSH2 0x140 DUP4 DUP9 ADD ADD MLOAD PUSH1 0x3 DUP2 LT ISZERO PUSH3 0xF32 JUMPI PUSH2 0x140 DUP10 ADD MSTORE DUP7 DUP4 ADD PUSH2 0x160 ADD MLOAD PUSH1 0x1 PUSH1 0x1 PUSH1 0x40 SHL SUB DUP2 GT PUSH3 0xF32 JUMPI PUSH3 0x17F SWAP1 DUP6 DUP10 ADD SWAP1 DUP6 DUP11 ADD ADD PUSH3 0xF82 JUMP JUMPDEST PUSH2 0x160 DUP10 ADD MSTORE DUP7 DUP4 ADD PUSH2 0x180 ADD MLOAD PUSH1 0x1 PUSH1 0x1 PUSH1 0x40 SHL SUB DUP2 GT PUSH3 0xF32 JUMPI PUSH3 0x1AF SWAP1 DUP6 DUP10 ADD SWAP1 DUP6 DUP11 ADD ADD PUSH3 0xF82 JUMP JUMPDEST PUSH2 0x180 DUP10 ADD MSTORE PUSH2 0x1A0 DUP4 DUP9 ADD DUP2 ADD MLOAD SWAP5 PUSH1 0x1 PUSH1 0x1 PUSH1 0x40 SHL SUB DUP7 GT PUSH3 0xF32 JUMPI DUP9 SWAP6 PUSH3 0x1E2 SWAP2 DUP8 ADD SWAP1 DUP7 DUP9 ADD ADD PUSH3 0xF82 JUMP JUMPDEST DUP2 DUP11 ADD MSTORE PUSH2 0x1C0 SWAP2 PUSH3 0x1F9 DUP4 DUP7 DUP9 ADD ADD PUSH3 0xFD9 JUMP JUMPDEST DUP4 DUP12 ADD MSTORE PUSH2 0x1E0 SWAP4 PUSH3 0x210 DUP6 DUP8 DUP10 ADD ADD PUSH3 0xFD9 JUMP JUMPDEST DUP6 DUP13 ADD MSTORE PUSH2 0x200 DUP1 SWAP7 DUP9 ADD ADD MLOAD DUP7 DUP13 ADD MSTORE PUSH3 0x22F PUSH1 0x60 DUP9 ADD PUSH3 0xFE7 JUMP JUMPDEST SWAP9 PUSH3 0x25A PUSH1 0xC0 PUSH3 0x252 PUSH1 0xA0 PUSH3 0x24A PUSH1 0x80 DUP14 ADD PUSH3 0xFE7 JUMP JUMPDEST SWAP12 ADD PUSH3 0xFE7 JUMP JUMPDEST SWAP13 ADD PUSH3 0xFE7 JUMP JUMPDEST DUP10 MLOAD SWAP1 SWAP10 PUSH1 0x1 PUSH1 0x1 PUSH1 0x40 SHL SUB DUP3 GT PUSH3 0x826 JUMPI PUSH1 0x3 SLOAD SWAP1 PUSH1 0x1 DUP3 DUP2 SHR SWAP3 AND DUP1 ISZERO PUSH3 0xF27 JUMPI JUMPDEST PUSH1 0x20 DUP4 LT EQ PUSH3 0x927 JUMPI DUP2 PUSH1 0x1F DUP5 SWAP4 GT PUSH3 0xEB5 JUMPI JUMPDEST POP PUSH1 0x20 SWAP1 PUSH1 0x1F DUP4 GT PUSH1 0x1 EQ PUSH3 0xE26 JUMPI PUSH1 0x0 SWAP3 PUSH3 0xE1A JUMPI JUMPDEST POP POP DUP2 PUSH1 0x1 SHL SWAP2 PUSH1 0x0 NOT SWAP1 PUSH1 0x3 SHL SHR NOT AND OR PUSH1 0x3 SSTORE JUMPDEST DUP1 MLOAD SWAP1 PUSH1 0x1 PUSH1 0x1 PUSH1 0x40 SHL SUB DUP3 GT PUSH3 0x826 JUMPI PUSH1 0x4 SLOAD SWAP1 PUSH1 0x1 DUP3 DUP2 SHR SWAP3 AND DUP1 ISZERO PUSH3 0xE0F JUMPI JUMPDEST PUSH1 0x20 DUP4 LT EQ PUSH3 0x927 JUMPI DUP2 PUSH1 0x1F DUP5 SWAP4 GT PUSH3 0xD9D JUMPI JUMPDEST POP PUSH1 0x20 SWAP1 PUSH1 0x1F DUP4 GT PUSH1 0x1 EQ PUSH3 0xD0E JUMPI PUSH1 0x0 SWAP3 PUSH3 0xD02 JUMPI JUMPDEST POP POP DUP2 PUSH1 0x1 SHL SWAP2 PUSH1 0x0 NOT SWAP1 PUSH1 0x3 SHL SHR NOT AND OR PUSH1 0x4 SSTORE JUMPDEST PUSH1 0x1 PUSH1 0x6 SSTORE DUP11 MLOAD ISZERO PUSH3 0xCBD JUMPI PUSH1 0x20 DUP12 ADD MLOAD ISZERO PUSH3 0xC78 JUMPI PUSH1 0x60 DUP12 ADD MLOAD TIMESTAMP LT ISZERO PUSH3 0xC40 JUMPI DUP2 DUP12 ADD MLOAD ISZERO PUSH3 0xBFB JUMPI PUSH1 0x1 PUSH1 0x1 PUSH1 0xA0 SHL SUB DUP10 AND ISZERO PUSH3 0xBC5 JUMPI PUSH1 0x1 PUSH1 0x1 PUSH1 0xA0 SHL SUB DUP8 AND ISZERO PUSH3 0xB80 JUMPI PUSH1 0x1 PUSH1 0x1 PUSH1 0xA0 SHL SUB DUP11 AND ISZERO PUSH3 0xB4A JUMPI DUP11 MLOAD PUSH1 0x8 SSTORE PUSH1 0x20 DUP12 ADD MLOAD PUSH1 0x9 SSTORE PUSH1 0x40 DUP12 ADD MLOAD PUSH1 0xA SSTORE PUSH1 0x60 DUP12 ADD MLOAD PUSH1 0xB SSTORE PUSH1 0xFF PUSH1 0x80 DUP13 ADD MLOAD AND PUSH1 0xFF NOT PUSH1 0xC SLOAD AND OR PUSH1 0xC SSTORE PUSH1 0xA0 DUP12 ADD MLOAD PUSH1 0xD SSTORE PUSH1 0xC0 DUP12 ADD MLOAD PUSH3 0x3D6 DUP2 PUSH3 0xFFC JUMP JUMPDEST PUSH3 0x3E1 DUP2 PUSH3 0xFFC JUMP JUMPDEST PUSH1 0xFF DUP1 NOT PUSH1 0xE SLOAD AND SWAP2 AND OR PUSH1 0xE SSTORE PUSH1 0xE0 DUP12 ADD MLOAD PUSH1 0xF SSTORE DUP11 ADD MLOAD PUSH1 0x10 SSTORE DUP10 ADD MLOAD PUSH1 0x11 SSTORE PUSH2 0x140 DUP10 ADD MLOAD PUSH1 0x3 DUP2 LT ISZERO PUSH3 0xB34 JUMPI PUSH1 0xFF DUP1 NOT PUSH1 0x12 SLOAD AND SWAP2 AND OR PUSH1 0x12 SSTORE PUSH2 0x160 DUP10 ADD MLOAD DUP1 MLOAD SWAP1 PUSH1 0x1 DUP1 PUSH1 0x40 SHL SUB DUP3 GT PUSH3 0x826 JUMPI PUSH1 0x13 SLOAD SWAP1 PUSH1 0x1 DUP3 DUP2 SHR SWAP3 AND DUP1 ISZERO PUSH3 0xB29 JUMPI JUMPDEST PUSH1 0x20 DUP4 LT EQ PUSH3 0x927 JUMPI DUP2 PUSH1 0x1F DUP5 SWAP4 GT PUSH3 0xAC8 JUMPI JUMPDEST POP PUSH1 0x20 SWAP1 PUSH1 0x1F DUP4 GT PUSH1 0x1 EQ PUSH3 0xA4A JUMPI PUSH1 0x0 SWAP3 PUSH3 0xA3E JUMPI JUMPDEST POP POP DUP2 PUSH1 0x1 SHL SWAP2 PUSH1 0x0 NOT SWAP1 PUSH1 0x3 SHL SHR NOT AND OR PUSH1 0x13 SSTORE JUMPDEST PUSH2 0x180 DUP10 ADD MLOAD DUP1 MLOAD SWAP1 PUSH1 0x1 PUSH1 0x1 PUSH1 0x40 SHL SUB DUP3 GT PUSH3 0x826 JUMPI PUSH1 0x14 SLOAD SWAP1 PUSH1 0x1 DUP3 DUP2 SHR SWAP3 AND DUP1 ISZERO PUSH3 0xA33 JUMPI JUMPDEST PUSH1 0x20 DUP4 LT EQ PUSH3 0x927 JUMPI DUP2 PUSH1 0x1F DUP5 SWAP4 GT PUSH3 0x9D2 JUMPI JUMPDEST POP PUSH1 0x20 SWAP1 PUSH1 0x1F DUP4 GT PUSH1 0x1 EQ PUSH3 0x954 JUMPI PUSH1 0x0 SWAP3 PUSH3 0x948 JUMPI JUMPDEST POP POP DUP2 PUSH1 0x1 SHL SWAP2 PUSH1 0x0 NOT SWAP1 PUSH1 0x3 SHL SHR NOT AND OR PUSH1 0x14 SSTORE JUMPDEST DUP9 ADD MLOAD DUP1 MLOAD SWAP1 PUSH1 0x1 PUSH1 0x1 PUSH1 0x40 SHL SUB DUP3 GT PUSH3 0x826 JUMPI PUSH1 0x15 SLOAD SWAP1 PUSH1 0x1 DUP3 DUP2 SHR SWAP3 AND DUP1 ISZERO PUSH3 0x93D JUMPI JUMPDEST PUSH1 0x20 DUP4 LT EQ PUSH3 0x927 JUMPI DUP2 PUSH1 0x1F DUP5 SWAP4 GT PUSH3 0x8C6 JUMPI JUMPDEST POP PUSH1 0x20 SWAP1 PUSH1 0x1F DUP4 GT PUSH1 0x1 EQ PUSH3 0x848 JUMPI PUSH1 0x0 SWAP3 PUSH3 0x83C JUMPI JUMPDEST POP POP DUP2 PUSH1 0x1 SHL SWAP2 PUSH1 0x0 NOT SWAP1 PUSH1 0x3 SHL SHR NOT AND OR PUSH1 0x15 SSTORE JUMPDEST DUP8 ADD MLOAD PUSH1 0x16 DUP1 SLOAD SWAP3 DUP10 ADD MLOAD PUSH2 0xFF00 SWAP1 ISZERO ISZERO PUSH1 0x8 SHL AND SWAP2 ISZERO ISZERO PUSH1 0xFF AND PUSH2 0xFFFF NOT SWAP1 SWAP4 AND SWAP3 SWAP1 SWAP3 OR OR SWAP1 SSTORE DUP6 ADD MLOAD PUSH1 0x17 SSTORE PUSH1 0x1D DUP1 SLOAD PUSH1 0x1 PUSH1 0x1 PUSH1 0xA0 SHL SUB SWAP5 DUP6 AND PUSH1 0x1 PUSH1 0x1 PUSH1 0xA0 SHL SUB NOT SWAP2 DUP3 AND OR SWAP1 SWAP2 SSTORE PUSH1 0x1E DUP1 SLOAD SWAP3 DUP6 AND SWAP3 DUP3 AND SWAP3 SWAP1 SWAP3 OR SWAP1 SWAP2 SSTORE PUSH1 0x1F DUP1 SLOAD DUP6 DUP6 AND SWAP1 DUP4 AND OR SWAP1 SSTORE PUSH1 0x20 DUP1 SLOAD SWAP4 DUP4 AND SWAP4 SWAP1 SWAP2 AND DUP4 OR SWAP1 SSTORE PUSH1 0x18 DUP1 SLOAD PUSH1 0xFF NOT AND SWAP1 SSTORE DUP4 MLOAD PUSH1 0x40 MLOAD SWAP2 SWAP1 PUSH1 0x80 DUP4 ADD SWAP1 DUP4 DUP3 LT PUSH1 0x1 PUSH1 0x1 PUSH1 0x40 SHL SUB DUP4 GT OR PUSH3 0x826 JUMPI PUSH3 0x6B3 SWAP4 PUSH1 0x60 SWAP3 PUSH1 0x40 MSTORE DUP2 DUP2 MSTORE TIMESTAMP PUSH1 0x20 DUP3 ADD MSTORE PUSH1 0x0 PUSH1 0x40 DUP3 ADD MSTORE PUSH4 0x5F5E100 SWAP3 DUP4 SWAP2 ADD MSTORE PUSH1 0x19 SSTORE TIMESTAMP PUSH1 0x1A SSTORE PUSH1 0x0 PUSH1 0x1B SSTORE PUSH1 0x1C SSTORE PUSH1 0x1 PUSH1 0xC0 DUP7 ADD MLOAD PUSH3 0x657 DUP2 PUSH3 0xFFC JUMP JUMPDEST PUSH3 0x662 DUP2 PUSH3 0xFFC JUMP JUMPDEST EQ DUP1 ISZERO PUSH3 0x801 JUMPI JUMPDEST PUSH3 0x7EF JUMPI JUMPDEST PUSH3 0x67C DUP5 PUSH3 0x1007 JUMP JUMPDEST POP PUSH3 0x688 DUP5 PUSH3 0x1088 JUMP JUMPDEST POP PUSH3 0x694 DUP5 PUSH3 0x112B JUMP JUMPDEST POP PUSH3 0x6A0 DUP2 PUSH3 0x11C9 JUMP JUMPDEST POP PUSH3 0x6AC DUP5 PUSH3 0x1267 JUMP JUMPDEST POP PUSH3 0x1267 JUMP JUMPDEST POP PUSH1 0x1 DUP1 PUSH1 0xA0 SHL SUB DUP3 AND PUSH1 0x0 MSTORE PUSH1 0x24 PUSH1 0x20 MSTORE PUSH1 0x40 PUSH1 0x0 KECCAK256 PUSH1 0x1 PUSH1 0xFF NOT DUP3 SLOAD AND OR SWAP1 SSTORE PUSH1 0x0 MSTORE PUSH1 0x40 PUSH1 0x0 KECCAK256 PUSH1 0x1 PUSH1 0xFF NOT DUP3 SLOAD AND OR SWAP1 SSTORE PUSH1 0x20 DUP3 ADD MLOAD SWAP1 PUSH1 0x2 SLOAD SWAP1 DUP3 DUP3 ADD DUP1 SWAP3 GT PUSH3 0x7D9 JUMPI PUSH1 0x2 SWAP2 SWAP1 SWAP2 SSTORE PUSH1 0x1 PUSH1 0x1 PUSH1 0xA0 SHL SUB AND PUSH1 0x0 DUP2 DUP2 MSTORE PUSH1 0x20 DUP2 DUP2 MSTORE PUSH1 0x40 DUP1 DUP4 KECCAK256 DUP1 SLOAD DUP7 ADD SWAP1 SSTORE MLOAD SWAP4 DUP5 MSTORE SWAP2 SWAP3 SWAP1 SWAP2 PUSH32 0xDDF252AD1BE2C89B69C2B068FC378DAA952BA7F163C4A11628F55A4DF523B3EF SWAP2 LOG3 PUSH32 0x99F31C8D36D451950D4CEF4B19E7CE478DA0A725967540A77BB914E65E929590 PUSH1 0x60 PUSH2 0x160 DUP4 ADD MLOAD DUP4 MLOAD SWAP1 PUSH3 0x7A7 PUSH1 0xC0 PUSH1 0x20 DUP8 ADD MLOAD SWAP7 ADD MLOAD SWAP2 PUSH3 0x792 DUP4 PUSH3 0xFFC JUMP JUMPDEST PUSH1 0x20 PUSH1 0x40 MLOAD SWAP3 DUP3 DUP5 DUP1 SWAP5 MLOAD SWAP4 DUP5 SWAP3 ADD PUSH3 0xF5D JUMP JUMPDEST DUP2 ADD SUB SWAP1 KECCAK256 SWAP5 PUSH1 0x40 MLOAD SWAP3 DUP4 MSTORE PUSH1 0x20 DUP4 ADD MSTORE PUSH3 0x7C3 DUP2 PUSH3 0xFFC JUMP JUMPDEST PUSH1 0x40 DUP3 ADD MSTORE LOG2 PUSH1 0x40 MLOAD PUSH2 0x3F99 SWAP1 DUP2 PUSH3 0x1306 DUP3 CODECOPY RETURN JUMPDEST PUSH4 0x4E487B71 PUSH1 0xE0 SHL PUSH1 0x0 MSTORE PUSH1 0x11 PUSH1 0x4 MSTORE PUSH1 0x24 PUSH1 0x0 REVERT JUMPDEST PUSH4 0x3B9ACA00 PUSH1 0x27 SSTORE TIMESTAMP PUSH1 0x28 SSTORE PUSH3 0x671 JUMP JUMPDEST POP PUSH1 0x2 PUSH1 0xC0 DUP7 ADD MLOAD PUSH3 0x814 DUP2 PUSH3 0xFFC JUMP JUMPDEST PUSH3 0x81F DUP2 PUSH3 0xFFC JUMP JUMPDEST EQ PUSH3 0x66B JUMP JUMPDEST PUSH4 0x4E487B71 PUSH1 0xE0 SHL PUSH1 0x0 MSTORE PUSH1 0x41 PUSH1 0x4 MSTORE PUSH1 0x24 PUSH1 0x0 REVERT JUMPDEST ADD MLOAD SWAP1 POP CODESIZE DUP1 PUSH3 0x557 JUMP JUMPDEST PUSH1 0x15 PUSH1 0x0 SWAP1 DUP2 MSTORE SWAP4 POP PUSH1 0x0 DUP1 MLOAD PUSH1 0x20 PUSH3 0x52BF DUP4 CODECOPY DUP2 MLOAD SWAP2 MSTORE SWAP2 SWAP1 JUMPDEST PUSH1 0x1F NOT DUP5 AND DUP6 LT PUSH3 0x8AA JUMPI PUSH1 0x1 SWAP5 POP DUP4 PUSH1 0x1F NOT DUP2 AND LT PUSH3 0x890 JUMPI JUMPDEST POP POP POP DUP2 SHL ADD PUSH1 0x15 SSTORE PUSH3 0x56D JUMP JUMPDEST ADD MLOAD PUSH1 0x0 NOT PUSH1 0xF8 DUP5 PUSH1 0x3 SHL AND SHR NOT AND SWAP1 SSTORE CODESIZE DUP1 DUP1 PUSH3 0x881 JUMP JUMPDEST DUP2 DUP2 ADD MLOAD DUP4 SSTORE PUSH1 0x20 SWAP5 DUP6 ADD SWAP5 PUSH1 0x1 SWAP1 SWAP4 ADD SWAP3 SWAP1 SWAP2 ADD SWAP1 PUSH3 0x864 JUMP JUMPDEST PUSH1 0x15 PUSH1 0x0 MSTORE SWAP1 SWAP2 POP PUSH1 0x0 DUP1 MLOAD PUSH1 0x20 PUSH3 0x52BF DUP4 CODECOPY DUP2 MLOAD SWAP2 MSTORE PUSH1 0x1F DUP5 ADD PUSH1 0x5 SHR DUP2 ADD PUSH1 0x20 DUP6 LT PUSH3 0x91F JUMPI JUMPDEST SWAP1 DUP5 SWAP4 SWAP3 SWAP2 JUMPDEST PUSH1 0x1F DUP4 ADD PUSH1 0x5 SHR DUP3 ADD DUP2 LT PUSH3 0x90F JUMPI POP POP PUSH3 0x53E JUMP JUMPDEST PUSH1 0x0 DUP2 SSTORE DUP6 SWAP5 POP PUSH1 0x1 ADD PUSH3 0x8F7 JUMP JUMPDEST POP DUP1 PUSH3 0x8F1 JUMP JUMPDEST PUSH4 0x4E487B71 PUSH1 0xE0 SHL PUSH1 0x0 MSTORE PUSH1 0x22 PUSH1 0x4 MSTORE PUSH1 0x24 PUSH1 0x0 REVERT JUMPDEST SWAP2 PUSH1 0x7F AND SWAP2 PUSH3 0x528 JUMP JUMPDEST ADD MLOAD SWAP1 POP CODESIZE DUP1 PUSH3 0x4EA JUMP JUMPDEST PUSH1 0x14 PUSH1 0x0 SWAP1 DUP2 MSTORE SWAP4 POP PUSH1 0x0 DUP1 MLOAD PUSH1 0x20 PUSH3 0x52FF DUP4 CODECOPY DUP2 MLOAD SWAP2 MSTORE SWAP2 SWAP1 JUMPDEST PUSH1 0x1F NOT DUP5 AND DUP6 LT PUSH3 0x9B6 JUMPI PUSH1 0x1 SWAP5 POP DUP4 PUSH1 0x1F NOT DUP2 AND LT PUSH3 0x99C JUMPI JUMPDEST POP POP POP DUP2 SHL ADD PUSH1 0x14 SSTORE PUSH3 0x500 JUMP JUMPDEST ADD MLOAD PUSH1 0x0 NOT PUSH1 0xF8 DUP5 PUSH1 0x3 SHL AND SHR NOT AND SWAP1 SSTORE CODESIZE DUP1 DUP1 PUSH3 0x98D JUMP JUMPDEST DUP2 DUP2 ADD MLOAD DUP4 SSTORE PUSH1 0x20 SWAP5 DUP6 ADD SWAP5 PUSH1 0x1 SWAP1 SWAP4 ADD SWAP3 SWAP1 SWAP2 ADD SWAP1 PUSH3 0x970 JUMP JUMPDEST PUSH1 0x14 PUSH1 0x0 MSTORE SWAP1 SWAP2 POP PUSH1 0x0 DUP1 MLOAD PUSH1 0x20 PUSH3 0x52FF DUP4 CODECOPY DUP2 MLOAD SWAP2 MSTORE PUSH1 0x1F DUP5 ADD PUSH1 0x5 SHR DUP2 ADD PUSH1 0x20 DUP6 LT PUSH3 0xA2B JUMPI JUMPDEST SWAP1 DUP5 SWAP4 SWAP3 SWAP2 JUMPDEST PUSH1 0x1F DUP4 ADD PUSH1 0x5 SHR DUP3 ADD DUP2 LT PUSH3 0xA1B JUMPI POP POP PUSH3 0x4D1 JUMP JUMPDEST PUSH1 0x0 DUP2 SSTORE DUP6 SWAP5 POP PUSH1 0x1 ADD PUSH3 0xA03 JUMP JUMPDEST POP DUP1 PUSH3 0x9FD JUMP JUMPDEST SWAP2 PUSH1 0x7F AND SWAP2 PUSH3 0x4BB JUMP JUMPDEST ADD MLOAD SWAP1 POP CODESIZE DUP1 PUSH3 0x47A JUMP JUMPDEST PUSH1 0x13 PUSH1 0x0 SWAP1 DUP2 MSTORE SWAP4 POP PUSH1 0x0 DUP1 MLOAD PUSH1 0x20 PUSH3 0x52DF DUP4 CODECOPY DUP2 MLOAD SWAP2 MSTORE SWAP2 SWAP1 JUMPDEST PUSH1 0x1F NOT DUP5 AND DUP6 LT PUSH3 0xAAC JUMPI PUSH1 0x1 SWAP5 POP DUP4 PUSH1 0x1F NOT DUP2 AND LT PUSH3 0xA92 JUMPI JUMPDEST POP POP POP DUP2 SHL ADD PUSH1 0x13 SSTORE PUSH3 0x490 JUMP JUMPDEST ADD MLOAD PUSH1 0x0 NOT PUSH1 0xF8 DUP5 PUSH1 0x3 SHL AND SHR NOT AND SWAP1 SSTORE CODESIZE DUP1 DUP1 PUSH3 0xA83 JUMP JUMPDEST DUP2 DUP2 ADD MLOAD DUP4 SSTORE PUSH1 0x20 SWAP5 DUP6 ADD SWAP5 PUSH1 0x1 SWAP1 SWAP4 ADD SWAP3 SWAP1 SWAP2 ADD SWAP1 PUSH3 0xA66 JUMP JUMPDEST PUSH1 0x13 PUSH1 0x0 MSTORE SWAP1 SWAP2 POP PUSH1 0x0 DUP1 MLOAD PUSH1 0x20 PUSH3 0x52DF DUP4 CODECOPY DUP2 MLOAD SWAP2 MSTORE PUSH1 0x1F DUP5 ADD PUSH1 0x5 SHR DUP2 ADD PUSH1 0x20 DUP6 LT PUSH3 0xB21 JUMPI JUMPDEST SWAP1 DUP5 SWAP4 SWAP3 SWAP2 JUMPDEST PUSH1 0x1F DUP4 ADD PUSH1 0x5 SHR DUP3 ADD DUP2 LT PUSH3 0xB11 JUMPI POP POP PUSH3 0x461 JUMP JUMPDEST PUSH1 0x0 DUP2 SSTORE DUP6 SWAP5 POP PUSH1 0x1 ADD PUSH3 0xAF9 JUMP JUMPDEST POP DUP1 PUSH3 0xAF3 JUMP JUMPDEST SWAP2 PUSH1 0x7F AND SWAP2 PUSH3 0x44B JUMP JUMPDEST PUSH4 0x4E487B71 PUSH1 0xE0 SHL PUSH1 0x0 MSTORE PUSH1 0x21 PUSH1 0x4 MSTORE PUSH1 0x24 PUSH1 0x0 REVERT JUMPDEST PUSH1 0x40 MLOAD PUSH3 0x461BCD PUSH1 0xE5 SHL DUP2 MSTORE PUSH1 0x20 PUSH1 0x4 DUP3 ADD MSTORE PUSH1 0xE PUSH1 0x24 DUP3 ADD MSTORE PUSH14 0x24B73B30B634B21034B9B9BAB2B9 PUSH1 0x91 SHL PUSH1 0x44 DUP3 ADD MSTORE PUSH1 0x64 SWAP1 REVERT JUMPDEST PUSH1 0x40 MLOAD PUSH3 0x461BCD PUSH1 0xE5 SHL DUP2 MSTORE PUSH1 0x20 PUSH1 0x4 DUP3 ADD MSTORE PUSH1 0x15 PUSH1 0x24 DUP3 ADD MSTORE PUSH32 0x496E76616C6964207061796D656E7420746F6B656E0000000000000000000000 PUSH1 0x44 DUP3 ADD MSTORE PUSH1 0x64 SWAP1 REVERT JUMPDEST PUSH1 0x40 MLOAD PUSH3 0x461BCD PUSH1 0xE5 SHL DUP2 MSTORE PUSH1 0x20 PUSH1 0x4 DUP3 ADD MSTORE PUSH1 0xE PUSH1 0x24 DUP3 ADD MSTORE PUSH14 0x496E76616C6964206F7261636C65 PUSH1 0x90 SHL PUSH1 0x44 DUP3 ADD MSTORE PUSH1 0x64 SWAP1 REVERT JUMPDEST PUSH1 0x40 MLOAD PUSH3 0x461BCD PUSH1 0xE5 SHL DUP2 MSTORE PUSH1 0x20 PUSH1 0x4 DUP3 ADD MSTORE PUSH1 0x18 PUSH1 0x24 DUP3 ADD MSTORE PUSH32 0x496E76616C696420636F75706F6E206672657175656E63790000000000000000 PUSH1 0x44 DUP3 ADD MSTORE PUSH1 0x64 SWAP1 REVERT JUMPDEST PUSH1 0x40 MLOAD PUSH3 0x461BCD PUSH1 0xE5 SHL DUP2 MSTORE PUSH1 0x20 PUSH1 0x4 DUP3 ADD MSTORE PUSH1 0x10 PUSH1 0x24 DUP3 ADD MSTORE PUSH16 0x496E76616C6964206D61747572697479 PUSH1 0x80 SHL PUSH1 0x44 DUP3 ADD MSTORE PUSH1 0x64 SWAP1 REVERT JUMPDEST PUSH1 0x40 MLOAD PUSH3 0x461BCD PUSH1 0xE5 SHL DUP2 MSTORE PUSH1 0x20 PUSH1 0x4 DUP3 ADD MSTORE PUSH1 0x17 PUSH1 0x24 DUP3 ADD MSTORE PUSH32 0x537570706C79206D75737420626520706F736974697665000000000000000000 PUSH1 0x44 DUP3 ADD MSTORE PUSH1 0x64 SWAP1 REVERT JUMPDEST PUSH1 0x40 MLOAD PUSH3 0x461BCD PUSH1 0xE5 SHL DUP2 MSTORE PUSH1 0x20 PUSH1 0x4 DUP3 ADD MSTORE PUSH1 0x14 PUSH1 0x24 DUP3 ADD MSTORE PUSH32 0x564E45206D75737420626520706F736974697665000000000000000000000000 PUSH1 0x44 DUP3 ADD MSTORE PUSH1 0x64 SWAP1 REVERT JUMPDEST ADD MLOAD SWAP1 POP CODESIZE DUP1 PUSH3 0x319 JUMP JUMPDEST PUSH1 0x4 PUSH1 0x0 SWAP1 DUP2 MSTORE SWAP4 POP PUSH32 0x8A35ACFBC15FF81A39AE7D344FD709F28E8600B4AA8C65C6B64BFE7FE36BD19B SWAP2 SWAP1 JUMPDEST PUSH1 0x1F NOT DUP5 AND DUP6 LT PUSH3 0xD81 JUMPI PUSH1 0x1 SWAP5 POP DUP4 PUSH1 0x1F NOT DUP2 AND LT PUSH3 0xD67 JUMPI JUMPDEST POP POP POP DUP2 SHL ADD PUSH1 0x4 SSTORE PUSH3 0x32F JUMP JUMPDEST ADD MLOAD PUSH1 0x0 NOT PUSH1 0xF8 DUP5 PUSH1 0x3 SHL AND SHR NOT AND SWAP1 SSTORE CODESIZE DUP1 DUP1 PUSH3 0xD58 JUMP JUMPDEST DUP2 DUP2 ADD MLOAD DUP4 SSTORE PUSH1 0x20 SWAP5 DUP6 ADD SWAP5 PUSH1 0x1 SWAP1 SWAP4 ADD SWAP3 SWAP1 SWAP2 ADD SWAP1 PUSH3 0xD3B JUMP JUMPDEST PUSH1 0x4 PUSH1 0x0 MSTORE SWAP1 SWAP2 POP PUSH32 0x8A35ACFBC15FF81A39AE7D344FD709F28E8600B4AA8C65C6B64BFE7FE36BD19B PUSH1 0x1F DUP5 ADD PUSH1 0x5 SHR DUP2 ADD PUSH1 0x20 DUP6 LT PUSH3 0xE07 JUMPI JUMPDEST SWAP1 DUP5 SWAP4 SWAP3 SWAP2 JUMPDEST PUSH1 0x1F DUP4 ADD PUSH1 0x5 SHR DUP3 ADD DUP2 LT PUSH3 0xDF7 JUMPI POP POP PUSH3 0x300 JUMP JUMPDEST PUSH1 0x0 DUP2 SSTORE DUP6 SWAP5 POP PUSH1 0x1 ADD PUSH3 0xDDF JUMP JUMPDEST POP DUP1 PUSH3 0xDD9 JUMP JUMPDEST SWAP2 PUSH1 0x7F AND SWAP2 PUSH3 0x2EA JUMP JUMPDEST ADD MLOAD SWAP1 POP CODESIZE DUP1 PUSH3 0x2AF JUMP JUMPDEST PUSH1 0x3 PUSH1 0x0 SWAP1 DUP2 MSTORE SWAP4 POP PUSH32 0xC2575A0E9E593C00F959F8C92F12DB2869C3395A3B0502D05E2516446F71F85B SWAP2 SWAP1 JUMPDEST PUSH1 0x1F NOT DUP5 AND DUP6 LT PUSH3 0xE99 JUMPI PUSH1 0x1 SWAP5 POP DUP4 PUSH1 0x1F NOT DUP2 AND LT PUSH3 0xE7F JUMPI JUMPDEST POP POP POP DUP2 SHL ADD PUSH1 0x3 SSTORE PUSH3 0x2C5 JUMP JUMPDEST ADD MLOAD PUSH1 0x0 NOT PUSH1 0xF8 DUP5 PUSH1 0x3 SHL AND SHR NOT AND SWAP1 SSTORE CODESIZE DUP1 DUP1 PUSH3 0xE70 JUMP JUMPDEST DUP2 DUP2 ADD MLOAD DUP4 SSTORE PUSH1 0x20 SWAP5 DUP6 ADD SWAP5 PUSH1 0x1 SWAP1 SWAP4 ADD SWAP3 SWAP1 SWAP2 ADD SWAP1 PUSH3 0xE53 JUMP JUMPDEST PUSH1 0x3 PUSH1 0x0 MSTORE SWAP1 SWAP2 POP PUSH32 0xC2575A0E9E593C00F959F8C92F12DB2869C3395A3B0502D05E2516446F71F85B PUSH1 0x1F DUP5 ADD PUSH1 0x5 SHR DUP2 ADD PUSH1 0x20 DUP6 LT PUSH3 0xF1F JUMPI JUMPDEST SWAP1 DUP5 SWAP4 SWAP3 SWAP2 JUMPDEST PUSH1 0x1F DUP4 ADD PUSH1 0x5 SHR DUP3 ADD DUP2 LT PUSH3 0xF0F JUMPI POP POP PUSH3 0x296 JUMP JUMPDEST PUSH1 0x0 DUP2 SSTORE DUP6 SWAP5 POP PUSH1 0x1 ADD PUSH3 0xEF7 JUMP JUMPDEST POP DUP1 PUSH3 0xEF1 JUMP JUMPDEST SWAP2 PUSH1 0x7F AND SWAP2 PUSH3 0x280 JUMP JUMPDEST PUSH1 0x0 DUP1 REVERT JUMPDEST PUSH1 0x40 MLOAD SWAP2 SWAP1 PUSH1 0x1F ADD PUSH1 0x1F NOT AND DUP3 ADD PUSH1 0x1 PUSH1 0x1 PUSH1 0x40 SHL SUB DUP2 GT DUP4 DUP3 LT OR PUSH3 0x826 JUMPI PUSH1 0x40 MSTORE JUMP JUMPDEST PUSH1 0x0 JUMPDEST DUP4 DUP2 LT PUSH3 0xF71 JUMPI POP POP PUSH1 0x0 SWAP2 ADD MSTORE JUMP JUMPDEST DUP2 DUP2 ADD MLOAD DUP4 DUP3 ADD MSTORE PUSH1 0x20 ADD PUSH3 0xF60 JUMP JUMPDEST DUP2 PUSH1 0x1F DUP3 ADD SLT ISZERO PUSH3 0xF32 JUMPI DUP1 MLOAD PUSH1 0x1 PUSH1 0x1 PUSH1 0x40 SHL SUB DUP2 GT PUSH3 0x826 JUMPI PUSH3 0xFB4 PUSH1 0x1F DUP3 ADD PUSH1 0x1F NOT AND PUSH1 0x20 ADD PUSH3 0xF37 JUMP JUMPDEST SWAP3 DUP2 DUP5 MSTORE PUSH1 0x20 DUP3 DUP5 ADD ADD GT PUSH3 0xF32 JUMPI PUSH3 0xFD6 SWAP2 PUSH1 0x20 DUP1 DUP6 ADD SWAP2 ADD PUSH3 0xF5D JUMP JUMPDEST SWAP1 JUMP JUMPDEST MLOAD SWAP1 DUP2 ISZERO ISZERO DUP3 SUB PUSH3 0xF32 JUMPI JUMP JUMPDEST MLOAD SWAP1 PUSH1 0x1 PUSH1 0x1 PUSH1 0xA0 SHL SUB DUP3 AND DUP3 SUB PUSH3 0xF32 JUMPI JUMP JUMPDEST PUSH1 0x5 GT ISZERO PUSH3 0xB34 JUMPI JUMP JUMPDEST PUSH1 0x1 PUSH1 0x1 PUSH1 0xA0 SHL SUB AND PUSH1 0x0 DUP2 DUP2 MSTORE PUSH32 0x5B8CCBB9D4D8FB16EA74CE3C29A41F1B461FBDAFF4714A0D9A8EB05499746BC PUSH1 0x20 MSTORE PUSH1 0x40 DUP2 KECCAK256 SLOAD SWAP1 SWAP2 SWAP1 PUSH1 0xFF AND PUSH3 0x1084 JUMPI DUP2 DUP1 MSTORE PUSH1 0x5 PUSH1 0x20 MSTORE PUSH1 0x40 DUP3 KECCAK256 DUP2 DUP4 MSTORE PUSH1 0x20 MSTORE PUSH1 0x40 DUP3 KECCAK256 PUSH1 0x1 PUSH1 0xFF NOT DUP3 SLOAD AND OR SWAP1 SSTORE CALLER SWAP2 PUSH1 0x0 DUP1 MLOAD PUSH1 0x20 PUSH3 0x529F DUP4 CODECOPY DUP2 MLOAD SWAP2 MSTORE DUP2 DUP1 LOG4 PUSH1 0x1 SWAP1 JUMP JUMPDEST POP SWAP1 JUMP JUMPDEST PUSH1 0x1 PUSH1 0x1 PUSH1 0xA0 SHL SUB AND PUSH1 0x0 DUP2 DUP2 MSTORE PUSH32 0xD8EF4509105C3EDB0B04658B4528EDC5DDD30EA5A81E623A2623C88DB1EB54B6 PUSH1 0x20 MSTORE PUSH1 0x40 DUP2 KECCAK256 SLOAD SWAP1 SWAP2 SWAP1 PUSH32 0xA49807205CE4D355092EF5A8A18F56E8913CF4A201FBE287825B095693C21775 SWAP1 PUSH1 0xFF AND PUSH3 0x1126 JUMPI DUP1 DUP4 MSTORE PUSH1 0x5 PUSH1 0x20 MSTORE PUSH1 0x40 DUP4 KECCAK256 DUP3 DUP5 MSTORE PUSH1 0x20 MSTORE PUSH1 0x40 DUP4 KECCAK256 PUSH1 0x1 PUSH1 0xFF NOT DUP3 SLOAD AND OR SWAP1 SSTORE PUSH1 0x0 DUP1 MLOAD PUSH1 0x20 PUSH3 0x529F DUP4 CODECOPY DUP2 MLOAD SWAP2 MSTORE CALLER SWAP4 DUP1 LOG4 PUSH1 0x1 SWAP1 JUMP JUMPDEST POP POP SWAP1 JUMP JUMPDEST PUSH1 0x1 PUSH1 0x1 PUSH1 0xA0 SHL SUB AND PUSH1 0x0 DUP2 DUP2 MSTORE PUSH32 0x8699172536D22B992C4579CB1469B6A17054A95EE49BF4D1FDC489BAFAAA007 PUSH1 0x20 MSTORE PUSH1 0x40 DUP2 KECCAK256 SLOAD SWAP1 SWAP2 SWAP1 PUSH32 0x114E74F6EA3BD819998F78687BFCB11B140DA08E9B7D222FA9C1F1BA1F2AA122 SWAP1 PUSH1 0xFF AND PUSH3 0x1126 JUMPI DUP1 DUP4 MSTORE PUSH1 0x5 PUSH1 0x20 MSTORE PUSH1 0x40 DUP4 KECCAK256 DUP3 DUP5 MSTORE PUSH1 0x20 MSTORE PUSH1 0x40 DUP4 KECCAK256 PUSH1 0x1 PUSH1 0xFF NOT DUP3 SLOAD AND OR SWAP1 SSTORE PUSH1 0x0 DUP1 MLOAD PUSH1 0x20 PUSH3 0x529F DUP4 CODECOPY DUP2 MLOAD SWAP2 MSTORE CALLER SWAP4 DUP1 LOG4 PUSH1 0x1 SWAP1 JUMP JUMPDEST PUSH1 0x1 PUSH1 0x1 PUSH1 0xA0 SHL SUB AND PUSH1 0x0 DUP2 DUP2 MSTORE PUSH32 0x66215885DCB73CB4AAE79FCB51F949ACF75999687399EEF5D47B261732E84357 PUSH1 0x20 MSTORE PUSH1 0x40 DUP2 KECCAK256 SLOAD SWAP1 SWAP2 SWAP1 PUSH32 0x700B68D05515876E1B5BEE45535F56F17ECF1FBB63AC93E8914591401365025D SWAP1 PUSH1 0xFF AND PUSH3 0x1126 JUMPI DUP1 DUP4 MSTORE PUSH1 0x5 PUSH1 0x20 MSTORE PUSH1 0x40 DUP4 KECCAK256 DUP3 DUP5 MSTORE PUSH1 0x20 MSTORE PUSH1 0x40 DUP4 KECCAK256 PUSH1 0x1 PUSH1 0xFF NOT DUP3 SLOAD AND OR SWAP1 SSTORE PUSH1 0x0 DUP1 MLOAD PUSH1 0x20 PUSH3 0x529F DUP4 CODECOPY DUP2 MLOAD SWAP2 MSTORE CALLER SWAP4 DUP1 LOG4 PUSH1 0x1 SWAP1 JUMP JUMPDEST PUSH1 0x1 PUSH1 0x1 PUSH1 0xA0 SHL SUB AND PUSH1 0x0 DUP2 DUP2 MSTORE PUSH32 0x294BB43E882F8724B7AE88344D047A41612B98EE139A78F923B3689F3CC274B1 PUSH1 0x20 MSTORE PUSH1 0x40 DUP2 KECCAK256 SLOAD SWAP1 SWAP2 SWAP1 PUSH32 0x28F5A99355973CC89255B8C4AC88405F27C78DED7608B040EE77A8BDF44D15E2 SWAP1 PUSH1 0xFF AND PUSH3 0x1126 JUMPI DUP1 DUP4 MSTORE PUSH1 0x5 PUSH1 0x20 MSTORE PUSH1 0x40 DUP4 KECCAK256 DUP3 DUP5 MSTORE PUSH1 0x20 MSTORE PUSH1 0x40 DUP4 KECCAK256 PUSH1 0x1 PUSH1 0xFF NOT DUP3 SLOAD AND OR SWAP1 SSTORE PUSH1 0x0 DUP1 MLOAD PUSH1 0x20 PUSH3 0x529F DUP4 CODECOPY DUP2 MLOAD SWAP2 MSTORE CALLER SWAP4 DUP1 LOG4 PUSH1 0x1 SWAP1 JUMP INVALID PUSH1 0xA0 DUP1 PUSH1 0x40 MSTORE PUSH1 0x4 CALLDATASIZE LT ISZERO PUSH2 0x13 JUMPI PUSH1 0x0 DUP1 REVERT JUMPDEST PUSH1 0x0 CALLDATALOAD PUSH1 0xE0 SHR SWAP1 DUP2 PUSH4 0x1FFC9A7 EQ PUSH2 0x3004 JUMPI POP DUP1 PUSH4 0x6FDDE03 EQ PUSH2 0x2F41 JUMPI DUP1 PUSH4 0x95EA7B3 EQ PUSH2 0x2EBB JUMPI DUP1 PUSH4 0x134FBEA8 EQ PUSH2 0x2E9D JUMPI DUP1 PUSH4 0x18160DDD EQ PUSH2 0x2E7F JUMPI DUP1 PUSH4 0x1D143848 EQ PUSH2 0x2E56 JUMPI DUP1 PUSH4 0x1E8D73AF EQ PUSH2 0x2C08 JUMPI DUP1 PUSH4 0x1F936E36 EQ PUSH2 0x2B20 JUMPI DUP1 PUSH4 0x200D2ED2 EQ PUSH2 0x2AF6 JUMPI DUP1 PUSH4 0x23B872DD EQ PUSH2 0x2A16 JUMPI DUP1 PUSH4 0x248A9CA3 EQ PUSH2 0x29E7 JUMPI DUP1 PUSH4 0x2F2FF15D EQ PUSH2 0x29A8 JUMPI DUP1 PUSH4 0x3013CE29 EQ PUSH2 0x297F JUMPI DUP1 PUSH4 0x313CE567 EQ PUSH2 0x2963 JUMPI DUP1 PUSH4 0x36568ABE EQ PUSH2 0x291C JUMPI DUP1 PUSH4 0x39EE0661 EQ PUSH2 0x2857 JUMPI DUP1 PUSH4 0x3AF32ABF EQ PUSH2 0x109C JUMPI DUP1 PUSH4 0x3F4BA83A EQ PUSH2 0x27ED JUMPI DUP1 PUSH4 0x4173B417 EQ PUSH2 0x230E JUMPI DUP1 PUSH4 0x44337EA1 EQ PUSH2 0x229F JUMPI DUP1 PUSH4 0x468BB240 EQ PUSH2 0x2281 JUMPI DUP1 PUSH4 0x471337A3 EQ PUSH2 0x2263 JUMPI DUP1 PUSH4 0x537DF3B6 EQ PUSH2 0x21F7 JUMPI DUP1 PUSH4 0x54202C4E EQ PUSH2 0x21BC JUMPI DUP1 PUSH4 0x5465729A EQ PUSH2 0x207C JUMPI DUP1 PUSH4 0x564BA9D3 EQ PUSH2 0x1D2B JUMPI DUP1 PUSH4 0x5674D3F4 EQ PUSH2 0x1A66 JUMPI DUP1 PUSH4 0x56E2DA1B EQ PUSH2 0x1A4A JUMPI DUP1 PUSH4 0x57974E5A EQ PUSH2 0x19C3 JUMPI DUP1 PUSH4 0x5C975ABB EQ PUSH2 0x19A0 JUMPI DUP1 PUSH4 0x5EDADFEE EQ PUSH2 0x197D JUMPI DUP1 PUSH4 0x67EDA416 EQ PUSH2 0x1960 JUMPI DUP1 PUSH4 0x70A08231 EQ PUSH2 0x1926 JUMPI DUP1 PUSH4 0x70F805FC EQ PUSH2 0x1908 JUMPI DUP1 PUSH4 0x72777649 EQ PUSH2 0x18CD JUMPI DUP1 PUSH4 0x72EEE557 EQ PUSH2 0x18B1 JUMPI DUP1 PUSH4 0x75B238FC EQ PUSH2 0x1876 JUMPI DUP1 PUSH4 0x7ACC66D9 EQ PUSH2 0x1763 JUMPI DUP1 PUSH4 0x7ADBF973 EQ PUSH2 0x16E0 JUMPI DUP1 PUSH4 0x7DC0D1D0 EQ PUSH2 0x16B7 JUMPI DUP1 PUSH4 0x7F4AB1DD EQ PUSH2 0x1679 JUMPI DUP1 PUSH4 0x82AEFA24 EQ PUSH2 0x1650 JUMPI DUP1 PUSH4 0x839CEF24 EQ PUSH2 0x1635 JUMPI DUP1 PUSH4 0x8456CB59 EQ PUSH2 0x15C8 JUMPI DUP1 PUSH4 0x87B65207 EQ PUSH2 0x150E JUMPI DUP1 PUSH4 0x8A7A2D83 EQ PUSH2 0x145B JUMPI DUP1 PUSH4 0x8AB1D681 EQ PUSH2 0x13EF JUMPI DUP1 PUSH4 0x91D14854 EQ PUSH2 0x13A2 JUMPI DUP1 PUSH4 0x932E2B86 EQ PUSH2 0x1220 JUMPI DUP1 PUSH4 0x95D89B41 EQ PUSH2 0x1128 JUMPI DUP1 PUSH4 0x97ACF4DD EQ PUSH2 0x110A JUMPI DUP1 PUSH4 0x99F91405 EQ PUSH2 0x10DB JUMPI DUP1 PUSH4 0x9B19251A EQ PUSH2 0x109C JUMPI DUP1 PUSH4 0x9DD5DE0B EQ PUSH2 0x1080 JUMPI DUP1 PUSH4 0xA217FDDF EQ PUSH2 0xCF3 JUMPI DUP1 PUSH4 0xA9059CBB EQ PUSH2 0x104F JUMPI DUP1 PUSH4 0xA9AAD58C EQ PUSH2 0x1033 JUMPI DUP1 PUSH4 0xAA8B2EA7 EQ PUSH2 0x1017 JUMPI DUP1 PUSH4 0xAB250168 EQ PUSH2 0xEC7 JUMPI DUP1 PUSH4 0xB10378E7 EQ PUSH2 0xE89 JUMPI DUP1 PUSH4 0xBD6267A0 EQ PUSH2 0xD2B JUMPI DUP1 PUSH4 0xBFFBC6BE EQ PUSH2 0xD0F JUMPI DUP1 PUSH4 0xD0A6D1A6 EQ PUSH2 0xCF3 JUMPI DUP1 PUSH4 0xD39F6E49 EQ PUSH2 0xCB9 JUMPI DUP1 PUSH4 0xD4CE1415 EQ PUSH2 0xC94 JUMPI DUP1 PUSH4 0xD5025625 EQ PUSH2 0x8F4 JUMPI DUP1 PUSH4 0xD547741F EQ PUSH2 0x8B3 JUMPI DUP1 PUSH4 0xDAD2DEA5 EQ PUSH2 0x703 JUMPI DUP1 PUSH4 0xDBB026B9 EQ PUSH2 0x586 JUMPI DUP1 PUSH4 0xDD126F6E EQ PUSH2 0x506 JUMPI DUP1 PUSH4 0xDD62ED3E EQ PUSH2 0x4B5 JUMPI DUP1 PUSH4 0xE43252D7 EQ PUSH2 0x446 JUMPI DUP1 PUSH4 0xEB839559 EQ PUSH2 0x3F7 JUMPI DUP1 PUSH4 0xECA52842 EQ PUSH2 0x3D9 JUMPI DUP1 PUSH4 0xF9F92BE4 EQ PUSH2 0x36E JUMPI DUP1 PUSH4 0xFDF97CB2 EQ PUSH2 0x3B2 JUMPI PUSH4 0xFE575A87 EQ PUSH2 0x36E JUMPI PUSH1 0x0 DUP1 REVERT JUMPDEST CALLVALUE PUSH2 0x3AD JUMPI PUSH1 0x20 CALLDATASIZE PUSH1 0x3 NOT ADD SLT PUSH2 0x3AD JUMPI PUSH1 0x1 PUSH1 0x1 PUSH1 0xA0 SHL SUB PUSH2 0x38F PUSH2 0x30C9 JUMP JUMPDEST AND PUSH1 0x0 MSTORE PUSH1 0x25 PUSH1 0x20 MSTORE PUSH1 0x20 PUSH1 0xFF PUSH1 0x40 PUSH1 0x0 KECCAK256 SLOAD AND PUSH1 0x40 MLOAD SWAP1 ISZERO ISZERO DUP2 MSTORE RETURN JUMPDEST PUSH1 0x0 DUP1 REVERT JUMPDEST CALLVALUE PUSH2 0x3AD JUMPI PUSH1 0x0 CALLDATASIZE PUSH1 0x3 NOT ADD SLT PUSH2 0x3AD JUMPI PUSH1 0x20 DUP1 SLOAD PUSH1 0x40 MLOAD PUSH1 0x1 PUSH1 0x1 PUSH1 0xA0 SHL SUB SWAP1 SWAP2 AND DUP2 MSTORE RETURN JUMPDEST CALLVALUE PUSH2 0x3AD JUMPI PUSH1 0x0 CALLDATASIZE PUSH1 0x3 NOT ADD SLT PUSH2 0x3AD JUMPI PUSH1 0x20 PUSH1 0x23 SLOAD PUSH1 0x40 MLOAD SWAP1 DUP2 MSTORE RETURN JUMPDEST CALLVALUE PUSH2 0x3AD JUMPI PUSH1 0x20 CALLDATASIZE PUSH1 0x3 NOT ADD SLT PUSH2 0x3AD JUMPI PUSH1 0x4 CALLDATALOAD PUSH1 0x21 SLOAD DUP2 LT ISZERO PUSH2 0x3AD JUMPI PUSH2 0x420 PUSH1 0x60 SWAP2 PUSH2 0x3273 JUMP JUMPDEST POP DUP1 SLOAD SWAP1 PUSH1 0xFF PUSH1 0x2 PUSH1 0x1 DUP4 ADD SLOAD SWAP3 ADD SLOAD AND SWAP1 PUSH1 0x40 MLOAD SWAP3 DUP4 MSTORE PUSH1 0x20 DUP4 ADD MSTORE ISZERO ISZERO PUSH1 0x40 DUP3 ADD MSTORE RETURN JUMPDEST CALLVALUE PUSH2 0x3AD JUMPI PUSH1 0x20 CALLDATASIZE PUSH1 0x3 NOT ADD SLT PUSH2 0x3AD JUMPI PUSH2 0x45F PUSH2 0x30C9 JUMP JUMPDEST PUSH2 0x467 PUSH2 0x32AE JUMP JUMPDEST PUSH1 0x1 DUP1 PUSH1 0xA0 SHL SUB AND DUP1 PUSH1 0x0 MSTORE PUSH1 0x24 PUSH1 0x20 MSTORE PUSH1 0x40 PUSH1 0x0 KECCAK256 PUSH1 0x1 PUSH1 0xFF NOT DUP3 SLOAD AND OR SWAP1 SSTORE PUSH32 0xF93F9A76C1BF3444D22400A00CB9FE990E6ABE9DBB333FDA48859CFEE864543D PUSH1 0x20 PUSH1 0x40 MLOAD PUSH1 0x1 DUP2 MSTORE LOG2 STOP JUMPDEST CALLVALUE PUSH2 0x3AD JUMPI PUSH1 0x40 CALLDATASIZE PUSH1 0x3 NOT ADD SLT PUSH2 0x3AD JUMPI PUSH2 0x4CE PUSH2 0x30C9 JUMP JUMPDEST PUSH2 0x4D6 PUSH2 0x30DF JUMP JUMPDEST SWAP1 PUSH1 0x1 DUP1 PUSH1 0xA0 SHL SUB DUP1 SWAP2 AND PUSH1 0x0 MSTORE PUSH1 0x1 PUSH1 0x20 MSTORE PUSH1 0x40 PUSH1 0x0 KECCAK256 SWAP2 AND PUSH1 0x0 MSTORE PUSH1 0x20 MSTORE PUSH1 0x20 PUSH1 0x40 PUSH1 0x0 KECCAK256 SLOAD PUSH1 0x40 MLOAD SWAP1 DUP2 MSTORE RETURN JUMPDEST CALLVALUE PUSH2 0x3AD JUMPI PUSH1 0x0 CALLDATASIZE PUSH1 0x3 NOT ADD SLT PUSH2 0x3AD JUMPI PUSH1 0x0 PUSH1 0x60 PUSH1 0x40 MLOAD PUSH2 0x527 DUP2 PUSH2 0x3219 JUMP JUMPDEST DUP3 DUP2 MSTORE DUP3 PUSH1 0x20 DUP3 ADD MSTORE DUP3 PUSH1 0x40 DUP3 ADD MSTORE ADD MSTORE PUSH1 0x80 PUSH1 0x40 MLOAD PUSH2 0x546 DUP2 PUSH2 0x3219 JUMP JUMPDEST PUSH1 0x19 SLOAD SWAP1 DUP2 DUP2 MSTORE PUSH1 0x1A SLOAD PUSH1 0x20 DUP3 ADD SWAP1 DUP2 MSTORE PUSH1 0x1B SLOAD SWAP1 PUSH1 0x40 DUP4 ADD SWAP2 DUP3 MSTORE PUSH1 0x60 PUSH1 0x1C SLOAD SWAP4 ADD SWAP3 DUP4 MSTORE PUSH1 0x40 MLOAD SWAP4 DUP5 MSTORE MLOAD PUSH1 0x20 DUP5 ADD MSTORE MLOAD PUSH1 0x40 DUP4 ADD MSTORE MLOAD PUSH1 0x60 DUP3 ADD MSTORE RETURN JUMPDEST CALLVALUE PUSH2 0x3AD JUMPI PUSH1 0x20 DUP1 PUSH1 0x3 NOT CALLDATASIZE ADD SLT PUSH2 0x3AD JUMPI PUSH1 0x4 CALLDATALOAD SWAP1 PUSH2 0x5A4 PUSH2 0x3AF4 JUMP JUMPDEST PUSH2 0x5B1 PUSH1 0x22 SLOAD DUP4 LT PUSH2 0x3B17 JUMP JUMPDEST CALLER PUSH1 0x0 MSTORE PUSH1 0x26 DUP2 MSTORE PUSH1 0x40 PUSH1 0x0 KECCAK256 SLOAD DUP3 LT PUSH2 0x6CD JUMPI PUSH2 0x5CE DUP3 PUSH2 0x3172 JUMP JUMPDEST POP PUSH1 0xFF PUSH1 0x6 DUP3 ADD SLOAD PUSH1 0x8 SHR AND ISZERO PUSH2 0x692 JUMPI PUSH2 0x619 PUSH3 0xF4240 SWAP2 CALLER PUSH1 0x0 MSTORE PUSH1 0x0 DUP5 MSTORE PUSH2 0x614 PUSH1 0x40 PUSH1 0x0 KECCAK256 SLOAD SWAP2 PUSH2 0x604 DUP4 ISZERO ISZERO PUSH2 0x3C11 JUMP JUMPDEST PUSH1 0x5 PUSH1 0x4 DUP3 ADD SLOAD SWAP2 ADD SLOAD SWAP1 PUSH2 0x381F JUMP JUMPDEST PUSH2 0x3900 JUMP JUMPDEST DIV SWAP1 PUSH1 0x1 DUP4 ADD SWAP1 DUP2 DUP5 GT PUSH2 0x67C JUMPI PUSH32 0xD5A6750FD524C6F3D04C2A3F8E74B57E914EFBA5C7B8D9C1A17555EB7FB7052B SWAP2 CALLER PUSH1 0x0 MSTORE PUSH1 0x26 DUP3 MSTORE PUSH1 0x40 PUSH1 0x0 KECCAK256 SSTORE PUSH2 0x66C DUP4 CALLER PUSH1 0x1 DUP1 PUSH1 0xA0 SHL SUB PUSH1 0x1E SLOAD AND PUSH2 0x3C4A JUMP JUMPDEST PUSH1 0x40 MLOAD SWAP3 DUP4 MSTORE CALLER SWAP3 LOG3 PUSH1 0x1 PUSH1 0x6 SSTORE STOP JUMPDEST PUSH4 0x4E487B71 PUSH1 0xE0 SHL PUSH1 0x0 MSTORE PUSH1 0x11 PUSH1 0x4 MSTORE PUSH1 0x24 PUSH1 0x0 REVERT JUMPDEST PUSH1 0x40 MLOAD PUSH3 0x461BCD PUSH1 0xE5 SHL DUP2 MSTORE PUSH1 0x4 DUP2 ADD DUP4 SWAP1 MSTORE PUSH1 0x13 PUSH1 0x24 DUP3 ADD MSTORE PUSH19 0x10DBDD5C1BDB881B9BDD081C185A59081E595D PUSH1 0x6A SHL PUSH1 0x44 DUP3 ADD MSTORE PUSH1 0x64 SWAP1 REVERT JUMPDEST PUSH1 0x64 SWAP1 PUSH1 0x40 MLOAD SWAP1 PUSH3 0x461BCD PUSH1 0xE5 SHL DUP3 MSTORE PUSH1 0x4 DUP3 ADD MSTORE PUSH1 0xF PUSH1 0x24 DUP3 ADD MSTORE PUSH15 0x105B1C9958591E4818DB185A5B5959 PUSH1 0x8A SHL PUSH1 0x44 DUP3 ADD MSTORE REVERT JUMPDEST CALLVALUE PUSH2 0x3AD JUMPI PUSH1 0x0 CALLDATASIZE PUSH1 0x3 NOT ADD SLT PUSH2 0x3AD JUMPI PUSH2 0x71C PUSH2 0x3AF4 JUMP JUMPDEST CALLER PUSH1 0x0 MSTORE PUSH1 0x20 PUSH1 0x0 DUP2 MSTORE PUSH1 0x40 PUSH1 0x0 KECCAK256 SLOAD PUSH2 0x737 DUP2 ISZERO ISZERO PUSH2 0x3C11 JUMP JUMPDEST CALLER PUSH1 0x0 MSTORE PUSH1 0x26 DUP3 MSTORE PUSH1 0x40 PUSH1 0x0 KECCAK256 SLOAD PUSH1 0x22 SLOAD DUP1 DUP3 LT ISZERO PUSH2 0x878 JUMPI SWAP2 PUSH1 0x0 SWAP3 DUP3 SWAP2 JUMPDEST DUP2 DUP4 LT PUSH2 0x7DD JUMPI JUMPDEST POP POP POP DUP2 ISZERO PUSH2 0x798 JUMPI CALLER PUSH1 0x0 MSTORE PUSH1 0x26 DUP4 MSTORE PUSH1 0x40 PUSH1 0x0 KECCAK256 SSTORE PUSH2 0x78B DUP2 CALLER PUSH1 0x1 DUP1 PUSH1 0xA0 SHL SUB PUSH1 0x1E SLOAD AND PUSH2 0x3C4A JUMP JUMPDEST PUSH1 0x1 PUSH1 0x6 SSTORE PUSH1 0x40 MLOAD SWAP1 DUP2 MSTORE RETURN JUMPDEST PUSH1 0x40 MLOAD PUSH3 0x461BCD PUSH1 0xE5 SHL DUP2 MSTORE PUSH1 0x4 DUP2 ADD DUP5 SWAP1 MSTORE PUSH1 0x18 PUSH1 0x24 DUP3 ADD MSTORE PUSH32 0x4E6F207061696420636F75706F6E7320746F20636C61696D0000000000000000 PUSH1 0x44 DUP3 ADD MSTORE PUSH1 0x64 SWAP1 REVERT JUMPDEST SWAP1 SWAP2 SWAP4 SWAP3 PUSH2 0x7EA DUP6 PUSH2 0x3172 JUMP JUMPDEST POP SWAP1 PUSH1 0xFF PUSH1 0x6 DUP4 ADD SLOAD PUSH1 0x8 SHR AND PUSH1 0x0 EQ PUSH2 0x870 JUMPI POP PUSH3 0xF4240 PUSH2 0x81E DUP4 PUSH2 0x614 DUP5 PUSH1 0x5 PUSH1 0x4 PUSH2 0x826 SWAP8 ADD SLOAD SWAP2 ADD SLOAD SWAP1 PUSH2 0x381F JUMP JUMPDEST DIV DUP1 SWAP5 PUSH2 0x381F JUMP JUMPDEST SWAP4 PUSH1 0x1 DUP2 ADD SWAP1 DUP2 DUP2 GT PUSH2 0x67C JUMPI DUP1 PUSH2 0x869 SWAP3 SWAP6 PUSH1 0x40 MLOAD SWAP1 DUP2 MSTORE PUSH32 0xD5A6750FD524C6F3D04C2A3F8E74B57E914EFBA5C7B8D9C1A17555EB7FB7052B DUP10 CALLER SWAP3 LOG3 PUSH2 0x382C JUMP JUMPDEST SWAP2 SWAP1 PUSH2 0x757 JUMP JUMPDEST SWAP4 SWAP5 POP PUSH2 0x75F JUMP JUMPDEST PUSH1 0x40 MLOAD PUSH3 0x461BCD PUSH1 0xE5 SHL DUP2 MSTORE PUSH1 0x4 DUP2 ADD DUP6 SWAP1 MSTORE PUSH1 0x13 PUSH1 0x24 DUP3 ADD MSTORE PUSH19 0x4E6F20636F75706F6E7320746F20636C61696D PUSH1 0x68 SHL PUSH1 0x44 DUP3 ADD MSTORE PUSH1 0x64 SWAP1 REVERT JUMPDEST CALLVALUE PUSH2 0x3AD JUMPI PUSH1 0x40 CALLDATASIZE PUSH1 0x3 NOT ADD SLT PUSH2 0x3AD JUMPI PUSH2 0x8F2 PUSH1 0x4 CALLDATALOAD PUSH2 0x8D2 PUSH2 0x30DF JUMP JUMPDEST SWAP1 DUP1 PUSH1 0x0 MSTORE PUSH1 0x5 PUSH1 0x20 MSTORE PUSH2 0x8ED PUSH1 0x1 PUSH1 0x40 PUSH1 0x0 KECCAK256 ADD SLOAD PUSH2 0x33E0 JUMP JUMPDEST PUSH2 0x3486 JUMP JUMPDEST STOP JUMPDEST CALLVALUE PUSH2 0x3AD JUMPI PUSH1 0x0 CALLDATASIZE PUSH1 0x3 NOT ADD SLT PUSH2 0x3AD JUMPI PUSH1 0x8 SLOAD PUSH1 0x9 SLOAD SWAP1 PUSH1 0xA SLOAD PUSH1 0xB SLOAD PUSH1 0xFF PUSH1 0xC SLOAD AND PUSH1 0xD SLOAD PUSH1 0xFF PUSH1 0xE SLOAD AND PUSH1 0xF SLOAD PUSH1 0x10 SLOAD SWAP1 PUSH1 0x11 SLOAD SWAP3 PUSH1 0xFF PUSH1 0x12 SLOAD AND SWAP5 PUSH1 0x40 MLOAD SWAP7 PUSH1 0x0 PUSH1 0x13 SLOAD DUP1 PUSH1 0x1 SHR SWAP2 PUSH1 0x1 DUP3 AND ISZERO PUSH2 0xC8A JUMPI JUMPDEST PUSH1 0x20 DUP4 LT PUSH1 0x1 DUP4 AND EQ PUSH2 0xB64 JUMPI DUP3 DUP12 MSTORE DUP11 SWAP2 PUSH1 0x1 DUP2 AND SWAP1 DUP2 ISZERO PUSH2 0xC6B JUMPI POP PUSH1 0x1 EQ PUSH2 0xC0B JUMPI JUMPDEST PUSH2 0x97D SWAP3 POP SUB DUP10 PUSH2 0x3251 JUMP JUMPDEST PUSH1 0x40 MLOAD SWAP9 PUSH1 0x0 PUSH1 0x14 SLOAD DUP1 PUSH1 0x1 SHR SWAP2 PUSH1 0x1 DUP3 AND ISZERO PUSH2 0xC01 JUMPI JUMPDEST PUSH1 0x20 DUP4 LT PUSH1 0x1 DUP4 AND EQ PUSH2 0xB64 JUMPI DUP3 DUP14 MSTORE DUP13 SWAP2 PUSH1 0x1 DUP2 AND SWAP1 DUP2 ISZERO PUSH2 0xBE2 JUMPI POP PUSH1 0x1 EQ PUSH2 0xB82 JUMPI JUMPDEST PUSH2 0x9C7 SWAP3 POP SUB DUP12 PUSH2 0x3251 JUMP JUMPDEST PUSH1 0x40 MLOAD SWAP11 PUSH1 0x0 PUSH1 0x15 SLOAD SWAP1 DUP2 PUSH1 0x1 SHR PUSH1 0x1 DUP4 AND ISZERO PUSH2 0xB7A JUMPI JUMPDEST PUSH1 0x20 DUP2 LT PUSH1 0x1 DUP5 AND EQ PUSH2 0xB64 JUMPI DUP1 DUP16 MSTORE DUP15 SWAP3 PUSH1 0x1 DUP2 AND SWAP1 DUP2 ISZERO PUSH2 0xB48 JUMPI POP PUSH1 0x1 EQ PUSH2 0xAEE JUMPI JUMPDEST POP SUB PUSH2 0xA11 SWAP1 DUP14 PUSH2 0x3251 JUMP JUMPDEST PUSH1 0x16 SLOAD SWAP14 PUSH1 0x17 SLOAD SWAP14 PUSH1 0x40 MLOAD DUP1 PUSH1 0x80 MSTORE MSTORE PUSH1 0x80 MLOAD PUSH1 0x20 ADD MSTORE PUSH1 0x80 MLOAD PUSH1 0x40 ADD MSTORE PUSH1 0x80 MLOAD PUSH1 0x60 ADD MSTORE PUSH1 0x80 MLOAD PUSH1 0x80 ADD MSTORE PUSH1 0x80 MLOAD PUSH1 0xA0 ADD MSTORE PUSH2 0xA4D DUP2 PUSH2 0x30F5 JUMP JUMPDEST PUSH1 0x80 MLOAD PUSH1 0xC0 ADD MSTORE PUSH1 0x80 MLOAD PUSH1 0xE0 ADD MSTORE PUSH1 0x80 MLOAD PUSH2 0x100 ADD MSTORE PUSH1 0x80 MLOAD PUSH2 0x120 ADD MSTORE PUSH1 0x80 MLOAD PUSH2 0x140 ADD PUSH2 0xA7B SWAP2 PUSH2 0x3165 JUMP JUMPDEST PUSH2 0x220 DUP1 PUSH1 0x80 MLOAD PUSH2 0x160 ADD MSTORE PUSH1 0x80 MLOAD ADD PUSH2 0xA94 SWAP2 PUSH2 0x3089 JUMP JUMPDEST PUSH1 0x80 MLOAD DUP1 DUP3 SUB SWAP1 PUSH2 0x180 ADD MSTORE PUSH2 0xAA9 SWAP2 PUSH2 0x3089 JUMP JUMPDEST PUSH1 0x80 MLOAD DUP1 DUP3 SUB SWAP1 PUSH2 0x1A0 ADD MSTORE PUSH2 0xABE SWAP2 PUSH2 0x3089 JUMP JUMPDEST SWAP2 PUSH1 0xFF DUP2 AND ISZERO ISZERO PUSH1 0x80 MLOAD PUSH2 0x1C0 ADD MSTORE PUSH1 0x8 SHR PUSH1 0xFF AND ISZERO ISZERO PUSH1 0x80 MLOAD PUSH2 0x1E0 ADD MSTORE PUSH1 0x80 MLOAD PUSH2 0x200 ADD MSTORE PUSH1 0x80 MLOAD DUP1 SWAP2 SUB SWAP1 RETURN JUMPDEST PUSH1 0x15 PUSH1 0x0 SWAP1 DUP2 MSTORE SWAP2 POP PUSH32 0x55F448FDEA98C4D29EB340757EF0A66CD03DBB9538908A6A81D96026B71EC475 JUMPDEST DUP2 DUP4 LT PUSH2 0xB2D JUMPI POP POP DUP2 ADD PUSH1 0x20 ADD CODESIZE PUSH2 0xA05 JUMP JUMPDEST DUP1 PUSH1 0x20 SWAP3 SWAP5 DUP4 DUP6 PUSH1 0x1 SWAP5 SLOAD SWAP3 ADD ADD MSTORE ADD SWAP2 ADD SWAP1 SWAP2 DUP15 SWAP3 PUSH2 0xB19 JUMP JUMPDEST SWAP1 POP PUSH1 0x20 SWAP3 POP PUSH1 0xFF NOT AND DUP3 DUP5 ADD MSTORE ISZERO ISZERO PUSH1 0x5 SHL DUP3 ADD ADD CODESIZE PUSH2 0xA05 JUMP JUMPDEST PUSH4 0x4E487B71 PUSH1 0xE0 SHL PUSH1 0x0 MSTORE PUSH1 0x22 PUSH1 0x4 MSTORE PUSH1 0x24 PUSH1 0x0 REVERT JUMPDEST PUSH1 0x7F AND PUSH2 0x9DF JUMP JUMPDEST POP SWAP1 PUSH1 0x14 PUSH1 0x0 MSTORE PUSH32 0xCE6D7B5282BD9A3661AE061FEED1DBDA4E52AB073B1F9285BE6E155D9C38D4EC SWAP1 PUSH1 0x0 SWAP2 JUMPDEST DUP2 DUP4 LT PUSH2 0xBC7 JUMPI POP POP SWAP1 PUSH1 0x20 PUSH2 0x9C7 SWAP3 DUP3 ADD ADD PUSH2 0x9BB JUMP JUMPDEST DUP1 PUSH1 0x20 SWAP3 SWAP5 DUP4 DUP6 PUSH1 0x1 SWAP5 SLOAD SWAP3 ADD ADD MSTORE ADD SWAP2 ADD SWAP1 SWAP2 DUP13 SWAP3 PUSH2 0xBAF JUMP JUMPDEST PUSH1 0x20 SWAP3 POP PUSH2 0x9C7 SWAP5 SWAP2 POP PUSH1 0xFF NOT AND DUP3 DUP5 ADD MSTORE ISZERO ISZERO PUSH1 0x5 SHL DUP3 ADD ADD PUSH2 0x9BB JUMP JUMPDEST SWAP2 PUSH1 0x7F AND SWAP2 PUSH2 0x995 JUMP JUMPDEST POP SWAP1 PUSH1 0x13 PUSH1 0x0 MSTORE PUSH32 0x66DE8FFDA797E3DE9C05E8FC57B3BF0EC28A930D40B0D285D93C06501CF6A090 SWAP1 PUSH1 0x0 SWAP2 JUMPDEST DUP2 DUP4 LT PUSH2 0xC50 JUMPI POP POP SWAP1 PUSH1 0x20 PUSH2 0x97D SWAP3 DUP3 ADD ADD PUSH2 0x971 JUMP JUMPDEST DUP1 PUSH1 0x20 SWAP3 SWAP5 DUP4 DUP6 PUSH1 0x1 SWAP5 SLOAD SWAP3 ADD ADD MSTORE ADD SWAP2 ADD SWAP1 SWAP2 DUP11 SWAP3 PUSH2 0xC38 JUMP JUMPDEST PUSH1 0x20 SWAP3 POP PUSH2 0x97D SWAP5 SWAP2 POP PUSH1 0xFF NOT AND DUP3 DUP5 ADD MSTORE ISZERO ISZERO PUSH1 0x5 SHL DUP3 ADD ADD PUSH2 0x971 JUMP JUMPDEST SWAP2 PUSH1 0x7F AND SWAP2 PUSH2 0x94B JUMP JUMPDEST CALLVALUE PUSH2 0x3AD JUMPI PUSH1 0x20 PUSH2 0xCAE PUSH2 0xCA7 CALLDATASIZE PUSH2 0x30FF JUMP JUMPDEST POP SWAP1 PUSH2 0x361E JUMP JUMPDEST PUSH1 0xFF PUSH1 0x40 MLOAD SWAP2 AND DUP2 MSTORE RETURN JUMPDEST CALLVALUE PUSH2 0x3AD JUMPI PUSH1 0x20 CALLDATASIZE PUSH1 0x3 NOT ADD SLT PUSH2 0x3AD JUMPI PUSH1 0x1 PUSH1 0x1 PUSH1 0xA0 SHL SUB PUSH2 0xCDA PUSH2 0x30C9 JUMP JUMPDEST AND PUSH1 0x0 MSTORE PUSH1 0x26 PUSH1 0x20 MSTORE PUSH1 0x20 PUSH1 0x40 PUSH1 0x0 KECCAK256 SLOAD PUSH1 0x40 MLOAD SWAP1 DUP2 MSTORE RETURN JUMPDEST CALLVALUE PUSH2 0x3AD JUMPI PUSH1 0x0 CALLDATASIZE PUSH1 0x3 NOT ADD SLT PUSH2 0x3AD JUMPI PUSH1 0x20 PUSH1 0x40 MLOAD PUSH1 0x0 DUP2 MSTORE RETURN JUMPDEST CALLVALUE PUSH2 0x3AD JUMPI PUSH1 0x0 CALLDATASIZE PUSH1 0x3 NOT ADD SLT PUSH2 0x3AD JUMPI PUSH1 0x20 PUSH1 0x40 MLOAD PUSH1 0x1 DUP2 MSTORE RETURN JUMPDEST CALLVALUE PUSH2 0x3AD JUMPI PUSH1 0x20 CALLDATASIZE PUSH1 0x3 NOT ADD SLT PUSH2 0x3AD JUMPI PUSH1 0x4 CALLDATALOAD PUSH2 0xD47 PUSH2 0x3328 JUMP JUMPDEST PUSH2 0xD5F PUSH1 0xFF PUSH1 0x18 SLOAD AND PUSH2 0xD59 DUP2 PUSH2 0x30F5 JUMP JUMPDEST ISZERO PUSH2 0x38A2 JUMP JUMPDEST PUSH1 0xFF PUSH1 0xE SLOAD AND PUSH2 0xD6E DUP2 PUSH2 0x30F5 JUMP JUMPDEST PUSH1 0x1 DUP2 EQ DUP1 ISZERO PUSH2 0xE76 JUMPI JUMPDEST ISZERO PUSH2 0xE41 JUMPI PUSH1 0x2 SWAP1 PUSH2 0xD8A DUP2 PUSH2 0x30F5 JUMP JUMPDEST SUB PUSH2 0xDE2 JUMPI PUSH2 0xD9E PUSH1 0x64 SWAP2 PUSH1 0x10 SLOAD SWAP1 PUSH2 0x3900 JUMP JUMPDEST DIV PUSH4 0x3B9ACA00 SWAP1 DUP2 DUP2 MUL SWAP1 DUP1 DUP3 DIV DUP4 EQ SWAP1 ISZERO OR ISZERO PUSH2 0x67C JUMPI PUSH4 0xF053700 SWAP1 DIV DUP2 ADD DUP1 SWAP2 GT PUSH2 0x67C JUMPI PUSH2 0xDD8 PUSH4 0x3B9ACA00 SWAP2 JUMPDEST PUSH1 0x27 SLOAD PUSH2 0x3900 JUMP JUMPDEST DIV PUSH1 0x27 SSTORE TIMESTAMP PUSH1 0x28 SSTORE STOP JUMPDEST PUSH4 0x3B9ACA00 DUP1 DUP3 MUL SWAP2 DUP1 DUP4 DIV DUP3 EQ SWAP1 ISZERO OR ISZERO PUSH2 0x67C JUMPI PUSH4 0xF053700 DUP1 SWAP3 DIV DUP2 ADD SWAP2 DUP3 DUP3 GT PUSH2 0x67C JUMPI PUSH1 0xF SLOAD DUP3 DUP2 MUL SWAP1 DUP1 DUP3 DIV DUP5 EQ SWAP1 ISZERO OR ISZERO PUSH2 0x67C JUMPI DIV DUP2 ADD SWAP1 DUP2 DUP2 GT PUSH2 0x67C JUMPI PUSH2 0xE3B PUSH2 0xDD8 SWAP3 PUSH4 0x3B9ACA00 SWAP5 PUSH2 0x3900 JUMP JUMPDEST DIV PUSH2 0xDD0 JUMP JUMPDEST PUSH1 0x40 MLOAD PUSH3 0x461BCD PUSH1 0xE5 SHL DUP2 MSTORE PUSH1 0x20 PUSH1 0x4 DUP3 ADD MSTORE PUSH1 0xD PUSH1 0x24 DUP3 ADD MSTORE PUSH13 0x139BDD0811124B5B1A5B9AD959 PUSH1 0x9A SHL PUSH1 0x44 DUP3 ADD MSTORE PUSH1 0x64 SWAP1 REVERT JUMPDEST POP PUSH2 0xE80 DUP2 PUSH2 0x30F5 JUMP JUMPDEST PUSH1 0x2 DUP2 EQ PUSH2 0xD79 JUMP JUMPDEST CALLVALUE PUSH2 0x3AD JUMPI PUSH1 0x0 CALLDATASIZE PUSH1 0x3 NOT ADD SLT PUSH2 0x3AD JUMPI PUSH1 0x19 SLOAD PUSH1 0x1A SLOAD PUSH1 0x1B SLOAD PUSH1 0x1C SLOAD PUSH1 0x40 DUP1 MLOAD SWAP5 DUP6 MSTORE PUSH1 0x20 DUP6 ADD SWAP4 SWAP1 SWAP4 MSTORE SWAP2 DUP4 ADD MSTORE PUSH1 0x60 DUP3 ADD MSTORE PUSH1 0x80 SWAP1 RETURN JUMPDEST SUB SWAP1 RETURN JUMPDEST CALLVALUE PUSH2 0x3AD JUMPI PUSH1 0x20 DUP1 PUSH1 0x3 NOT CALLDATASIZE ADD SLT PUSH2 0x3AD JUMPI PUSH1 0x0 DUP1 MLOAD PUSH1 0x20 PUSH2 0x3F44 DUP4 CODECOPY DUP2 MLOAD SWAP2 MSTORE PUSH1 0x0 MSTORE PUSH1 0x5 DUP2 MSTORE PUSH1 0x40 PUSH1 0x0 KECCAK256 CALLER PUSH1 0x0 MSTORE DUP2 MSTORE PUSH2 0xF0B PUSH1 0xFF PUSH1 0x40 PUSH1 0x0 KECCAK256 SLOAD AND PUSH2 0x385F JUMP JUMPDEST PUSH2 0xF1D PUSH1 0xFF PUSH1 0x18 SLOAD AND PUSH2 0xD59 DUP2 PUSH2 0x30F5 JUMP JUMPDEST PUSH1 0xFF PUSH1 0x16 SLOAD PUSH1 0x8 SHR AND ISZERO PUSH2 0xFD3 JUMPI PUSH1 0x60 PUSH32 0x8DD68A8AFFE62F82EC8C6F32D2851BFC8B9ED661FC912C7891E763B8F18D4946 SWAP2 PUSH1 0x3 PUSH2 0xF5F PUSH1 0x2 SLOAD PUSH1 0x4 CALLDATALOAD PUSH2 0x3900 JUMP JUMPDEST SWAP2 PUSH2 0xF78 DUP4 PUSH1 0x1 DUP1 PUSH1 0xA0 SHL SUB PUSH1 0x1E SLOAD AND ADDRESS SWAP1 CALLER SWAP1 PUSH2 0x3B5A JUMP JUMPDEST PUSH32 0x8D6DEB3EBFDC6B0EF63502CBE0646AEBF8F3DB989CC23033687EA7178FF278EC PUSH1 0x40 PUSH1 0x18 SLOAD SWAP5 DUP5 PUSH1 0xFF DUP8 AND SWAP7 PUSH1 0xFF NOT AND OR PUSH1 0x18 SSTORE DUP2 MLOAD SWAP1 DUP2 MSTORE TIMESTAMP DUP5 DUP3 ADD MSTORE LOG1 PUSH1 0x40 MLOAD SWAP3 PUSH2 0xFC5 DUP2 PUSH2 0x30F5 JUMP JUMPDEST DUP4 MSTORE DUP3 ADD MSTORE TIMESTAMP PUSH1 0x40 DUP3 ADD MSTORE LOG1 STOP JUMPDEST PUSH1 0x64 SWAP1 PUSH1 0x40 MLOAD SWAP1 PUSH3 0x461BCD PUSH1 0xE5 SHL DUP3 MSTORE PUSH1 0x4 DUP3 ADD MSTORE PUSH1 0x1C PUSH1 0x24 DUP3 ADD MSTORE PUSH32 0x4561726C7920726564656D7074696F6E206E6F7420616C6C6F77656400000000 PUSH1 0x44 DUP3 ADD MSTORE REVERT JUMPDEST CALLVALUE PUSH2 0x3AD JUMPI PUSH1 0x0 CALLDATASIZE PUSH1 0x3 NOT ADD SLT PUSH2 0x3AD JUMPI PUSH1 0x20 PUSH1 0x40 MLOAD PUSH1 0x3 DUP2 MSTORE RETURN JUMPDEST CALLVALUE PUSH2 0x3AD JUMPI PUSH1 0x0 CALLDATASIZE PUSH1 0x3 NOT ADD SLT PUSH2 0x3AD JUMPI PUSH1 0x20 PUSH1 0x40 MLOAD PUSH1 0x2 DUP2 MSTORE RETURN JUMPDEST CALLVALUE PUSH2 0x3AD JUMPI PUSH1 0x40 CALLDATASIZE PUSH1 0x3 NOT ADD SLT PUSH2 0x3AD JUMPI PUSH2 0x1075 PUSH2 0x106B PUSH2 0x30C9 JUMP JUMPDEST PUSH1 0x24 CALLDATALOAD SWAP1 CALLER PUSH2 0x34FD JUMP JUMPDEST PUSH1 0x20 PUSH1 0x40 MLOAD PUSH1 0x1 DUP2 MSTORE RETURN JUMPDEST CALLVALUE PUSH2 0x3AD JUMPI PUSH1 0x0 CALLDATASIZE PUSH1 0x3 NOT ADD SLT PUSH2 0x3AD JUMPI PUSH1 0x20 PUSH1 0x40 MLOAD PUSH1 0x64 DUP2 MSTORE RETURN JUMPDEST CALLVALUE PUSH2 0x3AD JUMPI PUSH1 0x20 CALLDATASIZE PUSH1 0x3 NOT ADD SLT PUSH2 0x3AD JUMPI PUSH1 0x1 PUSH1 0x1 PUSH1 0xA0 SHL SUB PUSH2 0x10BD PUSH2 0x30C9 JUMP JUMPDEST AND PUSH1 0x0 MSTORE PUSH1 0x24 PUSH1 0x20 MSTORE PUSH1 0x20 PUSH1 0xFF PUSH1 0x40 PUSH1 0x0 KECCAK256 SLOAD AND PUSH1 0x40 MLOAD SWAP1 ISZERO ISZERO DUP2 MSTORE RETURN JUMPDEST CALLVALUE PUSH2 0x3AD JUMPI PUSH1 0x20 CALLDATASIZE PUSH1 0x3 NOT ADD SLT PUSH2 0x3AD JUMPI PUSH1 0x40 PUSH2 0x10FE PUSH2 0x10F9 PUSH2 0x30C9 JUMP JUMPDEST PUSH2 0x3C88 JUMP JUMPDEST DUP3 MLOAD SWAP2 DUP3 MSTORE PUSH1 0x20 DUP3 ADD MSTORE RETURN JUMPDEST CALLVALUE PUSH2 0x3AD JUMPI PUSH1 0x0 CALLDATASIZE PUSH1 0x3 NOT ADD SLT PUSH2 0x3AD JUMPI PUSH1 0x20 PUSH1 0x27 SLOAD PUSH1 0x40 MLOAD SWAP1 DUP2 MSTORE RETURN JUMPDEST CALLVALUE PUSH2 0x3AD JUMPI PUSH1 0x0 CALLDATASIZE PUSH1 0x3 NOT ADD SLT PUSH2 0x3AD JUMPI PUSH1 0x40 MLOAD PUSH1 0x0 PUSH1 0x4 SLOAD SWAP1 PUSH1 0x1 DUP3 DUP2 SHR SWAP2 DUP2 DUP5 AND SWAP2 DUP3 ISZERO PUSH2 0x1216 JUMPI JUMPDEST PUSH1 0x20 SWAP5 DUP6 DUP6 LT DUP5 EQ PUSH2 0xB64 JUMPI DUP6 DUP8 SWAP5 DUP7 DUP7 MSTORE SWAP2 DUP3 PUSH1 0x0 EQ PUSH2 0x11F6 JUMPI POP POP PUSH1 0x1 EQ PUSH2 0x1199 JUMPI JUMPDEST POP PUSH2 0x1185 SWAP3 POP SUB DUP4 PUSH2 0x3251 JUMP JUMPDEST PUSH2 0xEC3 PUSH1 0x40 MLOAD SWAP3 DUP3 DUP5 SWAP4 DUP5 MSTORE DUP4 ADD SWAP1 PUSH2 0x3089 JUMP JUMPDEST DUP5 SWAP2 POP PUSH1 0x4 PUSH1 0x0 MSTORE PUSH32 0x8A35ACFBC15FF81A39AE7D344FD709F28E8600B4AA8C65C6B64BFE7FE36BD19B SWAP1 PUSH1 0x0 SWAP2 JUMPDEST DUP6 DUP4 LT PUSH2 0x11DE JUMPI POP POP PUSH2 0x1185 SWAP4 POP DUP3 ADD ADD DUP6 PUSH2 0x1178 JUMP JUMPDEST DUP1 SLOAD DUP4 DUP10 ADD DUP6 ADD MSTORE DUP8 SWAP5 POP DUP7 SWAP4 SWAP1 SWAP3 ADD SWAP2 DUP2 ADD PUSH2 0x11C7 JUMP JUMPDEST PUSH1 0xFF NOT AND DUP6 DUP3 ADD MSTORE PUSH2 0x1185 SWAP6 ISZERO ISZERO PUSH1 0x5 SHL DUP6 ADD ADD SWAP3 POP DUP8 SWAP2 POP PUSH2 0x1178 SWAP1 POP JUMP JUMPDEST SWAP3 PUSH1 0x7F AND SWAP3 PUSH2 0x1153 JUMP JUMPDEST CALLVALUE PUSH2 0x3AD JUMPI PUSH1 0x20 DUP1 PUSH1 0x3 NOT CALLDATASIZE ADD SLT PUSH2 0x3AD JUMPI PUSH1 0x4 CALLDATALOAD SWAP1 PUSH1 0x0 DUP1 MLOAD PUSH1 0x20 PUSH2 0x3F44 DUP4 CODECOPY DUP2 MLOAD SWAP2 MSTORE PUSH1 0x0 MSTORE PUSH1 0x5 DUP2 MSTORE PUSH1 0x40 PUSH1 0x0 KECCAK256 CALLER PUSH1 0x0 MSTORE DUP2 MSTORE PUSH2 0x1268 PUSH1 0xFF PUSH1 0x40 PUSH1 0x0 KECCAK256 SLOAD AND PUSH2 0x385F JUMP JUMPDEST PUSH2 0x1270 PUSH2 0x3AF4 JUMP JUMPDEST PUSH2 0x127D PUSH1 0x22 SLOAD DUP4 LT PUSH2 0x3B17 JUMP JUMPDEST PUSH2 0x1286 DUP3 PUSH2 0x3172 JUMP JUMPDEST POP SWAP1 PUSH1 0x6 DUP3 ADD SWAP2 DUP3 SLOAD PUSH1 0xFF DUP2 AND ISZERO PUSH2 0x1365 JUMPI PUSH1 0x8 SHR PUSH1 0xFF AND PUSH2 0x132A JUMPI SWAP2 PUSH1 0x40 SWAP2 DUP4 PUSH3 0xF4240 PUSH2 0x12EB PUSH2 0x12E2 PUSH1 0x4 PUSH32 0xA5545405AD5BEFAAA053FB6AEB08FA6B7B92C4ECE04CE7A84BA5B88B0D039E99 SWAP9 ADD SLOAD PUSH1 0x5 DUP6 ADD SLOAD SWAP1 PUSH2 0x381F JUMP JUMPDEST PUSH1 0x2 SLOAD SWAP1 PUSH2 0x3900 JUMP JUMPDEST DIV SWAP3 PUSH2 0x1305 DUP5 PUSH1 0x1 DUP1 PUSH1 0xA0 SHL SUB PUSH1 0x1E SLOAD AND ADDRESS SWAP1 CALLER SWAP1 PUSH2 0x3B5A JUMP JUMPDEST PUSH2 0x100 PUSH2 0xFF00 NOT DUP3 SLOAD AND OR SWAP1 SSTORE PUSH1 0x1 TIMESTAMP SWAP2 ADD SSTORE DUP3 MLOAD SWAP2 DUP3 MSTORE TIMESTAMP SWAP1 DUP3 ADD MSTORE LOG2 PUSH1 0x1 PUSH1 0x6 SSTORE STOP JUMPDEST PUSH1 0x40 MLOAD PUSH3 0x461BCD PUSH1 0xE5 SHL DUP2 MSTORE PUSH1 0x4 DUP2 ADD DUP4 SWAP1 MSTORE PUSH1 0x13 PUSH1 0x24 DUP3 ADD MSTORE PUSH19 0x10DBDD5C1BDB88185B1C9958591E481C185A59 PUSH1 0x6A SHL PUSH1 0x44 DUP3 ADD MSTORE PUSH1 0x64 SWAP1 REVERT JUMPDEST PUSH1 0x40 MLOAD PUSH3 0x461BCD PUSH1 0xE5 SHL DUP2 MSTORE PUSH1 0x4 DUP2 ADD DUP5 SWAP1 MSTORE PUSH1 0x15 PUSH1 0x24 DUP3 ADD MSTORE PUSH21 0x10DBDD5C1BDB881B9BDD0818D85B18DD5B185D1959 PUSH1 0x5A SHL PUSH1 0x44 DUP3 ADD MSTORE PUSH1 0x64 SWAP1 REVERT JUMPDEST CALLVALUE PUSH2 0x3AD JUMPI PUSH1 0x40 CALLDATASIZE PUSH1 0x3 NOT ADD SLT PUSH2 0x3AD JUMPI PUSH2 0x13BB PUSH2 0x30DF JUMP JUMPDEST PUSH1 0x4 CALLDATALOAD PUSH1 0x0 MSTORE PUSH1 0x5 PUSH1 0x20 MSTORE PUSH1 0x40 PUSH1 0x0 KECCAK256 SWAP1 PUSH1 0x1 DUP1 PUSH1 0xA0 SHL SUB AND PUSH1 0x0 MSTORE PUSH1 0x20 MSTORE PUSH1 0x20 PUSH1 0xFF PUSH1 0x40 PUSH1 0x0 KECCAK256 SLOAD AND PUSH1 0x40 MLOAD SWAP1 ISZERO ISZERO DUP2 MSTORE RETURN JUMPDEST CALLVALUE PUSH2 0x3AD JUMPI PUSH1 0x20 CALLDATASIZE PUSH1 0x3 NOT ADD SLT PUSH2 0x3AD JUMPI PUSH2 0x1408 PUSH2 0x30C9 JUMP JUMPDEST PUSH2 0x1410 PUSH2 0x32AE JUMP JUMPDEST PUSH1 0x1 PUSH1 0x1 PUSH1 0xA0 SHL SUB AND PUSH1 0x0 DUP2 DUP2 MSTORE PUSH1 0x24 PUSH1 0x20 SWAP1 DUP2 MSTORE PUSH1 0x40 DUP1 DUP4 KECCAK256 DUP1 SLOAD PUSH1 0xFF NOT AND SWAP1 SSTORE MLOAD SWAP2 DUP3 MSTORE PUSH32 0xF93F9A76C1BF3444D22400A00CB9FE990E6ABE9DBB333FDA48859CFEE864543D SWAP2 LOG2 STOP JUMPDEST CALLVALUE PUSH2 0x3AD JUMPI PUSH1 0x0 CALLDATASIZE PUSH1 0x3 NOT ADD SLT PUSH2 0x3AD JUMPI CALLER PUSH1 0x0 SWAP1 DUP2 MSTORE PUSH32 0x66215885DCB73CB4AAE79FCB51F949ACF75999687399EEF5D47B261732E84357 PUSH1 0x20 MSTORE PUSH1 0x40 SWAP1 KECCAK256 SLOAD PUSH2 0x14A7 SWAP1 PUSH1 0xFF AND PUSH2 0x3D2E JUMP JUMPDEST PUSH32 0x8DD68A8AFFE62F82EC8C6F32D2851BFC8B9ED661FC912C7891E763B8F18D4946 PUSH1 0x60 PUSH1 0x18 SLOAD PUSH1 0x2 PUSH1 0xFF DUP3 AND SWAP2 PUSH2 0x14DD DUP4 PUSH2 0x30F5 JUMP JUMPDEST PUSH2 0x14E7 DUP4 ISZERO PUSH2 0x38A2 JUMP JUMPDEST PUSH1 0xFF NOT AND OR PUSH1 0x18 SSTORE PUSH1 0x40 MLOAD SWAP1 PUSH2 0x14FC DUP2 PUSH2 0x30F5 JUMP JUMPDEST DUP2 MSTORE PUSH1 0x2 PUSH1 0x20 DUP3 ADD MSTORE TIMESTAMP PUSH1 0x40 DUP3 ADD MSTORE LOG1 STOP JUMPDEST CALLVALUE PUSH2 0x3AD JUMPI PUSH1 0x0 CALLDATASIZE PUSH1 0x3 NOT ADD SLT PUSH2 0x3AD JUMPI PUSH1 0x18 SLOAD PUSH1 0xFF DUP2 AND SWAP1 PUSH2 0x1530 DUP3 PUSH2 0x30F5 JUMP JUMPDEST PUSH2 0x153A DUP3 ISZERO PUSH2 0x38A2 JUMP JUMPDEST PUSH1 0xB SLOAD TIMESTAMP LT PUSH2 0x1591 JUMPI PUSH1 0xFF NOT AND PUSH1 0x1 OR PUSH1 0x18 SSTORE PUSH1 0x40 MLOAD PUSH32 0x8DD68A8AFFE62F82EC8C6F32D2851BFC8B9ED661FC912C7891E763B8F18D4946 SWAP2 PUSH1 0x60 SWAP2 SWAP1 PUSH2 0x157F DUP2 PUSH2 0x30F5 JUMP JUMPDEST DUP2 MSTORE PUSH1 0x1 PUSH1 0x20 DUP3 ADD MSTORE TIMESTAMP PUSH1 0x40 DUP3 ADD MSTORE LOG1 STOP JUMPDEST PUSH1 0x40 MLOAD PUSH3 0x461BCD PUSH1 0xE5 SHL DUP2 MSTORE PUSH1 0x20 PUSH1 0x4 DUP3 ADD MSTORE PUSH1 0xF PUSH1 0x24 DUP3 ADD MSTORE PUSH15 0x139BDD081E595D081B585D1D5C9959 PUSH1 0x8A SHL PUSH1 0x44 DUP3 ADD MSTORE PUSH1 0x64 SWAP1 REVERT JUMPDEST CALLVALUE PUSH2 0x3AD JUMPI PUSH1 0x0 CALLDATASIZE PUSH1 0x3 NOT ADD SLT PUSH2 0x3AD JUMPI PUSH2 0x15E1 PUSH2 0x3328 JUMP JUMPDEST PUSH1 0x7 SLOAD PUSH1 0xFF DUP2 AND PUSH2 0x1623 JUMPI PUSH1 0x1 SWAP1 PUSH1 0xFF NOT AND OR PUSH1 0x7 SSTORE PUSH32 0x62E78CEA01BEE320CD4E420270B5EA74000D11B0C9F74754EBDBFC544B05A258 PUSH1 0x20 PUSH1 0x40 MLOAD CALLER DUP2 MSTORE LOG1 STOP JUMPDEST PUSH1 0x40 MLOAD PUSH4 0xD93C0665 PUSH1 0xE0 SHL DUP2 MSTORE PUSH1 0x4 SWAP1 REVERT JUMPDEST CALLVALUE PUSH2 0x3AD JUMPI PUSH1 0x0 CALLDATASIZE PUSH1 0x3 NOT ADD SLT PUSH2 0x3AD JUMPI PUSH1 0x40 PUSH2 0x10FE PUSH2 0x39D7 JUMP JUMPDEST CALLVALUE PUSH2 0x3AD JUMPI PUSH1 0x0 CALLDATASIZE PUSH1 0x3 NOT ADD SLT PUSH2 0x3AD JUMPI PUSH1 0x20 PUSH1 0x40 MLOAD PUSH1 0x0 DUP1 MLOAD PUSH1 0x20 PUSH2 0x3F44 DUP4 CODECOPY DUP2 MLOAD SWAP2 MSTORE DUP2 MSTORE RETURN JUMPDEST CALLVALUE PUSH2 0x3AD JUMPI PUSH1 0x20 CALLDATASIZE PUSH1 0x3 NOT ADD SLT PUSH2 0x3AD JUMPI PUSH1 0x4 CALLDATALOAD PUSH1 0xFF DUP2 AND DUP2 SUB PUSH2 0x3AD JUMPI PUSH2 0x16A3 PUSH2 0xEC3 SWAP2 PUSH2 0x36DC JUMP JUMPDEST PUSH1 0x40 MLOAD SWAP2 DUP3 SWAP2 PUSH1 0x20 DUP4 MSTORE PUSH1 0x20 DUP4 ADD SWAP1 PUSH2 0x3089 JUMP JUMPDEST CALLVALUE PUSH2 0x3AD JUMPI PUSH1 0x0 CALLDATASIZE PUSH1 0x3 NOT ADD SLT PUSH2 0x3AD JUMPI PUSH1 0x1D SLOAD PUSH1 0x40 MLOAD PUSH1 0x1 PUSH1 0x1 PUSH1 0xA0 SHL SUB SWAP1 SWAP2 AND DUP2 MSTORE PUSH1 0x20 SWAP1 RETURN JUMPDEST CALLVALUE PUSH2 0x3AD JUMPI PUSH1 0x20 CALLDATASIZE PUSH1 0x3 NOT ADD SLT PUSH2 0x3AD JUMPI PUSH2 0x16F9 PUSH2 0x30C9 JUMP JUMPDEST PUSH2 0x1701 PUSH2 0x3328 JUMP JUMPDEST PUSH1 0x1 PUSH1 0x1 PUSH1 0xA0 SHL SUB AND DUP1 ISZERO PUSH2 0x172D JUMPI PUSH12 0xFFFFFFFFFFFFFFFFFFFFFFFF PUSH1 0xA0 SHL PUSH1 0x1D SLOAD AND OR PUSH1 0x1D SSTORE PUSH1 0x0 DUP1 RETURN JUMPDEST PUSH1 0x40 MLOAD PUSH3 0x461BCD PUSH1 0xE5 SHL DUP2 MSTORE PUSH1 0x20 PUSH1 0x4 DUP3 ADD MSTORE PUSH1 0xE PUSH1 0x24 DUP3 ADD MSTORE PUSH14 0x496E76616C6964206F7261636C65 PUSH1 0x90 SHL PUSH1 0x44 DUP3 ADD MSTORE PUSH1 0x64 SWAP1 REVERT JUMPDEST CALLVALUE PUSH2 0x3AD JUMPI PUSH1 0x0 CALLDATASIZE PUSH1 0x3 NOT ADD SLT PUSH2 0x3AD JUMPI PUSH1 0x21 SLOAD PUSH8 0xFFFFFFFFFFFFFFFF DUP2 GT PUSH2 0x1860 JUMPI PUSH1 0x40 MLOAD PUSH1 0x20 SWAP1 PUSH2 0x179B DUP3 DUP5 PUSH1 0x5 SHL ADD DUP3 PUSH2 0x3251 JUMP JUMPDEST DUP3 DUP2 MSTORE DUP2 DUP2 ADD SWAP3 DUP4 PUSH1 0x21 PUSH1 0x0 MSTORE PUSH32 0x3A6357012C1A3AE0A17D304C9920310382D968EBCC4B1771F41C6B304205B570 PUSH1 0x0 SWAP2 JUMPDEST DUP4 DUP4 LT PUSH2 0x1825 JUMPI PUSH1 0x40 DUP1 MLOAD DUP8 DUP2 MSTORE DUP7 MLOAD DUP2 DUP10 ADD DUP2 SWAP1 MSTORE DUP10 SWAP3 DUP3 ADD SWAP1 DUP10 PUSH1 0x0 JUMPDEST DUP3 DUP2 LT PUSH2 0x17F9 JUMPI DUP5 DUP5 SUB DUP6 RETURN JUMPDEST DUP6 MLOAD DUP1 MLOAD DUP6 MSTORE DUP1 DUP4 ADD MLOAD DUP6 DUP5 ADD MSTORE PUSH1 0x40 SWAP1 DUP2 ADD MLOAD ISZERO ISZERO SWAP1 DUP6 ADD MSTORE SWAP5 DUP2 ADD SWAP5 PUSH1 0x60 SWAP1 SWAP4 ADD SWAP3 PUSH1 0x1 ADD PUSH2 0x17EC JUMP JUMPDEST PUSH1 0x3 DUP7 PUSH1 0x1 SWAP3 PUSH1 0x40 MLOAD PUSH2 0x1837 DUP2 PUSH2 0x31FD JUMP JUMPDEST DUP6 SLOAD DUP2 MSTORE DUP5 DUP7 ADD SLOAD DUP4 DUP3 ADD MSTORE PUSH1 0xFF PUSH1 0x2 DUP8 ADD SLOAD AND ISZERO ISZERO PUSH1 0x40 DUP3 ADD MSTORE DUP2 MSTORE ADD SWAP3 ADD SWAP3 ADD SWAP2 SWAP1 PUSH2 0x17CD JUMP JUMPDEST PUSH4 0x4E487B71 PUSH1 0xE0 SHL PUSH1 0x0 MSTORE PUSH1 0x41 PUSH1 0x4 MSTORE PUSH1 0x24 PUSH1 0x0 REVERT JUMPDEST CALLVALUE PUSH2 0x3AD JUMPI PUSH1 0x0 CALLDATASIZE PUSH1 0x3 NOT ADD SLT PUSH2 0x3AD JUMPI PUSH1 0x20 PUSH1 0x40 MLOAD PUSH32 0xA49807205CE4D355092EF5A8A18F56E8913CF4A201FBE287825B095693C21775 DUP2 MSTORE RETURN JUMPDEST CALLVALUE PUSH2 0x3AD JUMPI PUSH1 0x0 CALLDATASIZE PUSH1 0x3 NOT ADD SLT PUSH2 0x3AD JUMPI PUSH1 0x20 PUSH1 0x40 MLOAD PUSH1 0xFC DUP2 MSTORE RETURN JUMPDEST CALLVALUE PUSH2 0x3AD JUMPI PUSH1 0x0 CALLDATASIZE PUSH1 0x3 NOT ADD SLT PUSH2 0x3AD JUMPI PUSH1 0x20 PUSH1 0x40 MLOAD PUSH32 0x700B68D05515876E1B5BEE45535F56F17ECF1FBB63AC93E8914591401365025D DUP2 MSTORE RETURN JUMPDEST CALLVALUE PUSH2 0x3AD JUMPI PUSH1 0x0 CALLDATASIZE PUSH1 0x3 NOT ADD SLT PUSH2 0x3AD JUMPI PUSH1 0x20 PUSH1 0x19 SLOAD PUSH1 0x40 MLOAD SWAP1 DUP2 MSTORE RETURN JUMPDEST CALLVALUE PUSH2 0x3AD JUMPI PUSH1 0x20 CALLDATASIZE PUSH1 0x3 NOT ADD SLT PUSH2 0x3AD JUMPI PUSH1 0x1 PUSH1 0x1 PUSH1 0xA0 SHL SUB PUSH2 0x1947 PUSH2 0x30C9 JUMP JUMPDEST AND PUSH1 0x0 MSTORE PUSH1 0x0 PUSH1 0x20 MSTORE PUSH1 0x20 PUSH1 0x40 PUSH1 0x0 KECCAK256 SLOAD PUSH1 0x40 MLOAD SWAP1 DUP2 MSTORE RETURN JUMPDEST CALLVALUE PUSH2 0x3AD JUMPI PUSH1 0x0 CALLDATASIZE PUSH1 0x3 NOT ADD SLT PUSH2 0x3AD JUMPI PUSH1 0x20 PUSH1 0x40 MLOAD PUSH2 0x2710 DUP2 MSTORE RETURN JUMPDEST CALLVALUE PUSH2 0x3AD JUMPI PUSH1 0x0 CALLDATASIZE PUSH1 0x3 NOT ADD SLT PUSH2 0x3AD JUMPI PUSH1 0x20 PUSH2 0x1998 PUSH2 0x3913 JUMP JUMPDEST PUSH1 0x40 MLOAD SWAP1 DUP2 MSTORE RETURN JUMPDEST CALLVALUE PUSH2 0x3AD JUMPI PUSH1 0x0 CALLDATASIZE PUSH1 0x3 NOT ADD SLT PUSH2 0x3AD JUMPI PUSH1 0x20 PUSH1 0xFF PUSH1 0x7 SLOAD AND PUSH1 0x40 MLOAD SWAP1 ISZERO ISZERO DUP2 MSTORE RETURN JUMPDEST CALLVALUE PUSH2 0x3AD JUMPI PUSH1 0x20 CALLDATASIZE PUSH1 0x3 NOT ADD SLT PUSH2 0x3AD JUMPI PUSH1 0x4 CALLDATALOAD PUSH1 0x22 SLOAD DUP2 LT ISZERO PUSH2 0x3AD JUMPI PUSH2 0x19ED PUSH2 0x100 SWAP2 PUSH2 0x3172 JUMP JUMPDEST POP PUSH1 0xFF DUP2 SLOAD SWAP2 PUSH1 0x1 DUP2 ADD SLOAD SWAP1 PUSH1 0x2 DUP2 ADD SLOAD PUSH1 0x3 DUP3 ADD SLOAD PUSH1 0x4 DUP4 ADD SLOAD SWAP2 PUSH1 0x6 PUSH1 0x5 DUP6 ADD SLOAD SWAP5 ADD SLOAD SWAP5 PUSH1 0x40 MLOAD SWAP8 DUP9 MSTORE PUSH1 0x20 DUP9 ADD MSTORE PUSH1 0x40 DUP8 ADD MSTORE PUSH1 0x60 DUP7 ADD MSTORE PUSH1 0x80 DUP6 ADD MSTORE PUSH1 0xA0 DUP5 ADD MSTORE DUP2 DUP2 AND ISZERO ISZERO PUSH1 0xC0 DUP5 ADD MSTORE PUSH1 0x8 SHR AND ISZERO ISZERO PUSH1 0xE0 DUP3 ADD MSTORE RETURN JUMPDEST CALLVALUE PUSH2 0x3AD JUMPI PUSH1 0x0 CALLDATASIZE PUSH1 0x3 NOT ADD SLT PUSH2 0x3AD JUMPI PUSH1 0x20 PUSH1 0x40 MLOAD PUSH1 0x4 DUP2 MSTORE RETURN JUMPDEST CALLVALUE PUSH2 0x3AD JUMPI PUSH1 0x0 CALLDATASIZE PUSH1 0x3 NOT ADD SLT PUSH2 0x3AD JUMPI PUSH2 0x1A89 PUSH1 0xFF PUSH1 0x18 SLOAD AND PUSH2 0xD59 DUP2 PUSH2 0x30F5 JUMP JUMPDEST PUSH1 0xFF PUSH1 0xE SLOAD AND PUSH2 0x1A98 DUP2 PUSH2 0x30F5 JUMP JUMPDEST PUSH1 0x3 DUP2 EQ SWAP1 DUP2 DUP1 ISZERO PUSH2 0x1D18 JUMPI JUMPDEST ISZERO PUSH2 0x1CE0 JUMPI PUSH2 0x1AB3 SWAP1 PUSH2 0x30F5 JUMP JUMPDEST ISZERO PUSH2 0x1CB9 JUMPI PUSH2 0x1B09 PUSH1 0x60 PUSH1 0x40 MLOAD PUSH2 0x1AC9 DUP2 PUSH2 0x3235 JUMP JUMPDEST PUSH1 0x4 DUP2 MSTORE PUSH4 0x49504341 PUSH1 0xE0 SHL PUSH1 0x20 DUP3 ADD MSTORE JUMPDEST PUSH1 0x1 DUP1 PUSH1 0xA0 SHL SUB PUSH1 0x1D SLOAD AND PUSH1 0x40 MLOAD DUP1 DUP1 SWAP6 DUP2 SWAP5 PUSH4 0xD81B5DB PUSH1 0xE3 SHL DUP4 MSTORE PUSH1 0x20 PUSH1 0x4 DUP5 ADD MSTORE PUSH1 0x24 DUP4 ADD SWAP1 PUSH2 0x3089 JUMP JUMPDEST SUB SWAP2 GAS STATICCALL DUP1 ISZERO PUSH2 0x1CAD JUMPI PUSH1 0x0 SWAP2 PUSH1 0x0 SWAP2 PUSH2 0x1C7B JUMPI JUMPDEST POP PUSH1 0x0 DUP3 SGT ISZERO PUSH2 0x1C40 JUMPI PUSH1 0x1A SLOAD LT ISZERO PUSH2 0x1C07 JUMPI PUSH1 0x19 SLOAD PUSH1 0x1B SLOAD DUP1 ISZERO SWAP3 SWAP2 SWAP1 DUP4 PUSH2 0x1BDE JUMPI PUSH2 0x1B4D DUP4 PUSH1 0x1C SLOAD PUSH2 0x3900 JUMP JUMPDEST SWAP4 PUSH2 0x1BC8 JUMPI PUSH2 0x1B8A PUSH4 0x5F5E100 SWAP2 PUSH32 0x2E759A94B9B820C609E8FE95314A7564F0A948B29D7A6C5A41DA7B90519E88F7 SWAP6 DIV DUP1 PUSH1 0x1C SSTORE PUSH1 0x8 SLOAD PUSH2 0x3900 JUMP JUMPDEST DIV PUSH1 0x19 SSTORE JUMPDEST TIMESTAMP PUSH1 0x1A SSTORE DUP2 PUSH1 0x1B SSTORE PUSH2 0x1BC3 PUSH1 0x19 SLOAD SWAP2 PUSH1 0x40 MLOAD SWAP4 DUP5 SWAP4 TIMESTAMP SWAP3 DUP6 SWAP1 SWAP5 SWAP4 SWAP3 PUSH1 0x60 SWAP3 PUSH1 0x80 DUP4 ADD SWAP7 DUP4 MSTORE PUSH1 0x20 DUP4 ADD MSTORE PUSH1 0x40 DUP3 ADD MSTORE ADD MSTORE JUMP JUMPDEST SUB SWAP1 LOG1 STOP JUMPDEST PUSH4 0x4E487B71 PUSH1 0xE0 SHL PUSH1 0x0 MSTORE PUSH1 0x12 PUSH1 0x4 MSTORE PUSH1 0x24 PUSH1 0x0 REVERT JUMPDEST POP PUSH32 0x2E759A94B9B820C609E8FE95314A7564F0A948B29D7A6C5A41DA7B90519E88F7 SWAP3 POP PUSH2 0x1B8F JUMP JUMPDEST PUSH1 0x40 MLOAD PUSH3 0x461BCD PUSH1 0xE5 SHL DUP2 MSTORE PUSH1 0x20 PUSH1 0x4 DUP3 ADD MSTORE PUSH1 0x11 PUSH1 0x24 DUP3 ADD MSTORE PUSH17 0x125B99195E081B9BDD081D5C19185D1959 PUSH1 0x7A SHL PUSH1 0x44 DUP3 ADD MSTORE PUSH1 0x64 SWAP1 REVERT JUMPDEST PUSH1 0x40 MLOAD PUSH3 0x461BCD PUSH1 0xE5 SHL DUP2 MSTORE PUSH1 0x20 PUSH1 0x4 DUP3 ADD MSTORE PUSH1 0x13 PUSH1 0x24 DUP3 ADD MSTORE PUSH19 0x496E76616C696420696E6465782076616C7565 PUSH1 0x68 SHL PUSH1 0x44 DUP3 ADD MSTORE PUSH1 0x64 SWAP1 REVERT JUMPDEST SWAP1 POP PUSH2 0x1C9E SWAP2 POP PUSH1 0x60 RETURNDATASIZE DUP2 GT PUSH2 0x1CA6 JUMPI JUMPDEST PUSH2 0x1C96 DUP2 DUP4 PUSH2 0x3251 JUMP JUMPDEST DUP2 ADD SWAP1 PUSH2 0x38E5 JUMP JUMPDEST SWAP1 POP DUP3 PUSH2 0x1B1E JUMP JUMPDEST POP RETURNDATASIZE PUSH2 0x1C8C JUMP JUMPDEST PUSH1 0x40 MLOAD RETURNDATASIZE PUSH1 0x0 DUP3 RETURNDATACOPY RETURNDATASIZE SWAP1 REVERT JUMPDEST PUSH2 0x1B09 PUSH1 0x60 PUSH1 0x40 MLOAD PUSH2 0x1CCA DUP2 PUSH2 0x3235 JUMP JUMPDEST PUSH1 0x4 DUP2 MSTORE PUSH4 0x4947504D PUSH1 0xE0 SHL PUSH1 0x20 DUP3 ADD MSTORE PUSH2 0x1ADB JUMP JUMPDEST PUSH1 0x40 MLOAD PUSH3 0x461BCD PUSH1 0xE5 SHL DUP2 MSTORE PUSH1 0x20 PUSH1 0x4 DUP3 ADD MSTORE PUSH1 0x10 PUSH1 0x24 DUP3 ADD MSTORE PUSH16 0x139BDD081A5B99195E0B5B1A5B9AD959 PUSH1 0x82 SHL PUSH1 0x44 DUP3 ADD MSTORE PUSH1 0x64 SWAP1 REVERT JUMPDEST POP PUSH2 0x1D22 DUP2 PUSH2 0x30F5 JUMP JUMPDEST PUSH1 0x4 DUP2 EQ PUSH2 0x1AA5 JUMP JUMPDEST CALLVALUE PUSH2 0x3AD JUMPI PUSH1 0x40 CALLDATASIZE PUSH1 0x3 NOT ADD SLT PUSH2 0x3AD JUMPI PUSH8 0xFFFFFFFFFFFFFFFF PUSH1 0x4 CALLDATALOAD DUP2 DUP2 GT PUSH2 0x3AD JUMPI PUSH2 0x1D5D SWAP1 CALLDATASIZE SWAP1 PUSH1 0x4 ADD PUSH2 0x3134 JUMP JUMPDEST PUSH1 0x24 SWAP3 DUP4 CALLDATALOAD SWAP1 DUP2 GT PUSH2 0x3AD JUMPI PUSH2 0x1D77 SWAP1 CALLDATASIZE SWAP1 PUSH1 0x4 ADD PUSH2 0x3134 JUMP JUMPDEST PUSH1 0x0 DUP1 MLOAD PUSH1 0x20 PUSH2 0x3F44 DUP4 CODECOPY DUP2 MLOAD SWAP2 MSTORE PUSH1 0x0 MSTORE PUSH1 0x20 SWAP4 PUSH1 0x5 DUP6 MSTORE PUSH1 0x40 PUSH1 0x0 KECCAK256 CALLER PUSH1 0x0 MSTORE DUP6 MSTORE PUSH1 0xFF SWAP2 PUSH2 0x1DAE DUP4 PUSH1 0x40 PUSH1 0x0 KECCAK256 SLOAD AND PUSH2 0x385F JUMP JUMPDEST PUSH1 0x21 SWAP4 DUP5 SLOAD PUSH2 0x2041 JUMPI DUP2 DUP7 SUB PUSH2 0x200B JUMPI PUSH1 0x0 SWAP6 PUSH1 0x0 JUMPDEST DUP2 DUP2 LT PUSH2 0x1E3D JUMPI POP POP POP POP POP PUSH1 0x12 SLOAD AND SWAP1 PUSH1 0x3 DUP3 LT ISZERO PUSH2 0x1E29 JUMPI POP PUSH1 0x2 SUB PUSH2 0x1DE8 JUMPI STOP JUMPDEST PUSH2 0x2710 SUB PUSH2 0x1DF2 JUMPI STOP JUMPDEST PUSH1 0x12 PUSH1 0x64 SWAP3 PUSH1 0x40 MLOAD SWAP3 PUSH3 0x461BCD PUSH1 0xE5 SHL DUP5 MSTORE PUSH1 0x4 DUP5 ADD MSTORE DUP3 ADD MSTORE PUSH18 0x546F74616C206D7573742062652031303025 PUSH1 0x70 SHL PUSH1 0x44 DUP3 ADD MSTORE REVERT JUMPDEST DUP5 SWAP1 PUSH4 0x4E487B71 PUSH1 0xE0 SHL PUSH1 0x0 MSTORE PUSH1 0x4 MSTORE PUSH1 0x0 REVERT JUMPDEST PUSH2 0x1E48 DUP2 DUP4 DUP8 PUSH2 0x383B JUMP JUMPDEST CALLDATALOAD PUSH1 0xB SLOAD LT PUSH2 0x1FD1 JUMPI DUP1 PUSH2 0x1F59 JUMPI JUMPDEST PUSH2 0x1E62 DUP2 DUP4 DUP8 PUSH2 0x383B JUMP JUMPDEST CALLDATALOAD PUSH2 0x1E6E DUP3 DUP7 DUP7 PUSH2 0x383B JUMP JUMPDEST CALLDATALOAD SWAP1 PUSH1 0x40 MLOAD SWAP1 PUSH2 0x1E7D DUP3 PUSH2 0x31FD JUMP JUMPDEST DUP2 MSTORE DUP11 DUP2 ADD SWAP2 DUP3 MSTORE PUSH1 0x40 DUP2 ADD PUSH1 0x0 DUP2 MSTORE DUP10 SLOAD PUSH1 0x1 PUSH1 0x40 SHL DUP2 LT ISZERO PUSH2 0x1F44 JUMPI PUSH2 0x1EAB PUSH1 0x1 SWAP2 DUP3 DUP2 ADD DUP14 SSTORE PUSH2 0x3273 JUMP JUMPDEST SWAP5 SWAP1 SWAP5 PUSH2 0x1F2F JUMPI PUSH2 0x1ED7 SWAP4 MLOAD DUP6 SSTORE MLOAD SWAP1 DUP5 ADD SSTORE MLOAD ISZERO ISZERO PUSH1 0x2 DUP1 SWAP4 ADD SWAP1 PUSH1 0xFF DUP1 NOT DUP4 SLOAD AND SWAP2 ISZERO ISZERO AND OR SWAP1 SSTORE JUMP JUMPDEST DUP7 PUSH1 0x12 SLOAD AND PUSH1 0x3 DUP2 LT ISZERO PUSH2 0x1F1B JUMPI SUB PUSH2 0x1EF9 JUMPI JUMPDEST PUSH2 0x1EF4 SWAP1 PUSH2 0x382C JUMP JUMPDEST PUSH2 0x1DC4 JUMP JUMPDEST SWAP7 PUSH2 0x1F13 PUSH2 0x1EF4 SWAP2 PUSH2 0x1F0C DUP11 DUP8 DUP8 PUSH2 0x383B JUMP JUMPDEST CALLDATALOAD SWAP1 PUSH2 0x381F JUMP JUMPDEST SWAP8 SWAP1 POP PUSH2 0x1EEB JUMP JUMPDEST DUP12 DUP10 PUSH4 0x4E487B71 PUSH1 0xE0 SHL PUSH1 0x0 MSTORE PUSH1 0x4 MSTORE PUSH1 0x0 REVERT JUMPDEST DUP15 PUSH4 0x4E487B71 PUSH1 0xE0 SHL PUSH1 0x0 MSTORE PUSH1 0x0 PUSH1 0x4 MSTORE PUSH1 0x0 REVERT JUMPDEST DUP14 PUSH4 0x4E487B71 PUSH1 0xE0 SHL PUSH1 0x0 MSTORE PUSH1 0x41 PUSH1 0x4 MSTORE PUSH1 0x0 REVERT JUMPDEST PUSH2 0x1F64 DUP2 DUP4 DUP8 PUSH2 0x383B JUMP JUMPDEST CALLDATALOAD PUSH1 0x0 NOT DUP3 ADD DUP3 DUP2 GT PUSH2 0x1FBC JUMPI PUSH2 0x1F7C SWAP1 DUP5 DUP9 PUSH2 0x383B JUMP JUMPDEST CALLDATALOAD LT PUSH2 0x1E57 JUMPI PUSH1 0x40 MLOAD PUSH3 0x461BCD PUSH1 0xE5 SHL DUP2 MSTORE PUSH1 0x4 DUP2 ADD DUP11 SWAP1 MSTORE PUSH1 0x13 DUP2 DUP13 ADD MSTORE PUSH19 0x4461746573206E6F7420617363656E64696E67 PUSH1 0x68 SHL PUSH1 0x44 DUP3 ADD MSTORE PUSH1 0x64 SWAP1 REVERT JUMPDEST DUP12 PUSH4 0x4E487B71 PUSH1 0xE0 SHL PUSH1 0x0 MSTORE PUSH1 0x11 PUSH1 0x4 MSTORE PUSH1 0x0 REVERT JUMPDEST PUSH1 0x40 MLOAD PUSH3 0x461BCD PUSH1 0xE5 SHL DUP2 MSTORE PUSH1 0x4 DUP2 ADD DUP11 SWAP1 MSTORE PUSH1 0x13 DUP2 DUP13 ADD MSTORE PUSH19 0x44617465206166746572206D61747572697479 PUSH1 0x68 SHL PUSH1 0x44 DUP3 ADD MSTORE PUSH1 0x64 SWAP1 REVERT JUMPDEST PUSH1 0x40 MLOAD PUSH3 0x461BCD PUSH1 0xE5 SHL DUP2 MSTORE PUSH1 0x4 DUP2 ADD DUP9 SWAP1 MSTORE PUSH1 0xF DUP2 DUP11 ADD MSTORE PUSH15 0x98CADCCEE8D040DAD2E6DAC2E8C6D PUSH1 0x8B SHL PUSH1 0x44 DUP3 ADD MSTORE PUSH1 0x64 SWAP1 REVERT JUMPDEST PUSH1 0x40 MLOAD PUSH3 0x461BCD PUSH1 0xE5 SHL DUP2 MSTORE PUSH1 0x4 DUP2 ADD DUP9 SWAP1 MSTORE PUSH1 0x14 DUP2 DUP11 ADD MSTORE PUSH20 0x14D8DA19591D5B1948185B1C9958591E481CD95D PUSH1 0x62 SHL PUSH1 0x44 DUP3 ADD MSTORE PUSH1 0x64 SWAP1 REVERT JUMPDEST CALLVALUE PUSH2 0x3AD JUMPI PUSH1 0x20 CALLDATASIZE PUSH1 0x3 NOT ADD SLT PUSH2 0x3AD JUMPI PUSH1 0x4 CALLDATALOAD PUSH1 0x0 PUSH1 0xE0 PUSH1 0x40 MLOAD PUSH2 0x20A0 DUP2 PUSH2 0x31C3 JUMP JUMPDEST DUP3 DUP2 MSTORE DUP3 PUSH1 0x20 DUP3 ADD MSTORE DUP3 PUSH1 0x40 DUP3 ADD MSTORE DUP3 PUSH1 0x60 DUP3 ADD MSTORE DUP3 PUSH1 0x80 DUP3 ADD MSTORE DUP3 PUSH1 0xA0 DUP3 ADD MSTORE DUP3 PUSH1 0xC0 DUP3 ADD MSTORE ADD MSTORE PUSH1 0x22 SLOAD DUP2 LT ISZERO PUSH2 0x2187 JUMPI PUSH2 0x20DF PUSH2 0x100 SWAP2 PUSH2 0x3172 JUMP JUMPDEST POP PUSH1 0x40 MLOAD SWAP1 PUSH2 0x20ED DUP3 PUSH2 0x31C3 JUMP JUMPDEST DUP1 SLOAD SWAP2 DUP3 DUP2 MSTORE PUSH1 0x1 DUP3 ADD SLOAD SWAP2 PUSH1 0x20 DUP3 ADD SWAP3 DUP4 MSTORE PUSH1 0x2 DUP2 ADD SLOAD PUSH1 0x40 DUP4 ADD SWAP1 DUP2 MSTORE PUSH1 0x3 DUP3 ADD SLOAD PUSH1 0x60 DUP5 ADD SWAP1 DUP2 MSTORE PUSH1 0x4 DUP4 ADD SLOAD SWAP2 PUSH1 0x80 DUP6 ADD SWAP3 DUP4 MSTORE PUSH1 0x6 PUSH1 0x5 DUP6 ADD SLOAD SWAP5 PUSH1 0xA0 DUP8 ADD SWAP6 DUP7 MSTORE ADD SLOAD SWAP6 PUSH1 0xFF PUSH1 0xE0 PUSH1 0xC0 DUP9 ADD SWAP8 DUP3 DUP11 AND ISZERO ISZERO DUP10 MSTORE ADD SWAP8 PUSH1 0x8 SHR AND ISZERO ISZERO DUP8 MSTORE PUSH1 0x40 MLOAD SWAP8 DUP9 MSTORE MLOAD PUSH1 0x20 DUP9 ADD MSTORE MLOAD PUSH1 0x40 DUP8 ADD MSTORE MLOAD PUSH1 0x60 DUP7 ADD MSTORE MLOAD PUSH1 0x80 DUP6 ADD MSTORE MLOAD PUSH1 0xA0 DUP5 ADD MSTORE MLOAD ISZERO ISZERO PUSH1 0xC0 DUP4 ADD MSTORE MLOAD ISZERO ISZERO PUSH1 0xE0 DUP3 ADD MSTORE RETURN JUMPDEST PUSH1 0x40 MLOAD PUSH3 0x461BCD PUSH1 0xE5 SHL DUP2 MSTORE PUSH1 0x20 PUSH1 0x4 DUP3 ADD MSTORE PUSH1 0xD PUSH1 0x24 DUP3 ADD MSTORE PUSH13 0x92DCECC2D8D2C840D2DCC8CAF PUSH1 0x9B SHL PUSH1 0x44 DUP3 ADD MSTORE PUSH1 0x64 SWAP1 REVERT JUMPDEST CALLVALUE PUSH2 0x3AD JUMPI PUSH1 0x0 CALLDATASIZE PUSH1 0x3 NOT ADD SLT PUSH2 0x3AD JUMPI PUSH1 0x20 PUSH1 0x40 MLOAD PUSH32 0x28F5A99355973CC89255B8C4AC88405F27C78DED7608B040EE77A8BDF44D15E2 DUP2 MSTORE RETURN JUMPDEST CALLVALUE PUSH2 0x3AD JUMPI PUSH1 0x20 CALLDATASIZE PUSH1 0x3 NOT ADD SLT PUSH2 0x3AD JUMPI PUSH2 0x2210 PUSH2 0x30C9 JUMP JUMPDEST PUSH2 0x2218 PUSH2 0x3384 JUMP JUMPDEST PUSH1 0x1 PUSH1 0x1 PUSH1 0xA0 SHL SUB AND PUSH1 0x0 DUP2 DUP2 MSTORE PUSH1 0x25 PUSH1 0x20 SWAP1 DUP2 MSTORE PUSH1 0x40 DUP1 DUP4 KECCAK256 DUP1 SLOAD PUSH1 0xFF NOT AND SWAP1 SSTORE MLOAD SWAP2 DUP3 MSTORE PUSH32 0x6A12B3DF6CBA4203BD7FD06B816789F87DE8C594299AED5717AE070FAC781BAC SWAP2 LOG2 STOP JUMPDEST CALLVALUE PUSH2 0x3AD JUMPI PUSH1 0x0 CALLDATASIZE PUSH1 0x3 NOT ADD SLT PUSH2 0x3AD JUMPI PUSH1 0x20 PUSH1 0x40 MLOAD PUSH3 0xF4240 DUP2 MSTORE RETURN JUMPDEST CALLVALUE PUSH2 0x3AD JUMPI PUSH1 0x0 CALLDATASIZE PUSH1 0x3 NOT ADD SLT PUSH2 0x3AD JUMPI PUSH1 0x20 PUSH1 0x22 SLOAD PUSH1 0x40 MLOAD SWAP1 DUP2 MSTORE RETURN JUMPDEST CALLVALUE PUSH2 0x3AD JUMPI PUSH1 0x20 CALLDATASIZE PUSH1 0x3 NOT ADD SLT PUSH2 0x3AD JUMPI PUSH2 0x22B8 PUSH2 0x30C9 JUMP JUMPDEST PUSH2 0x22C0 PUSH2 0x3384 JUMP JUMPDEST PUSH1 0x1 DUP1 PUSH1 0xA0 SHL SUB AND DUP1 PUSH1 0x0 MSTORE PUSH1 0x25 PUSH1 0x20 MSTORE PUSH1 0x40 PUSH1 0x0 KECCAK256 PUSH1 0x1 PUSH1 0xFF NOT DUP3 SLOAD AND OR SWAP1 SSTORE PUSH32 0x6A12B3DF6CBA4203BD7FD06B816789F87DE8C594299AED5717AE070FAC781BAC PUSH1 0x20 PUSH1 0x40 MLOAD PUSH1 0x1 DUP2 MSTORE LOG2 STOP JUMPDEST CALLVALUE PUSH2 0x3AD JUMPI PUSH1 0x0 CALLDATASIZE PUSH1 0x3 NOT ADD SLT PUSH2 0x3AD JUMPI PUSH1 0x0 PUSH2 0x200 PUSH1 0x40 MLOAD PUSH2 0x2330 DUP2 PUSH2 0x31E0 JUMP JUMPDEST DUP3 DUP2 MSTORE DUP3 PUSH1 0x20 DUP3 ADD MSTORE DUP3 PUSH1 0x40 DUP3 ADD MSTORE DUP3 PUSH1 0x60 DUP3 ADD MSTORE DUP3 PUSH1 0x80 DUP3 ADD MSTORE DUP3 PUSH1 0xA0 DUP3 ADD MSTORE DUP3 PUSH1 0xC0 DUP3 ADD MSTORE DUP3 PUSH1 0xE0 DUP3 ADD MSTORE DUP3 PUSH2 0x100 DUP3 ADD MSTORE DUP3 PUSH2 0x120 DUP3 ADD MSTORE DUP3 PUSH2 0x140 DUP3 ADD MSTORE PUSH1 0x60 PUSH2 0x160 DUP3 ADD MSTORE PUSH1 0x60 PUSH2 0x180 DUP3 ADD MSTORE PUSH1 0x60 PUSH2 0x1A0 DUP3 ADD MSTORE DUP3 PUSH2 0x1C0 DUP3 ADD MSTORE DUP3 PUSH2 0x1E0 DUP3 ADD MSTORE ADD MSTORE PUSH1 0x40 MLOAD PUSH2 0x23A6 DUP2 PUSH2 0x31E0 JUMP JUMPDEST PUSH1 0x8 SLOAD DUP2 MSTORE PUSH1 0x9 SLOAD PUSH1 0x20 DUP3 ADD MSTORE PUSH1 0xA SLOAD PUSH1 0x40 DUP3 ADD MSTORE PUSH1 0xB SLOAD PUSH1 0x60 DUP3 ADD MSTORE PUSH1 0xFF PUSH1 0xC SLOAD AND PUSH1 0x80 DUP3 ADD MSTORE PUSH1 0xD SLOAD PUSH1 0xA0 DUP3 ADD MSTORE PUSH1 0xFF PUSH1 0xE SLOAD AND PUSH2 0x23E5 DUP2 PUSH2 0x30F5 JUMP JUMPDEST PUSH1 0xC0 DUP3 ADD MSTORE PUSH1 0xF SLOAD PUSH1 0xE0 DUP3 ADD MSTORE PUSH1 0x10 SLOAD PUSH2 0x100 DUP3 ADD MSTORE PUSH1 0x11 SLOAD PUSH2 0x120 DUP3 ADD MSTORE PUSH1 0xFF PUSH1 0x12 SLOAD AND PUSH1 0x3 DUP2 LT ISZERO PUSH2 0x27D7 JUMPI PUSH2 0x140 DUP3 ADD MSTORE PUSH1 0x40 MLOAD PUSH1 0x0 PUSH1 0x13 SLOAD DUP1 PUSH1 0x1 SHR SWAP2 PUSH1 0x1 DUP3 AND ISZERO PUSH2 0x27CD JUMPI JUMPDEST PUSH1 0x20 DUP4 LT PUSH1 0x1 DUP4 AND EQ PUSH2 0xB64 JUMPI DUP3 DUP5 MSTORE DUP4 SWAP2 PUSH1 0x1 DUP2 AND SWAP1 DUP2 ISZERO PUSH2 0x27AE JUMPI POP PUSH1 0x1 EQ PUSH2 0x274D JUMPI JUMPDEST PUSH2 0x2462 SWAP3 POP SUB DUP3 PUSH2 0x3251 JUMP JUMPDEST PUSH2 0x160 DUP3 ADD MSTORE PUSH1 0x40 MLOAD PUSH1 0x0 PUSH1 0x14 SLOAD DUP1 PUSH1 0x1 SHR SWAP2 PUSH1 0x1 DUP3 AND ISZERO PUSH2 0x2743 JUMPI JUMPDEST PUSH1 0x20 DUP4 LT PUSH1 0x1 DUP4 AND EQ PUSH2 0xB64 JUMPI DUP3 DUP5 MSTORE DUP4 SWAP2 PUSH1 0x1 DUP2 AND SWAP1 DUP2 ISZERO PUSH2 0x2724 JUMPI POP PUSH1 0x1 EQ PUSH2 0x26C3 JUMPI JUMPDEST PUSH2 0x24B1 SWAP3 POP SUB DUP3 PUSH2 0x3251 JUMP JUMPDEST PUSH2 0x180 DUP3 ADD MSTORE PUSH1 0x40 MLOAD PUSH1 0x0 PUSH1 0x15 SLOAD DUP1 PUSH1 0x1 SHR SWAP2 PUSH1 0x1 DUP3 AND ISZERO PUSH2 0x26B9 JUMPI JUMPDEST PUSH1 0x20 DUP4 LT PUSH1 0x1 DUP4 AND EQ PUSH2 0xB64 JUMPI DUP3 DUP5 MSTORE DUP4 SWAP2 PUSH1 0x1 DUP2 AND SWAP1 DUP2 ISZERO PUSH2 0x269A JUMPI POP PUSH1 0x1 EQ PUSH2 0x2639 JUMPI JUMPDEST PUSH2 0x2500 SWAP3 POP SUB DUP3 PUSH2 0x3251 JUMP JUMPDEST PUSH2 0x1A0 DUP3 ADD MSTORE PUSH1 0xFF PUSH1 0x16 SLOAD DUP2 DUP2 AND ISZERO ISZERO PUSH2 0x1C0 DUP5 ADD MSTORE PUSH1 0x8 SHR AND ISZERO ISZERO PUSH2 0x1E0 DUP3 ADD MSTORE PUSH1 0x17 SLOAD PUSH2 0x200 DUP3 ADD MSTORE PUSH1 0x40 MLOAD DUP1 SWAP2 PUSH1 0x20 DUP3 MSTORE DUP1 MLOAD PUSH1 0x20 DUP4 ADD MSTORE PUSH1 0x20 DUP2 ADD MLOAD PUSH1 0x40 DUP4 ADD MSTORE PUSH1 0x40 DUP2 ADD MLOAD PUSH1 0x60 DUP4 ADD MSTORE PUSH1 0x60 DUP2 ADD MLOAD PUSH1 0x80 DUP4 ADD MSTORE PUSH1 0xFF PUSH1 0x80 DUP3 ADD MLOAD AND PUSH1 0xA0 DUP4 ADD MSTORE PUSH1 0xA0 DUP2 ADD MLOAD PUSH1 0xC0 DUP4 ADD MSTORE PUSH1 0xC0 DUP2 ADD MLOAD PUSH2 0x257E DUP2 PUSH2 0x30F5 JUMP JUMPDEST PUSH1 0xE0 DUP4 ADD MSTORE PUSH1 0xE0 DUP2 ADD MLOAD PUSH2 0x100 DUP4 ADD MSTORE PUSH2 0x100 DUP2 ADD MLOAD PUSH2 0x120 DUP4 ADD MSTORE PUSH2 0x120 DUP2 ADD MLOAD PUSH2 0x140 DUP4 ADD MSTORE PUSH2 0x25BA PUSH2 0x140 DUP3 ADD MLOAD PUSH2 0x160 DUP5 ADD SWAP1 PUSH2 0x3165 JUMP JUMPDEST PUSH2 0x160 DUP2 ADD MLOAD PUSH2 0x200 PUSH2 0x2614 PUSH2 0x25DF PUSH2 0x220 SWAP4 DUP5 PUSH2 0x180 DUP9 ADD MSTORE PUSH2 0x240 DUP8 ADD SWAP1 PUSH2 0x3089 JUMP JUMPDEST PUSH2 0x25FD PUSH2 0x180 DUP7 ADD MLOAD SWAP2 PUSH1 0x1F NOT SWAP3 DUP4 DUP10 DUP4 SUB ADD PUSH2 0x1A0 DUP11 ADD MSTORE PUSH2 0x3089 JUMP JUMPDEST SWAP1 PUSH2 0x1A0 DUP7 ADD MLOAD SWAP1 DUP8 DUP4 SUB ADD PUSH2 0x1C0 DUP9 ADD MSTORE PUSH2 0x3089 JUMP JUMPDEST SWAP3 PUSH2 0x1C0 DUP2 ADD MLOAD ISZERO ISZERO PUSH2 0x1E0 DUP7 ADD MSTORE PUSH2 0x1E0 DUP2 ADD MLOAD ISZERO ISZERO DUP3 DUP7 ADD MSTORE ADD MLOAD SWAP1 DUP4 ADD MSTORE SUB SWAP1 RETURN JUMPDEST POP SWAP1 PUSH1 0x15 PUSH1 0x0 MSTORE PUSH32 0x55F448FDEA98C4D29EB340757EF0A66CD03DBB9538908A6A81D96026B71EC475 SWAP1 PUSH1 0x0 SWAP2 JUMPDEST DUP2 DUP4 LT PUSH2 0x267E JUMPI POP POP SWAP1 PUSH1 0x20 PUSH2 0x2500 SWAP3 DUP3 ADD ADD PUSH2 0x24F4 JUMP JUMPDEST PUSH1 0x20 SWAP2 SWAP4 POP DUP1 PUSH1 0x1 SWAP2 SLOAD DUP4 DUP6 DUP9 ADD ADD MSTORE ADD SWAP2 ADD SWAP1 SWAP2 DUP4 SWAP3 PUSH2 0x2666 JUMP JUMPDEST PUSH1 0x20 SWAP3 POP PUSH2 0x2500 SWAP5 SWAP2 POP PUSH1 0xFF NOT AND DUP3 DUP5 ADD MSTORE ISZERO ISZERO PUSH1 0x5 SHL DUP3 ADD ADD PUSH2 0x24F4 JUMP JUMPDEST SWAP2 PUSH1 0x7F AND SWAP2 PUSH2 0x24CE JUMP JUMPDEST POP SWAP1 PUSH1 0x14 PUSH1 0x0 MSTORE PUSH32 0xCE6D7B5282BD9A3661AE061FEED1DBDA4E52AB073B1F9285BE6E155D9C38D4EC SWAP1 PUSH1 0x0 SWAP2 JUMPDEST DUP2 DUP4 LT PUSH2 0x2708 JUMPI POP POP SWAP1 PUSH1 0x20 PUSH2 0x24B1 SWAP3 DUP3 ADD ADD PUSH2 0x24A5 JUMP JUMPDEST PUSH1 0x20 SWAP2 SWAP4 POP DUP1 PUSH1 0x1 SWAP2 SLOAD DUP4 DUP6 DUP9 ADD ADD MSTORE ADD SWAP2 ADD SWAP1 SWAP2 DUP4 SWAP3 PUSH2 0x26F0 JUMP JUMPDEST PUSH1 0x20 SWAP3 POP PUSH2 0x24B1 SWAP5 SWAP2 POP PUSH1 0xFF NOT AND DUP3 DUP5 ADD MSTORE ISZERO ISZERO PUSH1 0x5 SHL DUP3 ADD ADD PUSH2 0x24A5 JUMP JUMPDEST SWAP2 PUSH1 0x7F AND SWAP2 PUSH2 0x247F JUMP JUMPDEST POP SWAP1 PUSH1 0x13 PUSH1 0x0 MSTORE PUSH32 0x66DE8FFDA797E3DE9C05E8FC57B3BF0EC28A930D40B0D285D93C06501CF6A090 SWAP1 PUSH1 0x0 SWAP2 JUMPDEST DUP2 DUP4 LT PUSH2 0x2792 JUMPI POP POP SWAP1 PUSH1 0x20 PUSH2 0x2462 SWAP3 DUP3 ADD ADD PUSH2 0x2456 JUMP JUMPDEST PUSH1 0x20 SWAP2 SWAP4 POP DUP1 PUSH1 0x1 SWAP2 SLOAD DUP4 DUP6 DUP9 ADD ADD MSTORE ADD SWAP2 ADD SWAP1 SWAP2 DUP4 SWAP3 PUSH2 0x277A JUMP JUMPDEST PUSH1 0x20 SWAP3 POP PUSH2 0x2462 SWAP5 SWAP2 POP PUSH1 0xFF NOT AND DUP3 DUP5 ADD MSTORE ISZERO ISZERO PUSH1 0x5 SHL DUP3 ADD ADD PUSH2 0x2456 JUMP JUMPDEST SWAP2 PUSH1 0x7F AND SWAP2 PUSH2 0x2430 JUMP JUMPDEST PUSH4 0x4E487B71 PUSH1 0xE0 SHL PUSH1 0x0 MSTORE PUSH1 0x21 PUSH1 0x4 MSTORE PUSH1 0x24 PUSH1 0x0 REVERT JUMPDEST CALLVALUE PUSH2 0x3AD JUMPI PUSH1 0x0 CALLDATASIZE PUSH1 0x3 NOT ADD SLT PUSH2 0x3AD JUMPI PUSH2 0x2806 PUSH2 0x3328 JUMP JUMPDEST PUSH1 0x7 SLOAD PUSH1 0xFF DUP2 AND ISZERO PUSH2 0x2845 JUMPI PUSH1 0xFF NOT AND PUSH1 0x7 SSTORE PUSH32 0x5DB9EE0A495BF2E6FF9C91A7834C1BA4FDD244A5E8AA4E537BD38AEAE4B073AA PUSH1 0x20 PUSH1 0x40 MLOAD CALLER DUP2 MSTORE LOG1 STOP JUMPDEST PUSH1 0x40 MLOAD PUSH4 0x8DFC202B PUSH1 0xE0 SHL DUP2 MSTORE PUSH1 0x4 SWAP1 REVERT JUMPDEST CALLVALUE PUSH2 0x3AD JUMPI PUSH1 0x20 DUP1 PUSH1 0x3 NOT CALLDATASIZE ADD SLT PUSH2 0x3AD JUMPI PUSH1 0x4 CALLDATALOAD PUSH8 0xFFFFFFFFFFFFFFFF DUP2 GT PUSH2 0x3AD JUMPI PUSH2 0x2889 SWAP1 CALLDATASIZE SWAP1 PUSH1 0x4 ADD PUSH2 0x3134 JUMP JUMPDEST SWAP1 PUSH2 0x2892 PUSH2 0x32AE JUMP JUMPDEST PUSH1 0x0 JUMPDEST DUP3 DUP2 LT PUSH2 0x289E JUMPI STOP JUMPDEST PUSH2 0x2917 SWAP1 PUSH1 0x1 PUSH1 0x1 PUSH1 0xA0 SHL SUB DUP1 PUSH2 0x28BE PUSH2 0x28B9 DUP5 DUP9 DUP9 PUSH2 0x383B JUMP JUMPDEST PUSH2 0x384B JUMP JUMPDEST AND PUSH1 0x0 MSTORE PUSH1 0x24 DUP7 MSTORE PUSH32 0xF93F9A76C1BF3444D22400A00CB9FE990E6ABE9DBB333FDA48859CFEE864543D DUP7 PUSH1 0x40 PUSH1 0x0 KECCAK256 SWAP3 PUSH1 0x1 SWAP4 DUP5 PUSH1 0xFF NOT DUP3 SLOAD AND OR SWAP1 SSTORE PUSH2 0x2909 PUSH2 0x28B9 DUP7 DUP11 DUP11 PUSH2 0x383B JUMP JUMPDEST AND SWAP3 PUSH1 0x40 MLOAD SWAP1 DUP2 MSTORE LOG2 PUSH2 0x382C JUMP JUMPDEST PUSH2 0x2895 JUMP JUMPDEST CALLVALUE PUSH2 0x3AD JUMPI PUSH1 0x40 CALLDATASIZE PUSH1 0x3 NOT ADD SLT PUSH2 0x3AD JUMPI PUSH2 0x2935 PUSH2 0x30DF JUMP JUMPDEST CALLER PUSH1 0x1 PUSH1 0x1 PUSH1 0xA0 SHL SUB DUP3 AND SUB PUSH2 0x2951 JUMPI PUSH2 0x8F2 SWAP1 PUSH1 0x4 CALLDATALOAD PUSH2 0x3486 JUMP JUMPDEST PUSH1 0x40 MLOAD PUSH4 0x334BD919 PUSH1 0xE1 SHL DUP2 MSTORE PUSH1 0x4 SWAP1 REVERT JUMPDEST CALLVALUE PUSH2 0x3AD JUMPI PUSH1 0x0 CALLDATASIZE PUSH1 0x3 NOT ADD SLT PUSH2 0x3AD JUMPI PUSH1 0x20 PUSH1 0x40 MLOAD PUSH1 0x6 DUP2 MSTORE RETURN JUMPDEST CALLVALUE PUSH2 0x3AD JUMPI PUSH1 0x0 CALLDATASIZE PUSH1 0x3 NOT ADD SLT PUSH2 0x3AD JUMPI PUSH1 0x1E SLOAD PUSH1 0x40 MLOAD PUSH1 0x1 PUSH1 0x1 PUSH1 0xA0 SHL SUB SWAP1 SWAP2 AND DUP2 MSTORE PUSH1 0x20 SWAP1 RETURN JUMPDEST CALLVALUE PUSH2 0x3AD JUMPI PUSH1 0x40 CALLDATASIZE PUSH1 0x3 NOT ADD SLT PUSH2 0x3AD JUMPI PUSH2 0x8F2 PUSH1 0x4 CALLDATALOAD PUSH2 0x29C7 PUSH2 0x30DF JUMP JUMPDEST SWAP1 DUP1 PUSH1 0x0 MSTORE PUSH1 0x5 PUSH1 0x20 MSTORE PUSH2 0x29E2 PUSH1 0x1 PUSH1 0x40 PUSH1 0x0 KECCAK256 ADD SLOAD PUSH2 0x33E0 JUMP JUMPDEST PUSH2 0x3406 JUMP JUMPDEST CALLVALUE PUSH2 0x3AD JUMPI PUSH1 0x20 CALLDATASIZE PUSH1 0x3 NOT ADD SLT PUSH2 0x3AD JUMPI PUSH1 0x4 CALLDATALOAD PUSH1 0x0 MSTORE PUSH1 0x5 PUSH1 0x20 MSTORE PUSH1 0x20 PUSH1 0x1 PUSH1 0x40 PUSH1 0x0 KECCAK256 ADD SLOAD PUSH1 0x40 MLOAD SWAP1 DUP2 MSTORE RETURN JUMPDEST CALLVALUE PUSH2 0x3AD JUMPI PUSH2 0x2A24 CALLDATASIZE PUSH2 0x30FF JUMP JUMPDEST SWAP1 PUSH1 0x1 DUP1 PUSH1 0xA0 SHL SUB DUP4 AND SWAP3 DUP4 PUSH1 0x0 MSTORE PUSH1 0x1 PUSH1 0x20 MSTORE PUSH1 0x40 PUSH1 0x0 KECCAK256 CALLER PUSH1 0x0 MSTORE PUSH1 0x20 MSTORE PUSH1 0x40 PUSH1 0x0 KECCAK256 SLOAD SWAP4 PUSH1 0x0 NOT DUP6 LT PUSH2 0x2A60 JUMPI JUMPDEST POP PUSH2 0x1075 SWAP4 POP PUSH2 0x34FD JUMP JUMPDEST DUP4 DUP6 LT PUSH2 0x2ACC JUMPI DUP1 ISZERO PUSH2 0x2AB3 JUMPI CALLER ISZERO PUSH2 0x2A9A JUMPI PUSH2 0x1075 SWAP5 DUP5 SWAP2 PUSH1 0x0 MSTORE PUSH1 0x1 PUSH1 0x20 MSTORE PUSH1 0x40 PUSH1 0x0 KECCAK256 CALLER PUSH1 0x0 MSTORE PUSH1 0x20 MSTORE SUB PUSH1 0x40 PUSH1 0x0 KECCAK256 SSTORE DUP5 PUSH2 0x2A55 JUMP JUMPDEST PUSH1 0x40 MLOAD PUSH4 0x4A1406B1 PUSH1 0xE1 SHL DUP2 MSTORE PUSH1 0x0 PUSH1 0x4 DUP3 ADD MSTORE PUSH1 0x24 SWAP1 REVERT JUMPDEST PUSH1 0x40 MLOAD PUSH4 0xE602DF05 PUSH1 0xE0 SHL DUP2 MSTORE PUSH1 0x0 PUSH1 0x4 DUP3 ADD MSTORE PUSH1 0x24 SWAP1 REVERT JUMPDEST PUSH1 0x40 MLOAD PUSH4 0x7DC7A0D9 PUSH1 0xE1 SHL DUP2 MSTORE CALLER PUSH1 0x4 DUP3 ADD MSTORE PUSH1 0x24 DUP2 ADD DUP7 SWAP1 MSTORE PUSH1 0x44 DUP2 ADD DUP6 SWAP1 MSTORE PUSH1 0x64 SWAP1 REVERT JUMPDEST SUB SWAP1 REVERT JUMPDEST CALLVALUE PUSH2 0x3AD JUMPI PUSH1 0x0 CALLDATASIZE PUSH1 0x3 NOT ADD SLT PUSH2 0x3AD JUMPI PUSH1 0x20 PUSH1 0xFF PUSH1 0x18 SLOAD AND PUSH1 0x40 MLOAD SWAP1 PUSH2 0x2B1C DUP2 PUSH2 0x30F5 JUMP JUMPDEST DUP2 MSTORE RETURN JUMPDEST CALLVALUE PUSH2 0x3AD JUMPI PUSH1 0x20 CALLDATASIZE PUSH1 0x3 NOT ADD SLT PUSH2 0x3AD JUMPI CALLER PUSH1 0x0 SWAP1 DUP2 MSTORE PUSH32 0x66215885DCB73CB4AAE79FCB51F949ACF75999687399EEF5D47B261732E84357 PUSH1 0x20 MSTORE PUSH1 0x40 SWAP1 KECCAK256 SLOAD PUSH1 0x4 CALLDATALOAD SWAP1 PUSH2 0x2B70 SWAP1 PUSH1 0xFF AND PUSH2 0x3D2E JUMP JUMPDEST PUSH2 0x2B82 PUSH1 0xFF PUSH1 0x18 SLOAD AND PUSH2 0xD59 DUP2 PUSH2 0x30F5 JUMP JUMPDEST PUSH1 0xFF PUSH1 0x16 SLOAD AND ISZERO PUSH2 0x2BC3 JUMPI PUSH1 0x40 DUP2 PUSH32 0x892461AC47C837244A43F55C47E4146481D666F7E00FBC337CB425BB0D94A834 SWAP3 PUSH1 0xF SSTORE DUP2 MLOAD SWAP1 DUP2 MSTORE TIMESTAMP PUSH1 0x20 DUP3 ADD MSTORE LOG1 STOP JUMPDEST PUSH1 0x40 MLOAD PUSH3 0x461BCD PUSH1 0xE5 SHL DUP2 MSTORE PUSH1 0x20 PUSH1 0x4 DUP3 ADD MSTORE PUSH1 0x18 PUSH1 0x24 DUP3 ADD MSTORE PUSH32 0x526570616374756174696F6E206E6F7420616C6C6F7765640000000000000000 PUSH1 0x44 DUP3 ADD MSTORE PUSH1 0x64 SWAP1 REVERT JUMPDEST CALLVALUE PUSH2 0x3AD JUMPI PUSH1 0x0 CALLDATASIZE PUSH1 0x3 NOT ADD SLT PUSH2 0x3AD JUMPI PUSH1 0xFF PUSH2 0x2C2C DUP2 PUSH1 0x18 SLOAD AND PUSH2 0xD59 DUP2 PUSH2 0x30F5 JUMP JUMPDEST PUSH2 0x2C34 PUSH2 0x3AF4 JUMP JUMPDEST PUSH2 0x2C3C PUSH2 0x3D72 JUMP JUMPDEST DUP1 TIMESTAMP LT PUSH2 0x2E1C JUMPI PUSH2 0x2C4B PUSH2 0x39D7 JUMP JUMPDEST SWAP2 PUSH1 0x0 SWAP1 PUSH1 0x0 SWAP1 PUSH1 0x21 SLOAD SWAP2 JUMPDEST DUP3 DUP2 LT PUSH2 0x2DCA JUMPI JUMPDEST POP POP POP PUSH1 0x1B SLOAD PUSH1 0x40 MLOAD PUSH2 0x2C71 DUP2 PUSH2 0x31C3 JUMP JUMPDEST TIMESTAMP DUP2 MSTORE PUSH1 0x20 DUP2 ADD SWAP1 PUSH1 0x0 DUP3 MSTORE PUSH1 0x40 DUP2 ADD DUP7 DUP2 MSTORE PUSH1 0x60 DUP3 ADD SWAP4 DUP5 MSTORE PUSH1 0x80 DUP3 ADD SWAP5 DUP7 DUP7 MSTORE PUSH1 0xA0 DUP4 ADD SWAP1 DUP2 MSTORE PUSH1 0xC0 DUP4 ADD SWAP6 PUSH1 0x1 DUP8 MSTORE PUSH1 0xE0 DUP5 ADD SWAP6 PUSH1 0x0 DUP8 MSTORE PUSH1 0x22 SLOAD PUSH1 0x1 PUSH1 0x40 SHL DUP2 LT ISZERO PUSH2 0x1860 JUMPI DUP1 PUSH1 0x1 PUSH2 0x2CCB SWAP3 ADD PUSH1 0x22 SSTORE PUSH2 0x3172 JUMP JUMPDEST SWAP5 SWAP1 SWAP5 PUSH2 0x2DB4 JUMPI PUSH2 0x2D11 SWAP7 PUSH1 0x6 SWAP7 MLOAD DUP7 SSTORE MLOAD PUSH1 0x1 DUP7 ADD SSTORE MLOAD PUSH1 0x2 DUP6 ADD SSTORE MLOAD PUSH1 0x3 DUP5 ADD SSTORE MLOAD PUSH1 0x4 DUP4 ADD SSTORE MLOAD PUSH1 0x5 DUP3 ADD SSTORE ADD SWAP3 MLOAD ISZERO ISZERO DUP4 SWAP1 PUSH1 0xFF DUP1 NOT DUP4 SLOAD AND SWAP2 ISZERO ISZERO AND OR SWAP1 SSTORE JUMP JUMPDEST MLOAD DUP2 SLOAD PUSH2 0xFF00 NOT AND SWAP1 ISZERO ISZERO PUSH1 0x8 SHL PUSH2 0xFF00 AND OR SWAP1 SSTORE PUSH1 0x22 SLOAD PUSH1 0x0 NOT DUP2 ADD SWAP3 SWAP1 DUP4 GT PUSH2 0x67C JUMPI PUSH32 0x929AD1752907433999BAEF86630E1E0CCCC943966BE81A34ED4EE45644629B35 SWAP2 PUSH1 0x60 SWAP2 PUSH1 0x40 MLOAD SWAP2 DUP3 MSTORE PUSH1 0x20 DUP3 ADD MSTORE TIMESTAMP PUSH1 0x40 DUP3 ADD MSTORE LOG2 PUSH1 0xE SLOAD AND PUSH2 0x2D7A DUP2 PUSH2 0x30F5 JUMP JUMPDEST PUSH1 0x1 DUP2 EQ SWAP1 DUP2 ISZERO PUSH2 0x2DA0 JUMPI JUMPDEST POP PUSH2 0x2D93 JUMPI JUMPDEST PUSH1 0x1 PUSH1 0x6 SSTORE STOP JUMPDEST PUSH4 0x3B9ACA00 PUSH1 0x27 SSTORE PUSH2 0x2D8C JUMP JUMPDEST PUSH1 0x2 SWAP2 POP PUSH2 0x2DAD DUP2 PUSH2 0x30F5 JUMP JUMPDEST EQ DUP2 PUSH2 0x2D86 JUMP JUMPDEST PUSH4 0x4E487B71 PUSH1 0xE0 SHL PUSH1 0x0 MSTORE PUSH1 0x0 PUSH1 0x4 MSTORE PUSH1 0x24 PUSH1 0x0 REVERT JUMPDEST DUP7 PUSH1 0x2 PUSH2 0x2DD6 DUP4 PUSH2 0x3273 JUMP JUMPDEST POP ADD SLOAD AND ISZERO DUP1 PUSH2 0x2E08 JUMPI JUMPDEST PUSH2 0x2DF3 JUMPI PUSH2 0x2DEE SWAP1 PUSH2 0x382C JUMP JUMPDEST PUSH2 0x2C57 JUMP JUMPDEST SWAP2 POP POP PUSH2 0x2E00 SWAP2 POP PUSH2 0x3EEC JUMP JUMPDEST DUP5 DUP1 DUP1 PUSH2 0x2C5F JUMP JUMPDEST POP DUP2 PUSH2 0x2E13 DUP3 PUSH2 0x3273 JUMP JUMPDEST POP SLOAD GT ISZERO PUSH2 0x2DE1 JUMP JUMPDEST PUSH1 0x40 MLOAD PUSH3 0x461BCD PUSH1 0xE5 SHL DUP2 MSTORE PUSH1 0x20 PUSH1 0x4 DUP3 ADD MSTORE PUSH1 0x12 PUSH1 0x24 DUP3 ADD MSTORE PUSH18 0x10DBDD5C1BDB881B9BDD08191D59481E595D PUSH1 0x72 SHL PUSH1 0x44 DUP3 ADD MSTORE PUSH1 0x64 SWAP1 REVERT JUMPDEST CALLVALUE PUSH2 0x3AD JUMPI PUSH1 0x0 CALLDATASIZE PUSH1 0x3 NOT ADD SLT PUSH2 0x3AD JUMPI PUSH1 0x1F SLOAD PUSH1 0x40 MLOAD PUSH1 0x1 PUSH1 0x1 PUSH1 0xA0 SHL SUB SWAP1 SWAP2 AND DUP2 MSTORE PUSH1 0x20 SWAP1 RETURN JUMPDEST CALLVALUE PUSH2 0x3AD JUMPI PUSH1 0x0 CALLDATASIZE PUSH1 0x3 NOT ADD SLT PUSH2 0x3AD JUMPI PUSH1 0x20 PUSH1 0x2 SLOAD PUSH1 0x40 MLOAD SWAP1 DUP2 MSTORE RETURN JUMPDEST CALLVALUE PUSH2 0x3AD JUMPI PUSH1 0x0 CALLDATASIZE PUSH1 0x3 NOT ADD SLT PUSH2 0x3AD JUMPI PUSH1 0x20 PUSH1 0x28 SLOAD PUSH1 0x40 MLOAD SWAP1 DUP2 MSTORE RETURN JUMPDEST CALLVALUE PUSH2 0x3AD JUMPI PUSH1 0x40 CALLDATASIZE PUSH1 0x3 NOT ADD SLT PUSH2 0x3AD JUMPI PUSH2 0x2ED4 PUSH2 0x30C9 JUMP JUMPDEST PUSH1 0x24 CALLDATALOAD SWAP1 CALLER ISZERO PUSH2 0x2AB3 JUMPI PUSH1 0x1 PUSH1 0x1 PUSH1 0xA0 SHL SUB AND SWAP1 DUP2 ISZERO PUSH2 0x2A9A JUMPI CALLER PUSH1 0x0 MSTORE PUSH1 0x1 PUSH1 0x20 MSTORE PUSH1 0x40 PUSH1 0x0 KECCAK256 DUP3 PUSH1 0x0 MSTORE PUSH1 0x20 MSTORE DUP1 PUSH1 0x40 PUSH1 0x0 KECCAK256 SSTORE PUSH1 0x40 MLOAD SWAP1 DUP2 MSTORE PUSH32 0x8C5BE1E5EBEC7D5BD14F71427D1E84F3DD0314C0F7B2291E5B200AC8C7C3B925 PUSH1 0x20 CALLER SWAP3 LOG3 PUSH1 0x20 PUSH1 0x40 MLOAD PUSH1 0x1 DUP2 MSTORE RETURN JUMPDEST CALLVALUE PUSH2 0x3AD JUMPI PUSH1 0x0 CALLDATASIZE PUSH1 0x3 NOT ADD SLT PUSH2 0x3AD JUMPI PUSH1 0x40 MLOAD PUSH1 0x0 PUSH1 0x3 SLOAD SWAP1 PUSH1 0x1 DUP3 DUP2 SHR SWAP2 DUP2 DUP5 AND SWAP2 DUP3 ISZERO PUSH2 0x2FFA JUMPI JUMPDEST PUSH1 0x20 SWAP5 DUP6 DUP6 LT DUP5 EQ PUSH2 0xB64 JUMPI DUP6 DUP8 SWAP5 DUP7 DUP7 MSTORE SWAP2 DUP3 PUSH1 0x0 EQ PUSH2 0x11F6 JUMPI POP POP PUSH1 0x1 EQ PUSH2 0x2F9D JUMPI POP PUSH2 0x1185 SWAP3 POP SUB DUP4 PUSH2 0x3251 JUMP JUMPDEST DUP5 SWAP2 POP PUSH1 0x3 PUSH1 0x0 MSTORE PUSH32 0xC2575A0E9E593C00F959F8C92F12DB2869C3395A3B0502D05E2516446F71F85B SWAP1 PUSH1 0x0 SWAP2 JUMPDEST DUP6 DUP4 LT PUSH2 0x2FE2 JUMPI POP POP PUSH2 0x1185 SWAP4 POP DUP3 ADD ADD DUP6 PUSH2 0x1178 JUMP JUMPDEST DUP1 SLOAD DUP4 DUP10 ADD DUP6 ADD MSTORE DUP8 SWAP5 POP DUP7 SWAP4 SWAP1 SWAP3 ADD SWAP2 DUP2 ADD PUSH2 0x2FCB JUMP JUMPDEST SWAP3 PUSH1 0x7F AND SWAP3 PUSH2 0x2F6C JUMP JUMPDEST CALLVALUE PUSH2 0x3AD JUMPI PUSH1 0x20 CALLDATASIZE PUSH1 0x3 NOT ADD SLT PUSH2 0x3AD JUMPI PUSH1 0x4 CALLDATALOAD SWAP1 PUSH4 0xFFFFFFFF PUSH1 0xE0 SHL DUP3 AND DUP1 SWAP3 SUB PUSH2 0x3AD JUMPI PUSH1 0x20 SWAP2 PUSH4 0x578F3761 PUSH1 0xE1 SHL DUP2 EQ SWAP1 DUP2 ISZERO PUSH2 0x3078 JUMPI JUMPDEST DUP2 ISZERO PUSH2 0x304D JUMPI JUMPDEST POP ISZERO ISZERO DUP2 MSTORE RETURN JUMPDEST PUSH4 0x7965DB0B PUSH1 0xE0 SHL DUP2 EQ SWAP2 POP DUP2 ISZERO PUSH2 0x3067 JUMPI JUMPDEST POP DUP4 PUSH2 0x3046 JUMP JUMPDEST PUSH4 0x1FFC9A7 PUSH1 0xE0 SHL EQ SWAP1 POP DUP4 PUSH2 0x3060 JUMP JUMPDEST PUSH4 0x36372B07 PUSH1 0xE0 SHL DUP2 EQ SWAP2 POP PUSH2 0x303F JUMP JUMPDEST SWAP2 SWAP1 DUP3 MLOAD SWAP3 DUP4 DUP3 MSTORE PUSH1 0x0 JUMPDEST DUP5 DUP2 LT PUSH2 0x30B5 JUMPI POP POP DUP3 PUSH1 0x0 PUSH1 0x20 DUP1 SWAP5 SWAP6 DUP5 ADD ADD MSTORE PUSH1 0x1F DUP1 NOT SWAP2 ADD AND ADD ADD SWAP1 JUMP JUMPDEST PUSH1 0x20 DUP2 DUP4 ADD DUP2 ADD MLOAD DUP5 DUP4 ADD DUP3 ADD MSTORE ADD PUSH2 0x3094 JUMP JUMPDEST PUSH1 0x4 CALLDATALOAD SWAP1 PUSH1 0x1 PUSH1 0x1 PUSH1 0xA0 SHL SUB DUP3 AND DUP3 SUB PUSH2 0x3AD JUMPI JUMP JUMPDEST PUSH1 0x24 CALLDATALOAD SWAP1 PUSH1 0x1 PUSH1 0x1 PUSH1 0xA0 SHL SUB DUP3 AND DUP3 SUB PUSH2 0x3AD JUMPI JUMP JUMPDEST PUSH1 0x5 GT ISZERO PUSH2 0x27D7 JUMPI JUMP JUMPDEST PUSH1 0x60 SWAP1 PUSH1 0x3 NOT ADD SLT PUSH2 0x3AD JUMPI PUSH1 0x1 PUSH1 0x1 PUSH1 0xA0 SHL SUB SWAP1 PUSH1 0x4 CALLDATALOAD DUP3 DUP2 AND DUP2 SUB PUSH2 0x3AD JUMPI SWAP2 PUSH1 0x24 CALLDATALOAD SWAP1 DUP2 AND DUP2 SUB PUSH2 0x3AD JUMPI SWAP1 PUSH1 0x44 CALLDATALOAD SWAP1 JUMP JUMPDEST SWAP2 DUP2 PUSH1 0x1F DUP5 ADD SLT ISZERO PUSH2 0x3AD JUMPI DUP3 CALLDATALOAD SWAP2 PUSH8 0xFFFFFFFFFFFFFFFF DUP4 GT PUSH2 0x3AD JUMPI PUSH1 0x20 DUP1 DUP6 ADD SWAP5 DUP5 PUSH1 0x5 SHL ADD ADD GT PUSH2 0x3AD JUMPI JUMP JUMPDEST SWAP1 PUSH1 0x3 DUP3 LT ISZERO PUSH2 0x27D7 JUMPI MSTORE JUMP JUMPDEST PUSH1 0x22 SLOAD DUP2 LT ISZERO PUSH2 0x31AD JUMPI PUSH1 0x7 SWAP1 PUSH1 0x22 PUSH1 0x0 MSTORE MUL PUSH32 0x61035B26E3E9EEE00E0D72FD1EE8DDCA6894550DCA6916EA2AC6BAA90D11E510 ADD SWAP1 PUSH1 0x0 SWAP1 JUMP JUMPDEST PUSH4 0x4E487B71 PUSH1 0xE0 SHL PUSH1 0x0 MSTORE PUSH1 0x32 PUSH1 0x4 MSTORE PUSH1 0x24 PUSH1 0x0 REVERT JUMPDEST PUSH2 0x100 DUP2 ADD SWAP1 DUP2 LT PUSH8 0xFFFFFFFFFFFFFFFF DUP3 GT OR PUSH2 0x1860 JUMPI PUSH1 0x40 MSTORE JUMP JUMPDEST PUSH2 0x220 DUP2 ADD SWAP1 DUP2 LT PUSH8 0xFFFFFFFFFFFFFFFF DUP3 GT OR PUSH2 0x1860 JUMPI PUSH1 0x40 MSTORE JUMP JUMPDEST PUSH1 0x60 DUP2 ADD SWAP1 DUP2 LT PUSH8 0xFFFFFFFFFFFFFFFF DUP3 GT OR PUSH2 0x1860 JUMPI PUSH1 0x40 MSTORE JUMP JUMPDEST PUSH1 0x80 DUP2 ADD SWAP1 DUP2 LT PUSH8 0xFFFFFFFFFFFFFFFF DUP3 GT OR PUSH2 0x1860 JUMPI PUSH1 0x40 MSTORE JUMP JUMPDEST PUSH1 0x40 DUP2 ADD SWAP1 DUP2 LT PUSH8 0xFFFFFFFFFFFFFFFF DUP3 GT OR PUSH2 0x1860 JUMPI PUSH1 0x40 MSTORE JUMP JUMPDEST SWAP1 PUSH1 0x1F DUP1 NOT SWAP2 ADD AND DUP2 ADD SWAP1 DUP2 LT PUSH8 0xFFFFFFFFFFFFFFFF DUP3 GT OR PUSH2 0x1860 JUMPI PUSH1 0x40 MSTORE JUMP JUMPDEST PUSH1 0x21 SLOAD DUP2 LT ISZERO PUSH2 0x31AD JUMPI PUSH1 0x3 SWAP1 PUSH1 0x21 PUSH1 0x0 MSTORE MUL PUSH32 0x3A6357012C1A3AE0A17D304C9920310382D968EBCC4B1771F41C6B304205B570 ADD SWAP1 PUSH1 0x0 SWAP1 JUMP JUMPDEST CALLER PUSH1 0x0 SWAP1 DUP2 MSTORE PUSH32 0x294BB43E882F8724B7AE88344D047A41612B98EE139A78F923B3689F3CC274B1 PUSH1 0x20 MSTORE PUSH1 0x40 SWAP1 KECCAK256 SLOAD PUSH32 0x28F5A99355973CC89255B8C4AC88405F27C78DED7608B040EE77A8BDF44D15E2 SWAP1 PUSH1 0xFF AND ISZERO PUSH2 0x330A JUMPI POP JUMP JUMPDEST PUSH1 0x44 SWAP1 PUSH1 0x40 MLOAD SWAP1 PUSH4 0xE2517D3F PUSH1 0xE0 SHL DUP3 MSTORE CALLER PUSH1 0x4 DUP4 ADD MSTORE PUSH1 0x24 DUP3 ADD MSTORE REVERT JUMPDEST CALLER PUSH1 0x0 SWAP1 DUP2 MSTORE PUSH32 0xD8EF4509105C3EDB0B04658B4528EDC5DDD30EA5A81E623A2623C88DB1EB54B6 PUSH1 0x20 MSTORE PUSH1 0x40 SWAP1 KECCAK256 SLOAD PUSH32 0xA49807205CE4D355092EF5A8A18F56E8913CF4A201FBE287825B095693C21775 SWAP1 PUSH1 0xFF AND ISZERO PUSH2 0x330A JUMPI POP JUMP JUMPDEST CALLER PUSH1 0x0 SWAP1 DUP2 MSTORE PUSH32 0x66215885DCB73CB4AAE79FCB51F949ACF75999687399EEF5D47B261732E84357 PUSH1 0x20 MSTORE PUSH1 0x40 SWAP1 KECCAK256 SLOAD PUSH32 0x700B68D05515876E1B5BEE45535F56F17ECF1FBB63AC93E8914591401365025D SWAP1 PUSH1 0xFF AND ISZERO PUSH2 0x330A JUMPI POP JUMP JUMPDEST DUP1 PUSH1 0x0 MSTORE PUSH1 0x5 PUSH1 0x20 MSTORE PUSH1 0x40 PUSH1 0x0 KECCAK256 CALLER PUSH1 0x0 MSTORE PUSH1 0x20 MSTORE PUSH1 0xFF PUSH1 0x40 PUSH1 0x0 KECCAK256 SLOAD AND ISZERO PUSH2 0x330A JUMPI POP JUMP JUMPDEST SWAP1 PUSH1 0x0 SWAP2 DUP1 DUP4 MSTORE PUSH1 0x5 PUSH1 0x20 MSTORE PUSH1 0x40 DUP4 KECCAK256 SWAP2 PUSH1 0x1 DUP1 PUSH1 0xA0 SHL SUB AND SWAP2 DUP3 DUP5 MSTORE PUSH1 0x20 MSTORE PUSH1 0xFF PUSH1 0x40 DUP5 KECCAK256 SLOAD AND ISZERO PUSH1 0x0 EQ PUSH2 0x3481 JUMPI DUP1 DUP4 MSTORE PUSH1 0x5 PUSH1 0x20 MSTORE PUSH1 0x40 DUP4 KECCAK256 DUP3 DUP5 MSTORE PUSH1 0x20 MSTORE PUSH1 0x40 DUP4 KECCAK256 PUSH1 0x1 PUSH1 0xFF NOT DUP3 SLOAD AND OR SWAP1 SSTORE PUSH32 0x2F8788117E7EFF1D82E926EC794901D17C78024A50270940304540A733656F0D CALLER SWAP4 DUP1 LOG4 PUSH1 0x1 SWAP1 JUMP JUMPDEST POP POP SWAP1 JUMP JUMPDEST SWAP1 PUSH1 0x0 SWAP2 DUP1 DUP4 MSTORE PUSH1 0x5 PUSH1 0x20 MSTORE PUSH1 0x40 DUP4 KECCAK256 SWAP2 PUSH1 0x1 DUP1 PUSH1 0xA0 SHL SUB AND SWAP2 DUP3 DUP5 MSTORE PUSH1 0x20 MSTORE PUSH1 0xFF PUSH1 0x40 DUP5 KECCAK256 SLOAD AND PUSH1 0x0 EQ PUSH2 0x3481 JUMPI DUP1 DUP4 MSTORE PUSH1 0x5 PUSH1 0x20 MSTORE PUSH1 0x40 DUP4 KECCAK256 DUP3 DUP5 MSTORE PUSH1 0x20 MSTORE PUSH1 0x40 DUP4 KECCAK256 PUSH1 0xFF NOT DUP2 SLOAD AND SWAP1 SSTORE PUSH32 0xF6391F5C32D9C69D2A47EA670B442974B53935D1EDC7FD64EB21E047A839171B CALLER SWAP4 DUP1 LOG4 PUSH1 0x1 SWAP1 JUMP JUMPDEST SWAP1 SWAP2 PUSH1 0x1 PUSH1 0x1 PUSH1 0xA0 SHL SUB DUP1 DUP4 AND SWAP3 SWAP1 DUP4 ISZERO PUSH2 0x3605 JUMPI DUP5 AND SWAP4 DUP5 ISZERO PUSH2 0x35EC JUMPI PUSH2 0x3525 SWAP1 DUP3 PUSH2 0x361E JUMP JUMPDEST PUSH1 0xFF PUSH2 0x3530 DUP3 PUSH2 0x36DC JUMP JUMPDEST SWAP2 AND PUSH2 0x35C8 JUMPI POP PUSH1 0x0 SWAP1 DUP4 DUP3 MSTORE DUP2 PUSH1 0x20 MSTORE PUSH1 0x40 DUP3 KECCAK256 SLOAD SWAP1 DUP4 DUP3 LT PUSH2 0x3596 JUMPI POP SWAP2 PUSH1 0x40 DUP3 DUP3 PUSH32 0xDDF252AD1BE2C89B69C2B068FC378DAA952BA7F163C4A11628F55A4DF523B3EF SWAP6 DUP8 PUSH1 0x20 SWAP7 MSTORE DUP3 DUP7 MSTORE SUB DUP3 DUP3 KECCAK256 SSTORE DUP7 DUP2 MSTORE KECCAK256 DUP2 DUP2 SLOAD ADD SWAP1 SSTORE PUSH1 0x40 MLOAD SWAP1 DUP2 MSTORE LOG3 JUMP JUMPDEST PUSH1 0x40 MLOAD PUSH4 0x391434E3 PUSH1 0xE2 SHL DUP2 MSTORE PUSH1 0x1 PUSH1 0x1 PUSH1 0xA0 SHL SUB SWAP2 SWAP1 SWAP2 AND PUSH1 0x4 DUP3 ADD MSTORE PUSH1 0x24 DUP2 ADD SWAP2 SWAP1 SWAP2 MSTORE PUSH1 0x44 DUP2 ADD DUP4 SWAP1 MSTORE PUSH1 0x64 SWAP1 REVERT JUMPDEST PUSH1 0x40 MLOAD PUSH3 0x461BCD PUSH1 0xE5 SHL DUP2 MSTORE PUSH1 0x20 PUSH1 0x4 DUP3 ADD MSTORE SWAP1 DUP2 SWAP1 PUSH2 0x2AF2 SWAP1 PUSH1 0x24 DUP4 ADD SWAP1 PUSH2 0x3089 JUMP JUMPDEST PUSH1 0x40 MLOAD PUSH4 0xEC442F05 PUSH1 0xE0 SHL DUP2 MSTORE PUSH1 0x0 PUSH1 0x4 DUP3 ADD MSTORE PUSH1 0x24 SWAP1 REVERT JUMPDEST PUSH1 0x40 MLOAD PUSH4 0x4B637E8F PUSH1 0xE1 SHL DUP2 MSTORE PUSH1 0x0 PUSH1 0x4 DUP3 ADD MSTORE PUSH1 0x24 SWAP1 REVERT JUMPDEST PUSH1 0xFF PUSH1 0x7 SLOAD AND PUSH2 0x36D5 JUMPI PUSH1 0x1 PUSH1 0x1 PUSH1 0xA0 SHL SUB SWAP1 DUP2 AND PUSH1 0x0 DUP2 DUP2 MSTORE PUSH1 0x25 PUSH1 0x20 MSTORE PUSH1 0x40 DUP2 KECCAK256 SLOAD SWAP1 SWAP4 SWAP1 PUSH1 0xFF AND DUP1 ISZERO PUSH2 0x36C2 JUMPI JUMPDEST PUSH2 0x36B9 JUMPI DUP2 DUP5 MSTORE PUSH1 0x24 PUSH1 0x20 MSTORE DUP3 PUSH1 0xFF PUSH1 0x40 DUP7 KECCAK256 SLOAD AND ISZERO SWAP2 DUP3 ISZERO PUSH2 0x36A5 JUMPI JUMPDEST POP POP PUSH2 0x369D JUMPI PUSH1 0xD SLOAD TIMESTAMP LT SWAP2 DUP3 PUSH2 0x368E JUMPI JUMPDEST POP POP PUSH2 0x3688 JUMPI SWAP1 JUMP JUMPDEST POP PUSH1 0x4 SWAP1 JUMP JUMPDEST PUSH1 0x1F SLOAD AND EQ ISZERO SWAP1 POP CODESIZE DUP1 PUSH2 0x367F JUMP JUMPDEST POP POP POP PUSH1 0x1 SWAP1 JUMP JUMPDEST AND DUP5 MSTORE POP PUSH1 0x40 DUP4 KECCAK256 SLOAD PUSH1 0xFF AND ISZERO DUP3 CODESIZE PUSH2 0x366D JUMP JUMPDEST POP POP POP POP PUSH1 0x3 SWAP1 JUMP JUMPDEST POP DUP3 DUP2 AND DUP5 MSTORE PUSH1 0xFF PUSH1 0x40 DUP6 KECCAK256 SLOAD AND PUSH2 0x364F JUMP JUMPDEST POP POP PUSH1 0x2 SWAP1 JUMP JUMPDEST PUSH1 0xFF AND DUP1 ISZERO PUSH2 0x37FB JUMPI PUSH1 0x1 DUP2 EQ PUSH2 0x37C1 JUMPI PUSH1 0x2 DUP2 EQ PUSH2 0x3794 JUMPI PUSH1 0x3 DUP2 EQ PUSH2 0x3764 JUMPI PUSH1 0x4 EQ PUSH2 0x3733 JUMPI PUSH1 0x40 MLOAD PUSH2 0x3710 DUP2 PUSH2 0x3235 JUMP JUMPDEST PUSH1 0x13 DUP2 MSTORE PUSH19 0x2AB735B737BBB7103932B9BA3934B1BA34B7B7 PUSH1 0x69 SHL PUSH1 0x20 DUP3 ADD MSTORE SWAP1 JUMP JUMPDEST PUSH1 0x40 MLOAD PUSH2 0x373F DUP2 PUSH2 0x3235 JUMP JUMPDEST PUSH1 0x15 DUP2 MSTORE PUSH21 0x4C6F636B2D757020706572696F6420616374697665 PUSH1 0x58 SHL PUSH1 0x20 DUP3 ADD MSTORE SWAP1 JUMP JUMPDEST POP PUSH1 0x40 MLOAD PUSH2 0x3771 DUP2 PUSH2 0x3235 JUMP JUMPDEST PUSH1 0x13 DUP2 MSTORE PUSH19 0x1059191C995CDCC8189B1858DADB1A5CDD1959 PUSH1 0x6A SHL PUSH1 0x20 DUP3 ADD MSTORE SWAP1 JUMP JUMPDEST POP PUSH1 0x40 MLOAD PUSH2 0x37A1 DUP2 PUSH2 0x3235 JUMP JUMPDEST PUSH1 0x10 DUP2 MSTORE PUSH16 0x151C985B9CD9995C9CC81C185D5CD959 PUSH1 0x82 SHL PUSH1 0x20 DUP3 ADD MSTORE SWAP1 JUMP JUMPDEST POP PUSH1 0x40 MLOAD PUSH2 0x37CE DUP2 PUSH2 0x3235 JUMP JUMPDEST PUSH1 0x17 DUP2 MSTORE PUSH32 0x41646472657373206E6F742077686974656C6973746564000000000000000000 PUSH1 0x20 DUP3 ADD MSTORE SWAP1 JUMP JUMPDEST POP PUSH1 0x40 MLOAD PUSH2 0x3808 DUP2 PUSH2 0x3235 JUMP JUMPDEST PUSH1 0x7 DUP2 MSTORE PUSH7 0x53756363657373 PUSH1 0xC8 SHL PUSH1 0x20 DUP3 ADD MSTORE SWAP1 JUMP JUMPDEST SWAP2 SWAP1 DUP3 ADD DUP1 SWAP3 GT PUSH2 0x67C JUMPI JUMP JUMPDEST PUSH1 0x0 NOT DUP2 EQ PUSH2 0x67C JUMPI PUSH1 0x1 ADD SWAP1 JUMP JUMPDEST SWAP2 SWAP1 DUP2 LT ISZERO PUSH2 0x31AD JUMPI PUSH1 0x5 SHL ADD SWAP1 JUMP JUMPDEST CALLDATALOAD PUSH1 0x1 PUSH1 0x1 PUSH1 0xA0 SHL SUB DUP2 AND DUP2 SUB PUSH2 0x3AD JUMPI SWAP1 JUMP JUMPDEST ISZERO PUSH2 0x3866 JUMPI JUMP JUMPDEST PUSH1 0x40 MLOAD PUSH3 0x461BCD PUSH1 0xE5 SHL DUP2 MSTORE PUSH1 0x20 PUSH1 0x4 DUP3 ADD MSTORE PUSH1 0x14 PUSH1 0x24 DUP3 ADD MSTORE PUSH20 0x21B0B63632B91034B9903737BA1034B9B9BAB2B9 PUSH1 0x61 SHL PUSH1 0x44 DUP3 ADD MSTORE PUSH1 0x64 SWAP1 REVERT JUMPDEST ISZERO PUSH2 0x38A9 JUMPI JUMP JUMPDEST PUSH1 0x40 MLOAD PUSH3 0x461BCD PUSH1 0xE5 SHL DUP2 MSTORE PUSH1 0x20 PUSH1 0x4 DUP3 ADD MSTORE PUSH1 0x14 PUSH1 0x24 DUP3 ADD MSTORE PUSH20 0x446562656E74757265206E6F7420616374697665 PUSH1 0x60 SHL PUSH1 0x44 DUP3 ADD MSTORE PUSH1 0x64 SWAP1 REVERT JUMPDEST SWAP1 DUP2 PUSH1 0x60 SWAP2 SUB SLT PUSH2 0x3AD JUMPI DUP1 MLOAD SWAP2 PUSH1 0x40 PUSH1 0x20 DUP4 ADD MLOAD SWAP3 ADD MLOAD SWAP1 JUMP JUMPDEST DUP2 DUP2 MUL SWAP3 SWAP2 DUP2 ISZERO SWAP2 DUP5 DIV EQ OR ISZERO PUSH2 0x67C JUMPI JUMP JUMPDEST PUSH1 0x19 SLOAD PUSH1 0xFF PUSH1 0xE SLOAD AND PUSH2 0x3925 DUP2 PUSH2 0x30F5 JUMP JUMPDEST PUSH1 0x1 DUP2 EQ DUP1 ISZERO PUSH2 0x39C4 JUMPI JUMPDEST ISZERO PUSH2 0x394C JUMPI POP PUSH2 0x3948 PUSH4 0x3B9ACA00 SWAP2 PUSH1 0x27 SLOAD SWAP1 PUSH2 0x3900 JUMP JUMPDEST DIV SWAP1 JUMP JUMPDEST PUSH2 0x3955 DUP2 PUSH2 0x30F5 JUMP JUMPDEST PUSH1 0x3 DUP2 EQ SWAP1 DUP2 ISZERO PUSH2 0x39B0 JUMPI JUMPDEST POP ISZERO PUSH2 0x3999 JUMPI PUSH2 0x3996 SWAP1 PUSH4 0xF053700 PUSH2 0x398F PUSH2 0x3983 PUSH2 0x397E PUSH2 0x3DD8 JUMP JUMPDEST PUSH2 0x3E02 JUMP JUMPDEST PUSH2 0x614 PUSH1 0xF SLOAD DUP6 PUSH2 0x3900 JUMP JUMPDEST DIV SWAP1 PUSH2 0x381F JUMP JUMPDEST SWAP1 JUMP JUMPDEST PUSH2 0x3996 SWAP1 PUSH4 0xF053700 PUSH2 0x398F PUSH2 0x3983 PUSH2 0x397E PUSH2 0x3DD8 JUMP JUMPDEST PUSH1 0x4 SWAP2 POP PUSH2 0x39BD DUP2 PUSH2 0x30F5 JUMP JUMPDEST EQ CODESIZE PUSH2 0x3961 JUMP JUMPDEST POP PUSH2 0x39CE DUP2 PUSH2 0x30F5 JUMP JUMPDEST PUSH1 0x2 DUP2 EQ PUSH2 0x3930 JUMP JUMPDEST PUSH1 0xFF PUSH1 0xE SLOAD AND PUSH2 0x39E6 DUP2 PUSH2 0x30F5 JUMP JUMPDEST PUSH1 0x1 DUP2 EQ DUP1 ISZERO PUSH2 0x3AE1 JUMPI JUMPDEST ISZERO PUSH2 0x3A23 JUMPI POP PUSH1 0x19 SLOAD PUSH1 0x27 SLOAD SWAP2 SWAP1 PUSH4 0x3B9AC9FF NOT DUP4 ADD SWAP1 DUP4 DUP3 GT PUSH2 0x67C JUMPI PUSH4 0x3B9ACA00 SWAP2 PUSH2 0x3A1E SWAP2 PUSH2 0x3900 JUMP JUMPDEST DIV SWAP2 SWAP1 JUMP JUMPDEST PUSH2 0x3A30 PUSH1 0x60 PUSH2 0x1ADB PUSH2 0x3E14 JUMP JUMPDEST SUB SWAP2 GAS STATICCALL SWAP1 DUP2 ISZERO PUSH2 0x1CAD JUMPI PUSH1 0x0 SWAP2 PUSH2 0x3AC1 JUMPI JUMPDEST POP PUSH1 0x0 SWAP1 DUP2 DUP2 SGT ISZERO PUSH2 0x3ABA JUMPI PUSH2 0x2710 SWAP2 POP DIV SWAP1 JUMPDEST PUSH2 0x3A60 DUP2 PUSH2 0x30F5 JUMP JUMPDEST PUSH1 0x3 DUP2 EQ SWAP1 DUP2 ISZERO PUSH2 0x3AA6 JUMPI JUMPDEST POP ISZERO PUSH2 0x3A9C JUMPI PUSH1 0xF SLOAD PUSH2 0x3A7E SWAP2 PUSH2 0x381F JUMP JUMPDEST SWAP1 JUMPDEST PUSH3 0x2673C0 PUSH2 0x3A1E PUSH2 0x3A93 DUP5 PUSH1 0x19 SLOAD PUSH2 0x3900 JUMP JUMPDEST PUSH1 0x11 SLOAD SWAP1 PUSH2 0x3900 JUMP JUMPDEST POP PUSH1 0xF SLOAD SWAP1 PUSH2 0x3A80 JUMP JUMPDEST PUSH1 0x4 SWAP2 POP PUSH2 0x3AB3 DUP2 PUSH2 0x30F5 JUMP JUMPDEST EQ CODESIZE PUSH2 0x3A6C JUMP JUMPDEST POP SWAP1 PUSH2 0x3A57 JUMP JUMPDEST PUSH2 0x3AD9 SWAP2 POP PUSH1 0x60 RETURNDATASIZE DUP2 GT PUSH2 0x1CA6 JUMPI PUSH2 0x1C96 DUP2 DUP4 PUSH2 0x3251 JUMP JUMPDEST POP POP CODESIZE PUSH2 0x3A43 JUMP JUMPDEST POP PUSH2 0x3AEB DUP2 PUSH2 0x30F5 JUMP JUMPDEST PUSH1 0x2 DUP2 EQ PUSH2 0x39F1 JUMP JUMPDEST PUSH1 0x2 PUSH1 0x6 SLOAD EQ PUSH2 0x3B05 JUMPI PUSH1 0x2 PUSH1 0x6 SSTORE JUMP JUMPDEST PUSH1 0x40 MLOAD PUSH4 0x3EE5AEB5 PUSH1 0xE0 SHL DUP2 MSTORE PUSH1 0x4 SWAP1 REVERT JUMPDEST ISZERO PUSH2 0x3B1E JUMPI JUMP JUMPDEST PUSH1 0x40 MLOAD PUSH3 0x461BCD PUSH1 0xE5 SHL DUP2 MSTORE PUSH1 0x20 PUSH1 0x4 DUP3 ADD MSTORE PUSH1 0x14 PUSH1 0x24 DUP3 ADD MSTORE PUSH20 0x92DCECC2D8D2C840C6DEEAE0DEDC40D2DCC8CAF PUSH1 0x63 SHL PUSH1 0x44 DUP3 ADD MSTORE PUSH1 0x64 SWAP1 REVERT JUMPDEST PUSH1 0x40 MLOAD PUSH4 0x23B872DD PUSH1 0xE0 SHL PUSH1 0x20 DUP3 ADD MSTORE PUSH1 0x1 PUSH1 0x1 PUSH1 0xA0 SHL SUB SWAP3 DUP4 AND PUSH1 0x24 DUP3 ADD MSTORE SWAP3 SWAP1 SWAP2 AND PUSH1 0x44 DUP4 ADD MSTORE PUSH1 0x64 DUP1 DUP4 ADD SWAP4 SWAP1 SWAP4 MSTORE SWAP2 DUP2 MSTORE PUSH1 0xA0 DUP2 ADD SWAP2 DUP2 DUP4 LT PUSH8 0xFFFFFFFFFFFFFFFF DUP5 GT OR PUSH2 0x1860 JUMPI PUSH2 0x3BB3 SWAP3 PUSH1 0x40 MSTORE PUSH2 0x3BB5 JUMP JUMPDEST JUMP JUMPDEST SWAP1 PUSH1 0x0 PUSH1 0x20 SWAP2 DUP3 DUP2 MLOAD SWAP2 ADD DUP3 DUP6 GAS CALL ISZERO PUSH2 0x1CAD JUMPI PUSH1 0x0 MLOAD RETURNDATASIZE PUSH2 0x3C08 JUMPI POP PUSH1 0x1 PUSH1 0x1 PUSH1 0xA0 SHL SUB DUP2 AND EXTCODESIZE ISZERO JUMPDEST PUSH2 0x3BE6 JUMPI POP JUMP JUMPDEST PUSH1 0x40 MLOAD PUSH4 0x5274AFE7 PUSH1 0xE0 SHL DUP2 MSTORE PUSH1 0x1 PUSH1 0x1 PUSH1 0xA0 SHL SUB SWAP1 SWAP2 AND PUSH1 0x4 DUP3 ADD MSTORE PUSH1 0x24 SWAP1 REVERT JUMPDEST PUSH1 0x1 EQ ISZERO PUSH2 0x3BDF JUMP JUMPDEST ISZERO PUSH2 0x3C18 JUMPI JUMP JUMPDEST PUSH1 0x40 MLOAD PUSH3 0x461BCD PUSH1 0xE5 SHL DUP2 MSTORE PUSH1 0x20 PUSH1 0x4 DUP3 ADD MSTORE PUSH1 0xA PUSH1 0x24 DUP3 ADD MSTORE PUSH10 0x4E6F2062616C616E6365 PUSH1 0xB0 SHL PUSH1 0x44 DUP3 ADD MSTORE PUSH1 0x64 SWAP1 REVERT JUMPDEST PUSH1 0x40 MLOAD PUSH4 0xA9059CBB PUSH1 0xE0 SHL PUSH1 0x20 DUP3 ADD MSTORE PUSH1 0x1 PUSH1 0x1 PUSH1 0xA0 SHL SUB SWAP1 SWAP3 AND PUSH1 0x24 DUP4 ADD MSTORE PUSH1 0x44 DUP1 DUP4 ADD SWAP4 SWAP1 SWAP4 MSTORE SWAP2 DUP2 MSTORE PUSH2 0x3BB3 SWAP2 PUSH2 0x3C83 DUP3 PUSH2 0x3219 JUMP JUMPDEST PUSH2 0x3BB5 JUMP JUMPDEST PUSH1 0x1 PUSH1 0x1 PUSH1 0xA0 SHL SUB AND PUSH1 0x0 SWAP1 DUP2 MSTORE PUSH1 0x20 DUP2 SWAP1 MSTORE PUSH1 0x40 DUP2 KECCAK256 SLOAD SWAP1 SWAP2 DUP3 SWAP2 DUP3 DUP2 ISZERO PUSH2 0x3D26 JUMPI PUSH1 0x40 SWAP1 PUSH1 0x26 PUSH1 0x20 MSTORE KECCAK256 SLOAD SWAP1 PUSH1 0x22 SLOAD SWAP1 JUMPDEST DUP2 DUP4 LT PUSH2 0x3CC7 JUMPI POP POP POP JUMP JUMPDEST SWAP1 SWAP2 SWAP4 SWAP5 PUSH2 0x3CD4 DUP6 PUSH2 0x3172 JUMP JUMPDEST POP PUSH1 0x6 DUP2 ADD SLOAD PUSH1 0x8 SHR PUSH1 0xFF AND ISZERO PUSH2 0x3D1E JUMPI PUSH2 0x3D0B PUSH2 0x3D17 SWAP3 PUSH3 0xF4240 PUSH2 0x398F DUP7 PUSH2 0x614 DUP7 PUSH1 0x5 PUSH1 0x4 PUSH2 0x3D11 SWAP10 ADD SLOAD SWAP2 ADD SLOAD SWAP1 PUSH2 0x381F JUMP JUMPDEST SWAP7 PUSH2 0x382C JUMP JUMPDEST SWAP5 PUSH2 0x382C JUMP JUMPDEST SWAP2 SWAP1 PUSH2 0x3CBB JUMP JUMPDEST POP SWAP5 SWAP4 POP POP POP JUMP JUMPDEST SWAP4 POP DUP4 SWAP3 POP POP JUMP JUMPDEST ISZERO PUSH2 0x3D35 JUMPI JUMP JUMPDEST PUSH1 0x40 MLOAD PUSH3 0x461BCD PUSH1 0xE5 SHL DUP2 MSTORE PUSH1 0x20 PUSH1 0x4 DUP3 ADD MSTORE PUSH1 0x15 PUSH1 0x24 DUP3 ADD MSTORE PUSH21 0x43616C6C6572206973206E6F742074727573746565 PUSH1 0x58 SHL PUSH1 0x44 DUP3 ADD MSTORE PUSH1 0x64 SWAP1 REVERT JUMPDEST PUSH1 0x22 SLOAD DUP1 ISZERO PUSH2 0x3DB3 JUMPI PUSH1 0x0 NOT DUP2 ADD SWAP1 DUP2 GT PUSH2 0x67C JUMPI PUSH2 0x3D90 SWAP1 PUSH2 0x3172 JUMP JUMPDEST POP SLOAD PUSH1 0x11 SLOAD PUSH3 0x15180 SWAP1 DUP2 DUP2 MUL SWAP2 DUP2 DUP4 DIV EQ SWAP1 ISZERO OR ISZERO PUSH2 0x67C JUMPI PUSH2 0x3996 SWAP2 PUSH2 0x381F JUMP JUMPDEST POP PUSH1 0xA SLOAD PUSH1 0x11 SLOAD PUSH3 0x15180 SWAP1 DUP2 DUP2 MUL SWAP2 DUP2 DUP4 DIV EQ SWAP1 ISZERO OR ISZERO PUSH2 0x67C JUMPI PUSH2 0x3996 SWAP2 PUSH2 0x381F JUMP JUMPDEST PUSH1 0x22 SLOAD DUP1 ISZERO PUSH2 0x3DFB JUMPI PUSH1 0x0 NOT DUP2 ADD SWAP1 DUP2 GT PUSH2 0x67C JUMPI PUSH2 0x3DF6 SWAP1 PUSH2 0x3172 JUMP JUMPDEST POP SLOAD SWAP1 JUMP JUMPDEST POP PUSH1 0xA SLOAD SWAP1 JUMP JUMPDEST TIMESTAMP SUB TIMESTAMP DUP2 GT PUSH2 0x67C JUMPI PUSH3 0x15180 SWAP1 DIV SWAP1 JUMP JUMPDEST PUSH1 0xFF PUSH1 0xE SLOAD AND PUSH2 0x3E23 DUP2 PUSH2 0x30F5 JUMP JUMPDEST PUSH1 0x3 DUP2 EQ PUSH2 0x3ECB JUMPI PUSH2 0x3E34 DUP2 PUSH2 0x30F5 JUMP JUMPDEST PUSH1 0x4 DUP2 EQ PUSH2 0x3EAA JUMPI PUSH2 0x3E45 DUP2 PUSH2 0x30F5 JUMP JUMPDEST PUSH1 0x1 DUP2 EQ SWAP1 DUP2 ISZERO PUSH2 0x3E96 JUMPI JUMPDEST POP PUSH2 0x3E77 JUMPI PUSH1 0x40 MLOAD PUSH2 0x3E62 DUP2 PUSH2 0x3235 JUMP JUMPDEST PUSH1 0x5 DUP2 MSTORE PUSH5 0x53454C4943 PUSH1 0xD8 SHL PUSH1 0x20 DUP3 ADD MSTORE SWAP1 JUMP JUMPDEST PUSH1 0x40 MLOAD PUSH2 0x3E83 DUP2 PUSH2 0x3235 JUMP JUMPDEST PUSH1 0x3 DUP2 MSTORE PUSH3 0x434449 PUSH1 0xE8 SHL PUSH1 0x20 DUP3 ADD MSTORE SWAP1 JUMP JUMPDEST PUSH1 0x2 SWAP2 POP PUSH2 0x3EA3 DUP2 PUSH2 0x30F5 JUMP JUMPDEST EQ CODESIZE PUSH2 0x3E51 JUMP JUMPDEST POP PUSH1 0x40 MLOAD PUSH2 0x3EB7 DUP2 PUSH2 0x3235 JUMP JUMPDEST PUSH1 0x4 DUP2 MSTORE PUSH4 0x4947504D PUSH1 0xE0 SHL PUSH1 0x20 DUP3 ADD MSTORE SWAP1 JUMP JUMPDEST POP PUSH1 0x40 MLOAD PUSH2 0x3ED8 DUP2 PUSH2 0x3235 JUMP JUMPDEST PUSH1 0x4 DUP2 MSTORE PUSH4 0x49504341 PUSH1 0xE0 SHL PUSH1 0x20 DUP3 ADD MSTORE SWAP1 JUMP JUMPDEST PUSH2 0x3EF5 SWAP1 PUSH2 0x3273 JUMP JUMPDEST POP PUSH1 0xFF PUSH1 0x12 SLOAD AND SWAP1 PUSH1 0x3 DUP3 LT ISZERO PUSH2 0x27D7 JUMPI PUSH1 0x2 DUP3 SUB PUSH2 0x3F17 JUMPI PUSH1 0x1 SWAP2 POP ADD SLOAD SWAP1 JUMP JUMPDEST PUSH2 0x2710 SWAP2 PUSH2 0x3F31 JUMPI PUSH2 0x3948 SWAP1 PUSH1 0x1 PUSH1 0x8 SLOAD SWAP2 ADD SLOAD SWAP1 PUSH2 0x3900 JUMP JUMPDEST PUSH2 0x3948 SWAP1 PUSH1 0x1 PUSH1 0x19 SLOAD SWAP2 ADD SLOAD SWAP1 PUSH2 0x3900 JUMP INVALID GT 0x4E PUSH21 0xF6EA3BD819998F78687BFCB11B140DA08E9B7D222F 0xA9 0xC1 CALL 0xBA 0x1F 0x2A LOG1 0x22 LOG2 PUSH5 0x6970667358 0x22 SLT KECCAK256 0x5D CALLDATASIZE TIMESTAMP DUP12 MULMOD MSTORE8 SWAP8 DUP3 COINBASE PUSH23 0xF8B820BF3D1929CFF67B1C39CD92EB0CBF05461BFE4A64 PUSH20 0x6F6C634300081400332F8788117E7EFF1D82E926 0xEC PUSH26 0x4901D17C78024A50270940304540A733656F0D55F448FDEA98C4 0xD2 SWAP15 0xB3 BLOCKHASH PUSH22 0x7EF0A66CD03DBB9538908A6A81D96026B71EC47566DE DUP16 REVERT 0xA7 SWAP8 0xE3 0xDE SWAP13 SDIV 0xE8 0xFC JUMPI 0xB3 0xBF 0xE 0xC2 DUP11 SWAP4 0xD BLOCKHASH 0xB0 0xD2 DUP6 0xD9 EXTCODECOPY MOD POP SHR 0xF6 LOG0 SWAP1 0xCE PUSH14 0x7B5282BD9A3661AE061FEED1DBDA 0x4E MSTORE 0xAB SMOD EXTCODESIZE 0x1F SWAP3 DUP6 0xBE PUSH15 0x155D9C38D4ECA26469706673582212 KECCAK256 SWAP4 0xD PUSH22 0xB8771472C9884F0941BA5ACB4CCBE60BCFE0442F5EC DUP16 NOT PUSH5 0x3F32AA6F64 PUSH20 0x6F6C634300081400330000000000000000000000 "},"methodIdentifiers":{"allDebentures(uint256)":"496b67d4","createDebenture(string,string,(uint256,uint256,uint256,uint256,uint8,uint256,uint8,uint256,uint256,uint256,uint8,string,string,string,bool,bool,bytes32),address,address)":"5796c00b","createDebentureFromTemplate(string,string,string,(uint256,uint256,uint256,uint256,uint8,uint256,uint8,uint256,uint256,uint256,uint8,string,string,string,bool,bool,bytes32),address)":"78e21273","deactivateTemplate(string)":"1ce3df95","debenturesByISIN(string)":"bc8aa678","defaultPaymentToken()":"6412173e","getAllTemplateIds()":"ae24ccbc","getDebentureAtIndex(uint256)":"cea84265","getDebentureByISIN(string)":"f2295bfb","getDebentureCount()":"e2156e05","getIssuerDebentures(address)":"76bb7d5e","getTemplate(string)":"7d67cd6f","getTemplateCount()":"5016959a","issuerDebentures(address,uint256)":"d6ac1d4c","oracle()":"7dc0d1d0","owner()":"8da5cb5b","reactivateTemplate(string)":"bb4c4001","renounceOwnership()":"715018a6","setDefaultPaymentToken(address)":"f74b059e","setOracle(address)":"7adbf973","templateIds(uint256)":"f36cb7a7","templates(string)":"b22beeda","transferOwnership(address)":"f2fde38b","upsertTemplate(string,string,string,uint256,uint8)":"e3726aa1"}}}}}