{
  "_format": "hh-sol-artifact-1",
  "contractName": "DebentureCloneFactory",
  "sourceName": "contracts/DebentureCloneFactory.sol",
  "abi": [
    {
      "inputs": [
        {
          "internalType": "address",
          "name": "_implementation",
          "type": "address"
        },
        {
          "internalType": "address",
          "name": "_oracle",
          "type": "address"
        },
        {
          "internalType": "address",
          "name": "_defaultPaymentToken",
          "type": "address"
        }
      ],
      "stateMutability": "nonpayable",
      "type": "constructor"
    },
    {
      "inputs": [],
      "name": "FailedDeployment",
      "type": "error"
    },
    {
      "inputs": [
        {
          "internalType": "uint256",
          "name": "balance",
          "type": "uint256"
        },
        {
          "internalType": "uint256",
          "name": "needed",
          "type": "uint256"
        }
      ],
      "name": "InsufficientBalance",
      "type": "error"
    },
    {
      "inputs": [
        {
          "internalType": "address",
          "name": "owner",
          "type": "address"
        }
      ],
      "name": "OwnableInvalidOwner",
      "type": "error"
    },
    {
      "inputs": [
        {
          "internalType": "address",
          "name": "account",
          "type": "address"
        }
      ],
      "name": "OwnableUnauthorizedAccount",
      "type": "error"
    },
    {
      "anonymous": false,
      "inputs": [
        {
          "indexed": true,
          "internalType": "address",
          "name": "debentureAddress",
          "type": "address"
        },
        {
          "indexed": true,
          "internalType": "string",
          "name": "isinCode",
          "type": "string"
        },
        {
          "indexed": false,
          "internalType": "string",
          "name": "name",
          "type": "string"
        },
        {
          "indexed": false,
          "internalType": "string",
          "name": "symbol",
          "type": "string"
        },
        {
          "indexed": true,
          "internalType": "address",
          "name": "issuer",
          "type": "address"
        },
        {
          "indexed": false,
          "internalType": "uint256",
          "name": "vne",
          "type": "uint256"
        },
        {
          "indexed": false,
          "internalType": "uint256",
          "name": "totalSupply",
          "type": "uint256"
        }
      ],
      "name": "DebentureCreated",
      "type": "event"
    },
    {
      "anonymous": false,
      "inputs": [
        {
          "indexed": true,
          "internalType": "address",
          "name": "oldToken",
          "type": "address"
        },
        {
          "indexed": true,
          "internalType": "address",
          "name": "newToken",
          "type": "address"
        }
      ],
      "name": "DefaultPaymentTokenUpdated",
      "type": "event"
    },
    {
      "anonymous": false,
      "inputs": [
        {
          "indexed": true,
          "internalType": "address",
          "name": "issuer",
          "type": "address"
        },
        {
          "indexed": false,
          "internalType": "bool",
          "name": "authorized",
          "type": "bool"
        }
      ],
      "name": "IssuerAuthorized",
      "type": "event"
    },
    {
      "anonymous": false,
      "inputs": [
        {
          "indexed": true,
          "internalType": "address",
          "name": "oldOracle",
          "type": "address"
        },
        {
          "indexed": true,
          "internalType": "address",
          "name": "newOracle",
          "type": "address"
        }
      ],
      "name": "OracleUpdated",
      "type": "event"
    },
    {
      "anonymous": false,
      "inputs": [
        {
          "indexed": true,
          "internalType": "address",
          "name": "previousOwner",
          "type": "address"
        },
        {
          "indexed": true,
          "internalType": "address",
          "name": "newOwner",
          "type": "address"
        }
      ],
      "name": "OwnershipTransferred",
      "type": "event"
    },
    {
      "inputs": [
        {
          "internalType": "uint256",
          "name": "",
          "type": "uint256"
        }
      ],
      "name": "allDebentures",
      "outputs": [
        {
          "internalType": "address",
          "name": "",
          "type": "address"
        }
      ],
      "stateMutability": "view",
      "type": "function"
    },
    {
      "inputs": [
        {
          "internalType": "address",
          "name": "",
          "type": "address"
        }
      ],
      "name": "authorizedIssuers",
      "outputs": [
        {
          "internalType": "bool",
          "name": "",
          "type": "bool"
        }
      ],
      "stateMutability": "view",
      "type": "function"
    },
    {
      "inputs": [
        {
          "internalType": "address[]",
          "name": "issuers",
          "type": "address[]"
        }
      ],
      "name": "batchAuthorizeIssuers",
      "outputs": [],
      "stateMutability": "nonpayable",
      "type": "function"
    },
    {
      "inputs": [
        {
          "internalType": "string",
          "name": "name",
          "type": "string"
        },
        {
          "internalType": "string",
          "name": "symbol",
          "type": "string"
        },
        {
          "components": [
            {
              "internalType": "uint256",
              "name": "vne",
              "type": "uint256"
            },
            {
              "internalType": "uint256",
              "name": "totalSupplyUnits",
              "type": "uint256"
            },
            {
              "internalType": "uint256",
              "name": "issueDate",
              "type": "uint256"
            },
            {
              "internalType": "uint256",
              "name": "maturityDate",
              "type": "uint256"
            },
            {
              "internalType": "uint8",
              "name": "anniversaryDay",
              "type": "uint8"
            },
            {
              "internalType": "uint256",
              "name": "lockUpEndDate",
              "type": "uint256"
            },
            {
              "internalType": "enum BrazilianDebentureCloneable.RateType",
              "name": "rateType",
              "type": "uint8"
            },
            {
              "internalType": "uint256",
              "name": "fixedRate",
              "type": "uint256"
            },
            {
              "internalType": "uint8",
              "name": "percentDI",
              "type": "uint8"
            },
            {
              "internalType": "uint256",
              "name": "couponFrequencyDays",
              "type": "uint256"
            },
            {
              "internalType": "enum BrazilianDebentureCloneable.AmortizationType",
              "name": "amortType",
              "type": "uint8"
            },
            {
              "internalType": "string",
              "name": "isinCode",
              "type": "string"
            },
            {
              "internalType": "string",
              "name": "cetipCode",
              "type": "string"
            },
            {
              "internalType": "string",
              "name": "series",
              "type": "string"
            },
            {
              "internalType": "bool",
              "name": "hasRepactuacao",
              "type": "bool"
            },
            {
              "internalType": "bool",
              "name": "hasEarlyRedemption",
              "type": "bool"
            },
            {
              "internalType": "bytes32",
              "name": "comboId",
              "type": "bytes32"
            }
          ],
          "internalType": "struct BrazilianDebentureCloneable.DebentureTerms",
          "name": "terms",
          "type": "tuple"
        },
        {
          "internalType": "address",
          "name": "paymentToken",
          "type": "address"
        },
        {
          "internalType": "address",
          "name": "trustee",
          "type": "address"
        }
      ],
      "name": "createDebenture",
      "outputs": [
        {
          "internalType": "address",
          "name": "debentureAddress",
          "type": "address"
        }
      ],
      "stateMutability": "nonpayable",
      "type": "function"
    },
    {
      "inputs": [
        {
          "internalType": "string",
          "name": "name",
          "type": "string"
        },
        {
          "internalType": "string",
          "name": "symbol",
          "type": "string"
        },
        {
          "components": [
            {
              "internalType": "uint256",
              "name": "vne",
              "type": "uint256"
            },
            {
              "internalType": "uint256",
              "name": "totalSupplyUnits",
              "type": "uint256"
            },
            {
              "internalType": "uint256",
              "name": "issueDate",
              "type": "uint256"
            },
            {
              "internalType": "uint256",
              "name": "maturityDate",
              "type": "uint256"
            },
            {
              "internalType": "uint8",
              "name": "anniversaryDay",
              "type": "uint8"
            },
            {
              "internalType": "uint256",
              "name": "lockUpEndDate",
              "type": "uint256"
            },
            {
              "internalType": "enum BrazilianDebentureCloneable.RateType",
              "name": "rateType",
              "type": "uint8"
            },
            {
              "internalType": "uint256",
              "name": "fixedRate",
              "type": "uint256"
            },
            {
              "internalType": "uint8",
              "name": "percentDI",
              "type": "uint8"
            },
            {
              "internalType": "uint256",
              "name": "couponFrequencyDays",
              "type": "uint256"
            },
            {
              "internalType": "enum BrazilianDebentureCloneable.AmortizationType",
              "name": "amortType",
              "type": "uint8"
            },
            {
              "internalType": "string",
              "name": "isinCode",
              "type": "string"
            },
            {
              "internalType": "string",
              "name": "cetipCode",
              "type": "string"
            },
            {
              "internalType": "string",
              "name": "series",
              "type": "string"
            },
            {
              "internalType": "bool",
              "name": "hasRepactuacao",
              "type": "bool"
            },
            {
              "internalType": "bool",
              "name": "hasEarlyRedemption",
              "type": "bool"
            },
            {
              "internalType": "bytes32",
              "name": "comboId",
              "type": "bytes32"
            }
          ],
          "internalType": "struct BrazilianDebentureCloneable.DebentureTerms",
          "name": "terms",
          "type": "tuple"
        },
        {
          "internalType": "address",
          "name": "paymentToken",
          "type": "address"
        },
        {
          "internalType": "address",
          "name": "trustee",
          "type": "address"
        },
        {
          "internalType": "bytes32",
          "name": "salt",
          "type": "bytes32"
        }
      ],
      "name": "createDeterministicDebenture",
      "outputs": [
        {
          "internalType": "address",
          "name": "debentureAddress",
          "type": "address"
        }
      ],
      "stateMutability": "nonpayable",
      "type": "function"
    },
    {
      "inputs": [
        {
          "internalType": "string",
          "name": "",
          "type": "string"
        }
      ],
      "name": "debenturesByISIN",
      "outputs": [
        {
          "internalType": "address",
          "name": "",
          "type": "address"
        }
      ],
      "stateMutability": "view",
      "type": "function"
    },
    {
      "inputs": [],
      "name": "defaultPaymentToken",
      "outputs": [
        {
          "internalType": "address",
          "name": "",
          "type": "address"
        }
      ],
      "stateMutability": "view",
      "type": "function"
    },
    {
      "inputs": [],
      "name": "getAllDebentures",
      "outputs": [
        {
          "internalType": "address[]",
          "name": "",
          "type": "address[]"
        }
      ],
      "stateMutability": "view",
      "type": "function"
    },
    {
      "inputs": [
        {
          "internalType": "uint256",
          "name": "index",
          "type": "uint256"
        }
      ],
      "name": "getDebentureInfo",
      "outputs": [
        {
          "internalType": "address",
          "name": "debentureAddress",
          "type": "address"
        },
        {
          "internalType": "string",
          "name": "name",
          "type": "string"
        },
        {
          "internalType": "string",
          "name": "symbol",
          "type": "string"
        },
        {
          "internalType": "string",
          "name": "isinCode",
          "type": "string"
        },
        {
          "internalType": "uint256",
          "name": "vne",
          "type": "uint256"
        },
        {
          "internalType": "uint256",
          "name": "totalSupply",
          "type": "uint256"
        }
      ],
      "stateMutability": "view",
      "type": "function"
    },
    {
      "inputs": [
        {
          "internalType": "address",
          "name": "issuer",
          "type": "address"
        }
      ],
      "name": "getIssuerDebentures",
      "outputs": [
        {
          "internalType": "address[]",
          "name": "",
          "type": "address[]"
        }
      ],
      "stateMutability": "view",
      "type": "function"
    },
    {
      "inputs": [],
      "name": "getTotalDebentures",
      "outputs": [
        {
          "internalType": "uint256",
          "name": "",
          "type": "uint256"
        }
      ],
      "stateMutability": "view",
      "type": "function"
    },
    {
      "inputs": [],
      "name": "implementation",
      "outputs": [
        {
          "internalType": "address",
          "name": "",
          "type": "address"
        }
      ],
      "stateMutability": "view",
      "type": "function"
    },
    {
      "inputs": [
        {
          "internalType": "string",
          "name": "isinCode",
          "type": "string"
        }
      ],
      "name": "isinExists",
      "outputs": [
        {
          "internalType": "bool",
          "name": "",
          "type": "bool"
        }
      ],
      "stateMutability": "view",
      "type": "function"
    },
    {
      "inputs": [
        {
          "internalType": "address",
          "name": "",
          "type": "address"
        },
        {
          "internalType": "uint256",
          "name": "",
          "type": "uint256"
        }
      ],
      "name": "issuerDebentures",
      "outputs": [
        {
          "internalType": "address",
          "name": "",
          "type": "address"
        }
      ],
      "stateMutability": "view",
      "type": "function"
    },
    {
      "inputs": [],
      "name": "oracle",
      "outputs": [
        {
          "internalType": "address",
          "name": "",
          "type": "address"
        }
      ],
      "stateMutability": "view",
      "type": "function"
    },
    {
      "inputs": [],
      "name": "owner",
      "outputs": [
        {
          "internalType": "address",
          "name": "",
          "type": "address"
        }
      ],
      "stateMutability": "view",
      "type": "function"
    },
    {
      "inputs": [
        {
          "internalType": "bytes32",
          "name": "salt",
          "type": "bytes32"
        }
      ],
      "name": "predictDeterministicAddress",
      "outputs": [
        {
          "internalType": "address",
          "name": "",
          "type": "address"
        }
      ],
      "stateMutability": "view",
      "type": "function"
    },
    {
      "inputs": [],
      "name": "renounceOwnership",
      "outputs": [],
      "stateMutability": "nonpayable",
      "type": "function"
    },
    {
      "inputs": [
        {
          "internalType": "address",
          "name": "issuer",
          "type": "address"
        },
        {
          "internalType": "bool",
          "name": "authorized",
          "type": "bool"
        }
      ],
      "name": "setAuthorizedIssuer",
      "outputs": [],
      "stateMutability": "nonpayable",
      "type": "function"
    },
    {
      "inputs": [
        {
          "internalType": "address",
          "name": "_token",
          "type": "address"
        }
      ],
      "name": "setDefaultPaymentToken",
      "outputs": [],
      "stateMutability": "nonpayable",
      "type": "function"
    },
    {
      "inputs": [
        {
          "internalType": "address",
          "name": "_oracle",
          "type": "address"
        }
      ],
      "name": "setOracle",
      "outputs": [],
      "stateMutability": "nonpayable",
      "type": "function"
    },
    {
      "inputs": [
        {
          "internalType": "address",
          "name": "newOwner",
          "type": "address"
        }
      ],
      "name": "transferOwnership",
      "outputs": [],
      "stateMutability": "nonpayable",
      "type": "function"
    }
  ],
  "bytecode": "0x60a034620001bd57601f62001a2338819003918201601f1916830191906001600160401b03831184841017620001c2578160609285926040958652833981010312620001bd576200005082620001d8565b916200006c826200006460208401620001d8565b9201620001d8565b903315620001a55760008054336001600160a01b0319808316821784558651939590946001600160a01b0394919390929085167f8be0079c531659141344cd1fd0a4f28419497f9722a3daafe3b4186f6b6457e08880a383881615620001635750821680156200012e57859660805283600154161760015516906002541617600255338152600660205220600160ff19825416179055516118359081620001ee82396080518181816109f701528181610dbe01528181610e2201526110960152f35b855162461bcd60e51b815260206004820152600e60248201526d496e76616c6964206f7261636c6560901b6044820152606490fd5b62461bcd60e51b815260206004820152601660248201527f496e76616c696420696d706c656d656e746174696f6e000000000000000000006044820152606490fd5b8251631e4fbdf760e01b815260006004820152602490fd5b600080fd5b634e487b7160e01b600052604160045260246000fd5b51906001600160a01b0382168203620001bd5756fe6080604052600436101561001257600080fd5b6000803560e01c8063289e14ec14610f50578063357061e114610ecc578063496b67d414610e885780635414dff014610ded5780635c60da1b14610da85780636412173e14610d7f578063715018a614610d2557806376bb7d5e14610cad5780637adbf97314610c065780637dc0d1d014610bdd578063885ddcbb146108a75780638d549846146105795780638da5cb5b14610552578063a3489743146104c3578063bc8aa67814610421578063c111db891461031d578063d6ac1d4c146102c2578063dfd7d317146102a4578063ea5fa01914610246578063f2fde38b146101bb578063f731fa0f1461017c5763f74b059e1461010f57600080fd5b3461017957602036600319011261017957610128611212565b610130611375565b600280546001600160a01b039283166001600160a01b0319821681179092559091167fa566210e6c55347c190af0a730d7aca425b94bdf45fa78cc018caef4cd258a908380a380f35b80fd5b50346101795760203660031901126101795760209060ff906040906001600160a01b036101a7611212565b168152600684522054166040519015158152f35b5034610179576020366003190112610179576101d5611212565b6101dd611375565b6001600160a01b0390811690811561022d57600054826001600160601b0360a01b821617600055167f8be0079c531659141344cd1fd0a4f28419497f9722a3daafe3b4186f6b6457e0600080a380f35b604051631e4fbdf760e01b815260048101849052602490fd5b503461017957602036600319011261017957600435906001600160401b03821161017957602061027936600485016111b9565b80604051928337600490820190815281900382019020546040516001600160a01b0390911615158152f35b50346101795780600319360112610179576020600354604051908152f35b5034610179576040366003190112610179576102dc611212565b6001600160a01b03908116825260056020526040822080546024359390841015610179575060209261030d91611282565b9190546040519260031b1c168152f35b50346101795760208060031936011261041d576001600160401b03600435818111610419573660238201121561041957806004013591821161041957602492838201918436918560051b01011161041557610376611375565b845b838110610383578580f35b6001600160a01b038061039f61039a848888611756565b611766565b168752600683527f323f1985f95ab4281ac5356feae087f07598411565971dd57673e77bf9aecea88360408920926001938460ff198254161790556103e861039a868a8a611756565b1692604051908152a2600019811461040257600101610378565b634e487b7160e01b865260116004528486fd5b8480fd5b8380fd5b5080fd5b5034610179576020366003190112610179576004356001600160401b03811161041d573660238201121561041d57806004013561045d8161135a565b9061046b6040519283611339565b8082526020820192366024838301011161041557816020959260248793018637830101526104a1604051928392519283916112de565b600490820190815281900382019020546040516001600160a01b039091168152f35b5034610179578060031936011261017957604051600380548083529083526020808301937fc2575a0e9e593c00f959f8c92f12db2869c3395a3b0502d05e2516446f71f85b92915b8282106105325761052e8561052281890382611339565b6040519182918261129a565b0390f35b83546001600160a01b03168652948501946001938401939091019061050b565b5034610179578060031936011261017957546040516001600160a01b039091168152602090f35b503461017957602090816003193601126101795760043560035481101561086c576105a390611235565b90546040516306fdde0360e01b815260039290921b1c6001600160a01b031691908181600481865afa908115610861578291610847575b506040516395d89b4160e01b81528281600481875afa90811561083c57839161081a575b50604051634173b41760e01b81528381600481885afa93841561080e57809461067e575b505061066f90610661610160850151916106538887519701519560c06040519a8b9a8b528a015260c0890190611301565b908782036040890152611301565b908582036060870152611301565b91608084015260a08301520390f35b909193503d8082843e6106918184611339565b82019086838303126101795782516001600160401b039384821161080a57019161022093848483031261080a57604051948501858110828211176107f45760405283518552888401518986015260408401516040860152606084015160608601526106fe608085016117e4565b608086015260a084015160a086015260c084015160058110156104195760c086015260e084015160e08601526101006107388186016117e4565b908601526101208085015190860152610140808501519060038210156104155786015261016080850151828111610415578361077591870161177a565b9086015261018080850151828111610415578361079391870161177a565b908601526101a0928385015191821161017957508392916107b99161066f96950161177a565b908301526101c06107cb8183016117f2565b908301526101e06107dd8183016117f2565b908301526102008091015190820152929038610622565b634e487b7160e01b600052604160045260246000fd5b8280fd5b604051903d90823e3d90fd5b61083691503d8085833e61082e8183611339565b8101906117bf565b386105fe565b6040513d85823e3d90fd5b61085b91503d8084833e61082e8183611339565b386105da565b6040513d84823e3d90fd5b60405162461bcd60e51b8152600481018490526013602482015272496e646578206f7574206f6620626f756e647360681b6044820152606490fd5b50346101795760031960a03682011261041d576001600160401b03600435818111610419576108da9036906004016111b9565b90602435838111610bd9576108f39036906004016111b9565b94909360443511610bd9576102209060443536030112610415576109156111e6565b9361091e6111fc565b94338752600660205260ff6040882054168015610bc6575b61093f906113a1565b610961600c610959610164604435016044356004016113e5565b905014611417565b6109a2610979610164604435016044356004016113e5565b90816040519182376004918101918252908190036020019020546001600160a01b031615611457565b6001600160a01b038116610bc057506002546001600160a01b0316945b6109d36001600160a01b0387161515611499565b6001600160a01b038116610bba575033945b6e5af43d82803e903d91602b57fd5bf37f0000000000000000000000000000000000000000000000000000000000000000763d602d80600a3d3981f3363d3d373d3d3d363d7300000062ffffff8260881c1617895260781b176020526037600988f06001600160a01b038116969091908715610ba8576001548991906001600160a01b0316893b1561080a57610a9f86928989968c946040519889978897630ac1ba8760e31b895233956044356004019360048b0161153e565b0381838b5af18015610b9d57610b85575b50917f6cff86004ab7a564db40806c1e028b796e9021eee0e9eae98470cef4511231c091610b3084604060209a610ae78b986116c5565b8b610afd610164604435016044356004016113e5565b9190828551938492833781016004815203019020886001600160601b0360a01b82541617905533815260058c5220611702565b610b7a610b48610164604435016044356004016113e5565b90816040519283928337810160008152039020956040519384933399602460443501359360443560040135938761171f565b0390a4604051908152f35b610b8f8891611326565b610b995738610ab0565b8680fd5b6040513d8a823e3d90fd5b60405163b06ebf3d60e01b8152600490fd5b946109e5565b946109bf565b5086546001600160a01b03163314610936565b8580fd5b50346101795780600319360112610179576001546040516001600160a01b039091168152602090f35b503461017957602036600319011261017957610c20611212565b610c28611375565b6001600160a01b03908116908115610c7757600154826001600160601b0360a01b821617600155167f078c3b417dadf69374a59793b829c52001247130433427049317bde56607b1b78380a380f35b60405162461bcd60e51b815260206004820152600e60248201526d496e76616c6964206f7261636c6560901b6044820152606490fd5b50346101795760208060031936011261041d576001600160a01b039182610cd2611212565b168152600582526040812092604051908193808654938481520195845280842093915b838310610d0c5761052e86610522818a0382611339565b8454811687529581019560019485019490920191610cf5565b5034610179578060031936011261017957610d3e611375565b600080546001600160a01b0319811682556001600160a01b03167f8be0079c531659141344cd1fd0a4f28419497f9722a3daafe3b4186f6b6457e08280a380f35b50346101795780600319360112610179576002546040516001600160a01b039091168152602090f35b50346101795780600319360112610179576040517f00000000000000000000000000000000000000000000000000000000000000006001600160a01b03168152602090f35b50346101795760203660031901126101795760206040513060388201526f5af43d82803e903d91602b57fd5bf3ff60248201527f00000000000000000000000000000000000000000000000000000000000000006014820152733d602d80600a3d3981f3363d3d373d3d3d363d73815260043560588201526037600c82012060788201526055604360018060a01b0392012016604051908152f35b50346101795760203660031901126101795760043590600354821015610179576020610eb383611235565b905460405160039290921b1c6001600160a01b03168152f35b503461017957604036600319011261017957610ee6611212565b60243590811515809203610f4b5760207f323f1985f95ab4281ac5356feae087f07598411565971dd57673e77bf9aecea891610f20611375565b6001600160a01b0316808552600682526040808620805460ff191660ff87161790555193845292a280f35b600080fd5b50346101795760031960c03682011261041d576001600160401b0360043581811161041957610f839036906004016111b9565b90602435838111610bd957610f9c9036906004016111b9565b94909360443511610bd957610220906044353603011261041557610fbe6111e6565b93610fc76111fc565b94338752600660205260ff60408820541680156111a6575b610fe8906113a1565b611002600c610959610164604435016044356004016113e5565b61104161101a610164604435016044356004016113e5565b8060405192833760049082019081528190036020019020546001600160a01b031615611457565b6001600160a01b0381166111a057506002546001600160a01b0316945b6110726001600160a01b0387161515611499565b6001600160a01b03811661119a575033945b6e5af43d82803e903d91602b57fd5bf37f0000000000000000000000000000000000000000000000000000000000000000763d602d80600a3d3981f3363d3d373d3d3d363d7300000062ffffff8260881c1617895260781b1760205260a4356037600989f56001600160a01b038116969091908715610ba8576001548991906001600160a01b0316893b1561080a5761114186928989968c946040519889978897630ac1ba8760e31b895233956044356004019360048b0161153e565b0381838b5af18015610b9d57879492604060209a7f6cff86004ab7a564db40806c1e028b796e9021eee0e9eae98470cef4511231c09694610b309461118b575b50610ae7836116c5565b61119490611326565b38611181565b94611084565b9461105e565b5086546001600160a01b03163314610fdf565b9181601f84011215610f4b578235916001600160401b038311610f4b5760208381860195010111610f4b57565b606435906001600160a01b0382168203610f4b57565b608435906001600160a01b0382168203610f4b57565b600435906001600160a01b0382168203610f4b57565b35908115158203610f4b57565b60035481101561126c5760036000527fc2575a0e9e593c00f959f8c92f12db2869c3395a3b0502d05e2516446f71f85b0190600090565b634e487b7160e01b600052603260045260246000fd5b805482101561126c5760005260206000200190600090565b6020908160408183019282815285518094520193019160005b8281106112c1575050505090565b83516001600160a01b0316855293810193928101926001016112b3565b60005b8381106112f15750506000910152565b81810151838201526020016112e1565b9060209161131a815180928185528580860191016112de565b601f01601f1916010190565b6001600160401b0381116107f457604052565b90601f801991011681019081106001600160401b038211176107f457604052565b6001600160401b0381116107f457601f01601f191660200190565b6000546001600160a01b0316330361138957565b60405163118cdaa760e01b8152336004820152602490fd5b156113a857565b60405162461bcd60e51b81526020600482015260156024820152742737ba1030baba3437b934bd32b21034b9b9bab2b960591b6044820152606490fd5b903590601e1981360301821215610f4b57018035906001600160401b038211610f4b57602001918136038313610f4b57565b1561141e57565b60405162461bcd60e51b8152602060048201526011602482015270496e76616c6964204953494e20636f646560781b6044820152606490fd5b1561145e57565b60405162461bcd60e51b81526020600482015260136024820152724953494e20616c72656164792065786973747360681b6044820152606490fd5b156114a057565b60405162461bcd60e51b815260206004820152601660248201527514185e5b595b9d081d1bdad95b881c995c5d5a5c995960521b6044820152606490fd5b908060209392818452848401376000828201840152601f01601f1916010190565b359060ff82168203610f4b57565b9035601e1982360301811215610f4b5701602081359101916001600160401b038211610f4b578136038313610f4b57565b979998949695939061155d9061156b949360e08b5260e08b01916114de565b9188830360208a01526114de565b9385850360408701528035855260208101356020860152604081013560408601526060810135606086015260ff6115a4608083016114ff565b16608086015260a081013560a086015260c08101356005811015610f4b5760c086015260e081013560e086015261010060ff6115e18284016114ff565b1690860152610120808201359086015261014094858201356003811015610f4b5760c09682015261166a61164e6116326101606116208187018761150d565b909161022080918801528601916114de565b6101806116418187018761150d565b91868403908701526114de565b6101a061165d8186018661150d565b91858403908601526114de565b916101c0611679818301611228565b1515908301526101e061168d818301611228565b151590830152610200908101359101526001600160a01b039182166060870152928116608086015295861660a0850152909416910152565b600354600160401b8110156107f4578060016116e49201600355611235565b819291549060031b9160018060a01b03809116831b921b1916179055565b8054600160401b8110156107f4576116e491600182018155611282565b92909361173e60609561174c94999897996080875260808701916114de565b9184830360208601526114de565b9460408201520152565b919081101561126c5760051b0190565b356001600160a01b0381168103610f4b5790565b81601f82011215610f4b5780516117908161135a565b9261179e6040519485611339565b81845260208284010111610f4b576117bc91602080850191016112de565b90565b90602082820312610f4b5781516001600160401b038111610f4b576117bc920161177a565b519060ff82168203610f4b57565b51908115158203610f4b5756fea26469706673582212200d10ad213e5b2338c913ee2d9e8d10409e655d05bcf724231e266842ad9e329f64736f6c63430008140033",
  "linkReferences": {},
  "deployedLinkReferences": {}
}