{
  "_format": "hh-sol-artifact-1",
  "contractName": "SimpleDebentureRegistry",
  "sourceName": "contracts/SimpleDebentureRegistry.sol",
  "abi": [
    {
      "inputs": [
        {
          "internalType": "address",
          "name": "_oracle",
          "type": "address"
        }
      ],
      "stateMutability": "nonpayable",
      "type": "constructor"
    },
    {
      "inputs": [
        {
          "internalType": "address",
          "name": "owner",
          "type": "address"
        }
      ],
      "name": "OwnableInvalidOwner",
      "type": "error"
    },
    {
      "inputs": [
        {
          "internalType": "address",
          "name": "account",
          "type": "address"
        }
      ],
      "name": "OwnableUnauthorizedAccount",
      "type": "error"
    },
    {
      "anonymous": false,
      "inputs": [
        {
          "indexed": true,
          "internalType": "address",
          "name": "debentureAddress",
          "type": "address"
        },
        {
          "indexed": true,
          "internalType": "string",
          "name": "isinCode",
          "type": "string"
        },
        {
          "indexed": true,
          "internalType": "address",
          "name": "issuer",
          "type": "address"
        }
      ],
      "name": "DebentureRegistered",
      "type": "event"
    },
    {
      "anonymous": false,
      "inputs": [
        {
          "indexed": true,
          "internalType": "address",
          "name": "previousOwner",
          "type": "address"
        },
        {
          "indexed": true,
          "internalType": "address",
          "name": "newOwner",
          "type": "address"
        }
      ],
      "name": "OwnershipTransferred",
      "type": "event"
    },
    {
      "inputs": [
        {
          "internalType": "uint256",
          "name": "",
          "type": "uint256"
        }
      ],
      "name": "allDebentures",
      "outputs": [
        {
          "internalType": "address",
          "name": "",
          "type": "address"
        }
      ],
      "stateMutability": "view",
      "type": "function"
    },
    {
      "inputs": [
        {
          "internalType": "string",
          "name": "",
          "type": "string"
        }
      ],
      "name": "debenturesByISIN",
      "outputs": [
        {
          "internalType": "address",
          "name": "",
          "type": "address"
        }
      ],
      "stateMutability": "view",
      "type": "function"
    },
    {
      "inputs": [],
      "name": "getAllDebentures",
      "outputs": [
        {
          "internalType": "address[]",
          "name": "",
          "type": "address[]"
        }
      ],
      "stateMutability": "view",
      "type": "function"
    },
    {
      "inputs": [
        {
          "internalType": "address",
          "name": "issuer",
          "type": "address"
        }
      ],
      "name": "getIssuerDebentures",
      "outputs": [
        {
          "internalType": "address[]",
          "name": "",
          "type": "address[]"
        }
      ],
      "stateMutability": "view",
      "type": "function"
    },
    {
      "inputs": [],
      "name": "getTotalDebentures",
      "outputs": [
        {
          "internalType": "uint256",
          "name": "",
          "type": "uint256"
        }
      ],
      "stateMutability": "view",
      "type": "function"
    },
    {
      "inputs": [
        {
          "internalType": "address",
          "name": "",
          "type": "address"
        },
        {
          "internalType": "uint256",
          "name": "",
          "type": "uint256"
        }
      ],
      "name": "issuerDebentures",
      "outputs": [
        {
          "internalType": "address",
          "name": "",
          "type": "address"
        }
      ],
      "stateMutability": "view",
      "type": "function"
    },
    {
      "inputs": [],
      "name": "oracle",
      "outputs": [
        {
          "internalType": "address",
          "name": "",
          "type": "address"
        }
      ],
      "stateMutability": "view",
      "type": "function"
    },
    {
      "inputs": [],
      "name": "owner",
      "outputs": [
        {
          "internalType": "address",
          "name": "",
          "type": "address"
        }
      ],
      "stateMutability": "view",
      "type": "function"
    },
    {
      "inputs": [
        {
          "internalType": "address",
          "name": "debentureAddress",
          "type": "address"
        },
        {
          "internalType": "string",
          "name": "isinCode",
          "type": "string"
        },
        {
          "internalType": "address",
          "name": "issuer",
          "type": "address"
        }
      ],
      "name": "registerDebenture",
      "outputs": [],
      "stateMutability": "nonpayable",
      "type": "function"
    },
    {
      "inputs": [],
      "name": "renounceOwnership",
      "outputs": [],
      "stateMutability": "nonpayable",
      "type": "function"
    },
    {
      "inputs": [
        {
          "internalType": "address",
          "name": "newOwner",
          "type": "address"
        }
      ],
      "name": "transferOwnership",
      "outputs": [],
      "stateMutability": "nonpayable",
      "type": "function"
    }
  ],
  "bytecode": "0x60803461011257601f61096338819003918201601f19168301916001600160401b038311848410176101175780849260209460405283398101031261011257516001600160a01b03808216918290036101125733156100f9576000549060018060a01b0319913383821617600055604051913391167f8be0079c531659141344cd1fd0a4f28419497f9722a3daafe3b4186f6b6457e0600080a382156100b757506001541617600155604051610835908161012e8239f35b62461bcd60e51b815260206004820152601660248201527f496e76616c6964206f7261636c652061646472657373000000000000000000006044820152606490fd5b604051631e4fbdf760e01b815260006004820152602490fd5b600080fd5b634e487b7160e01b600052604160045260246000fdfe6080604081815260048036101561001557600080fd5b600092833560e01c908163496b67d4146106b557508063715018a61461065b57806376bb7d5e146105df5780637dc0d1d0146105b65780638da5cb5b1461058e578063a3489743146104fd578063bc8aa67814610432578063d6ac1d4c146103d4578063dfd7d317146103b1578063f2fde38b1461032b5763f7a545661461009c57600080fd5b34610327576060366003190112610327576100b561073c565b60249283359067ffffffffffffffff9283831161032357366023840112156103235782850135938411610323578583019286853692010111610323576001600160a01b036044358181169791929088900361031f5782906101146107d3565b169586156102de57600c86036102a957828451878782376020818981016003815203019020541661026857600254916801000000000000000092838110156102565760018101806002558110156102445760028b527f405787fa12a823e0f2b7631cc41b3ba8828b3321ca811111fa75cd3aa3bb5ace016bffffffffffffffffffffffff60a01b908982825416179055888651898982376020818b8101600381520301902091825416179055888a5281602052848a2091825493841015610233575050816101ea9160018896959401815561070e565b819291549060031b9188831b921b19161790555192839283378101858152039020907fcb66308d7c9fd42d4cbe4790668bcd2e86dbc77a5e394c5e145c1a32acba30a08480a480f35b634e487b7160e01b8b526041905289fd5b50634e487b7160e01b8a526032825289fd5b50634e487b7160e01b8a526041825289fd5b6017606492602086519362461bcd60e51b85528401528201527f4953494e20616c726561647920726567697374657265640000000000000000006044820152fd5b6011606492602086519362461bcd60e51b855284015282015270496e76616c6964204953494e20636f646560781b6044820152fd5b6019606492602086519362461bcd60e51b85528401528201527f496e76616c696420646562656e747572652061646472657373000000000000006044820152fd5b8880fd5b8680fd5b8280fd5b50346103275760203660031901126103275761034561073c565b9061034e6107d3565b6001600160a01b0391821692831561039b57505082546001600160a01b0319811683178455167f8be0079c531659141344cd1fd0a4f28419497f9722a3daafe3b4186f6b6457e08380a380f35b51631e4fbdf760e01b8152908101849052602490fd5b5050346103d057816003193601126103d0576020906002549051908152f35b5080fd5b50913461042f578160031936011261042f576103ee61073c565b6001600160a01b039081168252602093909352818120805460243594929085101561042f57506020936104209161070e565b92905490519260031b1c168152f35b80fd5b5034610327576020928360031936011261042f5781359167ffffffffffffffff90818411610327573660238501121561032757838101359182116104ea5750835192610487601f8301601f191687018561079b565b81845236602483830101116103275781839260248893018387013784010152825191848151925b8381106104d9575050600391830191825250819003830190205490516001600160a01b039091168152f35b8281018201518582015281016104ae565b634e487b7160e01b835260419052602482fd5b82843461042f578060031936011261042f578151918291600254808552602080950194600283527f405787fa12a823e0f2b7631cc41b3ba8828b3321ca811111fa75cd3aa3bb5ace92905b82821061056e5761056a8686610560828b038361079b565b5191829182610757565b0390f35b83546001600160a01b031687529586019560019384019390910190610548565b5050346103d057816003193601126103d057905490516001600160a01b039091168152602090f35b5050346103d057816003193601126103d05760015490516001600160a01b039091168152602090f35b50903461032757602080600319360112610657576001600160a01b039390928461060761073c565b1682528352818120938251908194808754938481520196845280842093915b83831061063e5761056a8787610560828c038361079b565b8454811688529681019660019485019490920191610626565b8380fd5b833461042f578060031936011261042f576106746107d3565b80546001600160a01b03198116825581906001600160a01b03167f8be0079c531659141344cd1fd0a4f28419497f9722a3daafe3b4186f6b6457e08280a380f35b9250503461032757602036600319011261032757356002548110156103275760029092527f405787fa12a823e0f2b7631cc41b3ba8828b3321ca811111fa75cd3aa3bb5ace909101546001600160a01b03168152602090f35b80548210156107265760005260206000200190600090565b634e487b7160e01b600052603260045260246000fd5b600435906001600160a01b038216820361075257565b600080fd5b6020908160408183019282815285518094520193019160005b82811061077e575050505090565b83516001600160a01b031685529381019392810192600101610770565b90601f8019910116810190811067ffffffffffffffff8211176107bd57604052565b634e487b7160e01b600052604160045260246000fd5b6000546001600160a01b031633036107e757565b60405163118cdaa760e01b8152336004820152602490fdfea264697066735822122016bdc53a5557cb961d573df2fc6b35bf373f270959163dc05eff9f818d87883864736f6c63430008140033",
  "linkReferences": {},
  "deployedLinkReferences": {}
}