{
  "_format": "hh-sol-artifact-1",
  "contractName": "SimpleDebentureRegistry",
  "sourceName": "contracts/SimpleDebentureRegistry.sol",
  "abi": [
    {
      "inputs": [
        {
          "internalType": "address",
          "name": "_oracle",
          "type": "address"
        },
        {
          "internalType": "address",
          "name": "_defaultPaymentToken",
          "type": "address"
        }
      ],
      "stateMutability": "nonpayable",
      "type": "constructor"
    },
    {
      "inputs": [
        {
          "internalType": "address",
          "name": "owner",
          "type": "address"
        }
      ],
      "name": "OwnableInvalidOwner",
      "type": "error"
    },
    {
      "inputs": [
        {
          "internalType": "address",
          "name": "account",
          "type": "address"
        }
      ],
      "name": "OwnableUnauthorizedAccount",
      "type": "error"
    },
    {
      "anonymous": false,
      "inputs": [
        {
          "indexed": true,
          "internalType": "address",
          "name": "debentureAddress",
          "type": "address"
        },
        {
          "indexed": true,
          "internalType": "string",
          "name": "isinCode",
          "type": "string"
        },
        {
          "indexed": false,
          "internalType": "string",
          "name": "name",
          "type": "string"
        },
        {
          "indexed": false,
          "internalType": "string",
          "name": "symbol",
          "type": "string"
        },
        {
          "indexed": true,
          "internalType": "address",
          "name": "issuer",
          "type": "address"
        },
        {
          "indexed": false,
          "internalType": "uint256",
          "name": "vne",
          "type": "uint256"
        },
        {
          "indexed": false,
          "internalType": "uint256",
          "name": "totalSupply",
          "type": "uint256"
        }
      ],
      "name": "DebentureCreated",
      "type": "event"
    },
    {
      "anonymous": false,
      "inputs": [
        {
          "indexed": true,
          "internalType": "address",
          "name": "debentureAddress",
          "type": "address"
        },
        {
          "indexed": true,
          "internalType": "string",
          "name": "isinCode",
          "type": "string"
        },
        {
          "indexed": true,
          "internalType": "address",
          "name": "issuer",
          "type": "address"
        }
      ],
      "name": "DebentureRegistered",
      "type": "event"
    },
    {
      "anonymous": false,
      "inputs": [
        {
          "indexed": true,
          "internalType": "address",
          "name": "previousOwner",
          "type": "address"
        },
        {
          "indexed": true,
          "internalType": "address",
          "name": "newOwner",
          "type": "address"
        }
      ],
      "name": "OwnershipTransferred",
      "type": "event"
    },
    {
      "inputs": [
        {
          "internalType": "uint256",
          "name": "",
          "type": "uint256"
        }
      ],
      "name": "allDebentures",
      "outputs": [
        {
          "internalType": "address",
          "name": "",
          "type": "address"
        }
      ],
      "stateMutability": "view",
      "type": "function"
    },
    {
      "inputs": [
        {
          "internalType": "string",
          "name": "name",
          "type": "string"
        },
        {
          "internalType": "string",
          "name": "symbol",
          "type": "string"
        },
        {
          "components": [
            {
              "internalType": "uint256",
              "name": "vne",
              "type": "uint256"
            },
            {
              "internalType": "uint256",
              "name": "totalSupplyUnits",
              "type": "uint256"
            },
            {
              "internalType": "uint256",
              "name": "issueDate",
              "type": "uint256"
            },
            {
              "internalType": "uint256",
              "name": "maturityDate",
              "type": "uint256"
            },
            {
              "internalType": "uint8",
              "name": "anniversaryDay",
              "type": "uint8"
            },
            {
              "internalType": "uint256",
              "name": "lockUpEndDate",
              "type": "uint256"
            },
            {
              "internalType": "enum BrazilianDebenture.RateType",
              "name": "rateType",
              "type": "uint8"
            },
            {
              "internalType": "uint256",
              "name": "fixedRate",
              "type": "uint256"
            },
            {
              "internalType": "uint256",
              "name": "percentDI",
              "type": "uint256"
            },
            {
              "internalType": "uint256",
              "name": "couponFrequencyDays",
              "type": "uint256"
            },
            {
              "internalType": "enum BrazilianDebenture.AmortizationType",
              "name": "amortType",
              "type": "uint8"
            },
            {
              "internalType": "string",
              "name": "isinCode",
              "type": "string"
            },
            {
              "internalType": "string",
              "name": "cetipCode",
              "type": "string"
            },
            {
              "internalType": "string",
              "name": "series",
              "type": "string"
            },
            {
              "internalType": "bool",
              "name": "hasRepactuacao",
              "type": "bool"
            },
            {
              "internalType": "bool",
              "name": "hasEarlyRedemption",
              "type": "bool"
            },
            {
              "internalType": "bytes32",
              "name": "comboId",
              "type": "bytes32"
            }
          ],
          "internalType": "struct BrazilianDebenture.DebentureTerms",
          "name": "terms",
          "type": "tuple"
        },
        {
          "internalType": "address",
          "name": "paymentToken",
          "type": "address"
        },
        {
          "internalType": "address",
          "name": "trustee",
          "type": "address"
        }
      ],
      "name": "createDebenture",
      "outputs": [
        {
          "internalType": "address",
          "name": "",
          "type": "address"
        }
      ],
      "stateMutability": "nonpayable",
      "type": "function"
    },
    {
      "inputs": [
        {
          "internalType": "string",
          "name": "",
          "type": "string"
        }
      ],
      "name": "debenturesByISIN",
      "outputs": [
        {
          "internalType": "address",
          "name": "",
          "type": "address"
        }
      ],
      "stateMutability": "view",
      "type": "function"
    },
    {
      "inputs": [],
      "name": "defaultPaymentToken",
      "outputs": [
        {
          "internalType": "address",
          "name": "",
          "type": "address"
        }
      ],
      "stateMutability": "view",
      "type": "function"
    },
    {
      "inputs": [],
      "name": "getAllDebentures",
      "outputs": [
        {
          "internalType": "address[]",
          "name": "",
          "type": "address[]"
        }
      ],
      "stateMutability": "view",
      "type": "function"
    },
    {
      "inputs": [
        {
          "internalType": "address",
          "name": "issuer",
          "type": "address"
        }
      ],
      "name": "getIssuerDebentures",
      "outputs": [
        {
          "internalType": "address[]",
          "name": "",
          "type": "address[]"
        }
      ],
      "stateMutability": "view",
      "type": "function"
    },
    {
      "inputs": [],
      "name": "getTotalDebentures",
      "outputs": [
        {
          "internalType": "uint256",
          "name": "",
          "type": "uint256"
        }
      ],
      "stateMutability": "view",
      "type": "function"
    },
    {
      "inputs": [
        {
          "internalType": "address",
          "name": "",
          "type": "address"
        },
        {
          "internalType": "uint256",
          "name": "",
          "type": "uint256"
        }
      ],
      "name": "issuerDebentures",
      "outputs": [
        {
          "internalType": "address",
          "name": "",
          "type": "address"
        }
      ],
      "stateMutability": "view",
      "type": "function"
    },
    {
      "inputs": [],
      "name": "oracle",
      "outputs": [
        {
          "internalType": "address",
          "name": "",
          "type": "address"
        }
      ],
      "stateMutability": "view",
      "type": "function"
    },
    {
      "inputs": [],
      "name": "owner",
      "outputs": [
        {
          "internalType": "address",
          "name": "",
          "type": "address"
        }
      ],
      "stateMutability": "view",
      "type": "function"
    },
    {
      "inputs": [
        {
          "internalType": "address",
          "name": "debentureAddress",
          "type": "address"
        },
        {
          "internalType": "string",
          "name": "isinCode",
          "type": "string"
        },
        {
          "internalType": "address",
          "name": "issuer",
          "type": "address"
        }
      ],
      "name": "registerDebenture",
      "outputs": [],
      "stateMutability": "nonpayable",
      "type": "function"
    },
    {
      "inputs": [],
      "name": "renounceOwnership",
      "outputs": [],
      "stateMutability": "nonpayable",
      "type": "function"
    },
    {
      "inputs": [
        {
          "internalType": "address",
          "name": "newOwner",
          "type": "address"
        }
      ],
      "name": "transferOwnership",
      "outputs": [],
      "stateMutability": "nonpayable",
      "type": "function"
    }
  ],
  "bytecode": "0x60803461012b57601f61629d38819003918201601f19168301916001600160401b0383118484101761013057808492604094855283398101031261012b57610052602061004b83610146565b9201610146565b903315610112576000549160018060a01b03199233848216176000556040519060018060a01b03938491823391167f8be0079c531659141344cd1fd0a4f28419497f9722a3daafe3b4186f6b6457e0600080a3169081156100d0575083600154161760015516906002541617600255604051616142908161015b8239f35b62461bcd60e51b815260206004820152601660248201527f496e76616c6964206f7261636c652061646472657373000000000000000000006044820152606490fd5b604051631e4fbdf760e01b815260006004820152602490fd5b600080fd5b634e487b7160e01b600052604160045260246000fd5b51906001600160a01b038216820361012b5756fe60808060405260043610156200001457600080fd5b60003560e01c908163496b67d41462000b05575080635796c00b14620006525780636412173e1462000627578063715018a614620005ca57806376bb7d5e14620005465780637dc0d1d0146200051b5780638da5cb5b14620004f0578063a34897431462000454578063bc8aa6781462000379578063d6ac1d4c1462000319578063dfd7d31714620002f9578063f2fde38b14620002695763f7a5456614620000bc57600080fd5b34620002645760603660031901126200026457620000d962000bc1565b60243567ffffffffffffffff81116200026457620000fc90369060040162000b90565b6044356001600160a01b038181169490939185900362000264576200012062000c41565b8381169384156200021f5762000139600c851462000ca4565b6040518484823760208186810160048152030190205416620001da578062000165620001a09262000d49565b604051848482376020818681016004815203019020856001600160601b0360a01b825416179055856000526005602052604060002062000daf565b816040519283928337810160008152039020907fcb66308d7c9fd42d4cbe4790668bcd2e86dbc77a5e394c5e145c1a32acba30a0600080a4005b60405162461bcd60e51b815260206004820152601760248201527f4953494e20616c726561647920726567697374657265640000000000000000006044820152606490fd5b60405162461bcd60e51b815260206004820152601960248201527f496e76616c696420646562656e747572652061646472657373000000000000006044820152606490fd5b600080fd5b346200026457602036600319011262000264576200028662000bc1565b6200029062000c41565b6001600160a01b03908116908115620002e057600054826001600160601b0360a01b821617600055167f8be0079c531659141344cd1fd0a4f28419497f9722a3daafe3b4186f6b6457e0600080a3005b604051631e4fbdf760e01b815260006004820152602490fd5b346200026457600036600319011262000264576020600354604051908152f35b346200026457604036600319011262000264576200033662000bc1565b6024359060018060a01b038091166000526005602052604060002080548310156200026457602092620003699162000b61565b9190546040519260031b1c168152f35b346200026457602080600319360112620002645760043567ffffffffffffffff808211620002645736602383011215620002645781600401359081116200043e5760405191620003d3601f8301601f191685018462000c1e565b818352366024838301011162000264578160009260248693018386013783010152604051908051908360005b8381106200042c57505060049183019182525081900382019020546040516001600160a01b039091168152f35b828101820151858201528101620003ff565b634e487b7160e01b600052604160045260246000fd5b34620002645760003660031901126200026457604051806003549182815260208091019260036000527fc2575a0e9e593c00f959f8c92f12db2869c3395a3b0502d05e2516446f71f85b916000905b828210620004cf57620004cb85620004be8189038262000c1e565b6040519182918262000bd8565b0390f35b83546001600160a01b031686529485019460019384019390910190620004a3565b346200026457600036600319011262000264576000546040516001600160a01b039091168152602090f35b346200026457600036600319011262000264576001546040516001600160a01b039091168152602090f35b34620002645760208060031936011262000264576001600160a01b03806200056d62000bc1565b1660005260058252604060002091604051809282855492838152019460005282600020926000915b838310620005b057620004cb86620004be818a038262000c1e565b845481168752958101956001948501949092019162000595565b34620002645760003660031901126200026457620005e762000c41565b600080546001600160a01b0319811682556001600160a01b03167f8be0079c531659141344cd1fd0a4f28419497f9722a3daafe3b4186f6b6457e08280a3005b346200026457600036600319011262000264576002546040516001600160a01b039091168152602090f35b34620002645760031960a036820112620002645760043567ffffffffffffffff811162000264576200068990369060040162000b90565b60249291923567ffffffffffffffff81116200026457620006af90369060040162000b90565b93909267ffffffffffffffff604435116200026457610220906044353603011262000264576064356001600160a01b038116900362000264576084356001600160a01b0381168103620002645762000722600c620007196101646044350160443560040162000c6e565b90501462000ca4565b620007396101646044350160443560040162000c6e565b90816040519182376004918101918252908190036020019020546001600160a01b031662000aca576064356001600160a01b031662000ac1576002546001600160a01b03165b60018060a01b036001541690604051928361531f81011067ffffffffffffffff61531f860111176200043e5761531f62000dee853960e061531f850152620007ec620007d460e061531f870101888862000ce5565b61531f86018103602061531f88010152898962000ce5565b9161531f85018303604061531f8701015260443560040135835260246044350135602084015260448035013560408401526064604435013560608401526084604435013560ff81168091036200026457608084015260443560a481013560a085015260c401356005811015620002645760c084015260443560e481013560e085015261010481013561010085015261012481013561012085015260036101449091013510156200026457849361014460443501356101408501526200092c62000905620008de620008c96101646044350160443560040162000d06565b6102206101608a015261022089019162000ce5565b620008f56101846044350160443560040162000d06565b908883036101808a015262000ce5565b6200091c6101a46044350160443560040162000d06565b908783036101a089015262000ce5565b936200093e6101c46044350162000d3b565b15156101c0820152620009576101e46044350162000d3b565b15156101e082015260443561020401356102009091015261531f850160608101919091526001600160a01b0391821660808201523360a0820152911660c09091015203906000f093841562000ab5576020946001600160a01b03169384917f6cff86004ab7a564db40806c1e028b796e9021eee0e9eae98470cef4511231c09162000a8e91620009e78562000d49565b88620009ff6101646044350160443560040162000c6e565b919082604051938492833781016004815203019020856001600160601b0360a01b825416179055336000526005895262000a3e85604060002062000daf565b62000a8062000a596101646044350160443560040162000c6e565b90816040519283928337810160008152039020966040519860808a5260808a019162000ce5565b918783038a89015262000ce5565b936044356004013560408201526024604435013560608201528033950390a4604051908152f35b6040513d6000823e3d90fd5b6064356200077f565b60405162461bcd60e51b81526020600482015260136024820152724953494e20616c72656164792065786973747360681b6044820152606490fd5b3462000264576020366003190112620002645760043590600354821015620002645760036000527fc2575a0e9e593c00f959f8c92f12db2869c3395a3b0502d05e2516446f71f85b909101546001600160a01b03168152602090f35b805482101562000b7a5760005260206000200190600090565b634e487b7160e01b600052603260045260246000fd5b9181601f84011215620002645782359167ffffffffffffffff83116200026457602083818601950101116200026457565b600435906001600160a01b03821682036200026457565b6020908160408183019282815285518094520193019160005b82811062000c00575050505090565b83516001600160a01b03168552938101939281019260010162000bf1565b90601f8019910116810190811067ffffffffffffffff8211176200043e57604052565b6000546001600160a01b0316330362000c5657565b60405163118cdaa760e01b8152336004820152602490fd5b903590601e198136030182121562000264570180359067ffffffffffffffff821162000264576020019181360383136200026457565b1562000cac57565b60405162461bcd60e51b8152602060048201526011602482015270496e76616c6964204953494e20636f646560781b6044820152606490fd5b908060209392818452848401376000828201840152601f01601f1916010190565b9035601e19823603018112156200026457016020813591019167ffffffffffffffff8211620002645781360383136200026457565b359081151582036200026457565b600354600160401b8110156200043e57600181018060035581101562000b7a5760036000527fc2575a0e9e593c00f959f8c92f12db2869c3395a3b0502d05e2516446f71f85b0180546001600160a01b0319166001600160a01b03909216919091179055565b8054600160401b8110156200043e5762000dcf9160018201815562000b61565b819291549060031b9160018060a01b03809116831b921b191617905556fe60806040523462000f32576200531f80380390816200001e8162000f37565b91823960e081838101031262000f325780516001600160401b03811162000f3257620000509083830190830162000f82565b60208201516001600160401b03811162000f3257620000759084840190840162000f82565b6040830151939091906001600160401b03851162000f32576102209485818601838701031262000f32576040519586016001600160401b038111878210176200082657604090815285820180518852602080820151908901528082015191880191909152606080820151908801526080015160ff8116810362000f3257608087015284810160a0818101519088015260c00151600581101562000f325760c087015260e0818601015160e087015261010080828701015181880152610120808388010151818901526101408388010151600381101562000f325761014089015286830161016001516001600160401b03811162000f32576200017f9085890190858a010162000f82565b61016089015286830161018001516001600160401b03811162000f3257620001af9085890190858a010162000f82565b6101808901526101a0838801810151946001600160401b03861162000f32578895620001e2918701908688010162000f82565b818a01526101c091620001f9838688010162000fd9565b838b01526101e09362000210858789010162000fd9565b858c0152610200809688010151868c01526200022f6060880162000fe7565b986200025a60c06200025260a06200024a60808d0162000fe7565b9b0162000fe7565b9c0162000fe7565b895190996001600160401b038211620008265760035490600182811c9216801562000f27575b6020831014620009275781601f84931162000eb5575b50602090601f831160011462000e265760009262000e1a575b50508160011b916000199060031b1c1916176003555b8051906001600160401b038211620008265760045490600182811c9216801562000e0f575b6020831014620009275781601f84931162000d9d575b50602090601f831160011462000d0e5760009262000d02575b50508160011b916000199060031b1c1916176004555b60016006558a511562000cbd5760208b01511562000c785760608b015142101562000c4057818b01511562000bfb576001600160a01b0389161562000bc5576001600160a01b0387161562000b80576001600160a01b038a161562000b4a578a5160085560208b015160095560408b0151600a5560608b0151600b5560ff60808c01511660ff19600c541617600c5560a08b0151600d5560c08b0151620003d68162000ffc565b620003e18162000ffc565b60ff8019600e5416911617600e5560e08b0151600f558a0151601055890151601155610140890151600381101562000b345760ff80196012541691161760125561016089015180519060018060401b038211620008265760135490600182811c9216801562000b29575b6020831014620009275781601f84931162000ac8575b50602090601f831160011462000a4a5760009262000a3e575b50508160011b916000199060031b1c1916176013555b6101808901518051906001600160401b038211620008265760145490600182811c9216801562000a33575b6020831014620009275781601f849311620009d2575b50602090601f8311600114620009545760009262000948575b50508160011b916000199060031b1c1916176014555b8801518051906001600160401b038211620008265760155490600182811c921680156200093d575b6020831014620009275781601f849311620008c6575b50602090601f831160011462000848576000926200083c575b50508160011b916000199060031b1c1916176015555b870151601680549289015161ff0090151560081b1691151560ff1661ffff1990931692909217179055850151601755601d80546001600160a01b039485166001600160a01b031991821617909155601e805492851692821692909217909155601f80548585169083161790556020805493831693909116831790556018805460ff191690558351604051919060808301908382106001600160401b038311176200082657620006b393606092604052818152426020820152600060408201526305f5e100928391015260195542601a556000601b55601c55600160c0860151620006578162000ffc565b620006628162000ffc565b14801562000801575b620007ef575b6200067c8462001007565b50620006888462001088565b5062000694846200112b565b50620006a081620011c9565b50620006ac8462001267565b5062001267565b5060018060a01b03821660005260246020526040600020600160ff198254161790556000526040600020600160ff1982541617905560208201519060025490828201809211620007d9576002919091556001600160a01b031660008181526020818152604080832080548601905551938452919290917fddf252ad1be2c89b69c2b068fc378daa952ba7f163c4a11628f55a4df523b3ef91a37f99f31c8d36d451950d4cef4b19e7ce478da0a725967540a77bb914e65e9295906060610160830151835190620007a760c0602087015196015191620007928362000ffc565b60206040519282848094519384920162000f5d565b8101039020946040519283526020830152620007c38162000ffc565b6040820152a2604051613f999081620013068239f35b634e487b7160e01b600052601160045260246000fd5b633b9aca006027554260285562000671565b50600260c0860151620008148162000ffc565b6200081f8162000ffc565b146200066b565b634e487b7160e01b600052604160045260246000fd5b01519050388062000557565b601560009081529350600080516020620052bf83398151915291905b601f1984168510620008aa576001945083601f1981161062000890575b505050811b016015556200056d565b015160001960f88460031b161c1916905538808062000881565b8181015183556020948501946001909301929091019062000864565b6015600052909150600080516020620052bf833981519152601f840160051c8101602085106200091f575b90849392915b601f830160051c820181106200090f5750506200053e565b60008155859450600101620008f7565b5080620008f1565b634e487b7160e01b600052602260045260246000fd5b91607f169162000528565b015190503880620004ea565b601460009081529350600080516020620052ff83398151915291905b601f1984168510620009b6576001945083601f198116106200099c575b505050811b0160145562000500565b015160001960f88460031b161c191690553880806200098d565b8181015183556020948501946001909301929091019062000970565b6014600052909150600080516020620052ff833981519152601f840160051c81016020851062000a2b575b90849392915b601f830160051c8201811062000a1b575050620004d1565b6000815585945060010162000a03565b5080620009fd565b91607f1691620004bb565b0151905038806200047a565b601360009081529350600080516020620052df83398151915291905b601f198416851062000aac576001945083601f1981161062000a92575b505050811b0160135562000490565b015160001960f88460031b161c1916905538808062000a83565b8181015183556020948501946001909301929091019062000a66565b6013600052909150600080516020620052df833981519152601f840160051c81016020851062000b21575b90849392915b601f830160051c8201811062000b1157505062000461565b6000815585945060010162000af9565b508062000af3565b91607f16916200044b565b634e487b7160e01b600052602160045260246000fd5b60405162461bcd60e51b815260206004820152600e60248201526d24b73b30b634b21034b9b9bab2b960911b6044820152606490fd5b60405162461bcd60e51b815260206004820152601560248201527f496e76616c6964207061796d656e7420746f6b656e00000000000000000000006044820152606490fd5b60405162461bcd60e51b815260206004820152600e60248201526d496e76616c6964206f7261636c6560901b6044820152606490fd5b60405162461bcd60e51b815260206004820152601860248201527f496e76616c696420636f75706f6e206672657175656e637900000000000000006044820152606490fd5b60405162461bcd60e51b815260206004820152601060248201526f496e76616c6964206d6174757269747960801b6044820152606490fd5b60405162461bcd60e51b815260206004820152601760248201527f537570706c79206d75737420626520706f7369746976650000000000000000006044820152606490fd5b60405162461bcd60e51b815260206004820152601460248201527f564e45206d75737420626520706f7369746976650000000000000000000000006044820152606490fd5b01519050388062000319565b6004600090815293507f8a35acfbc15ff81a39ae7d344fd709f28e8600b4aa8c65c6b64bfe7fe36bd19b91905b601f198416851062000d81576001945083601f1981161062000d67575b505050811b016004556200032f565b015160001960f88460031b161c1916905538808062000d58565b8181015183556020948501946001909301929091019062000d3b565b60046000529091507f8a35acfbc15ff81a39ae7d344fd709f28e8600b4aa8c65c6b64bfe7fe36bd19b601f840160051c81016020851062000e07575b90849392915b601f830160051c8201811062000df757505062000300565b6000815585945060010162000ddf565b508062000dd9565b91607f1691620002ea565b015190503880620002af565b6003600090815293507fc2575a0e9e593c00f959f8c92f12db2869c3395a3b0502d05e2516446f71f85b91905b601f198416851062000e99576001945083601f1981161062000e7f575b505050811b01600355620002c5565b015160001960f88460031b161c1916905538808062000e70565b8181015183556020948501946001909301929091019062000e53565b60036000529091507fc2575a0e9e593c00f959f8c92f12db2869c3395a3b0502d05e2516446f71f85b601f840160051c81016020851062000f1f575b90849392915b601f830160051c8201811062000f0f57505062000296565b6000815585945060010162000ef7565b508062000ef1565b91607f169162000280565b600080fd5b6040519190601f01601f191682016001600160401b038111838210176200082657604052565b60005b83811062000f715750506000910152565b818101518382015260200162000f60565b81601f8201121562000f325780516001600160401b038111620008265762000fb4601f8201601f191660200162000f37565b928184526020828401011162000f325762000fd6916020808501910162000f5d565b90565b5190811515820362000f3257565b51906001600160a01b038216820362000f3257565b6005111562000b3457565b6001600160a01b031660008181527f05b8ccbb9d4d8fb16ea74ce3c29a41f1b461fbdaff4714a0d9a8eb05499746bc602052604081205490919060ff16620010845781805260056020526040822081835260205260408220600160ff1982541617905533916000805160206200529f8339815191528180a4600190565b5090565b6001600160a01b031660008181527fd8ef4509105c3edb0b04658b4528edc5ddd30ea5a81e623a2623c88db1eb54b660205260408120549091907fa49807205ce4d355092ef5a8a18f56e8913cf4a201fbe287825b095693c217759060ff16620011265780835260056020526040832082845260205260408320600160ff198254161790556000805160206200529f833981519152339380a4600190565b505090565b6001600160a01b031660008181527f08699172536d22b992c4579cb1469b6a17054a95ee49bf4d1fdc489bafaaa00760205260408120549091907f114e74f6ea3bd819998f78687bfcb11b140da08e9b7d222fa9c1f1ba1f2aa1229060ff16620011265780835260056020526040832082845260205260408320600160ff198254161790556000805160206200529f833981519152339380a4600190565b6001600160a01b031660008181527f66215885dcb73cb4aae79fcb51f949acf75999687399eef5d47b261732e8435760205260408120549091907f700b68d05515876e1b5bee45535f56f17ecf1fbb63ac93e8914591401365025d9060ff16620011265780835260056020526040832082845260205260408320600160ff198254161790556000805160206200529f833981519152339380a4600190565b6001600160a01b031660008181527f294bb43e882f8724b7ae88344d047a41612b98ee139a78f923b3689f3cc274b160205260408120549091907f28f5a99355973cc89255b8c4ac88405f27c78ded7608b040ee77a8bdf44d15e29060ff16620011265780835260056020526040832082845260205260408320600160ff198254161790556000805160206200529f833981519152339380a460019056fe60a080604052600436101561001357600080fd5b60003560e01c90816301ffc9a7146130045750806306fdde0314612f41578063095ea7b314612ebb578063134fbea814612e9d57806318160ddd14612e7f5780631d14384814612e565780631e8d73af14612c085780631f936e3614612b20578063200d2ed214612af657806323b872dd14612a16578063248a9ca3146129e75780632f2ff15d146129a85780633013ce291461297f578063313ce5671461296357806336568abe1461291c57806339ee0661146128575780633af32abf1461109c5780633f4ba83a146127ed5780634173b4171461230e57806344337ea11461229f578063468bb24014612281578063471337a314612263578063537df3b6146121f757806354202c4e146121bc5780635465729a1461207c578063564ba9d314611d2b5780635674d3f414611a6657806356e2da1b14611a4a57806357974e5a146119c35780635c975abb146119a05780635edadfee1461197d57806367eda4161461196057806370a082311461192657806370f805fc1461190857806372777649146118cd57806372eee557146118b157806375b238fc146118765780637acc66d9146117635780637adbf973146116e05780637dc0d1d0146116b75780637f4ab1dd1461167957806382aefa2414611650578063839cef24146116355780638456cb59146115c857806387b652071461150e5780638a7a2d831461145b5780638ab1d681146113ef57806391d14854146113a2578063932e2b861461122057806395d89b411461112857806397acf4dd1461110a57806399f91405146110db5780639b19251a1461109c5780639dd5de0b14611080578063a217fddf14610cf3578063a9059cbb1461104f578063a9aad58c14611033578063aa8b2ea714611017578063ab25016814610ec7578063b10378e714610e89578063bd6267a014610d2b578063bffbc6be14610d0f578063d0a6d1a614610cf3578063d39f6e4914610cb9578063d4ce141514610c94578063d5025625146108f4578063d547741f146108b3578063dad2dea514610703578063dbb026b914610586578063dd126f6e14610506578063dd62ed3e146104b5578063e43252d714610446578063eb839559146103f7578063eca52842146103d9578063f9f92be41461036e578063fdf97cb2146103b25763fe575a871461036e57600080fd5b346103ad5760203660031901126103ad576001600160a01b0361038f6130c9565b166000526025602052602060ff604060002054166040519015158152f35b600080fd5b346103ad5760003660031901126103ad57602080546040516001600160a01b039091168152f35b346103ad5760003660031901126103ad576020602354604051908152f35b346103ad5760203660031901126103ad576004356021548110156103ad57610420606091613273565b5080549060ff600260018301549201541690604051928352602083015215156040820152f35b346103ad5760203660031901126103ad5761045f6130c9565b6104676132ae565b60018060a01b03168060005260246020526040600020600160ff198254161790557ff93f9a76c1bf3444d22400a00cb9fe990e6abe9dbb333fda48859cfee864543d602060405160018152a2005b346103ad5760403660031901126103ad576104ce6130c9565b6104d66130df565b9060018060a01b038091166000526001602052604060002091166000526020526020604060002054604051908152f35b346103ad5760003660031901126103ad576000606060405161052781613219565b8281528260208201528260408201520152608060405161054681613219565b60195490818152601a5460208201908152601b5490604083019182526060601c549301928352604051938452516020840152516040830152516060820152f35b346103ad576020806003193601126103ad57600435906105a4613af4565b6105b16022548310613b17565b336000526026815260406000205482106106cd576105ce82613172565b5060ff600682015460081c161561069257610619620f424091336000526000845261061460406000205491610604831515613c11565b600560048201549101549061381f565b613900565b0490600183019081841161067c577fd5a6750fd524c6f3d04c2a3f8e74b57e914efba5c7b8d9c1a17555eb7fb7052b91336000526026825260406000205561066c833360018060a01b03601e5416613c4a565b6040519283523392a36001600655005b634e487b7160e01b600052601160045260246000fd5b60405162461bcd60e51b815260048101839052601360248201527210dbdd5c1bdb881b9bdd081c185a59081e595d606a1b6044820152606490fd5b6064906040519062461bcd60e51b82526004820152600f60248201526e105b1c9958591e4818db185a5b5959608a1b6044820152fd5b346103ad5760003660031901126103ad5761071c613af4565b33600052602060008152604060002054610737811515613c11565b336000526026825260406000205460225480821015610878579160009282915b8183106107dd575b505050811561079857336000526026835260406000205561078b813360018060a01b03601e5416613c4a565b6001600655604051908152f35b60405162461bcd60e51b815260048101849052601860248201527f4e6f207061696420636f75706f6e7320746f20636c61696d00000000000000006044820152606490fd5b909193926107ea85613172565b509060ff600683015460081c166000146108705750620f424061081e8361061484600560046108269701549101549061381f565b04809461381f565b93600181019081811161067c578061086992956040519081527fd5a6750fd524c6f3d04c2a3f8e74b57e914efba5c7b8d9c1a17555eb7fb7052b893392a361382c565b9190610757565b93945061075f565b60405162461bcd60e51b81526004810185905260136024820152724e6f20636f75706f6e7320746f20636c61696d60681b6044820152606490fd5b346103ad5760403660031901126103ad576108f26004356108d26130df565b908060005260056020526108ed6001604060002001546133e0565b613486565b005b346103ad5760003660031901126103ad5760085460095490600a54600b5460ff600c5416600d5460ff600e5416600f54601054906011549260ff60125416946040519660006013548060011c916001821615610c8a575b602083106001831614610b6457828b528a9160018116908115610c6b5750600114610c0b575b61097d92500389613251565b6040519860006014548060011c916001821615610c01575b602083106001831614610b6457828d528c9160018116908115610be25750600114610b82575b6109c79250038b613251565b6040519a6000601554908160011c6001831615610b7a575b602081106001841614610b6457808f528e9260018116908115610b485750600114610aee575b5003610a11908d613251565b6016549d6017549d60405180608052526080516020015260805160400152608051606001526080516080015260805160a00152610a4d816130f5565b60805160c0015260805160e001526080516101000152608051610120015260805161014001610a7b91613165565b61022080608051610160015260805101610a9491613089565b608051808203906101800152610aa991613089565b608051808203906101a00152610abe91613089565b9160ff811615156080516101c0015260081c60ff1615156080516101e00152608051610200015260805180910390f35b6015600090815291507f55f448fdea98c4d29eb340757ef0a66cd03dbb9538908a6a81d96026b71ec4755b818310610b2d575050810160200138610a05565b80602092948385600194549201015201910190918e92610b19565b90506020925060ff191682840152151560051b82010138610a05565b634e487b7160e01b600052602260045260246000fd5b607f166109df565b509060146000527fce6d7b5282bd9a3661ae061feed1dbda4e52ab073b1f9285be6e155d9c38d4ec906000915b818310610bc75750509060206109c7928201016109bb565b80602092948385600194549201015201910190918c92610baf565b602092506109c794915060ff191682840152151560051b8201016109bb565b91607f1691610995565b509060136000527f66de8ffda797e3de9c05e8fc57b3bf0ec28a930d40b0d285d93c06501cf6a090906000915b818310610c5057505090602061097d92820101610971565b80602092948385600194549201015201910190918a92610c38565b6020925061097d94915060ff191682840152151560051b820101610971565b91607f169161094b565b346103ad576020610cae610ca7366130ff565b509061361e565b60ff60405191168152f35b346103ad5760203660031901126103ad576001600160a01b03610cda6130c9565b1660005260266020526020604060002054604051908152f35b346103ad5760003660031901126103ad57602060405160008152f35b346103ad5760003660031901126103ad57602060405160018152f35b346103ad5760203660031901126103ad57600435610d47613328565b610d5f60ff60185416610d59816130f5565b156138a2565b60ff600e5416610d6e816130f5565b600181148015610e76575b15610e4157600290610d8a816130f5565b03610de257610d9e60649160105490613900565b04633b9aca00908181029080820483149015171561067c57630f0537009004810180911161067c57610dd8633b9aca00915b602754613900565b0460275542602855005b633b9aca008082029180830482149015171561067c57630f05370080920481019182821161067c57600f548281029080820484149015171561067c570481019081811161067c57610e3b610dd892633b9aca0094613900565b04610dd0565b60405162461bcd60e51b815260206004820152600d60248201526c139bdd0811124b5b1a5b9ad959609a1b6044820152606490fd5b50610e80816130f5565b60028114610d79565b346103ad5760003660031901126103ad57601954601a54601b54601c54604080519485526020850193909352918301526060820152608090f35b0390f35b346103ad576020806003193601126103ad57600080516020613f44833981519152600052600581526040600020336000528152610f0b60ff6040600020541661385f565b610f1d60ff60185416610d59816130f5565b60ff60165460081c1615610fd35760607f8dd68a8affe62f82ec8c6f32d2851bfc8b9ed661fc912c7891e763b8f18d4946916003610f5f600254600435613900565b91610f788360018060a01b03601e541630903390613b5a565b7f8d6deb3ebfdc6b0ef63502cbe0646aebf8f3db989cc23033687ea7178ff278ec6040601854948460ff87169660ff19161760185581519081524284820152a160405192610fc5816130f5565b8352820152426040820152a1005b6064906040519062461bcd60e51b82526004820152601c60248201527f4561726c7920726564656d7074696f6e206e6f7420616c6c6f776564000000006044820152fd5b346103ad5760003660031901126103ad57602060405160038152f35b346103ad5760003660031901126103ad57602060405160028152f35b346103ad5760403660031901126103ad5761107561106b6130c9565b60243590336134fd565b602060405160018152f35b346103ad5760003660031901126103ad57602060405160648152f35b346103ad5760203660031901126103ad576001600160a01b036110bd6130c9565b166000526024602052602060ff604060002054166040519015158152f35b346103ad5760203660031901126103ad5760406110fe6110f96130c9565b613c88565b82519182526020820152f35b346103ad5760003660031901126103ad576020602754604051908152f35b346103ad5760003660031901126103ad57604051600060045490600182811c91818416918215611216575b6020948585108414610b645785879486865291826000146111f6575050600114611199575b5061118592500383613251565b610ec3604051928284938452830190613089565b84915060046000527f8a35acfbc15ff81a39ae7d344fd709f28e8600b4aa8c65c6b64bfe7fe36bd19b906000915b8583106111de575050611185935082010185611178565b805483890185015287945086939092019181016111c7565b60ff19168582015261118595151560051b85010192508791506111789050565b92607f1692611153565b346103ad576020806003193601126103ad5760043590600080516020613f4483398151915260005260058152604060002033600052815261126860ff6040600020541661385f565b611270613af4565b61127d6022548310613b17565b61128682613172565b50906006820191825460ff8116156113655760081c60ff1661132a579160409183620f42406112eb6112e260047fa5545405ad5befaaa053fb6aeb08fa6b7b92c4ece04ce7a84ba5b88b0d039e9998015460058501549061381f565b60025490613900565b04926113058460018060a01b03601e541630903390613b5a565b61010061ff001982541617905560014291015582519182524290820152a26001600655005b60405162461bcd60e51b815260048101839052601360248201527210dbdd5c1bdb88185b1c9958591e481c185a59606a1b6044820152606490fd5b60405162461bcd60e51b815260048101849052601560248201527410dbdd5c1bdb881b9bdd0818d85b18dd5b185d1959605a1b6044820152606490fd5b346103ad5760403660031901126103ad576113bb6130df565b600435600052600560205260406000209060018060a01b0316600052602052602060ff604060002054166040519015158152f35b346103ad5760203660031901126103ad576114086130c9565b6114106132ae565b6001600160a01b03166000818152602460209081526040808320805460ff19169055519182527ff93f9a76c1bf3444d22400a00cb9fe990e6abe9dbb333fda48859cfee864543d91a2005b346103ad5760003660031901126103ad573360009081527f66215885dcb73cb4aae79fcb51f949acf75999687399eef5d47b261732e8435760205260409020546114a79060ff16613d2e565b7f8dd68a8affe62f82ec8c6f32d2851bfc8b9ed661fc912c7891e763b8f18d49466060601854600260ff8216916114dd836130f5565b6114e783156138a2565b60ff191617601855604051906114fc816130f5565b815260026020820152426040820152a1005b346103ad5760003660031901126103ad5760185460ff811690611530826130f5565b61153a82156138a2565b600b5442106115915760ff19166001176018556040517f8dd68a8affe62f82ec8c6f32d2851bfc8b9ed661fc912c7891e763b8f18d4946916060919061157f816130f5565b815260016020820152426040820152a1005b60405162461bcd60e51b815260206004820152600f60248201526e139bdd081e595d081b585d1d5c9959608a1b6044820152606490fd5b346103ad5760003660031901126103ad576115e1613328565b60075460ff81166116235760019060ff1916176007557f62e78cea01bee320cd4e420270b5ea74000d11b0c9f74754ebdbfc544b05a2586020604051338152a1005b60405163d93c066560e01b8152600490fd5b346103ad5760003660031901126103ad5760406110fe6139d7565b346103ad5760003660031901126103ad576020604051600080516020613f448339815191528152f35b346103ad5760203660031901126103ad5760043560ff811681036103ad576116a3610ec3916136dc565b604051918291602083526020830190613089565b346103ad5760003660031901126103ad57601d546040516001600160a01b039091168152602090f35b346103ad5760203660031901126103ad576116f96130c9565b611701613328565b6001600160a01b0316801561172d576bffffffffffffffffffffffff60a01b601d541617601d55600080f35b60405162461bcd60e51b815260206004820152600e60248201526d496e76616c6964206f7261636c6560901b6044820152606490fd5b346103ad5760003660031901126103ad5760215467ffffffffffffffff81116118605760405160209061179b828460051b0182613251565b828152818101928360216000527f3a6357012c1a3ae0a17d304c9920310382d968ebcc4b1771f41c6b304205b5706000915b8383106118255760408051878152865181890181905289928201908960005b8281106117f95784840385f35b8551805185528083015185840152604090810151151590850152948101946060909301926001016117ec565b600386600192604051611837816131fd565b85548152848601548382015260ff600287015416151560408201528152019201920191906117cd565b634e487b7160e01b600052604160045260246000fd5b346103ad5760003660031901126103ad5760206040517fa49807205ce4d355092ef5a8a18f56e8913cf4a201fbe287825b095693c217758152f35b346103ad5760003660031901126103ad57602060405160fc8152f35b346103ad5760003660031901126103ad5760206040517f700b68d05515876e1b5bee45535f56f17ecf1fbb63ac93e8914591401365025d8152f35b346103ad5760003660031901126103ad576020601954604051908152f35b346103ad5760203660031901126103ad576001600160a01b036119476130c9565b1660005260006020526020604060002054604051908152f35b346103ad5760003660031901126103ad5760206040516127108152f35b346103ad5760003660031901126103ad576020611998613913565b604051908152f35b346103ad5760003660031901126103ad57602060ff600754166040519015158152f35b346103ad5760203660031901126103ad576004356022548110156103ad576119ed61010091613172565b5060ff815491600181015490600281015460038201546004830154916006600585015494015494604051978852602088015260408701526060860152608085015260a0840152818116151560c084015260081c16151560e0820152f35b346103ad5760003660031901126103ad57602060405160048152f35b346103ad5760003660031901126103ad57611a8960ff60185416610d59816130f5565b60ff600e5416611a98816130f5565b6003811490818015611d18575b15611ce057611ab3906130f5565b15611cb957611b096060604051611ac981613235565b60048152634950434160e01b60208201525b60018060a01b03601d54166040518080958194630d81b5db60e31b8352602060048401526024830190613089565b03915afa8015611cad57600091600091611c7b575b506000821315611c4057601a541015611c0757601954601b54801592919083611bde57611b4d83601c54613900565b93611bc857611b8a6305f5e100917f2e759a94b9b820c609e8fe95314a7564f0a948b29d7a6c5a41da7b90519e88f7950480601c55600854613900565b046019555b42601a5581601b55611bc3601954916040519384934292859094939260609260808301968352602083015260408201520152565b0390a1005b634e487b7160e01b600052601260045260246000fd5b507f2e759a94b9b820c609e8fe95314a7564f0a948b29d7a6c5a41da7b90519e88f79250611b8f565b60405162461bcd60e51b8152602060048201526011602482015270125b99195e081b9bdd081d5c19185d1959607a1b6044820152606490fd5b60405162461bcd60e51b8152602060048201526013602482015272496e76616c696420696e6465782076616c756560681b6044820152606490fd5b9050611c9e915060603d8111611ca6575b611c968183613251565b8101906138e5565b905082611b1e565b503d611c8c565b6040513d6000823e3d90fd5b611b096060604051611cca81613235565b60048152634947504d60e01b6020820152611adb565b60405162461bcd60e51b815260206004820152601060248201526f139bdd081a5b99195e0b5b1a5b9ad95960821b6044820152606490fd5b50611d22816130f5565b60048114611aa5565b346103ad5760403660031901126103ad5767ffffffffffffffff6004358181116103ad57611d5d903690600401613134565b60249283359081116103ad57611d77903690600401613134565b600080516020613f4483398151915260005260209360058552604060002033600052855260ff91611dae836040600020541661385f565b60219384546120415781860361200b5760009560005b818110611e3d57505050505060125416906003821015611e295750600203611de857005b61271003611df257005b60126064926040519262461bcd60e51b8452600484015282015271546f74616c206d757374206265203130302560701b6044820152fd5b8490634e487b7160e01b6000526004526000fd5b611e4881838761383b565b35600b5410611fd15780611f59575b611e6281838761383b565b35611e6e82868661383b565b359060405190611e7d826131fd565b81528a810191825260408101600081528954600160401b811015611f4457611eab6001918281018d55613273565b949094611f2f57611ed793518555519084015551151560028093019060ff801983541691151516179055565b86601254166003811015611f1b5703611ef9575b611ef49061382c565b611dc4565b96611f13611ef491611f0c8a878761383b565b359061381f565b979050611eeb565b8b89634e487b7160e01b6000526004526000fd5b8e634e487b7160e01b60005260006004526000fd5b8d634e487b7160e01b60005260416004526000fd5b611f6481838761383b565b356000198201828111611fbc57611f7c90848861383b565b3510611e575760405162461bcd60e51b8152600481018a90526013818c0152724461746573206e6f7420617363656e64696e6760681b6044820152606490fd5b8b634e487b7160e01b60005260116004526000fd5b60405162461bcd60e51b8152600481018a90526013818c01527244617465206166746572206d6174757269747960681b6044820152606490fd5b60405162461bcd60e51b815260048101889052600f818a01526e098cadccee8d040dad2e6dac2e8c6d608b1b6044820152606490fd5b60405162461bcd60e51b8152600481018890526014818a01527314d8da19591d5b1948185b1c9958591e481cd95d60621b6044820152606490fd5b346103ad5760203660031901126103ad57600435600060e06040516120a0816131c3565b8281528260208201528260408201528260608201528260808201528260a08201528260c08201520152602254811015612187576120df61010091613172565b50604051906120ed826131c3565b8054918281526001820154916020820192835260028101546040830190815260038201546060840190815260048301549160808501928352600660058501549460a0870195865201549560ff60e060c0880197828a1615158952019760081c16151587526040519788525160208801525160408701525160608601525160808501525160a084015251151560c083015251151560e0820152f35b60405162461bcd60e51b815260206004820152600d60248201526c092dcecc2d8d2c840d2dcc8caf609b1b6044820152606490fd5b346103ad5760003660031901126103ad5760206040517f28f5a99355973cc89255b8c4ac88405f27c78ded7608b040ee77a8bdf44d15e28152f35b346103ad5760203660031901126103ad576122106130c9565b612218613384565b6001600160a01b03166000818152602560209081526040808320805460ff19169055519182527f6a12b3df6cba4203bd7fd06b816789f87de8c594299aed5717ae070fac781bac91a2005b346103ad5760003660031901126103ad576020604051620f42408152f35b346103ad5760003660031901126103ad576020602254604051908152f35b346103ad5760203660031901126103ad576122b86130c9565b6122c0613384565b60018060a01b03168060005260256020526040600020600160ff198254161790557f6a12b3df6cba4203bd7fd06b816789f87de8c594299aed5717ae070fac781bac602060405160018152a2005b346103ad5760003660031901126103ad576000610200604051612330816131e0565b8281528260208201528260408201528260608201528260808201528260a08201528260c08201528260e08201528261010082015282610120820152826101408201526060610160820152606061018082015260606101a0820152826101c0820152826101e082015201526040516123a6816131e0565b60085481526009546020820152600a546040820152600b54606082015260ff600c54166080820152600d5460a082015260ff600e54166123e5816130f5565b60c0820152600f5460e082015260105461010082015260115461012082015260ff6012541660038110156127d75761014082015260405160006013548060011c9160018216156127cd575b602083106001831614610b64578284528391600181169081156127ae575060011461274d575b61246292500382613251565b61016082015260405160006014548060011c916001821615612743575b602083106001831614610b645782845283916001811690811561272457506001146126c3575b6124b192500382613251565b61018082015260405160006015548060011c9160018216156126b9575b602083106001831614610b645782845283916001811690811561269a5750600114612639575b61250092500382613251565b6101a082015260ff60165481811615156101c084015260081c1615156101e08201526017546102008201526040518091602082528051602083015260208101516040830152604081015160608301526060810151608083015260ff60808201511660a083015260a081015160c083015260c081015161257e816130f5565b60e083015260e08101516101008301526101008101516101208301526101208101516101408301526125ba610140820151610160840190613165565b6101608101516102006126146125df6102209384610180880152610240870190613089565b6125fd61018086015191601f199283898303016101a08a0152613089565b906101a086015190878303016101c0880152613089565b926101c081015115156101e08601526101e08101511515828601520151908301520390f35b509060156000527f55f448fdea98c4d29eb340757ef0a66cd03dbb9538908a6a81d96026b71ec475906000915b81831061267e575050906020612500928201016124f4565b6020919350806001915483858801015201910190918392612666565b6020925061250094915060ff191682840152151560051b8201016124f4565b91607f16916124ce565b509060146000527fce6d7b5282bd9a3661ae061feed1dbda4e52ab073b1f9285be6e155d9c38d4ec906000915b8183106127085750509060206124b1928201016124a5565b60209193508060019154838588010152019101909183926126f0565b602092506124b194915060ff191682840152151560051b8201016124a5565b91607f169161247f565b509060136000527f66de8ffda797e3de9c05e8fc57b3bf0ec28a930d40b0d285d93c06501cf6a090906000915b81831061279257505090602061246292820101612456565b602091935080600191548385880101520191019091839261277a565b6020925061246294915060ff191682840152151560051b820101612456565b91607f1691612430565b634e487b7160e01b600052602160045260246000fd5b346103ad5760003660031901126103ad57612806613328565b60075460ff8116156128455760ff19166007557f5db9ee0a495bf2e6ff9c91a7834c1ba4fdd244a5e8aa4e537bd38aeae4b073aa6020604051338152a1005b604051638dfc202b60e01b8152600490fd5b346103ad576020806003193601126103ad5760043567ffffffffffffffff81116103ad57612889903690600401613134565b906128926132ae565b60005b82811061289e57005b612917906001600160a01b03806128be6128b984888861383b565b61384b565b16600052602486527ff93f9a76c1bf3444d22400a00cb9fe990e6abe9dbb333fda48859cfee864543d866040600020926001938460ff198254161790556129096128b9868a8a61383b565b1692604051908152a261382c565b612895565b346103ad5760403660031901126103ad576129356130df565b336001600160a01b03821603612951576108f290600435613486565b60405163334bd91960e11b8152600490fd5b346103ad5760003660031901126103ad57602060405160068152f35b346103ad5760003660031901126103ad57601e546040516001600160a01b039091168152602090f35b346103ad5760403660031901126103ad576108f26004356129c76130df565b908060005260056020526129e26001604060002001546133e0565b613406565b346103ad5760203660031901126103ad5760043560005260056020526020600160406000200154604051908152f35b346103ad57612a24366130ff565b9060018060a01b03831692836000526001602052604060002033600052602052604060002054936000198510612a60575b5061107593506134fd565b838510612acc578015612ab3573315612a9a5761107594849160005260016020526040600020336000526020520360406000205584612a55565b604051634a1406b160e11b815260006004820152602490fd5b60405163e602df0560e01b815260006004820152602490fd5b604051637dc7a0d960e11b81523360048201526024810186905260448101859052606490fd5b0390fd5b346103ad5760003660031901126103ad57602060ff6018541660405190612b1c816130f5565b8152f35b346103ad5760203660031901126103ad573360009081527f66215885dcb73cb4aae79fcb51f949acf75999687399eef5d47b261732e84357602052604090205460043590612b709060ff16613d2e565b612b8260ff60185416610d59816130f5565b60ff6016541615612bc3576040817f892461ac47c837244a43f55c47e4146481d666f7e00fbc337cb425bb0d94a83492600f558151908152426020820152a1005b60405162461bcd60e51b815260206004820152601860248201527f526570616374756174696f6e206e6f7420616c6c6f77656400000000000000006044820152606490fd5b346103ad5760003660031901126103ad5760ff612c2c8160185416610d59816130f5565b612c34613af4565b612c3c613d72565b804210612e1c57612c4b6139d7565b91600090600090602154915b828110612dca575b505050601b54604051612c71816131c3565b4281526020810190600082526040810186815260608201938452608082019486865260a0830190815260c08301956001875260e084019560008752602254600160401b81101561186057806001612ccb9201602255613172565b949094612db457612d11966006965186555160018601555160028501555160038401555160048301555160058201550192511515839060ff801983541691151516179055565b51815461ff00191690151560081b61ff001617905560225460001981019290831161067c577f929ad1752907433999baef86630e1e0cccc943966be81a34ed4ee45644629b35916060916040519182526020820152426040820152a2600e5416612d7a816130f5565b60018114908115612da0575b50612d93575b6001600655005b633b9aca00602755612d8c565b60029150612dad816130f5565b1481612d86565b634e487b7160e01b600052600060045260246000fd5b866002612dd683613273565b500154161580612e08575b612df357612dee9061382c565b612c57565b915050612e009150613eec565b848080612c5f565b5081612e1382613273565b50541115612de1565b60405162461bcd60e51b815260206004820152601260248201527110dbdd5c1bdb881b9bdd08191d59481e595d60721b6044820152606490fd5b346103ad5760003660031901126103ad57601f546040516001600160a01b039091168152602090f35b346103ad5760003660031901126103ad576020600254604051908152f35b346103ad5760003660031901126103ad576020602854604051908152f35b346103ad5760403660031901126103ad57612ed46130c9565b602435903315612ab3576001600160a01b0316908115612a9a57336000526001602052604060002082600052602052806040600020556040519081527f8c5be1e5ebec7d5bd14f71427d1e84f3dd0314c0f7b2291e5b200ac8c7c3b92560203392a3602060405160018152f35b346103ad5760003660031901126103ad57604051600060035490600182811c91818416918215612ffa575b6020948585108414610b645785879486865291826000146111f6575050600114612f9d575061118592500383613251565b84915060036000527fc2575a0e9e593c00f959f8c92f12db2869c3395a3b0502d05e2516446f71f85b906000915b858310612fe2575050611185935082010185611178565b80548389018501528794508693909201918101612fcb565b92607f1692612f6c565b346103ad5760203660031901126103ad576004359063ffffffff60e01b82168092036103ad5760209163578f376160e11b8114908115613078575b811561304d575b5015158152f35b637965db0b60e01b811491508115613067575b5083613046565b6301ffc9a760e01b14905083613060565b6336372b0760e01b8114915061303f565b919082519283825260005b8481106130b5575050826000602080949584010152601f8019910116010190565b602081830181015184830182015201613094565b600435906001600160a01b03821682036103ad57565b602435906001600160a01b03821682036103ad57565b600511156127d757565b60609060031901126103ad576001600160a01b039060043582811681036103ad579160243590811681036103ad579060443590565b9181601f840112156103ad5782359167ffffffffffffffff83116103ad576020808501948460051b0101116103ad57565b9060038210156127d75752565b6022548110156131ad576007906022600052027f61035b26e3e9eee00e0d72fd1ee8ddca6894550dca6916ea2ac6baa90d11e5100190600090565b634e487b7160e01b600052603260045260246000fd5b610100810190811067ffffffffffffffff82111761186057604052565b610220810190811067ffffffffffffffff82111761186057604052565b6060810190811067ffffffffffffffff82111761186057604052565b6080810190811067ffffffffffffffff82111761186057604052565b6040810190811067ffffffffffffffff82111761186057604052565b90601f8019910116810190811067ffffffffffffffff82111761186057604052565b6021548110156131ad576003906021600052027f3a6357012c1a3ae0a17d304c9920310382d968ebcc4b1771f41c6b304205b5700190600090565b3360009081527f294bb43e882f8724b7ae88344d047a41612b98ee139a78f923b3689f3cc274b160205260409020547f28f5a99355973cc89255b8c4ac88405f27c78ded7608b040ee77a8bdf44d15e29060ff161561330a5750565b6044906040519063e2517d3f60e01b82523360048301526024820152fd5b3360009081527fd8ef4509105c3edb0b04658b4528edc5ddd30ea5a81e623a2623c88db1eb54b660205260409020547fa49807205ce4d355092ef5a8a18f56e8913cf4a201fbe287825b095693c217759060ff161561330a5750565b3360009081527f66215885dcb73cb4aae79fcb51f949acf75999687399eef5d47b261732e8435760205260409020547f700b68d05515876e1b5bee45535f56f17ecf1fbb63ac93e8914591401365025d9060ff161561330a5750565b80600052600560205260406000203360005260205260ff604060002054161561330a5750565b906000918083526005602052604083209160018060a01b03169182845260205260ff604084205416156000146134815780835260056020526040832082845260205260408320600160ff198254161790557f2f8788117e7eff1d82e926ec794901d17c78024a50270940304540a733656f0d339380a4600190565b505090565b906000918083526005602052604083209160018060a01b03169182845260205260ff604084205416600014613481578083526005602052604083208284526020526040832060ff1981541690557ff6391f5c32d9c69d2a47ea670b442974b53935d1edc7fd64eb21e047a839171b339380a4600190565b90916001600160a01b03808316929083156136055784169384156135ec57613525908261361e565b60ff613530826136dc565b91166135c8575060009083825281602052604082205490838210613596575091604082827fddf252ad1be2c89b69c2b068fc378daa952ba7f163c4a11628f55a4df523b3ef958760209652828652038282205586815220818154019055604051908152a3565b60405163391434e360e21b81526001600160a01b03919091166004820152602481019190915260448101839052606490fd5b60405162461bcd60e51b815260206004820152908190612af2906024830190613089565b60405163ec442f0560e01b815260006004820152602490fd5b604051634b637e8f60e11b815260006004820152602490fd5b60ff600754166136d5576001600160a01b0390811660008181526025602052604081205490939060ff1680156136c2575b6136b95781845260246020528260ff604086205416159182156136a5575b505061369d57600d544210918261368e575b50506136885790565b50600490565b601f541614159050388061367f565b505050600190565b16845250604083205460ff1615823861366d565b50505050600390565b50828116845260ff60408520541661364f565b5050600290565b60ff1680156137fb57600181146137c157600281146137945760038114613764576004146137335760405161371081613235565b60138152722ab735b737bbb7103932b9ba3934b1ba34b7b760691b602082015290565b60405161373f81613235565b60158152744c6f636b2d757020706572696f642061637469766560581b602082015290565b5060405161377181613235565b60138152721059191c995cdcc8189b1858dadb1a5cdd1959606a1b602082015290565b506040516137a181613235565b601081526f151c985b9cd9995c9cc81c185d5cd95960821b602082015290565b506040516137ce81613235565b601781527f41646472657373206e6f742077686974656c6973746564000000000000000000602082015290565b5060405161380881613235565b60078152665375636365737360c81b602082015290565b9190820180921161067c57565b600019811461067c5760010190565b91908110156131ad5760051b0190565b356001600160a01b03811681036103ad5790565b1561386657565b60405162461bcd60e51b815260206004820152601460248201527321b0b63632b91034b9903737ba1034b9b9bab2b960611b6044820152606490fd5b156138a957565b60405162461bcd60e51b8152602060048201526014602482015273446562656e74757265206e6f742061637469766560601b6044820152606490fd5b908160609103126103ad578051916040602083015192015190565b8181029291811591840414171561067c57565b60195460ff600e5416613925816130f5565b6001811480156139c4575b1561394c5750613948633b9aca009160275490613900565b0490565b613955816130f5565b600381149081156139b0575b50156139995761399690630f05370061398f61398361397e613dd8565b613e02565b610614600f5485613900565b049061381f565b90565b61399690630f05370061398f61398361397e613dd8565b600491506139bd816130f5565b1438613961565b506139ce816130f5565b60028114613930565b60ff600e54166139e6816130f5565b600181148015613ae1575b15613a2357506019546027549190633b9ac9ff1983019083821161067c57633b9aca0091613a1e91613900565b049190565b613a306060611adb613e14565b03915afa908115611cad57600091613ac1575b5060009081811315613aba57612710915004905b613a60816130f5565b60038114908115613aa6575b5015613a9c57600f54613a7e9161381f565b905b622673c0613a1e613a9384601954613900565b60115490613900565b50600f5490613a80565b60049150613ab3816130f5565b1438613a6c565b5090613a57565b613ad9915060603d8111611ca657611c968183613251565b505038613a43565b50613aeb816130f5565b600281146139f1565b600260065414613b05576002600655565b604051633ee5aeb560e01b8152600490fd5b15613b1e57565b60405162461bcd60e51b8152602060048201526014602482015273092dcecc2d8d2c840c6deeae0dedc40d2dcc8caf60631b6044820152606490fd5b6040516323b872dd60e01b60208201526001600160a01b03928316602482015292909116604483015260648083019390935291815260a081019181831067ffffffffffffffff84111761186057613bb392604052613bb5565b565b906000602091828151910182855af115611cad576000513d613c0857506001600160a01b0381163b155b613be65750565b604051635274afe760e01b81526001600160a01b039091166004820152602490fd5b60011415613bdf565b15613c1857565b60405162461bcd60e51b815260206004820152600a6024820152694e6f2062616c616e636560b01b6044820152606490fd5b60405163a9059cbb60e01b60208201526001600160a01b039092166024830152604480830193909352918152613bb391613c8382613219565b613bb5565b6001600160a01b031660009081526020819052604081205490918291828115613d26576040906026602052205490602254905b818310613cc757505050565b90919394613cd485613172565b50600681015460081c60ff1615613d1e57613d0b613d1792620f424061398f866106148660056004613d119901549101549061381f565b9661382c565b9461382c565b9190613cbb565b509493505050565b935083925050565b15613d3557565b60405162461bcd60e51b815260206004820152601560248201527443616c6c6572206973206e6f74207472757374656560581b6044820152606490fd5b6022548015613db357600019810190811161067c57613d9090613172565b5054601154620151809081810291818304149015171561067c576139969161381f565b50600a54601154620151809081810291818304149015171561067c576139969161381f565b6022548015613dfb57600019810190811161067c57613df690613172565b505490565b50600a5490565b420342811161067c5762015180900490565b60ff600e5416613e23816130f5565b60038114613ecb57613e34816130f5565b60048114613eaa57613e45816130f5565b60018114908115613e96575b50613e7757604051613e6281613235565b600581526453454c494360d81b602082015290565b604051613e8381613235565b600381526243444960e81b602082015290565b60029150613ea3816130f5565b1438613e51565b50604051613eb781613235565b60048152634947504d60e01b602082015290565b50604051613ed881613235565b60048152634950434160e01b602082015290565b613ef590613273565b5060ff601254169060038210156127d75760028203613f175760019150015490565b61271091613f315761394890600160085491015490613900565b6139489060016019549101549061390056fe114e74f6ea3bd819998f78687bfcb11b140da08e9b7d222fa9c1f1ba1f2aa122a26469706673582212205d36428b095397824176f8b820bf3d1929cff67b1c39cd92eb0cbf05461bfe4a64736f6c634300081400332f8788117e7eff1d82e926ec794901d17c78024a50270940304540a733656f0d55f448fdea98c4d29eb340757ef0a66cd03dbb9538908a6a81d96026b71ec47566de8ffda797e3de9c05e8fc57b3bf0ec28a930d40b0d285d93c06501cf6a090ce6d7b5282bd9a3661ae061feed1dbda4e52ab073b1f9285be6e155d9c38d4eca26469706673582212204a11873ac707c9501be78c3d8d368496727cf30ce05eb0c4d1d2028c5c7f677164736f6c63430008140033",
  "linkReferences": {},
  "deployedLinkReferences": {}
}